S01700004176616C696163616F312D6D656E752E7372656379
S214400000582B40203D174000ED174000ED174000AC
S214400010ED174000ED174000ED17400000000000CF
S214400020000000000000000000000000ED17400047
S214400030ED17400000000000ED174000ED174000AF
S214400040ED174000ED174000ED174000ED1740005B
S214400050ED174000ED174000ED174000ED1740004B
S214400060ED17400000000000750D40008D0D40006B
S214400070A50D4000ED17400031204000ED17400030
S214400080BD0D4000D50D4000ED174000ED17400077
S214400090ED174000ED174000ED174000ED1740000B
S2144000A0ED1F4000ED174000ED174000ED174000F3
S2144000B0ED174000ED174000ED174000ED174000EB
S2144000C0ED174000ED174000ED174000ED174000DB
S2144000D000000000ED17400000000000ED17400053
S2144000E0ED174000ED174000ED174000ED174000BB
S2144000F0ED174000ED174000ED174000ED174000AB
S214400100ED174000ED174000ED174000ED1740009A
S214400110ED17400000000000000000000000000056
S214400120ED174000ED174000ED174000ED1740007A
S214400130ED17400000000000ED174000ED174000AE
S21440014010B5054C237833B9044B13B10448AFF3CC
S21440015000800123237010BDB40940200000000039
S214400160D46F40000C4B43B10C480D4910B5AFF36B
S21440017000800C48036823B910BD0A48036833B9A9
S2144001807047094B002BF7D0BDE810401847064B88
S214400190002BF5D0184700BF00000000D46F400089
S2144001A0B8094020D46F40000000000080B582B0FF
S2144001B000AF78607B68072B31D801A252F823F055
S2144001C01D024000E1014000E9014000F10140000D
S2144001D0F9014000010240000902400013024000BD
S2144001E00020114B98471AE001200F4B984716E025
S2144001F000200E4B984712E010200C4B98470EE01C
S21440020020200A4B98470AE03E210020084B98479A
S21440021005E03E210120064B984700E000BF00BFA6
S2144002200837BD4680BD00BFED0E4000590F400068
S214400230C90F400080B582B000AF78607B68072B5E
S21440024026D801A252F823F0690240006D02400011
S2144002506D0240007F0240007F0240007F02400067
S2144002607F0240007F024000012312E00B4B98477C
S2144002700346002B14BF01230023DBB209E0084BE2
S21440028098470346002B14BF01230023DBB200E04F
S214400290002318460837BD4680BD00BF250F4000E6
S2144002A04110400080B483B000AF78607B68072B75
S2144002B025D801A252F823F0D9024000DF024000C0
S2144002C0E5024000EB024000EF024000F30240002F
S2144002D0F7024000FB0240004FF4FA4310E04FF4B0
S2144002E000430DE04FF400430AE0084B08E0084B9B
S2144002F006E0084B04E0074B02E0064B00E0002314
S21440030018460C37BD465DF8047B704700093D0033
S21440031000127A00001BB70080B582B000AF0346DB
S214400320FB7100BFFB791846054B9847034683F0A0
S2144003300103DBB2002BF5D100BF0837BD4680BDB8
S2144003403502400080B586B000AFF8607A603B600A
S2144003500B46FB727B68002B07D13B68002B04D111
S214400360FB684FF470021A6019E0FB7A18460E4B91
S214400370984702467B68B2FBF3F37B617B693A6839
S21440038002FB03F37B613B68013B1A04074B1340B7
S2144003907A68D2B2134343F47C52FB681A6000BFBB
S2144003A01837BD4680BD00BFA50240000000FF07CD
S2144003B080B582B000AF786039603B68002B08D1CA
S2144003C0094B9847094A7B681B6843F00053936281
S2144003D005E0064A7B681B6843F48033D36100BF60
S2144003E00837BD4680BD00BF5D10400000060E4089
S2144003F080B582B000AF78607B68002B03D1054B98
S2144004009847034602E0044B984703461846083789
S214400410BD4680BD791040009510400080B582B042
S21440042000AF0346FB71FB79033B042B08D8FB79EE
S2144004301846064B9847FB791846054B984700E008
S21440044000BF00BF0837BD4680BD00BFAD014000BD
S2144004501903400080B582B000AF786000BF78686E
S214400460044B98470346002BF9D00023184608371C
S214400470BD4680BDF103400080B500AF0620054B69
S2144004809847024613469B0013449A001344184666
S21440049080BD00BFA502400080B500AF024B984724
S2144004A00346184680BD00BF7904400090B583B02F
S2144004B000AF1348134B98470620134B9847381DF8
S2144004C0192301220621114CA0473B1D0021184646
S2144004D00F4B984700200F4B984702200E4B9847EB
S2144004E000200E4B98470E4B98470E4B98470346B6
S2144004F01846044B984700BF0C37BD4690BD00BF1A
S21440050000A3E1115D1940001D0440004503400072
S214400510B103400055044000ED0D4000690E400018
S214400520F51740009904400080B400AFBFF34F8FEA
S214400530BFF36F8F094B0022C3F85022074A074B80
S2144005405B6943F400335361BFF34F8FBFF36F8F44
S21440055000BFBD465DF8047B704700BF00ED00E07D
S21440056080B48BB000AF264BD3F88030FB61FB697C
S2144005705B0BC3F30E037B62FB6903F00703043394
S214400580BB61FB69DB08C3F309037B617B69BB6026
S214400590BB68B3FA83F37B607B68DBB203F01F0370
S2144005A03B61BFF34F8F7B693B623A6A3B6902FA15
S2144005B003F319467A6ABB6902FA03F30B43FB60FE
S2144005C00F4AFB68C2F860323B6A5A1E3A62002BFA
S2144005D0EBD17B6A5A1E7A62002BE4D1BFF34F8F71
S2144005E0074A074B5B6943F480335361BFF34F8F31
S2144005F0BFF36F8F00BF2C37BD465DF8047B704756
S21440060000ED00E080B582B000AF78607868034BBC
S214400610984700BF0837BD4680BD00BFB1104000B8
S21440062080B500AF0A20084B98470B20064B9847EA
S2144006300C20054B98471020034B98471120024B3F
S214400640984700BF80BD00BF0506400080B489B013
S21440065000AF78607B68FB61FB69BB61BB695A0988
S214400660FB697B617B6903F01F03012101FA03F3F9
S2144006703A61FB603B69BB60BA68064B13445B0259
S2144006801A46FB68536000BF2437BD465DF8047BBE
S214400690704700BF0707200080B48DB000AF786079
S2144006A039607B68FB623B68BB62FB6A7B627B6A45
S2144006B05A09FB6A3B623B6A03F01F03012101FAB9
S2144006C003F3FA61BB61BB6A7B61FB693B613A69D4
S2144006D0374B13445B02FB607B6903F00803002B37
S2144006E003D0FB68BA695A6602E0FB68BA691A66C4
S2144006F07B6903F01003002B04D0FB68BA69C3F88B
S214400700942003E0FB68BA69C3F890207B6903F045
S2144007102003002B03D0FB68BA691A6502E0FB6829
S214400720BA695A657B6903F0C003002B03D0FB68A7
S214400730BA691A6202E0FB68BA695A627B6903F0DA
S2144007408003002B04D0FB68BA69C3F8842003E01A
S214400750FB68BA69C3F880207B6903F00103002B6D
S21440076006D0FB681A6FBB691A43FB681A6706E037
S214400770FB681A6FBB69DB431A40FB681A677B69E4
S21440078003F00203002B06D0FB685A6FBB691A437E
S214400790FB685A6706E0FB685A6FBB69DB431A4042
S2144007A0FB685A6700BF3437BD465DF8047B704728
S2144007B00707200080B48DB000AF78600B46FB7012
S2144007C07B68FB62FB7887F82B30FB6A7B627B6A30
S2144007D03B623B6A5B09FB61FA69174B13445B0259
S2144007E0BB6197F82B30012B09D1FB6A7B617B6993
S2144007F003F01F0301229A40BB691A610CE097F888
S2144008002B30002B08D1FB6A3B613B6903F01F038A
S21440081001229A40BB695A61FB6AFB60FB6803F0A1
S2144008201F0301229A40BB69C3F8A02000BF34379B
S214400830BD465DF8047B70470707200080B48BB048
S21440084000AF78600B46FB707B687B62FB7887F86E
S21440085023307B6AFB61FB69BB61BB695B097B61DB
S2144008607A69104B13445B023B6197F82330002BA8
S21440087009D07B6AFB60FB6803F01F0301229A40A5
S2144008803B691A6308E07B6ABB60BB6803F01F03E2
S21440089001229A403B695A6300BF2C37BD465DF83B
S2144008A0047B70470707200080B48DB000AF7860A7
S2144008B00B46FB707B68FB62FB7887F82B30FB6A45
S2144008C07B627B6A5A09FB6A3B623B6A03F01F0302
S2144008D0012101FA03F3FA61BB6197F82B30FB75EF
S2144008E0FB693B613A69234B13445B02FB60FB7D2B
S2144008F0013B032B2ED801A252F823F031094000C9
S214400900430940000D0940001F094000FB68BA69D2
S214400910C3F8C420FB68BA69C3F8D0201FE0FB6860
S214400920BA69C3F8C420FB68BA69C3F8D42016E095
S214400930FB68BA69C3F8C020FB68BA69C3F8D02020
S2144009400DE0FB68BA69C3F8C020FB68BA69C3F813
S214400950D42004E0FB68BA69C3F8B42003E0FB681F
S214400960BA69C3F8B02000BF3437BD465DF8047B93
S214400970704700BF0707200080B400AFBFF34F8F1B
S214400980BFF36F8F0C4A0C4BD3F8903223F0010321
S214400990C2F89032084A084BD3F8943223F0010349
S2144009A0C2F89432BFF34F8FBFF36F8F00BFBD4680
S2144009B05DF8047B704700BF00ED00E080B500AFF7
S2144009C01E4B4FF400425A601D4B98471D4B9847AC
S2144009D01D4B1E4A5A601C4B1D4A5A601D4B984779
S2144009E01D4B9847012148201C4B98470121482021
S2144009F01B4B984700210B20184B984788210B200B
S214400A00184B984702210B20174B9847002115207A
S214400A10144B98471520154B9847154A144BD3F856
S214400A20143143F01003C2F81431032124200D4B37
S214400A30984724200D4B984700BF80BD50180E4065
S214400A402905400061054000000C0E400C08005A85
S214400A500C07005A7909400021064000B5074000BF
S214400A603D08400099064000A90840004D06400059
S214400A700080084080B485B000AFF860B9607A6006
S214400A807B68002B03D0FB68BA685A6602E0FB68B6
S214400A90BA681A6600BF1437BD465DF8047B7047D7
S214400AA080B483B000AF786039607B683A681A6378
S214400AB000BF0C37BD465DF8047B704780B483B0FA
S214400AC000AF786039607B683A685A6300BF0C377D
S214400AD0BD465DF8047B704780B487B000AFF860D1
S214400AE0B9607A60FB687A685A64BB68B3F1C05FE5
S214400AF04AD0B3F1C05F08D8B3F1006F16D0B3F157
S214400B00805F2CD0002B69D064E0B3F1205F65D0C5
S214400B10B3F1205F03D8B3F1005F4AD05AE0B3F197
S214400B20405F5BD0B3F1605F58D053E0FB681B6F0B
S214400B307B61FB681A6F7B68D9437B690B401A4020
S214400B40FB681A67FB685B6F7B61FB685A6F7B6864
S214400B50D9437B690B401A40FB685A673AE0FB680A
S214400B601B6F7B617A687B691A43FB681A67FB6870
S214400B705B6F7B61FB685A6F7B68D9437B690B4030
S214400B801A40FB685A6725E0FB681B6F7B61FB6871
S214400B901A6F7B68D9437B690B401A40FB681A671B
S214400BA0FB685B6F7B617A687B691A43FB685A67B0
S214400BB010E0FB681B6F7B617A687B691A43FB68B1
S214400BC01A67FB685B6F7B617A687B691A43FB68D0
S214400BD05A6700BFFB687A685A6000E000BF1C375F
S214400BE0BD465DF8047B704780B584B000AFF860C2
S214400BF0B9607A603B60B968F868124B9847BA6942
S214400C00B968F868104B98473B68002B03D0FB68E0
S214400C10BA681A6502E0FB68BA685A657B68002BBA
S214400C2003D0FB68BA681A6302E0FB68BA685A6386
S214400C30FB68BA681A61FB68BA681A6000BF10376A
S214400C40BD4680BD750C4000750A400080B483B038
S214400C5000AF786039607B689A6B3B681340002B26
S214400C6001D1002300E0012318460C37BD465DF84D
S214400C70047B704780B483B000AF786039607B688F
S214400C803A685A6400BF0C37BD465DF8047B70472F
S214400C9080B483B000AF78607B68DB6C18460C3756
S214400CA0BD465DF8047B704780B483B000AF786083
S214400CB07B689B6C18460C37BD465DF8047B7047D6
S214400CC080B584B000AF786039607868264B984726
S214400CD0F8607868254B98470246FB681340FB60EF
S214400CE0FB68002B3CD00023BB6034E0204ABB6846
S214400CF01B0113441A683B689A4226D11C4ABB68BB
S214400D001B01134404331A68FB681340002B1CD0A5
S214400D10174ABB681B0113440C331B681449BA6856
S214400D2012010A4410681249BA6812010A44043291
S214400D301268114698470E4ABB681B011344043399
S214400D401B68DB43FA681340FB60BB680133BB603B
S214400D50BB68062B03D8FB68002BC7D100E000BF5A
S214400D6000BF1037BD4680BD910C4000A90C400026
S214400D70D009402080B500AF0A210248024B984770
S214400D8000BF80BD000E0E40C10C400080B500AFD5
S214400D900B210248024B984700BF80BD00100E4012
S214400DA0C10C400080B500AF0C210248024B98476A
S214400DB000BF80BD00120E40C10C400080B500AFA1
S214400DC010210248024B984700BF80BD00140E40D9
S214400DD0C10C400080B500AF11210248024B984735
S214400DE000BF80BD00160E40C10C400080B483B0EA
S214400DF000AF78607B68013B032B1AD801A252F8FB
S214400E0023F000BF150E40001B0E4000230E40008E
S214400E102B0E400000237B600EE04FF480737B6017
S214400E200AE04FF440737B6006E04FF400737B604B
S214400E3002E000237B6000BF0A490A4B1B6B23F489
S214400E4040727B6813430B6300BF064B9B6E03F0F8
S214400E500803002BF9D000BF0C37BD465DF8047B75
S214400E60704700BF00060E4080B485B000AF786083
S214400E701D491D4B1B6B23F070027B6813430B63AD
S214400E804FF48053FB6007E0FB68002B01D1012341
S214400E9023E0FB68013BFB60134B9B6E03F00803AB
S214400EA0002BF1D0104A104B1B6B23F0030343F08A
S214400EB0020313634FF48053FB6007E0FB68002B8C
S214400EC001D1012309E0FB68013BFB60064B9B6EAA
S214400ED003F00803002BF1D0002318461437BD4614
S214400EE05DF8047B704700BF00060E4080B483B0B8
S214400EF000AF78607B68012B05D10749064B9A689E
S214400F00064B13438B60044B054A1A6000BF0C37F0
S214400F10BD465DF8047B704710180E40000010A5D3
S214400F20080000A580B400AF094B5B6903F080035E
S214400F30002B07D0074B9B6E03F08003002B01D09D
S214400F40012300E000231846BD465DF8047B704749
S214400F5010180E4000060E4080B483B000AF786094
S214400F601549154B1A6A154B13430B6200BF124BBB
S214400F709B6E03F40033002BF9D00F490E4B1A6AD0
S214400F800F4B13407A68134343F45C130B6200BF65
S214400F90094B9B6E03F40033002BF9D00649064BF1
S214400FA01A6A084B134043F45C130B6200BF0C37BD
S214400FB0BD465DF8047B704700060E4008003700CB
S214400FC08FFFC8FFFFFFC8FE80B483B000AF7860D5
S214400FD039607B68002B08D01349134B1B6A134AB1
S214400FE01A40134B13430B6218E00F490E4B1A6A14
S214400FF0104B13403A68120292B21A430E4B1343F8
S2144010000B6200BF084B9B6E03F00103002BF9D028
S2144010100549054B1A6A094B13430B6200BF0C3750
S214401020BD465DF8047B704700060E40FCFFC8FED8
S21440103002003701FCFFC8FF0100370000003701FF
S21440104080B400AF044B9B6E03F480331846BD4615
S2144010505DF8047B704700BF00060E4080B400AFCA
S214401060044B4FF000529A6200BFBD465DF8047BC9
S214401070704700BF00060E4080B400AF044B9B6E26
S21440108003F002031846BD465DF8047B704700BF78
S21440109000060E4080B400AF044B9B6E03F0400346
S2144010A01846BD465DF8047B704700BF00060E40FC
S2144010B080B483B000AF78607B683F2B01D90123B2
S2144010C02FE07B681F2B13D8194B9A6901217B6848
S2144010D001FA03F31A4001217B6801FA03F39A42AE
S2144010E01ED0134A01217B6801FA03F3136117E00F
S2144010F07B68203B7B600E4BD3F8082101217B6840
S21440110001FA03F31A4001217B6801FA03F39A427D
S21440111006D0074A01217B6801FA03F3C2F8003182
S214401120002318460C37BD465DF8047B704700BF69
S21440113000060E4080B487B000AFF860B9607A60B1
S2144011403B60FB689B687B6102E0FB689B687B6159
S214401150FB689A687B699A42F7D1BB68002B1CD023
S2144011607B691B0C03F03F033B613B691A0913463E
S2144011709B0013445B001A463B6903F00F031A4476
S214401180BB681A607B6903F48003002B05D0BB68FC
S2144011901B6803F10C02BB681A607B68002B11D0F9
S2144011A07B691B0A03F07F033B613B691A091346C0
S2144011B09B0013445B001A463B6903F00F031A4436
S2144011C07B681A603B68002B10D07B6903F07F0376
S2144011D03B613B691A0913469B0013445B001A4661
S2144011E03B6903F00F031A443B681A6000BF1C3784
S2144011F0BD465DF8047B704780B487B000AFF860AA
S214401200B9607A60FA68BB689B0113447B617B696E
S21440121002221A607B694FF0FF329A627B691B6A32
S2144012207B697A685A6000BF1C37BD465DF8047B10
S214401230704780B483B000AF786039607A683B68A6
S2144012409B01134405221A6000BF0C37BD465DF86B
S214401250047B704780B485B000AFF860B9607A60B0
S214401260FA68BB689B0113441C337A681A6000BF57
S2144012701437BD465DF8047B704780B487B000AF36
S214401280F860B9607A60FA68BB689B0113447B617A
S2144012907B697A685A6200BF1C37BD465DF8047B9E
S2144012A0704780B485B000AF786039607A683B6834
S2144012B09B011344FB60FB681B6A18461437BD4607
S2144012C05DF8047B704780B48DB000AFF860B960BD
S2144012D07A603B6002233B6108237B612023BB612D
S2144012E08023FB61BB6BDB0B3B620023FB621AE097
S2144012F0FB6A9B0007F13002134453F8203CBA685F
S214401300B2FBF3F3BB62BB6A1B0C7B62FA68BB6A38
S2144013109A4201D9002323E0FA687B6A9A4206D2B1
S214401320FB6A0133FB62FB6A042BE1D900E000BF95
S214401330FB6A042B01D9002312E07B68002B08D0FF
S214401340FB6A9B0007F13002134453F8202C7B685D
S2144013501A603B68002B02D03B68FA6A1A60012389
S21440136018463437BD465DF8047B704780B483B07A
S21440137000AF78607B685B6903F40073002B14BF92
S21440138001230023DBB218460C37BD465DF8047BCC
S214401390704780B483B000AF78600B46FB707B68C4
S2144013A05B6903F00203002B01D1012303E0FA78C6
S2144013B07B68DA61002318460C37BD465DF8047B2F
S2144013C0704780B483B000AF786039607B685B69F3
S2144013D003F00103002B01D1012305E07B689B69E4
S2144013E0DAB23B681A70002318460C37BD465DF8E3
S2144013F0047B704780B489B000AFF860B9607A600B
S214401400BB681A017B689A4202D81023FB6101E050
S2144014100823FB617B68DA00FB69B96801FB03F3CC
S2144014205B081A44FB69B96801FB03F3B2FBF3F3AC
S214401430BB61BB69DB087B61BB6903F007033B61AB
S2144014407B69002B03D07B69B3F5803F01D3012332
S2144014500FE0FB69082B05D1FB685B6843F400226C
S214401460FB685A603B691A047B691A43FB681A6238
S214401470002318462437BD465DF8047B70470000BD
S21440148080B582B000AF786078680D4B98477B682F
S21440149000225A607B6800225A627B6800229A6269
S2144014A07868084B98477868074B98477868074BA2
S2144014B098477868064B984700BF0837BD4680BDBA
S2144014C09516400073154000A7154000F5154000DE
S2144014D01116400080B584B000AFF860B9607A60FD
S2144014E0F8681A4B98471A4B00221A60BB68002BC4
S2144014F009D0BB681B687A681946F868154B984748
S2144015000346002B01D001231BE0BB685A68BB682A
S2144015109B681A43BB681B691A43BB68DB681A435F
S2144015200B4B1B6813430A4A1360094B1B68084A57
S2144015301360FB685A68064B1B681A43FB685A6080
S214401540002318461037BD4680BD00BF81144000BA
S214401550400A4020F513400080B483B000AF786066
S2144015607B6840221A6000BF0C37BD465DF8047B9E
S214401570704780B483B000AF78607B6888221A607A
S21440158000BF0C37BD465DF8047B704780B483B01F
S21440159000AF78607B6810221A6000BF0C37BD46EB
S2144015A05DF8047B704780B483B000AF78607B689A
S2144015B024221A6000BF0C37BD465DF8047B704796
S2144015C080B483B000AF786039607B683A689A60D0
S2144015D000BF0C37BD465DF8047B704780B483B0CF
S2144015E000AF78607B685B6918460C37BD465DF88F
S2144015F0047B704780B483B000AF78607B684FF45C
S21440160080721A6000BF0C37BD465DF8047B704799
S21440161080B483B000AF78607B684FF400221A60D5
S21440162000BF0C37BD465DF8047B704780B483B07E
S21440163000AF786039607B685B6903F00203002B7B
S21440164001D1012305E03B68C3F308027B68DA61F9
S214401650002318460C37BD465DF8047B704780B4BF
S21440166083B000AF786039607B685B6903F0010344
S214401670002B01D1012306E07B689B69C3F3080277
S2144016803B681A60002318460C37BD465DF8047B5D
S2144016907047000080B483B000AF78607B68044A2F
S2144016A0C3F8E42000BF0C37BD465DF8047B7047A6
S2144016B00041535580B483B000AFEFF310837B6096
S2144016C07B68002B0CBF01230023DBB23B6072B665
S2144016D0BFF35F8F044B00221A703B6818460C37E6
S2144016E0BD465DF8047B70470000402080B483B060
S2144016F000AF78607B68002B14BF01230023DBB269
S21440170018460C37BD465DF8047B704780B582B0FE
S21440171000AF78607868074B98470346002B05D0A3
S214401720054B01221A70BFF35F8F62B600BF0837C1
S214401730BD4680BDED1640000000402080B584B018
S21440174000AF1E4BFB601E4BBB60FA68BB689A42FC
S2144017500CD007E0BB681A1DBA60FA68111DF96024
S21440176012681A60BB68174A9342F3D3164BBB60A5
S21440177004E0BB681A1DBA6000221A60BB68134AB0
S2144017809342F6D3124BFB60124AFB6823F07F036A
S2144017909360114B98477860104A104B1B6843F48F
S2144017A070031360BFF34F8FBFF36F8F78680C4B97
S2144017B098470C4B98470C4B9847FEE7D46F400031
S2144017C000004020B4094020B4094020540B40207B
S2144017D00000400000ED00E0B516400088ED00E057
S2144017E00D174000FD214000A520400080B400AF0A
S2144017F0FEE7000080B400AF524B1B6B03F00303C0
S214401800012B14D0012B02D3022B38D07AE04E4B5A
S2144018105B6903F08003002B04D04C4B4FF400422E
S2144018201A606FE0494B4FF4FA421A606AE0454B43
S2144018301B6A03F08073002B03D0444B444A1A6063
S21440184060E0424B434A1A603E4B1B6A03F070030B
S214401850102B04D0202B08D0002B0ED00EE03B4B94
S2144018601B685B00394A136008E0384B1A68134619
S2144018705B001344354A136000E000BF42E0314B42
S2144018801B6A03F08073002B03D0304B304A1A603B
S2144018901CE02E4B2F4A1A602A4B1B6A03F070033B
S2144018A0102B04D0202B08D0002B0ED00EE0274B58
S2144018B01B685B00254A136008E0244B1A681346F1
S2144018C05B001344214A136000E000BF1D4B1B6BB6
S2144018D003F00303022B14D11A4B9B6A1B0CC3F371
S2144018E00A030133194A126802FB03F3174A1360CE
S2144018F0144B9B6ADBB2154A1268B2FBF3F3134AE9
S214401900136000BF0F4B1B6B03F07003702B08D1A6
S2144019100E4B1B68104AA2FB03235B080B4A13605E
S2144019200AE0084B1B6B1B0903F00703074A1268C3
S21440193022FA03F3054A136000BFBD465DF8047BF8
S214401940704700BF00060E4010180E4004004020AE
S214401950001BB70000093D00ABAAAAAA80B483B01A
S21440196000AF78607B68194A934204D8184B4FF012
S21440197080621A6023E07B68164A934203D8144B71
S214401980154A1A601BE07B68144A934203D8104BF2
S214401990134A1A6013E07B68124A934203D80C4BF2
S2144019A0114A1A600BE07B68104A934204D8084BF1
S2144019B04FF004221A6002E0054B0D4A1A6000BF41
S2144019C00C37BD465DF8047B704700BFFF2C3101E5
S2144019D0000C0E40FF59620200010004FF8693038C
S2144019E000020004FFB3C40400030004FFE0F50552
S2144019F00005000480B485B000AF7860104BFB60F3
S214401A00104B1B68002B02D10E4B0F4A1A600D4B31
S214401A101B68BB60BA687B681A44FB689A4202DD62
S214401A204FF0FF3306E0074B1A687B681344054ABD
S214401A301360BB6818461437BD465DF8047B704794
S214401A40FCFF4520440A4020582D402080B483B0F7
S214401A5000AF0346FB71094997F907305B09FA79ED
S214401A6002F01F02012000FA02F241F8232000BFD4
S214401A700C37BD465DF8047B704700BF00E100E0D0
S214401A8080B483B000AF78607B68072B25D801A26E
S214401A9052F823F0B51A4000BB1A4000C11A400065
S214401AA0C71A4000CB1A4000CF1A4000D31A400055
S214401AB0D71A40004FF4FA4310E04FF400430DE0CD
S214401AC04FF400430AE0084B08E0084B06E0084B9A
S214401AD004E0074B02E0064B00E0002318460C37B4
S214401AE0BD465DF8047B704700093D0000127A0051
S214401AF0001BB70080B500AF0620054B984702464E
S214401B0013469B0013449A001344184680BD00BFFA
S214401B10811A400080B500AF024B984703461846EE
S214401B2080BD00BFF51A400080B500AF024B984715
S214401B3003465B08184680BDF51A400080B582B063
S214401B4000AF78607868034B984700BF0837BD46BB
S214401B5080BD00BFB110400080B582B000AF786055
S214401B600B46FB707B68364A93420AD100BFFB782F
S214401B7019467868334B98470346002BF7D1012324
S214401B805AE07B68304A93420AD100BFFB78194638
S214401B9078682C4B98470346002BF7D101234BE03F
S214401BA07B682A4A93420AD100BFFB781946786878
S214401BB0244B98470346002BF7D101233CE07B6833
S214401BC0234A93420AD100BFFB78194678681D4BDA
S214401BD098470346002BF7D101232DE07B681D4A2A
S214401BE093420AD100BFFB78194678681A4B98474B
S214401BF00346002BF7D101231EE07B68174A934229
S214401C000AD100BFFB7819467868134B98470346BD
S214401C10002BF7D101230FE07B68114A93420AD18B
S214401C2000BFFB78194678680B4B98470346002B55
S214401C30F7D1012300E0002318460837BD4680BD93
S214401C4000080E4093134000000A0E40001A0E4053
S214401C50001C0E40004002402D164000008002400E
S214401C6000C0024080B584B000AF78603960002381
S214401C70FB607B68344A934207D100BF3968786876
S214401C80324B98470346002BF8D17B68304A934244
S214401C9007D100BF396878682C4B98470346002B1D
S214401CA0F8D17B682B4A934207D100BF39687868E1
S214401CB0264B98470346002BF8D17B68264A93422A
S214401CC007D100BF39687868204B98470346002BF9
S214401CD0F8D17B68214A93420DD100BF07F10C032F
S214401CE0194678681E4B98470346002BF6D1FB688A
S214401CF0DAB23B681A707B681A4A93420DD100BF2D
S214401D0007F10C0319467868154B98470346002B95
S214401D10F6D1FB68DAB23B681A707B68124A934287
S214401D200DD100BF07F10C03194678680C4B984755
S214401D300346002BF6D1FB68DAB23B681A7000BF48
S214401D401037BD4680BD00BF00080E40C31340009C
S214401D50000A0E40001A0E40001C0E400040024092
S214401D605F1640000080024000C0024080B500AFD1
S214401D700C480D4B98470D480B4B98470C480A4B60
S214401D8098470C48084B98470B48074B98470B48D2
S214401D90054B98470A48044B98470A48024B9847D1
S214401DA000BF80BD286C4000091E4000446C4000C7
S214401DB0586C4000746C4000906C4000A86C40002A
S214401DC0B46C4000C86C400080B582B000AF78600C
S214401DD0396039687868094B98470346002B04D029
S214401DE039687868064B984703E039687868054B49
S214401DF0984700BF0837BD4680BD00BF4D0C400029
S214401E00BD0A4000A10A400080B584B000AF7860AB
S214401E100023FB6010E0FB685A1CFA607A681344A3
S214401E201B7819460A480B4B984700BF08480A4B90
S214401E3098470346002BF9D07A68FB6813441B7812
S214401E40002BE8D1FB6818461037BD4680BD00BF62
S214401E5000800240591B40006D13400090B585B08D
S214401E6002AF78600C20074B98477A6800230093AF
S214401E7000234FF480710448044CA04700BF0C3741
S214401E80BD4690BDB110400000120E40E90B400028
S214401E9080B586B000AF0B20224B98470A20214BD6
S214401EA0984710224FF000511F48204B98474FF458
S214401EB000124FF000611E481C4B98471D4A1D4BB0
S214401EC0D3F8143143F01003C2F814313B460022D5
S214401ED01A605A609A60DA601A615A614FF4E133C8
S214401EE03B60C0237B604FF40063BB600E200D4B0D
S214401EF09847114B984702463B4619460F48104BA9
S214401F0098470E480F4B98470C480F4B984701216F
S214401F100A480E4B98470E200D4B984700BF18377F
S214401F20BD4680BD3D1B400000100E40D90A400013
S214401F30000E0E4000800840291B400000800240F2
S214401F40D5144000591540008D154000C11540007D
S214401F504D1A400090B589B002AF78601A4B98474A
S214401F6078611820194B984707F10C0107F11002C9
S214401F707B6900930B4679697868154CA047FB68E7
S214401F8043F480431A4601211248134B98473B6955
S214401F907A69B2FBF3F27B68B2FBF3F31A4601218F
S214401FA00C480E4B984718200D4B9847102201219D
S214401FB008480C4B9847012106480B4B984700BFF2
S214401FC01C37BD4690BD00BF151B4000B1104000F9
S214401FD0C712400000C00040F911400055124000B2
S214401FE04D1A40007B1240003312400080B582B04C
S214401FF000AF012109480A4B984703467B607B683F
S214402000084B1B68002B04D04FF480710648074BE2
S214402010984700BF0837BD4680BD00BF00C000409F
S214402020A3124000500A402000120E40C91D400036
S21440203080B582B000AF1548154B984778600023AE
S214402040FB707B6803F00103002B1BD0FB1C19467A
S2144020500E48104B9847FB780A2B08D00E4B1B684F
S2144020605A1C0D490A60F9780C4AD1540AE00A4BCA
S2144020701B680A4A0021D154094B01221A60064BBC
S21440208000221A6000BF0837BD4680BD008002406F
S214402090DD154000651C4000480A4020880A402064
S2144020A04C0A402090B589B002AF404B9847404B11
S2144020B09847404B4FF400425A603F4B98470A209F
S2144020C03E4B984700203E4B98473E4B98473E4BEA
S2144020D001221A600A237B613C4B1B68002BFBD015
S2144020E03B4B1B78312B0AD1374B1B68002B0CBF60
S2144020F001230023DBB21A46334B1A6052E0344BBE
S2144021001B78322B06D17B6902337B6178692B4B77
S214402110984747E02E4B1B78332B06D17B69023B12
S2144021207B617869254B98473CE0294B1B78342BDC
S2144021301DD12848284B9847244B00221A6000BFE0
S214402140224B1B68002BFBD02148234B9847234843
S214402150214B98471B4B98471C4B00221A601C4843
S2144021601F4B984703461846144B98471AE0184B9F
S2144021701B78352B14D13B1D07F1080207F10C01E3
S2144021801848194CA047FA68B9687B6800930B4614
S21440219016493869164CA04738690F4B984701E0F6
S2144021A0084B9847094B00221A6095E7BD09400046
S2144021B0AD04400050180E40911E4000551F400090
S2144021C05D1E40006D1D4000500A40204C0A4020D5
S2144021D0880A4020E86C4000091E4000046D40001C
S2144021E0F521400060180E4035114000086D400053
S2144021F0E92240000A22002100F030B970B50F4EA7
S2144022000F4D761BB61018BF002405D0013455F884
S214402210043B9847A642F9D10A4E0B4D761B04F074
S214402220C3FEB61018BF002406D0013455F8043B50
S2144022309847A642F9D170BD70BD00BFB46F40004C
S214402240B46F4000BC6F4000B46F400070B4860767
S21440225046D0541E002A41D0CAB2034602E014F1CA
S214402260FF343BD303F8012B9D07F8D1032C2ED91E
S214402270CDB245EA05250F2C45EA054519D903F1A7
S21440228010022646103E0F2E42F8105C42F80C5CB8
S21440229042F8085C42F8045C02F11002F2D8A4F15D
S2144022A0100222F00F0204F00F041032032C1344E5
S2144022B00DD91E462246043A032A46F8045BFAD84D
S2144022C0221F22F003020432134404F003042CB10C
S2144022D0C9B21C4403F8011B9C42FBD170BC70473A
S2144022E014460346C2E700BF0EB4F0B59CB021AB1F
S2144022F00F4953F8042B019305466FF000440868D5
S21440230002954FF402774FF6FF7602A90695ADF890
S214402310147004940794ADF8166000F0B5F8029B6C
S21440232000221A701CB0BDE8F04003B0704700BFF2
S214402330080040202DE9F84FDDF828900F468046EB
S21440234016461D468A4600E0A2465446484614F8BD
S21440235001BB02F0A9FA5844427812F00802F3D1C1
S214402360BBF12D0F4FD0BBF12B0F04BF94F800B03C
S2144023700AF102041DB1102D56D0AC4604E0BBF164
S214402380300F60D00A25AC46002A0CBF6FF00049DB
S2144023904FF000490021B9FBFCFE08460CFB1E9A94
S2144023A005E029D00CFB0030012114F801BBABF14D
S2144023B03003092B05D9ABF14103192B0BD8ABF1F0
S2144023C037039D420FDDB1F1FF3FEED08645E8D2A0
S2144023D04FF0FF31E9E7ABF16103192B03D8ABF1BE
S2144023E057039D42EFDC4B1C13D002B1404246B12E
S2144023F0C1B93760BDE8F88F9A45D3DA4FF0FF3160
S214402400D3E7BDE8F88F94F800B001220AF1020441
S214402410B0E72223C8F80030EEB1671E4846376062
S214402420BDE8F88F8146F8E7BBF1300FA5D1237899
S21440243003F0DF03582BA0D14FF0100C94F801B0F6
S21440244065460234A0E7237803F0DF03582BF3D029
S2144024500825AC4698E74846BDE8F88F30B5084CA6
S214402460084B25686C6B83B0002C08BF1C46009454
S21440247013460A4601462846FFF75CFF03B030BDC8
S21440248008004020380440202DE9F04FC3B00C46E9
S2144024900B9192460F930C9002F00AFA03681A9337
S2144024A0184603F0EDF8A3891990190603D5236959
S2144024B0002B01F0018000230DF1C80913931493FB
S2144024C015932793269318931B930993CDF89490CE
S2144024D0C846169317939AF800305446E3B1252B16
S2144024E002D119E0252B03D014F8013F002BF9D177
S2144024F0A4EB0A0585B1269B279AC8F800A00133AD
S2144025002A44072BC8F80450279226937FDC08F10C
S2144025100808099B2B4409932378002B7FD000237F
S2144025201A468DF8773019460D939B464FF0FF308C
S21440253063780A9004F1010A0AF1010AA3F1200027
S214402540582800F2C083DFE810F03802BE03BE030E
S2144025504002BE03BE03BE03BE03BE03BE03450227
S2144025600302BE035D006B02BE0386029C039C030F
S2144025709C039C039C039C039C039C039C03BE03FC
S214402580BE03BE03BE03BE03BE03BE03BE03BE03FE
S214402590BE0337035703BE035703BE03BE03BE0343
S2144025A0BE039703BE03BE03AC03BE03BE03BE0317
S2144025B0BE03BE035902BE03BE031E03BE03BE03D4
S2144025C0BE03BE03BE03BE03BE03BE03BE03BE03BE
S2144025D0C602DB025703570357038B02DB02BE03D8
S2144025E0BE039002BE039D02CC01B4020802BE03A5
S2144025F0E101BE037E00BE03BE030D020D980F939D
S21440260040420D904BF0040B9AF8003094E725AA10
S2144026100B990C9803F0A2F840B9C84679E7279B77
S21440262023B10C980B9925AA03F098F80B9B9B892D
S21440263013F0400F099B18BF4FF0FF3309930998DA
S21440264043B0BDE8F08F1BF0200F119340F0DD81C2
S2144026500F9A1BF0100F134640F06C851BF0400F8E
S21440266000F0688514880432002501230F92002765
S2144026708DF877700A994A1C00F065822BF080022C
S214402680079254EA050240F06482002940F03984FB
S214402690002B40F0D4841BF001030E9300F002861A
S2144026A042AE302306F8413D0A9B0E9A9342B8BF8D
S2144026B0134608930023129317B1089B01330893DF
S2144026C0079B13F00203109302D0089B0233089333
S2144026D0079B13F0840540F00D830D9B089AA3EBEF
S2144026E0020BBBF1000F40F30583BBF1100F279C94
S2144026F0269A29DD43462146A84610270C9C0B9D6A
S21440270006E0ABF1100BBBF1100F03F1080318DD28
S2144027100132B74826921031072A279183E8810074
S214402720EFDD25AA2946204603F018F800287FF456
S2144027307DAFABF1100BBBF1100F2799269A4B4695
S214402740E6DC45460C4698460132A94B26925C4448
S214402750072A279488E8080800F395849DF8777040
S21440276008F1080877B1269B013301340DF1770153
S2144027700122072B2794269388E8060000F3D88387
S21440278008F10808109B6BB1269B013302341EA942
S2144027900222072B2794269388E8060000F3D3836B
S2144027A008F10808802D00F013830A9B0E9A9F1AA2
S2144027B0002F36DD102F269B8E4D27DD42462146C4
S2144027C0B0464FF0100B2E460C9C0B9D04E0103F7D
S2144027D0102F02F1080215DD01331031072B279127
S2144027E0269382E84008F2DD25AA2946204602F0D4
S2144027F0B5FF00287FF41AAF103F102F2799269B6D
S2144028004A46E9DC35460C464646904601333C444B
S214402810072B2794269388E8A00000F37E8308F1D0
S2144028200808079BDF0500F16782269B0E99C8F8CB
S214402830006001330C44072B2794C8F804102693F5
S21440284000F34A8308F10808079B5B073AD50D9BBF
S214402850089A9D1A002D35DD102D269B20DD10266A
S2144028600C9FDDF82CB004E0103D102D08F1080850
S21440287016DD01335E4A26931034072B279488E8EA
S2144028804400F1DD25AA5946384602F067FF002885
S2144028907FF4CCAE103D102D279C269BC846E8DC26
S2144028A00133534A26932C44072B279488E8240068
S2144028B008DD25AA0B990C9802F050FF00287FF4FB
S2144028C0B5AE279C099B0D9A08998A42ACBF9B18C7
S2144028D05B180993002C40F00A8300232693C846D1
S2144028E0F9E511931BF0200340F0E2811BF0100243
S2144028F040F02C841BF0400300F028840F991346C8
S2144029000A4604320C880F920025B0E60F9A1193BF
S214402910166800248DF87740151D002E00F0A58619
S2144029200A9A531C00F007862146304602F098FA71
S214402930002800F0DF86831B0E930A940F95CDF88F
S2144029401CB023EAE373089312949DF87770B3E6BD
S2144029509AF8003001222B21EEE54BF0200B9AF836
S2144029600030E9E51193002A40F08D87224B1893FA
S2144029701BF0200F40F011810F9A1BF0100F1346EA
S21440298040F0DF831BF0400F00F0DB8304331488F5
S2144029900F9300251BF0010F00F00C8154EA05034D
S2144029A000F0088130239DF844208DF878308DF86B
S2144029B079204BF0020B022359E69AF800300029A2
S2144029C07FF4BAAD01222021B6E54BF0010B9AF810
S2144029D00030B1E50F9C23680D9318460028234627
S2144029E003F10403FFF60AAE0F939AF80030A3E50E
S2144029F0646D4000746D4000446D40004BF0100B19
S214402A001BF0200F11933FF423AE0F9D073525F0A2
S214402A10070303F10802D3E900450F92012326E697
S214402A209AF800302A2B0AF1010400F01F87A3F120
S214402A3030000928A24600F2AB8600231C461AF84E
S214402A40013B04EB840400EB4404A3F13000092866
S214402A50F5D90A9472E54BF0800B9AF800306BE596
S214402A604BF0400B9AF8003066E59AF800306C2B35
S214402A7003BF9AF801304BF0200B0AF1010A4BF0E5
S214402A80100B59E5002A40F009871BF0200F40F054
S214402A90F7841BF0100F40F0AA841BF0400F00F0A4
S214402AA0A6840F9A136804320F92BDF824201A8029
S214402AB011E50F99B24B0C681893302278230431F5
S214402AC08DF8793011934BF0020B0F9100258DF85D
S214402AD078200223CBE50F9911930A688DF8A02041
S214402AE000230A461F468DF87730043201230893A8
S214402AF0CDF81CB00A9712970F920E9328AEDFE5DA
S214402B001193002A40F0E2861BF0200F5DD11BF0A7
S214402B10100F40F006831BF0400F00F002830F9921
S214402B20B1F900400431E51722462B460F91002AA2
S214402B3073F1000358DB0A999DF877704A1C4FF0F2
S214402B4001037FF49BAD54EA050200F0DC81CDF82A
S214402B501CB0012B00F07882022B40F003821898BC
S214402B604E46230904F00F0143EA05732A091C4622
S214402B701546435C06F8013D54EA0503F1D1A9EB3E
S214402B8006030E9390E51193002A40F09B867D4BFA
S214402B9018931BF0200F3FF4EFAE0F9D073525F03E
S214402BA0070303F108021BF0010F0F92D3E900451B
S214402BB07FF4F4AE02235AE51193002A40F07E8655
S214402BC04BF0100B1BF0200FA1D00F9D073525F0C2
S214402BD00705D5E90023002A05F108011D4673F1D3
S214402BE000030F911446A6DA2D27644265EB45058F
S214402BF08DF8777001233DE51193002A40F05A8600
S214402C000F9D073525F0070303F108020F921A6857
S214402C1014925B681593159B149D23F00044284638
S214402C2021464FF0FF32584B03F038FE002840F064
S214402C304883284621464FF0FF32534B03F010FEA0
S214402C40002840F03E8314A80FC803F0FFFD00287C
S214402C5040F02F859DF877704C4E4D4B2BF0800002
S214402C60079011980322002108920A914728D8BF5E
S214402C701E460E9212911FE54BF0080B9AF8003054
S214402C805AE4A3F1300000231C461AF8013B04EB3B
S214402C90840400EB4404A3F130000928F5D90D94D0
S214402CA04CE44BF0100B11931BF020033FF41EAE88
S214402CB00F9D073525F0070303F10802D3E90045C9
S214402CC00F920023D3E41193002A40F0E085119A36
S214402CD0002A3FF4A4AC002301211F4608918DF83A
S214402CE0A020CDF81CB08DF877300A9312930E9141
S214402CF028AEE5E4279C35E5119B652B40F3A6807E
S214402D0014A80FC803F098FD002800F04F81269BBA
S214402D10204AC8F80020013301340122072B2794AB
S214402D202693C8F8042000F36A8308F108081F9B1E
S214402D30139A279C934203DB079BDD077FF584AD00
S214402D40269B19991A9AC8F8002001330C44072B81
S214402D50C8F804102794269300F39E8308F10808C9
S214402D60139B5E1E002E7FF76FAD102E269B0A4DDE
S214402D7040F3F58122461027DDF830B00B9C13E077
S214402D80446D4000306D4000FFFFEF7F246D4000F3
S214402D90206D4000606D4000746D400008F10808EA
S214402DA0103E102E40F3DA8101331032072B279263
S214402DB0269388E8A000F1DD25AA2146584602F071
S214402DC0CDFC00287FF432AC279A269BC846E7E71E
S214402DD00D9B089A9F1A002F7FF7E7AC102F269B73
S214402DE0B64D27DD42462146B0464FF0100B2E46E4
S214402DF00C9C0B9D04E0103F102F02F1080215DDDD
S214402E0001331031072B2791269382E84008F2DDE4
S214402E1025AA2946204602F0A1FC00287FF406ACED
S214402E20103F102F2799269B4A46E9DC35460C462C
S214402E304646904601333C44072B2794269388E821
S214402E40A00000F3328208F10808AEE4139B269FE8
S214402E50012B40F3FE81013701340123072F2794CD
S214402E602697C8F80060C8F8043000F3038208F1DB
S214402E700808199A1A9BC8F8003001371444072FDF
S214402E8027942697C8F8042000F3008208F1080823
S214402E9014A80FC803F0D0FC139B002840F0018113
S214402EA0013B013701361C44072F26972794C8F864
S214402EB00060C8F8043000F3288108F108081B9A1F
S214402EC0C8F804200137144421AB072F27942697CF
S214402ED0C8F800307FF7B6AC25AA0B990C9802F0DC
S214402EE03DFC00287FF4A2AB279CC846ACE425AA4C
S214402EF00B990C9802F032FC00283FF4EEACFFF73A
S214402F0095BBDDF81CB0012B00F03581022B25D196
S214402F10CDF81CB00024002521E625AA0B990C9874
S214402F2002F01CFC00287FF481AB279CC84678E45E
S214402F3025AA0B990C9802F011FC00287FF476AB7A
S214402F40279CC8461EE425AA0B990C9802F006FC5E
S214402F5000287FF46BAB279CC84623E4CDF81CB012
S214402F6000240025494600E03146E20842EA457220
S214402F70E80804F0070305461446303354EA0502D1
S214402F8001F8013C01F1FF36EED1079AD2077FF5F2
S214402F90F6AD302B3FF4F3AD0239302306F8013C52
S214402FA0A9EB01030E930E46FFF77EBB1F9900293F
S214402FB040F32F82129B139A9342A8BF1346002BCE
S214402FC01F460DDD269BC8F8006001333C44072BA6
S214402FD02794C8F80470269300F3208308F1080865
S214402FE0129B002FA8BFDB1B002B1F4640F3D78049
S214402FF0102F269B314D40F3EE8142462146B04687
S2144030004FF0100B2E460C9C0B9D04E00832103FF0
S214403010102F40F3DC8101331031072B2791269384
S21440302082E84008F2DD25AA2946204602F096FBB3
S21440303000287FF4FBAA2799269B4A46E7E70A9B87
S2144030400E934E46FFF730BB002D08BF0A2CC0F04B
S21440305090804E46204629460A22002303F05CFC18
S214403060303206F8012D2046294600230A2203F076
S21440307053FC04460D4654EA0503EBD1A9EB060380
S2144030800E93FFF711BB25AA0B990C9802F066FB2E
S21440309000287FF4CBAA9DF87770279CC846FFF798
S2144030A061BB5E1E002E7FF70AAF102E034D23DD58
S2144030B022464FF0100B0C9C07E000BF746D40009A
S2144030C0103E102E08F1080815DD01371032072F84
S2144030D02792269788E82008F2DD25AA0B992046F5
S2144030E002F03CFB00287FF4A1AA103E102E279A3F
S2144030F0269FC846E9DC144601373444072F2794F8
S214403100269788E860007FF7D8AE25AA0B990C98DA
S21440311002F024FB00287FF489AA279C269FC846F5
S214403120CDE60F9A146813460433E5170F932246EC
S2144031302B46FCE404321C680F9201230025FFF75F
S21440314096BA1C6804330F93002523E40F990A4669
S21440315004320C680F920025FFF789BA14460133F3
S2144031603444072B2794269388E860007FF76AABA1
S214403170B2E6DDF81CB0CDF81CB042AE30340123C8
S21440318006F8414D0E93FFF78FBA25AA0B990C9877
S21440319002F0E4FA00287FF449AA279CC8461F9A02
S2144031A0139B9A4244DB079BD90741D4139B129842
S2144031B09A1A1D1A9542A8BF1546002D0EDD26996F
S2144031C0C8F80450013106442C440729C8F800606A
S2144031D02794269100F33B8208F10808002DACBFE7
S2144031E0561B1646002E7FF72FAB102E269BB04D53
S2144031F0B5DD22461027DDF830B00B9C04E008F120
S2144032000808103E102EA9DD01331032072B2792F6
S214403210269388E8A000F2DD25AA2146584602F00B
S2144032209DFA00287FF402AA279A269BC846E8E71C
S214403230269B19981A99C8F8001001330444072BA6
S2144032402794C8F80400269300F3F58108F108088F
S214403250ACE7079BDA073FF5FEAD013701340123A3
S214403260072F27942697C8F80060C8F804307FF7E1
S21440327024AE4AE725AA0B990C9802F06FFA00286C
S2144032807FF4D4A9279C269FC846F2E525AA0B9929
S2144032900C9802F063FA00287FF4C8A9279C269F62
S2144032A0C846F5E54E46FFF7FFB925AA0B990C9898
S2144032B002F054FA00287FF4B9A9279CC846FFF7C5
S2144032C074BA149C22462046159C2346214603F099
S2144032D0E5FA002840F086820A9B0133119B23F0D2
S2144032E020030E9300F0E281472B00F01E814BF442
S2144032F080730793159B1F1E149B0893BBBF3B46CA
S21440330003F1004700232D231093119B662B00F0FA
S214403310BB81462B00F0DF800E9B089A452B0CBFE6
S2144033200A9B0A9D23A820A908BF5D1C0490039110
S2144033301FA802213B460290019500910C9800F090
S2144033406FFB119B672B064640F0E0811BF0010F98
S21440335000F046827419169A0898179B394603F06F
S2144033606BFA002840F06581239BA34206D23021A9
S2144033705A1C23921970239B9C42F9D89B1B13938B
S2144033800E9B472B00F0E980119B652B40F3CD81C7
S214403390119B662B1F9B129300F09E81139B129AE3
S2144033A01946914200F38A811BF0010F40F01382C8
S2144033B022EAE273089367230E921193109B002B28
S2144033C040F0C4800A939DF87770FFF775B935468C
S2144033D00C464646904601333C44072B279426939A
S2144033E088E8A0003FF7D1AE08F10808D7E60F9A64
S2144033F0136804320F92099A1A60FFF76CB825AA30
S2144034000B990C9802F0AAF900287FF40FA9C84639
S2144034108DE4269B274AC8F8002001330134012258
S214403420072B27942693C8F8042072DC08F1080876
S21440343029B9139B1BB9079BD8077FF505AA269B7E
S21440344019981A9AC8F80020013302462244072BDE
S2144034502792C8F80400269300F38D8108F10808E7
S2144034600029C0F265811399C8F8006001338C18B2
S214403470072B27942693C8F804107FF7E3A92BE57B
S2144034800F9A09991368CD170846043229460F92B9
S214403490C3E90001FFF71FB825AA0B990C9802F064
S2144034A05DF900287FF4C2A8279CC84658E400BFB0
S2144034B0746D4000606D400040210C9801F006FAA3
S2144034C00B9A10601061002800F0EC810B9A4023A4
S2144034D05361FEF7F0BF23A820A90A9C04900391ED
S2144034E01FA803210290089A01943B4600910C982D
S2144034F000F096FA25460646119B462B06EB050439
S2144035007FF429AF3378302B00F072811F9D2C4416
S21440351021E725AA0B990C9802F020F900287FF4A1
S21440352085A81F99279CC84682E70A9B002B08BFA0
S21440353001230A93DBE630460A9402F0A1F80F9581
S2144035400E90CDF81CB00346FFF7FBB92D2700239D
S2144035508DF877700A93FFF7B0B81F9B12931A4600
S214403560033304DB0A9B19469142BFF617AF119B03
S214403570023B11939DF844308DF88430129B013BFA
S214403580002B1F93BDBF129BC3F101032D222B229C
S214403590092B8DF8852040F316810DF193042046C3
S2144035A0AD4D00E0104685FB0312D917C1EBA201D2
S2144035B001EB8102A3EB42023032092900F8012CCC
S2144035C00B4600F1FF32EDDC30330238D9B284428C
S2144035D002F8011C40F25F810DF18600134601E0BF
S2144035E013F8011B00F8011BA342F9D101339B1AC3
S2144035F00DF18602134421AA9B1A139A1B93012AA3
S21440360013440E9340F313810E9B199A13440E9362
S21440361023EAE373089300231293CFE625AA0B9977
S2144036200C9802F09BF800287FF400A8279CC84618
S214403630D6E42346A2E625AA0B990C9802F08EF80B
S21440364000287EF4F3AF1F9A279CC846AEE525AA0D
S2144036500B990C9802F082F800287EF4E7AF1F9A88
S214403660139B279C9A1AC846B8E50A9B1296062BC7
S21440367028BF06230A96374608930F95CDF81CB008
S2144036800E93764EFFF718B823A820A90A9D0490FB
S21440369003911FA803210290089A01953B4600918A
S2144036A00C9800F0BDF9064644192BE706230A930A
S2144036B01DE62D278DF87770FFF7CEBA199A139B23
S2144036C01344129A0E93002A40F3AA8023EAE37327
S2144036D008936723119371E6002B40F3B2800A9A51
S2144036E0002A40F093801BF0010F40F08F80089333
S2144036F00E9363E60A9B08930E930A900F95CDF8B7
S2144037001CB012909DF87770FEF7D6BF119B472BE2
S2144037107FF420AE1BF0010F7FF4EEAE239B9B1B85
S21440372013930E9B472B3FF418AF1F9B129321E732
S2144037304F4210314A4D2FDA1024DDF830B004E005
S21440374008F10808103F102F26DD01331032072BF2
S21440375027922693C8F80050C8F80440F0DD25AA02
S2144037600B99584601F0FAFF00287EF45FAF279A7F
S214403770269BC846E6E725AA0B990C9801F0EEFF73
S21440378000287EF453AF1F99279A269BC84667E6C3
S21440379000200A90FEF7D2BE01333A44072B88E851
S2144037A0A0002792269308F108087FF75CAE25AA6A
S2144037B00B990C9801F0D2FF00287EF437AF279A79
S2144037C0269BC8464FE6303330228DF887308DF83A
S2144037D0862022AB0FE7129B199A13440E9375E787
S2144037E0239BCBE51F4E204B9DF87770FFF736BAEC
S2144037F0169A0898179B394603F01EF800287FF45F
S21440380085AEC5F101051F952C44A4E5129B199A77
S21440381013440A9A1A4422EAE2730E920893CDE5BC
S214403820129B0E9AC3F101031A441346D6E71BF0C7
S214403830010312937FF4E8AE0E9B23EAE3730893EA
S214403840BCE50A9B13B91BF0010F02D0199B01334C
S214403850DFE701234BE700BF67666666586D4000AA
S214403860746D40002C6D4000286D40000F9D9AF806
S2144038700130286840EAE0700A9028460430A246A4
S2144038800F90FEF759BE8DF87710FFF76FB88DF89A
S2144038907710FFF71CBA0DF18603ACE68DF877106B
S2144038A0FFF7F3B80C9A0C2313604FF0FF330993DD
S2144038B0FEF7C5BE8DF87710FFF7A2B98DF87710E2
S2144038C0FFF77EB98DF87710FFF761B98DF877105E
S2144038D0FFF71AB9024B13B1024800F005B870471B
S2144038E00000000075484000002301461A4618466E
S2144038F001F0C0BF02690B69934200F38D802DE949
S214403900F04F03F1FF3801F1140700F1140B57F89C
S21440391028205BF828304FEA880483B00132B3FB96
S214403920F2F90BEB0403009407EB040A0193B9F198
S214403930000F39D000252E46BC46DE465CF8044BC8
S214403940DEF80030A2B209FB0255220C2C0C09FB13
S2144039500242ADB2751B96B2C6EB134615FA83F318
S21440396006EB23469BB243EA0643E2454FEA12453E
S2144039704EF8043B4FEA2646E0D2009B5BF8033005
S21440398093B9019C231F9B450CD254F8043C4BB979
S214403990A4F1080302E01A68043B1AB99B4508F1F3
S2144039A0FF38F8D3C0F81080044601F045FD0028E3
S2144039B02EDB09F101095D46002357F8041B2868F1
S2144039C08AB29A1A0B0C12FA80F2C3EB104303EB3E
S2144039D0224392B242EA0342BA4545F8042B4FEAE4
S2144039E02343EAD25BF828200BEB880382B91A1FE0
S2144039F093450BD253F8042C42B9083B02E01A68B0
S214403A00043B1AB99B4508F1FF38F8D3C4F8108038
S214403A10484603B0BDE8F08F002070470000000025
S214403A202DE9F04F016C9BB00446279E92469B467C
S214403A3041B1426C4A60012393408B6001F024FB05
S214403A4000232364BBF1000F5D4635DB0023336063
S214403A509D4BAB4315D0504659460022002302F0FA
S214403A60EBFE804600282DD0269A01231360289B23
S214403A70002B00F0BD809548186001381BB0BDE8AB
S214403A80F08F269A42F20F731360BAF1000F0DD1F1
S214403A90C5F3130555B9289B8D48002BEED000F191
S214403AA00803289A13601BB0BDE8F08F289B89480E
S214403AB0002BE3D0C31CF4E701232BF00045336012
S214403AC0AB46C5E718AA19AB0192009352465B462F
S214403AD0204601F051FD2B0D814671D0CBF31302E9
S214403AE042F07F51189FCDF850805046A3F2FF36E3
S214403AF041F440110022784B02F082FA6CA3D3E9DD
S214403B00002302F031FC6CA3D3E9002302F07AFADA
S214403B10CDE90201304602F0C1FB69A3D3E9002398
S214403B2002F022FC02460B46DDE9020102F06AFA88
S214403B30CDE9040102F0C8FE002202900023DDE930
S214403B40040102F083FE002840F07381029D162D8A
S214403B5000F25D81614B03EBC503D3E90001524699
S214403B605B4602F091FE002800F0C5816B1E029372
S214403B7000230E93BF1B7B1E069300F15481002347
S214403B800893029B002BC0F24581069A0D9311467E
S214403B901944002306910C93249B092B2AD8052B05
S214403BA040F35B86043B24930025249B023B032B77
S214403BB000F24286DFE813F0D403C902DF03610453
S214403BC0189F199E3E4406F23243202B40F38E81C6
S214403BD0C3F1400306F212409D402AFA00F0284303
S214403BE002F04CFB0123013EA1F1F871149381E7EA
S214403BF03B4843E7002161642046259101F01EFAC8
S214403C004FF0FF330A93259A0F93012304902064C4
S214403C1024920B93199B002BC0F2D980029A0E2A4D
S214403C2000F3D5802D4B03EBC203D3E90023CDE947
S214403C300823259B002BC0F2BA83DDE90856504680
S214403C402A463346594602F0B9FC02F03DFE80460D
S214403C5002F024FB2A46334602F086FB0B46024619
S214403C605946504602F0CCF9049D08F130032B70BB
S214403C700A9B012B06460F4605F1010568D0002237
S214403C80184B02F071FB0022002306460F4602F056
S214403C90D3FD002840F08880CDF82C904FF0000AE5
S214403CA0DFF840B00C94DDE9088928E0AFF30080E7
S214403CB061436F63A787D23FB3C8608B288AC63FED
S214403CC0FB799F501344D33F0000F07F616D400066
S214403CD0846D4000906D40000000F83FD06D40007D
S214403CE0606D40000000244002F03EFB00220023AE
S214403CF006460F4602F0A0FD002840F0C18342462B
S214403D004B463046394602F059FC02F0DDFD04468B
S214403D1002F0C4FA42464B4602F026FB02460B46E9
S214403D203046394602F06CF904F1300E049E05F830
S214403D3001EBA5EB060E0A9EB645CDE906015246B6
S214403D405B46D1D1A046DDF82C900C9C06460F462B
S214403D5032463B463046394602F054F906460F4650
S214403D6002460B46DDE9080102F070FD48B93246CE
S214403D703B46DDE9080102F05FFDA8B118F0010FEF
S214403D8012D015F8018C049A6B1E04E09A4200F09B
S214403D90018413F8018DB8F1390F03F10105F5D010
S214403DA008F1010883F800804946204601F06CF986
S214403DB00022029B2A70269A01331360289B002B10
S214403DC000F09E8304981D601BB0BDE8F08F0B9AF0
S214403DD0002A3ED0249A012A40F311830A9B0C9A6B
S214403DE05F1EBA42C0F28F83D71B0A9B002BC0F2DD
S214403DF08B84089D0A9B089A1A440892069A0121C9
S214403E001A442046069201F0D9F9064624E00123DA
S214403E100E93AFE6089A029BD21A5B420C9300239D
S214403E2008920D93B8E6C7F1010308930023069362
S214403E30A7E6029D284602F031FA02460B46DDE927
S214403E40040102F0F9FC00287FF480AE6B1E02935A
S214403E507CE60C9F089D0B9E002D0CDD06990029E4
S214403E600B4608DDA942089AA8BF2B46D21AED1A7F
S214403E70CB1A089206930C9BD3B10B9B002B00F0F9
S214403E80B782002F10DD31463A46204601F032FA1E
S214403E904A4601460646204601F09AF9494680467B
S214403EA0204601F0F1F8C1460C9BDA1B40F0A18297
S214403EB00121204601F082F90D9B002B80461CDD37
S214403EC001461A46204601F015FA249B012B8046EF
S214403ED040F3548200230C93D8F8103008EB830349
S214403EE0186901F01BF9C0F1200010E0C3F120056D
S214403EF00AFA05F074E60E903CE6249B012B40F34C
S214403F00878200230C930D9B0120002BE4D1069A58
S214403F10104410F01F0000F0A180C0F12003042BD5
S214403F2040F39E84089BC0F11C000344089313464C
S214403F30034405440693089B002B05DD49461A4674
S214403F40204601F027FA8146069B002B05DD4146B8
S214403F501A46204601F01EFA80460E9B002B40F083
S214403F6086800A9B002B40F366820B9B002B00F05A
S214403F709880002D05DD31462A46204601F00AFA93
S214403F8006460C9B002B40F0378306960A9B049A05
S214403F90DDF818B0013BD3180B930AF001030C93DD
S214403FA01746C24651464846FFF7A4FC31460546EA
S214403FB0484601F041FA5A460A905146204601F0DA
S214403FC057FAC268804605F13003002A40F02B823B
S214403FD001464846089301F02FFA4146069020468F
S214403FE001F052F8069A089B32B9249921B90C9AE6
S214403FF0002A00F0EF83249A0A990029C0F29F8293
S21440400005D1249919B90C99002900F09882002A04
S21440401000F306830B9A3B7007F10108974245462A
S21440402000F00C83494600230A22204601F036F869
S2144040305E45814631464FF000034FF00A02204667
S21440404000F0EB8101F02AF85946064600230A2282
S214404050204601F023F847468346A3E71C20089BEA
S21440406003440893069B03440544069363E741468E
S214404070484601F0E1F90028BFF673AF029F494673
S21440408000230A222046013F029701F007F80B9BC7
S2144040908146002B40F0B6830F9B002B40F3BF8336
S2144040A00A93DDF810B00A9F5D4602E000F0F6FF86
S2144040B0814641464846FFF71DFC00F1300A05F8A8
S2144040C001ABA5EB0B03BB424FF00A024FF00003D7
S2144040D049462046EADB049B0A9A012AACBF9B1855
S2144040E001331D464FF0000B49460122204601F0A1
S2144040F051F94146814601F09FF9002840F33D8240
S21440410015F8012C04996B1E04E08B4200F0AE813A
S21440411013F8012D392A03F10105F6D001321A7041
S2144041204146204600F0B0FF002E3FF43DAEBBF1C6
S214404130000F05D0B34503D05946204600F0A4FFF3
S2144041403146204600F0A0FF2EE600230B93029B4C
S214404150259A13440F930133012B1F461E460A939C
S214404160B8BF01270021172F61640AD90122042312
S2144041705B0003F114008742114602F10102F7D2B8
S2144041806164204600F05AFF0E2E049020643FF6ED
S21440419041AD002D3FF43EAD02990029CDE910AB6C
S2144041A040F30282B84B01F00F020D1103EBC2033D
S2144041B0E906D3E9006740F1AE81B44B5046594614
S2144041C0D3E9082302F0FAF9CDE9120105F00F050C
S2144041D04FF0030A8DB1DFF8B482EA0709D53046BE
S2144041E03946D8E9002302F0BFF80AF1010A06462C
S2144041F00F466D1008F10808EFD13B463246DDE920
S214404200120102F0DBF9074688460E9B43B10022B6
S2144042109F4B3846414602F019FB002840F0868204
S214404220504602F03BF83A46434602F09DF8994B1A
S214404230002201F0E7FE0A9B0546A1F15076002BCE
S21440424000F03E81029B15930A9B12930B9B002B1A
S21440425000F0FA81129A8C4B8F4903EBC20353E964
S2144042600223002002F0AAF92A46334601F0C8FE8F
S21440427082468B463846414602F026FB054602F00B
S2144042800DF802460B463846414601F0B9FE303539
S2144042905FFA85F8049D06460F4685F8008002467C
S2144042A00B4650465946013502F0EEFA002854D1E6
S2144042B032463B460020764901F0A2FE02460B46B7
S2144042C05046594602F0E0FA002840F07082129AB2
S2144042D0012A00F01181129B049ACDF848901344AD
S2144042E099460DE000206A4901F08AFE52465B4638
S2144042F002F0ACFA002840F058824D4500F0FA80B3
S214404300504659460022654B02F02EF80022634B79
S21440431082468B463046394602F026F80F46064619
S21440432002F0D2FA804601F0B9FF02460B4630460C
S214404330394601F065FE08F130085FFA88F85246C3
S2144043405B4605F8018B06460F4602F07FFA32467A
S2144043503B460028C6D0DDF84890159B029323E5DF
S21440436000230B93259B002B40F3DC801F461E4604
S2144043700F930A93F6E601230B93F3E7BAF1000F87
S2144043807FF4A8ADCBF31303002B7FF4BAAD2BF02C
S21440439000473F0D3F05002F00F00D82089B01337C
S2144043A00893069B0133069301230C93ABE50A9BC7
S2144043B0002B3FF742AC40F021820022384BDDE92B
S2144043C0080101F0D1FF52465B4602F053FADDF891
S2144043D028804646002841D0259B049DDB43029317
S2144043E04146204600F050FE002E3FF4DDACA7E6E6
S2144043F00C9A4946204600F07DFF814658E5149ABF
S214404400002A00F0878103F233430C9F089DF2E4B4
S214404410BAF1000F7FF475ADB4E700F03FFE4746B3
S21440442006468346BEE501462046069300F02CFE2F
S2144044300122069BE0E5249B022B7FF796AD0A9B64
S214404440002BC9D141460522204600F027FE0146F2
S2144044508046484600F0F0FF0028BDDD029A0499E9
S2144044603123013202920B704D1CB9E7029A013299
S2144044700292049A3123137052E601230B9366E6A8
S214404480DDF82C900C9C8FE4D06D4000A86D400069
S2144044900000F03F00001C400000E03F00002440C9
S2144044A000001440504601F0F9FE3A46434601F0FB
S2144044B05BFF0022C14B01F0A5FD0546A1F15076F9
S2144044C041460022BE4B384601F09AFD2A46334606
S2144044D082468B4602F0D8F98046002840F010818C
S2144044E02A4606F100435046594602F0AFF918B145
S2144044F0464671E7DDF84890DDE910ABFFF78ABB2A
S2144045000498FFF7BBBA0C9B0D9A0C97FB1A1A44FB
S2144045100D92002769E4DDE910234FF0020ACDE949
S214404520122357E60021012361642046259300F0BC
S21440453085FD259B049020640A930F9329E6002A64
S214404540D046CDF818B09A4611DD4946012220469D
S21440455000F020FF4146814600F06EFF002840F301
S2144045604681BAF1390F00F0068105F1310AB346AB
S21440457087F800A07D1C069ED2E504D11AF0010FF4
S21440458001D0BDE5154615F8013C302B05F1FF324C
S214404590F8D0C5E5049930220A70029A15F8018CC5
S2144045A001320292FFF7FCBB00F0BB80029B5D42EB
S2144045B0844B05F00F0203EBC203D3E90023DDE989
S2144045C0100101F0D1FE2D110746884600F02C81DF
S2144045D07D4E4FF0020AEB0709D538464146D6E9EC
S2144045E0002301F0C1FE0AF1010A074688466D1015
S2144045F006F10806EFD108E67168204600F01EFD79
S214404600336902339A00054606F10C010C3000F07F
S21440461077FC29460122204600F0BCFE0690B5E411
S214404620392BCDF818B0D04600F0A58003F1010A2A
S214404630B34687F800A07D1C069E71E55A46D046D4
S214404640B3469A4616464FE5129B5E4901EBC301B8
S2144046502A46334651E9020101F086FECDE91601AD
S2144046603846414602F030F9054601F017FE0B4643
S21440467002464146384601F0C3FC129B0F46049959
S2144046803035012B0D70064601F1010526D0129BF0
S214404690049ADFF83CB1CDF8489013444FF0000A36
S2144046A0994652465B463046394601F05DFE0F4617
S2144046B0064602F009F9804601F0F0FD08F13008A0
S2144046C002460B463046394601F09AFC05F8018B07
S2144046D04D4506460F46E4D1DDF848903B4B002258
S2144046E0DDE9160101F08EFC32463B4602F0AEF89C
S2144046F0002846D0159B029315F8018CFFF743BB64
S2144047004FF000084646A9E6089B0A9A9D1A0023E1
S214404710FFF771BB189B0C9F089DC3F13603FFF74C
S2144047206ABBDDE910784FF0020A6EE50A9B002B63
S2144047303FF4B8AE0F9B002B7FF7DEAE0022244B33
S2144047403846414601F010FE074688460AF1010009
S21440475001F0A4FD3A46434601F006FE0022174B00
S21440476001F050FC029A0F9B1293013A0546A1F1C4
S214404770507615926AE53922B3463A70069E7D1CFD
S214404780C0E4DDE916230020104901F039FC32462A
S2144047903B4602F079F808B9AEE6154615F8013CF6
S2144047A0302B05F1FF32F8D0D7E5DDF84890159B61
S2144047B00293FFF7E8BA0C97FFF7A5BB00001C4032
S2144047C000001440D06D4000A86D40000000E03F5F
S2144047D000002440392BCDF818B0D046DDF828B07C
S2144047E09A46C8D0BBF1000F3FF7BFAEBFE67FF496
S2144047F0BEAE1AF0010F3FF4BAAEB2E64FF0000874
S2144048004646E9E5314600230A22204600F046FCAB
S2144048100F9B002B06460ADD0A93FFF7AABB249B94
S214404820022B23DC0F9B3BE44FF0020AEDE4249B73
S214404830022B1BDC0F9BEFE70025656429462046CC
S21440484000F0FCFB4FF0FF330A930F9301230490D4
S214404850259520640B93FFF7DDB90125FFF7A5B931
S2144048603FF469ABC0F13C00FFF7F9BB0F9B0A93DE
S214404870E5E500BF38B50A4C0A4D641BA4100AD0C3
S21440488004F18043013B05EB8305013C55F80439B0
S2144048909847002CF9D1BDE8384002F08FBB00BFE6
S2144048A0CC6F4000C86F4000D0F8EC00704700BFA7
S2144048B0044A054B1268506B002808BF1846F03073
S2144048C0704700BF08004020380440202DE9F04FD4
S2144048D001F10B06162E83B0054640F29E8036F058
S2144048E0070600F1BD80B14200F2BA8000F0A2FB9C
S2144048F0B6F5FC7FC0F09382730A00F0B880042BB4
S21440490000F27981B30903F1390003F1380EC30090
S214404910BF4F3B44A3F108015C68A14206D10CE0BE
S214404920002A80F2AA80E468A14206D0636823F099
S21440493003039A1B0F2AF3DD70463C69DFF8E4E276
S214404940744500F0AB81636823F003039A1B0F2A7B
S21440495000F39081002AC7F814E0C7F810E080F210
S2144049609D80B3F5007F80F06181DB0803F1010C88
S21440497099107A6857F83C80C4F8088001238B4029
S21440498007EBCC0113430839E1607B6047F83C40B5
S214404990C8F80C408210012494409C4200F28B8060
S2144049A01C4206D120F0030064001C4200F10400C3
S2144049B0FAD007EBC009CC468046DCF80C309C4564
S2144049C007D16DE1002A80F27B81DB689C4500F0D0
S2144049D06781596821F003018A1B0F2AF2DDD3F85C
S2144049E00CC0D3F8088000939C19284646F0010670
S2144049F042F001055E60C8F80CC0CCF808807C61C7
S214404A003C61C4F80CE0C4F808E065605A5000F019
S214404A1013FB009B03F108041EE0102920D800F089
S214404A2009FB102618230220794F3B44A3F10802C5
S214404A305C68944200F03D816368E168A66823F0B4
S214404A400303234428465A68F16042F001028E6010
S214404A505A6000F0F1FA0834204603B0BDE8F08F03
S214404A6000240C2320462B6003B0BDE8F08F402086
S214404A704FF400734FF03F0E4AE72344E1685A680C
S214404A80A66842F00102F16028468E605A6000F047
S214404A90D3FA0834204603B0BDE8F08F23442846B6
S214404AA05A6842F001025A6000F0C6FA08342046BE
S214404AB003B0BDE8F08FBC68636823F00308B045D8
S214404AC004D3A8EB06030F2B00F38580DFF858913C
S214404AD0504BD9F800201B680132334404EB080AD7
S214404AE000F0558103F580530F3323F47F6B2BF092
S214404AF00F0B5946284600F09BFD411C024600F02D
S214404B00FC80824500F2F780434B1968594419608F
S214404B1000F04D81D9F8000001301BBFA2EB0A0A15
S214404B205144C9F80020196012F0070100F01581C1
S214404B30C1F10800C1F580510244083102EB0B096F
S214404B40C9F30B09A1EB090949462846019300928F
S214404B5000F06EFD431C9DE80C0000F04381801A77
S214404B60484440F001001968BA604944BC4250606D
S214404B70196017D0B8F10F0F40F2FB806068A8F1BB
S214404B800C0222F0070204EB020E00F001004FF088
S214404B90050C10430F2A6060CEF804C0CEF808C05B
S214404BA000F217811D4BBC681A68914288BF196095
S214404BB01B4B1A689142626888BF196022F0030254
S214404BC09642A2EB060301D80F2B04DC284600F0E1
S214404BD033FA002440E7A21943F0010346F00106E9
S214404BE066602846BA60536000F026FA08342046CD
S214404BF003B0BDE8F08F142B71D9542B00F2A3807C
S214404C00330B03F16F0003F16E0EC30080E600BF66
S214404C10A4054020840A4020540A40207C0A4020B4
S214404C20800A4020AC054020AC0940205A0A042A9D
S214404C305BD9142A00F2AE8002F15C01C9005B32F7
S214404C4007EB010C7958ACF1080C8C4500F08880D5
S214404C504A6822F00302934273D289688C45F7D1A2
S214404C60DCF80C207B68E260C4F808C09460CCF89E
S214404C700C408FE6A11946F0010C42F00106C4F83C
S214404C8004C0284679613961C1F80CE0C1F808E0F3
S214404C904E60E25000F0D0F90834DDE67B6879E6F5
S214404CA008F1010818F0030F0CF1080C7FF485AEEC
S214404CB02DE0DC68A34208BF02303FF43EAEBBE6C0
S214404CC019441C464A68DB6854F8086F42F00102F3
S214404CD04A602846F3609E6000F0AEF9BCE603F1F9
S214404CE05C0003F15B0EC30012E69A0902F139013B
S214404CF0C9003832A4E7BC4254D0BC68626822F08F
S214404D0003025DE759F80839994540F0868010F06F
S214404D10030F00F1FF30F5D17B6823EA04037B6084
S214404D2064009C423FF6C7AE002C3FF4C4AE1C4223
S214404D3040467FF43EAE64001C4200F10400FAD0C8
S214404D4037E68C468CE7B3F5AA7F15D8F30B03F10C
S214404D50780003F1770EC300DAE54FF48051EDE6B4
S214404D607B689210012101FA02F213437B6062468F
S214404D7079E70123536029E740F25452934222D800
S214404D80B30C03F17D0003F17C0EC300C0E503F1D4
S214404D90100BAEE6542A29D81A0B02F16F01C9004F
S214404DA06E324DE7204B196859441960B2E6CAF393
S214404DB00B0000287FF4AEAE08EB0B03BA6843F056
S214404DC001035360EEE67F204FF47E734FF07E0E75
S214404DD09EE504F108012846009300F01DFE009B66
S214404DE01968DFE601204FF00009BCE6B2F5AA7F5D
S214404DF005D8DA0B02F17801C900773220E740F295
S214404E0054518A4205D89A0C02F17D01C9007C3281
S214404E1016E74FF47E717E2212E77B6880E7F00843
S214404E2006F1080300E600BF540A402082B049B1AC
S214404E305AB16BB113780B601278101C18BF012062
S214404E4002B0704701A9002AF3D1104602B070475D
S214404E506FF00100F4E700BF000000000000000013
S214404E6001F0FF01102A2BDB10F0070F08D010F8D6
S214404E70013B013A8B422DD010F0070F42B3F6D1DA
S214404E80F0B441EA012141EA014122F007047FF0F3
S214404E9000070023F0E80256083C85EA010586EA4A
S214404EA0010685FA47F5A3FA87F586FA47F6A5FA86
S214404EB087F68EB9EED1F0BC01F0FF0102F0070292
S214404EC032B110F8013B013A83EA010313B1F8D13D
S214404ED00020704701387047002D06BF354603381E
S214404EE0073815F0010F07D1013015F4807F02BF57
S214404EF0013015F4C03F0130F0BC0138704700BFA8
S214404F00844641EA000313F003036DD1403A41D38F
S214404F1051F8043B40F8043B51F8043B40F8043B4E
S214404F2051F8043B40F8043B51F8043B40F8043B3E
S214404F3051F8043B40F8043B51F8043B40F8043B2E
S214404F4051F8043B40F8043B51F8043B40F8043B1E
S214404F5051F8043B40F8043B51F8043B40F8043B0E
S214404F6051F8043B40F8043B51F8043B40F8043BFE
S214404F7051F8043B40F8043B51F8043B40F8043BEE
S214404F8051F8043B40F8043B51F8043B40F8043BDE
S214404F90403ABDD2303211D351F8043B40F8043B7E
S214404FA051F8043B40F8043B51F8043B40F8043BBE
S214404FB051F8043B40F8043B103AEDD20C3205D38E
S214404FC051F8043B40F8043B043AF9D2043208D086
S214404FD0D2071CBF11F8013B00F8013B01D30B88F8
S214404FE003806046704700BF082A13D38B078DD0D6
S214404FF010F003038AD0C3F10403D21ADB071CBFA8
S21440500011F8013B00F8013B80D331F8023B20F811
S214405010023B7BE7043AD9D3013A11F8013B00F84A
S214405020013BF9D20B7803704B7843708B788370D2
S21440503060467047704700BF704700BFC36C70B58E
S21440504005460C464BB153F8240080B1026843F83D
S214405050242000230361C36070BD2122042100F098
S2144050605BFCE86403460028EDD1002070BD0121BA
S21440507001FA04F6721D2846920000F04DFC002806
S214405080F3D044608660E4E731B1C36C4A6853F8B5
S2144050902200086043F82210704700BFF0B50C6944
S2144050A083B00D46064601F1140E0027DEF80000D8
S2144050B081B202FB0133010C180C02FB01019BB2CA
S2144050C0013703EB0143BC424EF8043B4FEA114321
S2144050D0ECDC3BB1AA68944207DA05EB8402013463
S2144050E053612C61284603B0F0BD696801930131D5
S2144050F03046FFF7A3FF2A69023205F10C01074646
S21440510092000C30FFF7FCFEF26C6968019B52F887
S2144051102100286042F821503D46DEE7020C12048A
S2144051200346B2B90304102013F07F4F04BF1B029E
S214405130083013F0704F04BF1B01043013F0404F8B
S21440514004BF9B000230002B02DB5B0003D4202010
S21440515070470020E8E70130704700BF036813F04F
S2144051600702014607D0DA0721D4980721D49B08C6
S2144051700B600220704798B298B1104613F0FF0FAC
S21440518004BF1B0A08301A0704BF1B0904309A07DD
S21440519004BF9B080230DA0707D45B0804D12020FE
S2144051A070471B0C1020E9E701300B607047002069
S2144051B070475B080B600120704700BF10B50C4677
S2144051C00121FFF73BFF01224461026110BD00BF91
S2144051D02DE9F04F0C691569AC4283B08B461646F4
S2144051E004DA2246B3462C460E461546DBF808300F
S2144051F0DBF8041004EB05089845C8BF0131FFF7FB
S2144052001DFF00F1140909EB880AD145009005D22C
S2144052104B46002143F8041B9A45FBD806F1140C74
S2144052200CEB85030BF1140B9C450BEB840E4CD218
S214405230CDF804A09A46DCF80050AFB2EFB100219A
S2144052404D465E460C4656F8042B286893B281B20B
S21440525007FB0313120C010C234407FB021101EB5E
S21440526013419BB243EA0143B64545F8043B4FEA37
S2144052701144E8D82C60DCF800502D0C1DD0D9F82D
S214405280003048461C46594600220E88240C05FB32
S214405290064422449BB243EA024340F8043B51F89A
S2144052A0043B04681B0CA6B205FB036303EB1243E6
S2144052B08E454FEA1342E8D803600CF1040CE245F1
S2144052C009F10409B7D8DDF804A0B8F1000F0BDDEA
S2144052D05AF8043CAAF1040A1BB105E05AF8043D0A
S2144052E013B9B8F10108F9D10098C0F8108003B09E
S2144052F0BDE8F08F12F003032DE9F041144607464F
S2144053002ED10D46A4101CD0BE6C96B3E3074FF0CA
S214405310000806D4641014D03068A8B10646E307E7
S214405320F8D5324629463846FFF752FFB5B16A6887
S214405330FB6C641053F82210296043F8225005464F
S214405340EAD12846BDE8F081324631463846FFF776
S2144053503FFF3060C0F800800646E0E70546D9E7E4
S2144053605A1E0B4D002355F82220FFF797FE0546A0
S214405370C8E701213846FFF761FE40F2712101225D
S2144053800023416102610646B8640360BEE700BF81
S214405390986E40002DE9F84391460A698B684FEABB
S2144053A0691404EB020808F101059D420E460746C3
S2144053B0496804DD5B009D4201F10101FADC384694
S2144053C0FFF73CFE002C00F1140306DD03EB8402DD
S2144053D0002143F8041B9A42FBD1346906F11401BC
S2144053E019F01F0901EB840E1DD0C9F1200C0022D4
S2144053F00C6804FA09F4144343F8044B51F8042BA0
S2144054008E4522FA0CF2F3D81A600AB108F102056A
S214405410FB6C7268013D53F822100561316043F819
S2144054202260BDE8F883043B51F8042B43F8042F70
S2144054308E45F9D8ECE700BF30B40B6905460069E5
S214405440C01A0FD19B001435143119442B4401E087
S2144054509D4207D253F8044D51F8042D9442F7D09C
S21440546002D3012030BC70474FF0FF30FAE700BF50
S2144054702DE9F0410F690E4611697F1A002F9046BC
S21440548017D1890006F1140502F1140E6B18714409
S21440549001E09D425CD253F8042D51F8044DA242DF
S2144054A0F7D05ED233462C46464675469846012788
S2144054B005E058DB06F1140508F11404002771686E
S2144054C0FFF7BCFDD8F810303669C76004EB830C94
S2144054D0A64605EB860700F1140400235EF8041B7D
S2144054E055F8048B8AB213FA88F3090C9A1AC1EB62
S2144054F0184303EB224392B242EA0342F44544F88F
S214405500042B4FEA2343E9D8AF4217D9A446AE4608
S2144055105EF8042B13FA82F3191401EB12419BB286
S21440552043EA014277454CF8042B4FEA2143EFD833
S214405530ED432F4427F0030704373C44043C22B98C
S21440554054F8043D013E002BFAD00661BDE8F081D8
S2144055500021FFF773FD0122002302614361BDE88D
S214405560F0817446ABE7334606F1140402F11405A5
S214405570164601279846A2E72DE9F04182B0012160
S2144055801C46C3F30A571546089EFFF757FDC4F35B
S214405590130480460FB144F4801401941DB302A84E
S2144055A040F8085DFFF7DAFD002834D19DE80C008E
S2144055B0C8F81420002B0CBF01210221C8F818306F
S2144055C0C8F81010DFB908EB8103A0F23240306013
S2144055D01869FFF7A3FD099BC0EB411018604046D1
S2144055E002B0BDE8F08101A8FFF7B8FD019BC8F8FE
S2144055F0143001212030C8F81010002FE3D0099B4A
S214405600A7F233470744C0F135003760186040467C
S21440561002B0BDE8F0819DE80A00C0F1200203FA1E
S21440562002F20A43C3400193C8F81420C2E700BF01
S21440563038B5074C0023054608462360FCF7DAF9E0
S214405640431C00D038BD2368002BFBD02B6038BDF0
S214405650500B40200000000000000000000000004A
S21440566000000000000000000000000000000000F5
S21440567000000000000000000000000000000000E5
S21440568090F800F06DE9024520F007016FF0000C3D
S21440569010F0070491F820F040F049804FF00004E5
S2144056A06FF00700D1E9002391F840F000F10800C0
S2144056B082FA4CF2A4FA8CF283FA4CF3A2FA8CF3F8
S2144056C04BBBD1E9022382FA4CF200F10800A4FA5F
S2144056D08CF283FA4CF3A2FA8CF3E3B9D1E90423B3
S2144056E082FA4CF200F10800A4FA8CF283FA4CF3EA
S2144056F0A2FA8CF37BB9D1E9062301F1200182FAA4
S2144057004CF200F10800A4FA8CF283FA4CF3A2FAA9
S2144057108CF3002BC6D0002A04BF04301A4612BAB7
S214405720B2FA82F2FDE8024500EBD2007047D1E9BA
S214405730002304F00305C4F100004FEAC50514F049
S214405740040F91F840F00CFA05F562EA05021CBF1A
S21440575063EA050362464FF00004A9E72DE9F04FDF
S214405760936883B09046002B70D082460C461768EC
S2144057708D68086842E0A38913F4906F2ED065695F
S214405780216905EB4505A0EB010B05EBD5750BF143
S21440579001006D103044A8422A4684BF05462A467A
S2144057A05B0538D511465046FFF790F800283CD0A8
S2144057B05A4621690190FFF7A3FBA289019B22F478
S2144057C0906242F08002A281A5EB0B0203EB0B0035
S2144057D0656123612060A2603546B3465A46494615
S2144057E000F000FAD8F80830A2682068551B5844E4
S2144057F09E1BA5602060C8F808603EB37E683B46A6
S2144058000837002EFAD0AE42D3F80090AB46B2D25C
S2144058103546B346E2E7504600F048FA03460028CD
S214405820D2D12169504600F0F7F80C23CAF8003070
S214405830A389002243F040034FF0FF30A381C8F80D
S2144058400820C8F8042003B0BDE8F08F0020C8F850
S214405850040003B0BDE8F08F21B1FF2A04D80A70D7
S21440586001207047084670478A2303604FF0FF3098
S214405870704700BF2DE9F047254C2568D5F84841CC
S2144058800646884692469946C4B360681F2817DC89
S214405890431C76B104EB80050122C5F888A0D4F8F5
S2144058A0881182401143022EC4F88811C5F8089129
S2144058B01ED00230636044F820800020BDE8F087A8
S2144058C0144B03B34FF4C870AFF300800446D0B116
