S014000050726F6A65746F335F496F542E737265638F
S214400000203140202537400023374000233740002A
S21440001023374000233740002337400000000000CD
S21440002000000000000000000000000023374000F1
S21440003023374000000000002337400023374000AD
S2144000402337400023374000233740002337400003
S21440005023374000233740002337400023374000F3
S21440006023374000000000003D324000513240003F
S2144000706532400023374000233740002337400096
S214400080793240008D32400023374000233740000D
S21440009023374000233740002337400023374000B3
S2144000A023374000233740002337400023374000A3
S2144000B02337400023374000233740002337400093
S2144000C02337400023374000233740002337400083
S2144000D000000000233740000000000023374000A7
S2144000E02337400023374000233740002337400063
S2144000F02337400023374000233740002337400053
S2144001002337400023374000233740002337400042
S2144001102337400000000000000000000000000000
S2144001202337400023374000233740002337400022
S21440013023374000000000002337400023374000AC
S21440014010B5054C237833B9044B13B10448AFF3CC
S21440015000800123237010BDCC0940200000000021
S214400160A4B340000C4B43B10C480D4910B5AFF357
S21440017000800C48036823B910BD0A48036833B9A9
S2144001807047094B002BF7D0BDE810401847064B88
S214400190002BF5D0184700BF00000000A4B3400075
S2144001A0D0094020A4B3400000000000102808D129
S2144001B0B1F1805F05D108B5024B1B6803B1984783
S2144001C008BD7047E809402050B170B5441E054E42
S2144001D0054D3046A847013CB4F1FF3FF9D170BD0C
S2144001E0704700BF35160300010040202DE9F0415E
S2144001F0094F4FF40038C7F83480084D08266E6320
S2144002006420074CA047C7F830806420A0472E6380
S2144002106420A047BDE8F08100120E4000100E405A
S214400220C901400010B50022144B1A600A20144C35
S214400230A0470B20A0470C20A0471020A047112025
S214400240A047104B08221A61C3F8A0201A630E4A32
S2144002504FF400311161C2F8A010116304221A61F4
S214400260C3F8A0201A63094B1B6813F0010F01D096
S214400270064B1B68064B9847002010BDE8094020F7
S2144002804534400000100E4000120E4010E000E0E2
S214400290ED01400030B583B0144B18601020144B6D
S2144002A098474FF020517C20124B9847124C012221
S2144002B04FF080512046114B9847114B00935123E5
S2144002C04FF08052102120460E4DA8474FF08051E7
S2144002D020460D4B98474FF480320C4B1A60002254
S2144002E0102120460A4B984703B030BDE80940200D
S2144002F0453440004D30400000140E40112F400061
S214400300AD014000CD3140003D30400000E100E00E
S214400310A132400008B528B94FF080510448054B3B
S214400320984708BD4FF080510148034B984708BD99
S21440033000140E40413040003D304000F8B5394C86
S2144003404FF480112166C4F8901061656162C4F86C
S2144003508010236F0B432367636F23F48013636718
S2144003604FF400122266C4F8902062656262C4F8B8
S2144003708020236F13432367636F23F40013636760
S2144003804FF480032366C4F8903063656362C4F814
S2144003908030206F18432067606F20F480006067CD
S2144003A06160626063604FF000766660266026613A
S2144003B026631D4D28461D4B984702232B608023FD
S2144003C02B606B6843F001036B606B6843F010036F
S2144003D06B6001212846164B98470022012128468B
S2144003E0144B9847012211462846134B9847002243
S2144003F001212846114B984711491248124B9847FD
S214400400C2B201212846114B984700231A460121C3
S21440041028460F4FB84701232B6026630D4B98475D
S2144004200020F8BD00140E40008000409934400083
S214400430C53440003F3540005D3540007B354000C8
S21440044000A3E111006CDC028F354000A53540006A
S214400450CD354000ED0140002DE9F04F83B0032834
S21440046044D10E684D680C8900238DF80430ADF8F1
S214400470063086B1002D36D14FF00108994601ADC1
S2144004804FF00072204B5A632CB3204FDFF894B0E5
S214400490DFF894A006E04FF000084FF0010901AEE7
S2144004A0EEE7C4B100231A4631783846D8470DF1F6
S2144004B005020DF106013846D047BDF806302B70D0
S2144004C0013CA4B2B8F1000F00D10135B9F1000FDC
S2144004D0E7D10136E5E74FF000720B4B1A63002078
S2144004E003B0BDE8F08F6FF00500F9E740F21F1249
S2144004F007490848084CA0470848A0470848A0476E
S2144005004FF0FF30ECE700BF00140E400080004084
S21440051074A2400084A240002540400098A24000BB
S214400520B0A240000B354000DB34400002220E4BA8
S2144005301A6003F5592303F580634FF400125A619D
S214400540C3F8A0204FF480125A61C3F8A0204FF49D
S21440055080025A61C3F8A0204FF000725A61C3F877
S214400560A0200020704700BF008000403AB101390B
S214400570821811F8013F00F8013B9042F9D17047CC
S21440058022B1821800F8011B9042FBD170470378D5
S21440059043B1002301339BB210F8012F002AF9D152
S2144005A0184670470023FBE7024A13780133DBB254
S2144005B013707047EF0940207047000000B583B0C5
S2144005C001200B4B984701A941F27000094B984710
S2144005D0034618B1184603B05DF804FB019941F094
S2144005E00201019141F27000034B98470346F1E740
S2144005F015034000A9184000B518400008B5124B36
S2144006001B784BB9114B1B78DBB2032B0CD00F4B2E
S2144006101B78DBB2042B07D00B4A13780133DBB2CE
S21440062013700023184608BD094B98470346002818
S214400630F8D145F2786141F27400064B984703467C
S2144006400028E9D0EEE700BFED094020EC09402045
S21440065019144000B51840001E4B1B7823B11D4AA4
S2144006601378013BDBB213701A4B1B78002B2ED14C
S214400670194B1B78DBB2032B06D0174B1B78DBB22B
S214400680042B01D0002323E000B583B00023019360
S21440069044F2213141F27400104B9847034618B19A
S2144006A0184603B05DF804FB01A901200C4B98479F
S2144006B003460028F4D1019911F0020FF0D021F042
S2144006C0020101910120054B98470346E8E70023C5
S2144006D018467047ED094020EC094020B518400008
S2144006E0A91840002DE9F04F87B007468846924645
S2144006F09946109CBDF84460BDF8485001F07F0311
S2144007008DF815308DF814000823ADF81630002CFF
S21440071000F09F80BDF8163016FA83F32B449BB248
S214400720ADF816305C4B98478346002840F0A280D0
S21440073000230393ADF806300293029B1F430297B3
S214400740029B43EA08230293BDF81620029B43EA25
S21440075002430293029941F28C00504B98478346DD
S214400760002840F0918000230293029B43F002034E
S2144007700293029941F27800484B984783460028F6
S21440078040F0828000230393ADF80630BDF8063073
S2144007909BB2B3F57A7F16D241F27808404F02A951
S2144007A04046B84778B9029B13F0020F59D0BDF8BF
S2144007B0063001339BB2ADF80630BDF806309BB22A
S2144007C0B3F57A7FEBD3039B002B61D0039B049356
S2144007D0BDF816309BB2ADF816300498082205A92D
S2144007E0304B9847834600284ED1049B08330493E9
S2144007F0BAF1000F0AD004984A465146294B98470A
S2144008008346002840D1049B4B4404937CB1049B10
S214400810A5EB09051D440495049832462146214B14
S2144008209847834600282FD1049B1E440496039B7A
S2144008309B000293029B43F002030293029941F20B
S2144008406C00164B98478346F0B9174B984783463B
S2144008501AE0BDF8163019FA83F39BB2ADF816309D
S21440086060E703A911480E4B98470028ABD00023F9
S2144008700393A8E740F29F120D490E480E4CA0473E
S2144008800E48A0470E48A047584607B0BDE8F08F30
S2144008906FF0020BF8E700BFFD054000B5184000BA
S2144008A0A91840001D1940005906400000041500D4
S2144008B0B4A2400084A240002540400008A5400065
S2144008C0B0A240002DE9F04387B0DFF8F892A24F7F
S2144008D0A24EDFF8F482D5E0042204A90598A04B86
S2144008E09847BDF812309BB2ADF812300446002847
S2144008F030D1BDF812309BB29D4205D0BDF81230C3
S2144009009BB2EB1A042B33DC9DF81030DBB2012B84
S21440091047D09DF81030DBB2022B5FD09DF81030E8
S214400920DBB2042B68D09DF81030DBB2062B71D0BA
S2144009309DF81030DBB2072B7AD040F202224146B7
S2144009403046884CA0478848A0478848A0476FF064
S214400950050496E04FF4EB7241463046814DA84779
S2144009608348A8478148A8470120824B984788E09B
S21440097040F2DF12414630467A4CA047BDF812207E
S2144009809DF810309DF81110009192B229467A4891
S214400990A0477648A0470120764B98476FF005045D
S2144009A06FE0764B1B6843B19DF81100BDF81210FE
S2144009B00839059A083289B29847714B1B78002B44
S2144009C05CD140F2092241463046664CA0476D480D
S2144009D0A0476648A0476C4B98474FE06B4B1B6858
S2144009E0002BEAD09DF81100BDF812100839059A80
S2144009F0083289B29847E0E7654B1B68002BDCD08D
S214400A009DF81100BDF812100839059A083289B2CF
S214400A109847D2E75F4B1B68002BCED09DF811005D
S214400A20BDF812100839059A083289B29847C4E7CB
S214400A30594B1B68002BC0D09DF81100BDF8121012
S214400A400839059A083289B29847B6E740F211222B
S214400A5041463046434CA0475048A0474348A047ED
S214400A606FF001042FE04FF40672414630463D4C8D
S214400A70A04703994A48A0473C48A047494B984757
S214400A80044604BB99F80030002B00F09F8099F88C
S214400A900030013BDBB289F800301FE040F21E22F6
S214400AA0414630462F4DA8473F48A8472F48A847BD
S214400AB009E04FF40972414630462A4DA8473B4864
S214400AC0A8472A48A84740F2432239493046254D90
S214400AD0A84721463748A8472448A847B847044669
S214400AE00028E6D103A941F27000334B98470446EC
S214400AF00028D3D1039B13F0010FB4D01D4B984769
S214400B00039921F00101039141F270002B4B984765
S214400B1004460028D7D10022194B1A70039DC5F30E
S214400B208B05002D92D006A941F8042D41F2840091
S214400B30214B9847044600283FF4CEAE4FF4E77268
S214400B4041463046074DA8471D48A8470748A8478E
S214400B500120084B984794E7FD05400084A24000DA
S214400B60C11840002540400074A34000B0A2400099
S214400B701CA340001503400034A34000040A402054
S214400B80EE0940208CA34000BD054000F8094020F7
S214400B90FC094020F0094020000A4020B0A3400055
S214400BA0C4A3400059064000E0A3400004A440000F
S214400BB0C8A2400024A44000A9184000B518400030
S214400BC0F4A24000EF094020C0A24000002007B039
S214400BD0BDE8F0832DE9F04383B01C46002A18BFD9
S214400BE0002903D005460F461646B8B94CB1012237
S214400BF0324B1A70324B98470346184603B0BDE84E
S214400C00F08340F269222F492F48304CA0473048A5
S214400C10A0473048A0476FF00B03EEE7694641F225
S214400C2070002D4B984703460028E6D1DDF800803B
S214400C3001A941F28400284B984703460028DCD19E
S214400C40C8F38B0846451CD8019B9D4228D305EB2C
S214400C5006094344994523D83246394628461F4B11
S214400C60984703460028C8D1019A9044C84501D009
S214400C70002CC2D00122114B1A70114B98470346E4
S214400C80BBE740F27A220F490F48104CA047424635
S214400C9031461348A0470F48A0476FF00B03ACE718
S214400CA04FF4207207490848084CA0470D48A04713
S214400CB00848A0476FF00B039FE700BFEE094020AF
S214400CC0BD054000D8A2400084A240002540400018
S214400CD054A44000B0A24000A9184000C1184000EB
S214400CE074A44000B8A4400038B5431E062B1DD857
S214400CF0DFE803F00804100C1C141800134B1960AE
S214400D00002038BD124B1960002038BD114B1960C9
S214400D10002038BD104B1960002038BD0F4B1960BD
S214400D20002038BD0E4B1960002038BD044640F206
S214400D30B9220C490C480D4DA84721460C48A847F7
S214400D400C48A8476FF00B0038BD00BFF80940209C
S214400D50040A4020FC094020F4094020F0094020C5
S214400D60000A4020E4A2400084A240002540400003
S214400D70FCA44000B0A2400010B50024094B1C6003
S214400D80094B1C60094B1C70094B1C70094B1C70AE
S214400D9009480A4B98470A4903200A4B9847204679
S214400DA010BD00BF040A4020F8094020ED0940204D
S214400DB0EC094020EF094020A9054000950240007C
S214400DC0B9054000E90C400030B59FB015462C28C8
S214400DD02ED004461B283BD0062849D00E2825D0C6
S214400DE0322855D02F2863D0342876D0112800F0EA
S214400DF09380132800F0A880042800F0B780652868
S214400E0000F0C680092800F0D5802A2800F0E4804B
S214400E10202800F0F3804FF4957286498648874D27
S214400E20A84721468648A8478648A8471FB030BDF1
S214400E300023042203A92846834CA0470028F5D166
S214400E40824B1B68002BF1D003A92C209847EDE776
S214400E500023082203A928467B4CA0470028E5D15A
S214400E607A4B1B68002BE1D003A91B209847DDE78F
S214400E700123302203A92846734CA0470028D5D129
S214400E80724B1B68002BD1D003A906209847CDE7AC
S214400E900023102203A928466B4CA0470028C5D142
S214400EA06A4B1B68002BC1D003A932209847BDE788
S214400EB06422002103A8664B98470023642203A9B6
S214400EC02846614CA0470028B0D1604B1B68002BD9
S214400ED0ACD003A92F209847A8E70023042203A9F3
S214400EE02846594CA0470028A0D15A48534CA04702
S214400EF00399CBB20093C1F30723C1F30742090E0F
S214400F005548A0474F48A047504B1B68002B8DD0F4
S214400F1000213420984789E70023504A1370042262
S214400F2003A92846484CA04700287FF47FAF9DF889
S214400F300C204B4B1A70454B1B68002B3FF476AF8A
S214400F4003A91120984771E700232C2203A92846BD
S214400F503D4CA04700287FF469AF3C4B1B68002BF4
S214400F603FF464AF03A9132098475FE700230422A9
S214400F701CA92846344CA04700287FF457AF334B73
S214400F801B68002B3FF452AF1CA9042098474DE73E
S214400F90002304221CA928462B4CA04700287FF497
S214400FA045AF2A4B1B68002B3FF440AF1CA9652079
S214400FB098473BE70123642203A92846224CA047D2
S214400FC000287FF433AF214B1B68002B3FF42EAF35
S214400FD003A90920984729E70123042203A92846A4
S214400FE0194CA04700287FF421AF184B1B68002BF4
S214400FF03FF41CAF03A92A20984717E7002308228E
S21440100003A92846104CA04700287FF40FAF0123C1
S214401010BDF81020039905F10800A04700287FF48A
S21440102005AF0A4B1B68002B3FF400AF03A92020F6
S2144010309847FBE628A5400084A240002540400093
S21440104084A54000B0A24000D50B4000080A4020CE
S2144010508105400058A5400064A540000D0A402088
S2144010600C0A4020F0B58BB001238DF807300028DD
S21440107050D00268294B1A600022294B1A700DF195
S2144010800700284B9847044610B120460BB0F0BDE9
S214401090254B98470446002838D124490120244B44
S2144010A0984702A8234B98470446234F3846234D7B
S2144010B0A8479DF80E309DF80D209DF80C1020484E
S2144010C0A847204E3046A8473846A8479DF81130D6
S2144010D09DF810209DF80F101B48A8473046A8479B
S2144010E03846A8470023032213211848A84730460D
S2144010F0A84714F10D0FC8D140F2D512144915482F
S214401100A8471548A8473046A847BEE70020134BD7
S2144011109847BAE76FF00B04B7E700BF080A4020CD
S2144011200D0A4020291A4000790D4000C90D4000A4
S214401130E90C40007919400058A540002540400081
S21440114044A64000B0A2400060A640007CA64000F6
S21440115034A5400084A2400098A64000F51A4000FE
S21440116008B5014B984708BDC50840002DE9F04139
S214401170A0B080460D4614461E46BDF89870012A1B
S21440118003D0002B37D0022A42D06B1EDBB21F2B77
S21440119075D8FF2F01D00D2F7ED82A4641460DF137
S2144011A05A00774B984720AB1D44002305F8263C51
S2144011B0ADF858709DF89C30003318BF01238DF869
S2144011C07B308DF85540032C73D0022C00F0AA805B
S2144011D0042C00F0C180012C40F0C4800023029310
S2144011E0019300936C2305AA28210120654CA04753
S2144011F020B0BDE8F08140F2032263496348644C66
S214401200A0476448A0476448A0476FF00B00EFE74C
S2144012101846624B98474028B7D13378A3F13A0234
S214401220D2B2062A1ED9A3F13002D2B2362A19D833
S214401230473BDBB2192B15D9314606F13F0011F872
S214401240013FA3F13A02D2B2062A0BD9A3F13002EB
S214401250D2B2362A06D8473BDBB2192B02D988428F
S214401260EDD192E740F20F2247494848484CA04704
S2144012704B48A0474848A0476FF00B00B8E740F2FD
S214401280192241494148424CA0474648A047424857
S214401290A0476FF00B00ABE740F222223A493B48AA
S2144012A03B4CA0474048A0473B48A0476FF00B0048
S2144012B09EE73378013BDBB28DF81430032B13D80E
S2144012C07278531E8DF8153002F0EF030B2B1AD1AF
S2144012D0B11C0DF116002A4B9847737820AA134488
S2144012E0002203F86A2C79E740F23922264927483B
S2144012F0274CA0479DF814102C48A0472648A047E6
S2144013006FF00B0074E74FF410721F491F48204CD3
S214401310A0479DF815102648A0471F48A0476FF0E5
S2144013200B0065E730461D4B9847431E9BB23F2B4C
S21440133005D8421C314605A8114B98474EE740F267
S2144013404F2211491148124CA0471A48A04712484C
S214401350A0476FF00B004BE73E22314605A8084BEE
S21440136098473BE740F25F2207490848084CA047A9
S2144013701148A0470848A0476FF00B0038E700BF69
S2144013806D054000E506400044A5400084A24000AC
S2144013902540400098A54000B0A240008F05400080
S2144013A0ACA54000BCA54000D0A54000DCA5400050
S2144013B0F8A5400014A6400030A6400010B582B004
S2144013C000240194BDF810400094024CA04702B09F
S2144013D010BD00BF6D11400000207047F0B583B0CF
S2144013E004464FF4A5550A4E0A4F21462846B047B4
S2144013F054B102A9002341F8043D2846B8470028C6
S214401400F3D1019B9C42F0D1002003B0F0BD00BF59
S214401410B5184000A91840002DE9F04F83B00120D0
S2144014203C4B984701A901203B4B9847824638B928
S21440143000244FF00108DFF80891364D374F20E082
S214401440722237493748384CA0473848A047384872
S214401450A04709E0962232493248334CA0473548E7
S214401460A0473348A047B246504603B0BDE8F08F89
S214401470019941F002014046C847009B13F0040F13
S214401480F2D1019941F002014046C8474046A8477C
S2144014906946294B1868204B984708B9009BBBB94A
S2144014A0254E0E2333604046A847694630681A4B9F
S2144014B0984708B9009B5BB91F4E132333604046DC
S2144014C0A84769463068144B984706460028C1D15D
S2144014D0194E009B13F0040FC6D10134A7FB04231A
S2144014E05B0803EB43039C42C2D10220A8476946EF
S2144014F03068094B9847009B13F0040FE9D1AA22A5
S21440150007490848DFF820B0D8470C48D84708486D
S214401510D847DEE7C9014000A9184000ABAAAAAAEE
S214401520B4A6400084A240002540400024A74000C6
S214401530B0A2400044A740001000402064A74000EE
S214401540B518400000B583B001A941F20840154BDC
S2144015509847E8B9019941F48071019141F20840F9
S214401560114B9847B8B901A94FF4D0500D4B984746
S214401570A0B9019941F4803101914FF4D0500A4B03
S2144015809847002818BF6FF0050003B05DF804FBCD
S2144015906FF00500F9E76FF00500F6E76FF005001D
S2144015A0F3E700BFA9184000B518400010B582B058
S2144015B0254B1C6824B1244B1C68204602B010BD45
S2144015C019464FF48050214B984718B100221E4BC5
S2144015D01A60F2E701A941F2F4301C4B984718B163
S2144015E00022194B1A60E8E7174B1B68184A9342CB
S2144015F00DD0184A934211D0174A934218D0124A37
S214401600136823F4702343F4A0231360D3E7019BAD
S214401610012BF4D001320C4B1A60F0E7019B032BF0
S214401620EDD0042B0CBF01320C4A074B1A60E6E79C
S21440163005494FF46C10054B98470028DFD0002230
S214401640014B1A60B9E700BF100A4020A9184000B5
S214401650A0021000B0021000F0001000B20210000D
S2144016602DE9F041074641F21405284C284E2846FD
S214401670A047002802DB0120B047F8E72548234B67
S214401680984710F0010F10D1DFF884801F4E224D8E
S2144016900120C0474FF00C10B04704462A4601468A
S2144016A01E481F4B9847AC42F2D1022F19D0032F49
S2144016B022D0042F14BF002480241A4B9847C0F32E
S2144016C00B00B0F5687F0CBF44F002002046164B76
S2144016D0984716494FF00C10154B98470020BDE828
S2144016E0F08114491448124CA0474FF4801141F23F
S2144016F08C00A0470024E0E70E490F480C4CA0475A
S214401700002141F28C00A0470024D6E79D184000F7
S214401710C9014000BC0702009ED0AD1088A740001B
S21440172025404000AD154000DD134000612F52EFCC
S214401730B51840007DD51C3CAC070200F0B583B020
S21440174041F28C030193184B00930238C0B2012833
S21440175011D94FF0FF3400200227144E144D009B41
S214401760984212D03846B0470198A847013CF6D177
S2144017706FF004000EE00F4B0193A3F12253A3F544
S2144017801113A3F2E9530093E3E7009A064B9A42FB
S21440179002D0002003B0F0BD002141F28C00064B81
S2144017A098470020F6E700BF36265302C90140009E
S2144017B09D184000AC070200B5184000F0B583B055
S2144017C002A9002341F8043D4FF4A050244B98470B
S2144017D020BB019921F4806101914FF4A050214B28
S2144017E09847054628BB0A241D4E1E4F01A94FF4B4
S2144017F0A050B047054638BB019911F4806F0AD017
S21440180021F4806101914FF4A050B8470546631E0D
S21440181013F0FF04EAD1284603B0F0BD40F231226F
S21440182011491248124CA0471248A0471248A047F8
S214401830CFE740F237220C490C480D4CA0470F48E2
S214401840A0470D48A047E6E740F23E220649074833
S214401850074CA0470A48A0470748A047DBE700BF19
S214401860A9184000B5184000C4A6400084A2400015
S21440187025404000D0A64000B0A24000ECA6400064
S21440188008A7400008B5014B984708BD3D034000F7
S21440189008B5014B984708BD2D05400008B5014BDB
S2144018A0984708BDF120400008B5014B984708BD51
S2144018B00921400008B5014B984708BD212140004A
S2144018C02DE9F047074689461546124BB3F8008087
S2144018D0A8F108081FFA88F8424519D94446002658
S2144018E0DFF834A0424609EB06013846D0470346A7
S2144018F058B92D1B26442744A542F3D8AAB209EB73
S21440190006013846044B984703461846BDE8F0871C
S2144019100026F3E70C0040204D2240002DE9F0471A
S214401920074689461546124BB3F80080A8F10808CA
S2144019301FFA88F8424519D944460026DFF834A0F5
S214401940424609EB06013846D047034658B92D1B98
S21440195026442744A542F3D8AAB209EB06013846E6
S214401960044B984703461846BDE8F0870026F3E741
S2144019700C0040201523400030B583B0044602A931
S214401980002341F8043D2448244B98470546019AD5
S214401990234B9A4239D0019B1A0C91B2080AE07147
S2144019A0C1F30311217202F00F0262729AB2110A59
S2144019B02171C2F30312627103F00F03A371194B36
S2144019C0984720602279A37903F00F0343EA022365
S2144019D062791201D2B21343E179627A02F00F02C1
S2144019E042EA0122217A0901C9B20A4341F2303162
S2144019F08A4288BF6FF00C0541F22F3293428CBF6B
S214401A0028466FF00C0003B030BD01A941F24800F3
S214401A10024B98470546BEE7AC070200A9184000AF
S214401A20C3C15DD7AD15400038B5002837D004781F
S214401A30631EDBB2042B28BF012400201E4B9847B0
S214401A40054600282DD11D481D4DA8471D4B9847DB
S214401A5001461D48A8471D48A8471D4B98472046A5
S214401A601C4B98470546B0B920461B4B9847054641
S214401A7088B9023CE4B2012C0FD9184B984705466A
S214401A8058B14FF4AE72164916480D4CA04716484A
S214401A90A0470E48A047154B9847284638BD012416
S214401AA0CBE74FF492720E490E48054CA0471048BB
S214401AB0A0470648A047F0E78518400058A54000D4
S214401AC025404000AD15400050A84000B0A2400060
S214401AD039214000611640003D1740004515400042
S214401AE098A7400084A2400014A8400091184000E7
S214401AF034A8400038B5194B984758B90020184BC1
S214401B009847044698B9174B98470446D0B9164BA1
S214401B1098470AE004464FF4BA7214491448154DE3
S214401B20A8471548A8471548A847204638BD40F25C
S214401B307B120E490E480F4DA8471148A8470F483C
S214401B40A847F2E740F2811208490948094DA847DC
S214401B500C48A8470948A847E7E700BFBD1740001C
S214401B60992B400091184000E5204000A4A7400073
S214401B7084A2400025404000B4A74000B0A24000E8
S214401B80D4A74000F8A7400000B585B000230193D5
S214401B900290ADF80C1001A90320024B984705B0FF
S214401BA05DF804FB590440002DE9F04182B005463B
S214401BB000F13B03DBB2012B27D9CF2825D00B24DD
S214401BC04FF00108234F41460DF10700B84706463F
S214401BD020BB9DF80730AB422CD0631E13F0FF04A9
S214401BE0F1D10B2401271B4D39460DF10700A847BC
S214401BF010BB9DF8073053B3631E13F0FF04F3D1B8
S214401C000126304602B0BDE8F08101210DF1070003
S214401C10104B98470028D2D00026F2E740F2271211
S214401C200D490E480E4CA0470E48A0470E48A04708
S214401C300026E6E70B24D5E740F23512064907486A
S214401C40074CA0470748A0470748A047D9E70126C2
S214401C50D7E700BF891B400068A8400084A2400028
S214401C6025404000A8AC4000B0A240002DE9F04F0F
S214401C7085B083468A4617464FF00009374D27E021
S214401C8040F2571236493748374CA0473748A047A6
S214401C903748A04700230193019805B0BDE8F08F70
S214401CA0002C2EDD41460BEB0900A84704460028D1
S214401CB034D11FB92F4B1B78002B3AD0C1440FFAB2
S214401CC089F9AAEB080A1FFA8AFABAF1000F41D03E
S214401CD0D046BAF5005F28BF4FF400580A240126C4
S214401CE031460DF10B00A84701900028C8D19DF859
S214401CF00B301B090F2BD3D0013C24B2B4F1FF3F6D
S214401D00EED140F2631216491648174CA0479DF88C
S214401D100B101948A0471648A047BDE74FF4B672C7
S214401D200F491048104CA0471448A0471048A047F9
S214401D30B2E7022103A8A8470028BFD040F2771296
S214401D4007490848084DA8470D48A8470848A847E7
S214401D500194A1E7012301939EE700BF891B400041
S214401D6074A8400084A2400025404000DCAC4000FF
S214401D70B0A24000140A402010AD400040AD4000E4
S214401D8074AD400000B585B0019000230293ADF8D5
S214401D900C1001A90320024B984705B05DF804FBE0
S214401DA05904400070B584B09DF820408DF804007A
S214401DB0C1380E2800F2A280DFE800F045456619DB
S214401DC02A3354547F08A0A0A0A03C000B0C8DF8EA
S214401DD005300B0A8DF806308DF807100521554B57
S214401DE01B78002B00F08C800139C9B29AE0C1F311
S214401DF0072344B98DF805308DF8061000238DF87A
S214401E0007300521EBE763F07F038DF80530F3E7F5
S214401E1000238DF805308DF806308DF80730052103
S214401E20DDE700238DF805308DF806308DF8073055
S214401E300521D4E7FF238DF805308DF806308DF860
S214401E4007300521CBE70A0C8DF805200A0A8DF8E5
S214401E5006208DF807101A0A8DF808208DF80930EC
S214401E600721BCE70A0C8DF805200A0A8DF80620E3
S214401E708DF807101A0C8DF808201A0A8DF80920DC
S214401E808DF80A300821AAE7C1F3072384B98DF8F4
S214401E9005308DF80610130E8DF80730130C8DF8AC
S214401EA00830130A8DF809308DF80A20082196E785
S214401EB063F07F038DF80530EBE70B0C8DF80530AB
S214401EC00B0A8DF806308DF80710130E8DF8083083
S214401ED0130C8DF80930130A8DF80A308DF80B2054
S214401EE009217CE74FF4847213491448144CA047E8
S214401EF01448A0471448A047002019E0002017E0E7
S214401F004E1E01AB9D197F201A46104C12F8013B1D
S214401F1083EA4003E05C9542F8D104AB1E4443009C
S214401F2006F80C3C01A80A4B98470028DAD1012055
S214401F3004B070BD140A402060A8400084A240004F
S214401F40254040007CAC4000B0A24000DCA84000E9
S214401F50851D400070B582B00446312835BF012348
S214401F600023C325C925009304230A460146284674
S214401F70154EB04701280DD040F2EB1213491448D5
S214401F80144DA84721461448A8471448A84700209F
S214401F9002B070BD2846124B98470128F8D040F250
S214401FA0F1120A490A480B4DA84721460D48A84752
S214401FB00A48A84700240094234622462146CF20BC
S214401FC0014DA8472046E3E7A51D400094A84000E1
S214401FD084A24000254040002CAE4000B0A2400005
S214401FE0A91B400058AE40002DE9F04184B004469D
S214401FF08846B0F5807F35BF01260026C425CA2511
S214402000009604230022014628462C4FB847012854
S2144020100ED040F245222A492A482B4DA847214651
S2144020202A48A8472A48A847002004B0BDE8F081BF
S2144020302846284B9847012814D040F24B22204986
S2144020402048214DA84721462348A8472048A8476E
S21440205000240094234622462146CF20174DA84709
S2144020602046E2E73246042103A81C4B9847012845
S21440207010D19DF80D209DF80E301B0443EA022334
S2144020809DF80C2013439DF80F2043EA0263C8F8DE
S2144020900030CAE740F2532209490A480A4CA04792
S2144020A00F48A0470A48A0470024009423462246EB
S2144020B02146CF20014DA8472046B6E7A51D400043
S2144020C0B4A8400084A2400025404000ACAD40008B
S2144020D0B0A24000A91B4000D8AD40006D1C400097
S2144020E00CAE40000020014B18707047140A402088
S2144020F000B583B001A9034B9847019803B05DF83B
S21440210004FB00BFE91F400008B5044B9847012870
S2144021100CBF00206FF0050008BD00BFE91F40005F
S21440212008B5044B984701280CBF00206FF0050007
S21440213008BD00BF551F400030B583B0002302A93C
S21440214041F8083D344A13704EF62400334B984706
S21440215048B3314B1B787BB9009921F07C0141F0A4
S214402160500100914EF624002D4B98470446002817
S21440217039D00122284B1A7001A94FF48050274BC2
S214402180984700283AD04EF62400264B984720F031
S214402190700141F050014EF62400234B984700242E
S2144021A0204603B030BD01221B4B1A7040F2C522B8
S2144021B01E491F481F4CA0471F48A0471F48A0471E
S2144021C069464EF62400154B984704460028C0D171
S2144021D04FF4327215491648164DA8471848A84776
S2144021E01648A847DCE740F2D22210491048114D65
S2144021F0A8471448A8471148A847D1E74FF4377274
S2144022000A490B480B4CA0470F48A0470B48A0472D
S2144022106FF00504C4E700BF140A4020E91F4000E1
S214402220551F4000F120400021214000D0A840002A
S21440223084A2400025404000DCA94000B0A24000F7
S2144022402CAA40005CAA400090AA4000F0B583B09B
S21440225004460F461546002200922B460146C820EB
S214402260224EB04701280ED04FF41D722049214817
S214402270214DA84721462148A8472148A8476FF046
S214402280050003B0F0BDC8201E4B9847012812D069
S21440229040F27A2216491748174DA84721461A4851
S2144022A0A8471748A847002100910B460A46CF206A
S2144022B00E4CA047E3E7002229463846134B984782
S2144022C0012811D04FF4217209490A480A4CA04708
S2144022D00F48A0470A48A047002100910B460A46EF
S2144022E0CF20024CA047CAE70020CAE7A51D400001
S2144022F0C4A8400084A2400025404000B8AA400040
S214402300B0A24000A91B4000E8AA40006D1C400057
S21440231020AB40002DE9F04385B00446884615467C
S214402320002200922B460146C7204D4EB04701285A
S2144023300FD040F20F224B494B484C4DA847214600
S2144023404B48A8474B48A8476FF0050005B0BDE886
S214402350F083C720484B9847012812D040F21522F8
S21440236040494148414DA84721464448A84741482E
S214402370A847002100910B460A46CF20384CA0477C
S214402380E2E70024ADF80C403D4FDFF80C911DE02D
S214402390B5F5005F94BF0323022363F00F038DF867
S2144023A00B3001210DF10B00B847E8B9314608EB78
S2144023B00400B847002835D199F80030002B3CD0AF
S2144023C0344424B2AD1BADB2002D46D02E46B5F5F2
S2144023D0005F28BF4FF40056002CD9D1B5F5005FFA
S2144023E094BF03230123D8E74FF4D47225491E48EF
S2144023F01E4CA0472448A0471E48A04740F226222D
S21440240018491948194CA0472048A0471948A047E2
S21440241000240094234622462146CF20104DA8474C
S214402420204693E740F2B11216490F480F4CA0479A
S2144024301748A0470F48A047E0E7022103A8B8473F
S2144024400028BDD040F2BB120E490748074CA047B3
S2144024501048A0470748A047D0E7002076E700BFCF
S214402460A51D4000A4A8400084A24000254040008E
S21440247048AB4000B0A24000A91B400078AB4000EB
S214402480851D400084A84000B0AB400054AC4000DE
S214402490E8AB40001CAC4000140A40202DE9F84F41
S2144024A0BDF8284094B181460E46924698460301B0
S2144024B02249CB5853B101EB00139B889BB22BB1FA
S2144024C001EB00139B7ADBB2012B01D0BDE8F88FFD
S2144024D0F48001EB0017DFF87CB006E025460123C8
S2144024E00BE0641BA4B2A844ECB1BB88E31A1BB251
S2144024F0002BF3DDBD88ADB2002339682A4640463E
S214402500D84790B93B683360B580F3885B1BF3804F
S2144025100B4B1B68002BE4D0094B1B6832465146D8
S21440252048469847DDE7BDE8F88F0648064DA84779
S21440253021460648A8470648A847C7E75410402003
S2144025400411402058A540002540400090AE400071
S214402550B0A24000D50B4000F0B599B014464128D3
S21440256049D00D4642285FD0432875D0442800F015
S214402570B0804B2800F0AD804A2800F0CC80A0F117
S2144025804603DBB2072B00F2F480852222FA03F3DF
S21440259013F0010F00F0ED80482814BF06270927E6
S2144025A00023102203A92046934EB047002840F04F
S2144025B0B0809DF91800BDF81A10904A02EB001240
S2144025C000231373BDF914E0BDF81630BDF80E6055
S2144025D0ADF82660049E0A96D28892B2914200F0E8
S2144025E0AC80102D40F29580012300221146104603
S2144025F0814CA0478DE00023042207A920467E4C4C
S214402600A047002840F085809DF81D308DF80C309E
S2144026107B4B1B68002B7CD0794B1B6803AA01219F
S2144026209DF91C00984774E00023042207A9204621
S214402630714CA04700286CD19DF81D308DF80C30A9
S2144026406F4B1B68002B64D06D4B1B6803AA02219E
S2144026509DF91C0098475CE000230C220DEB02011C
S2144026602046654CA047002853D19DF91530002BD5
S21440267019DB624A02EB03120021D17201219172EA
S21440268060490A88013292B20A800A8892B21AB920
S2144026900A88013292B20A805A4A118889B2574A49
S2144026A002EB0312D1808DF81C300223ADF82030A7
S2144026B0BDF80E30ADF82230049B0993504B1B6892
S2144026C03BB34F4B1B6807AA04219DF9140098475B
S2144026D01FE00023042207A92046474CA047C0B964
S2144026E09DF91C008DF80C009DF91D308DF80D30BD
S2144026F03BB9BDF81E30083B9BB2404A02EB001285
S21440270013813F4B1B6823B13D4B1B6803AA052131
S214402710984719B0F0BD0023442207A92046364CFE
S214402720A0470028F5D1384B1B68002BF1D0364B1C
S2144027301B68179907A89847EBE7BEF1000F01DD25
S214402740AE450DDBADF820E0002307932C4B1B680D
S214402750002BDED02A4B1B6807AA39469847D8E795
S2144027601FFA8EF2009223443A4607A9274CA04708
S214402770CFE700F0FD03452B19D04C2817D0522840
S214402780C7D10123142207A920461B4CA047002886
S214402790BFD11F4B089A1A601B68002BB9D01C4B40
S2144027A01B689DF82C20099907989847B1E7472859
S2144027B014BF072508250023082207A920460E4CEB
S2144027C0A0470028A5D19DF91C00BDF82020BDF8E3
S2144027D01E30ADF80C30094B03EB0013DB889BB280
S2144027E09A4296D1064B1B68002B92D0044B1B682E
S2144027F003AA294698478CE7D50B40005410402042
S21440280004114020160A40200C1140209D24400010
S2144028100811402008B50A4B1B7803B108BDB0220A
S21440282000210848084B984708490220084B98471B
S2144028300122034B1A700022064B1A80EEE700BFB7
S214402840150A40205410402081054000592540007C
S214402850E90C4000160A4020024B1860024B1960F3
S214402860704700BF041140200C114020F0B587B0DF
S214402870022858D1012959D0022916D10B260724FF
S21440288025462E4B03EB04139B7A002B51D0631C3A
S214402890DBB22A4FDCB2B44240D21D4607EB0311EE
S2144028A0897A581C21B10346F4E74FF0FF3437E0ED
S2144028B0224800EB0310164610220021204B984772
S2144028C01E4B03EB051301229A721E4A13880133EE
S2144028D09BB2138013889BB21BB9138801339BB2FB
S2144028E01380184B1A8892B2144B03EB0513DA8008
S2144028F064B216F0010F13D006AA02F8044D0F4B2F
S21440290003EB05152123EB720023029301930093FA
S2144029100423502102200C4DA84701E04FF0FF341D
S214402920204607B0F0BD4FF0FF34F9E707260024F5
S214402930A6E7024800EB0410BDE700BF5410402055
S21440294081054000160A4020E506400030B589B0B3
S214402950041E36DB002934D01D4B03EB04139B7A50
S214402960DBB2002A30D0012B2ED1194B03EB0413D7
S214402970DB7A13F0010F22D0154B03EB0413DB7AFE
S2144029808DF81D304B258DF81C40082205A8114BAC
S21440299098470F4800EB0410C388ADF81E3000235C
S2144029A00293019300930C2305AA294602200A4C61
S2144029B0A047002818BF6FF0080009B030BD442576
S2144029C0E1E76FF00500F8E76FF00500F5E700BFB8
S2144029D0541040206D054000E506400030B589B0F3
S2144029E00C46003118BF0121B2F5AF6F88BF0021F9
S2144029F0002937D0002835DB1D4B03EB00139B7AAC
S214402A00DBB2012B31D18DF81000ADF81220184BF7
S214402A1003EB0013DB88ADF81C300728B4BF502505
S214402A204425134B03EB0013DB7A13F0010F17D04A
S214402A300F4B03EB00100589ADB24C210295019275
S214402A40009410230DEB030241F080010220094C54
S214402A50A04700280CBF00206FF00D0009B030BD25
S214402A604521EBE76FF00500F8E76FF00500F5E766
S214402A7054104020E5064000002918BF002A44D0E4
S214402A8070B586B00E461546002836DB204A02EB67
S214402A900012927AD2B2012A32D11D4C010162183C
S214402AA066509580127B002A2DD104EB001201213E
S214402AB01173D27A0A40002A0CBF46214D21D3B961
S214402AC04FF0FF3304938DF81400114B03EB0010C6
S214402AD0C388ADF816300023029301930093082371
S214402AE004AA02200B4CA04700280CBF00206FF021
S214402AF00D0006B070BD0493E5E76FF00500F8E7FB
S214402B006FF00500F5E70020F3E76FF0050070472B
S214402B1054104020E506400030B587B0041E2FDB39
S214402B201A4B03EB04139B7ADBB2012B2BD18DF8A7
S214402B301440164B03EB0413DA88ADF81620002237
S214402B409A72DA80DB7A03F0010393420292019292
S214402B5000924FF0040305AA0CBF49214E210220E3
S214402B600B4DA847051E18BF6FF008051022002120
S214402B70064800EB0410074B9847284607B030BD80
S214402B806FF00505F9E76FF00505F6E754104020AD
S214402B90E50640008105400070B582B005462B4BE7
S214402BA09847C0F30B00B0F5687F03D20024204658
S214402BB002B070BD01A941F21040254B984704462B
S214402BC00028F4D1234B019A13402349194301911D
S214402BD041F21040214B984705B3002120481F4D35
S214402BE0A847AB211F48A84701211F48A8470021F6
S214402BF01E48A84781211E48A8471E4E1E4D3046F7
S214402C00A8470128FBD11349019B194041F4803164
S214402C10019141F21040114B9847C8E700211048F7
S214402C200E4DA847B9210F48A84701210E48A8478E
S214402C3000210E48A84781210D48A8470D4E0E4D4D
S214402C403046A8470128FBD1DDE700BFAD15400060
S214402C50A9184000FF8F88F800101101B5184000F1
S214402C60080201000C020100140201001C020100CF
S214402C7004020100180201009D18400010B51048DB
S214402C80104B98473E2100200F4B98470F4CA047CB
S214402C900028FCD00E4B98470E4A0F4B9A620F4CBA
S214402CA0A0470028FCD002200D4B984700200D4B33
S214402CB098470D4B98470248024B984710BD00BFB7
S214402CC000A3E111F9384000C133400015344000FC
S214402CD025344000013F182000060E4035344000A1
S214402CE0253340005D334000ED3740002DE9F0418C
S214402CF080B90C469046002A0FDD8F18084E094DC5
S214402D00306821462B6898470134BC42F8D140468B
S214402D10BDE8F0814FF0FF38F9E78046F7E700BF9F
S214402D2018114020101140200138022815D82DE9EE
S214402D30F0410E4614469AB10D46DFF838800C4FE7
S214402D40D8F8000015F8011B3B68984700280ADBB6
S214402D50A81B013CF4D1BDE8F0814FF0FF3070472E
S214402D601046BDE8F0814FF0FF30BDE8F08100BF6F
S214402D701411402018114020F8B54FF400425C4B27
S214402D805A60BFF34F8FBFF36F8F5A4B0022C3F882
S214402D9050225A6942F400325A61BFF34F8FBFF354
S214402DA06F8FD3F88070C7F34E3607F007000430B5
S214402DB0C7F3C907B7FA87FE0EF01F0EBFF34F8F53
S214402DC04FF0FF3404FA00FC06FA00F004FA0EF462
S214402DD007FA0EFE1D463A46734640EA0301C5F81A
S214402DE06012013A2344B2F1FF3FF6D1013E6044FF
S214402DF0B6F1FF3FEFD1BFF34F8F3E4B5A6942F4D7
S214402E0080325A61BFF34F8FBFF36F8F3A4A3B49C8
S214402E105160A1F580715160BFF34F8FBFF36F8F44
S214402E20D3F8902222F00102C3F89022D3F89422DD
S214402E3022F00102C3F89422BFF34F8FBFF36F8F87
S214402E400A202F4CA0470B20A0470C20A04710205C
S214402E50A0471120A0472B4B4FF480721A61C3F84D
S214402E60A0201A63A3F580634FF400625A61C3F84A
S214402E70A0205A66C3F890205A651A62C3F8842088
S214402E80196F21F400611967596F21F40061596781
S214402E90C3F8C020C3F8D420C3F8B0204FF40012C3
S214402EA01A66C3F890205A655A62C3F88020196F94
S214402EB021F400111967596F21F4001159675A60BF
S214402EC0114AD2F8143143F01003C2F814310F4BB4
S214402ED010221A66C3F890205A655A62C3F88020BA
S214402EE0196F11431967596F114359675A60F8BDF6
S214402EF050180E4000ED00E0000C0E400C08005A42
S214402F004534400000120E400080084000100E403D
S214402F100AB901667047416670474264B1F1C05FC6
S214402F203AD013D8B1F1006F25D0B1F1805F0AD105
S214402F30036F13430367436F416F0B4023EA02035B
S214402F404367426070470029FBD17047B1F1205F6C
S214402F5021D009D8B1F1005FF3D1036F1343036763
S214402F60436F13434367ECE7B1F1405F13D0B1F1D1
S214402F70605F10D0E5E710B4016F046FD343214083
S214402F801C4619400167436F416F0B40234043671F
S214402F9042605DF8044B7047036F016F0B4023EAB5
S214402FA002030367436F13434367CAE7416412F063
S214402FB0010F0DD1016612F00A0F0BD0016212F01C
S214402FC0020F09D112F0080F08D0C0F8841005E0AF
S214402FD04166F0E74162F2E7C0F880104161016067
S214402FE0704710B4019C41644CB901664BB1016511
S214402FF04AB94163016101605DF8044B7047416620
S214403000F4E74165F4E70163F4E712F0100F12D0DD
S214403010C0F8B01012F0200F07D0C0F8D41012F04D
S214403020400F05D0C0F8C0107047C0F8D010F6E783
S214403030C0F8C4107047C0F8B410704701647047B9
S21440304041647047C06C7047806C704770B582B002
S2144030500D46464C04EB5014640201F0F043B3F1C5
S214403060005F59D00AD8B3F1805F2FD0B3F1C05F6C
S2144030703FD0B3F1006F16D0002012E0B3F1405FAE
S2144030805DD0B3F1605F5AD0B3F1205FF4D100F069
S2144030901F0101262A4606FA01F12046344B98477E
S2144030A0304602B070BD00F01F0001268640324612
S2144030B04FF0006120462F4B984715F0010F02D184
S2144030C026660120EDE766660120EAE700F01F006D
S2144030D00126864032464FF080512046254B984781
S2144030E015F0010F02D126660120DAE76666012058
S2144030F0D7E700F01F000126864032464FF0C05109
S21440310020461C4B984715F0010F02D12666012039
S214403110C7E766660120C4E700F01F000126864028
S21440312032464FF000512046124B984715F0010F9B
S21440313002D126660120B4E766660120B1E705F0B5
S214403140605200F01F01012605EA06030093C5F30E
S2144031508003B2F1605F14BF0022012206FA01F13B
S2144031602046054CA04730469BE700BF0707200097
S214403170AD2F40001B2F4000E32F40002DE9F041CB
S214403180044688460E4B9847054620460D4B9847C2
S214403190054013D00C4C04F1600603E0B4420DD059
S2144031A010345DB120684045F8D161682942F5D0B9
S2144031B0E3689847636825EA0305EFE7BDE8F081D2
S2144031C04530400049304000180A4020F8B5184CB9
S2144031D02668062E2AD84FF0000C6446154F04E0A9
S2144031E00134E4B2A446A64209D3A64625017D5939
S2144031F08D42F5D107EB04156D689542F0D10D4D23
S2144032004FEA0E1E05EB0E0445F80E106260A360F2
S2144032100699E1600136664505D011461A46064BCA
S21440322098470020F8BD02490E60F6E70120F8BD39
S214403230880A4020180A40200B30400008B50A2172
S2144032400148024B984708BD000E0E407D314000B5
S21440325008B50B210148024B984708BD00100E40A8
S2144032607D31400008B50C210148024B984708BD07
S21440327000120E407D31400008B510210148024B37
S214403280984708BD00140E407D31400008B5112116
S2144032900148024B984708BD00160E407D3140005D
S2144032A0F8B506460D461446174B984707464FF066
S2144032B0FF313046154B98473046154B98475FFAD6
S2144032C085FE0EF01F03012202FA03F36809114936
S2144032D001EB8002C2F88030C2F88031002D0ADB54
S2144032E06401E4B20C4A545541F820303946304621
S2144032F00A4B9847F8BD0EF00F0E6401E4B2084A38
S21440330002F80E40F0E700BF493040004130400030
S2144033104530400000E100E000E400E03D30400081
S21440332014ED00E0032811D0042812D002280CBF68
S2144033304FF480710021084A136B23F440730B430B
S2144033401363936E13F0080FFBD070474FF4407131
S214403350F1E74FF40071EEE700060E40174A136B94
S21440336023F0700318431063936E13F0080F0AD1CE
S2144033704FF4805311498A6E12F0080F03D1013B77
S214403380F9D1012070470D4A136B23F0030343F035
S21440339002031363936E13F0080F0AD14FF4805361
S2144033A006498A6E12F0080F05D1013BF9D101207B
S2144033B07047002070470020704700BF00060E4050
S2144033C0A0B90E48036A090289B20D4A1A400D4B4D
S2144033D01343194301620246936E13F0010FFBD06C
S2144033E0064A116A084B0B431362704703490B6A3F
S2144033F0064A1A40064B13430B62704700060E40BF
S214403400FCFFC8FF0100370000003701FCFFC8FE84
S21440341002003701024B986E00F48030704700BFC0
S21440342000060E404FF00052014B9A62704700BFB4
S21440343000060E40024B986E00F00200704700BF38
S21440344000060E403F281ED81F280CD8114B9A69FC
S21440345001238340934318D0012303FA00F00D4B19
S21440346018610020704720380A4BD3F80821012302
S214403470834093430BD0012303FA00F0054BC3F877
S2144034800001002070470120704700207047002050
S214403490704700BF00060E4008B5074B984203D061
S2144034A0064B984204D008BD1520054B984708BDEA
S2144034B02A20034B9847F6E70080004000800540EE
S2144034C045344000436823F470234360436809044E
S2144034D001F4702119434160704710B443F69923B4
S2144034E0046914F0010F03D1013BF9D1012009E032
S2144034F08368406810F0020F02D0C3F30340107098
S2144035000B8000205DF8044B704730B443F6992496
S214403510056915F0020F03D1013CF9D101200CE0FA
S214403520446814F0020F06D0120402F470221143CD
S2144035300BB141F08071C160002030BC704732B999
S21440354000EB8100036B23F001030363704700EB3D
S2144035508100036B43F001030363704732B900EB0D
S2144035608100036B23F002030363704700EB810086
S214403570036B43F002030363704700EB81010B6B60
S21440358023F0F0030B630B6B1A430A637047431E2A
S2144035901944B1FBF0F0431EFE2B94BF00B24FF02F
S2144035A0FF3070477AB110B4144600EB81010B6BC4
S2144035B023F47F430B630A6B42EA04220A6300202B
S2144035C05DF8044B70474FF0FF30704710B400EB87
S2144035D08101086B80B208630C6B44EA036343EADC
S2144035E002430B635DF8044B7047436913F0020FC8
S2144035F002D0C1610020704701207047436913F034
S214403600010F03D083690B7000207047012070477C
S21440361010B40B01934214D9C9004B0803EBC20205
S214403620B2FBF1F2D3085C1E4FF6FE718C4201D914
S214403630012017E0416841F4002141600CE0012080
S21440364010E0590801EBC202B2FBF3F2D3085C1E4D
S2144036504FF6FE718C42F2D8120402F4E0221A436E
S214403660026200205DF8044B70470000084BC0F82B
S214403670E43000234360436283628823036024234C
S21440368003604FF4807303604FF400230360704779
S2144036900041535570B505460C4616460F4B9847A5
S2144036A000220F4B1A60A4B13246216828460D4BC3
S2144036B09847024678B96368A1680B4321690B4373
S2144036C0E1680B4306490B6069680B436B60104624
S2144036D070BD0122FBE70122F9E700BF6D364000CE
S2144036E08C0A402011364000402303607047102368
S2144036F003607047436913F0020F04D0C1F308011A
S214403700C1610020704701207047436913F0010FE4
S21440371005D08369C3F308030B600020704701207F
S2144037207047FEE700B583B0254B264A9A4210D034
S214403730254B234A9A420CD2013B9B1A23F00303A3
S214403740043313441F4951F8040B42F8040B9A42C1
S214403750F9D11E4B1E4A9A420AD2013B9B1A23F0CD
S214403760030304331344002142F8041B9342FBD165
S214403770184A194B23F07F039360EFF31083B3FA94
S21440378083F35B09019372B6BFF35F8F0022134B3E
S2144037901A700199124A136843F470031360BFF31A
S2144037A04F8FBFF36F8F29B101220C4B1A70BFF3B6
S2144037B05F8F62B60B4B98470B4B9847FEE700BFB0
S2144037C000004020A4B34000CC09402020114020F7
S2144037D0CC09402000ED00E00000400014004020EE
S2144037E088ED00E0D53F4000ED3D40003B4B1B6B75
S2144037F003F00303012B1DD083B1022B36D0374B89
S2144038001B6B03F07003702B5FD0344B1A6B34493C
S214403810C2F302120B68D3400B607047314B5B69B2
S21440382013F0800F14BF4FF400424FF4FA422C4B73
S2144038301A60E4E7294B1B6A13F0807F03D02A4ABC
S214403840274B1A60DBE7294A254B1A60234B1B6A35
S21440385003F07003102B05D0202BD0D1224A204BEA
S2144038601A60CCE7224A1E4B1A60C8E71B4B1B6AFD
S21440387013F0807F16D01C4A194B1A60174B1B6BEF
S21440388003F00303022BBAD1144A916A926A144891
S214403890C1F30A41036801FB0333D2B2B3FBF2F330
S2144038A00360ACE7114A0E4B1A600C4B1B6A03F0E0
S2144038B07003102B05D0202BE0D10B4A084B1A6022
S2144038C0DCE70B4A064B1A60D8E7054A13680949F5
S2144038D0A1FB03135B081360704700BF00060E4051
S2144038E01800402010180E40001BB70000093D008D
S2144038F000127A00ABAAAAAA124B984211D9124BD0
S214403900984213D9114B984214D9114B984215D965
S214403910104B984294BF4FF004220F4A0F4B1A6048
S21440392070474FF080620D4B1A6070470C4A0B4B45
S2144039301A6070470B4A094B1A6070470A4A074B91
S2144039401A607047FF2C3101FF596202FF869303CD
S214403950FFB3C404FFE0F50500050004000C0E406C
S2144039600001000400020004000300040A4B1B6828
S21440397053B1094B1B681A180849914208DB104698
S214403980054A106018467047054A034B1A60F0E730
S2144039904FF0FF30704700BF900A4020FCFF4520A4
S2144039A0203340204FF0FF3070474FF400534B60B9
S2144039B000207047012070470020704710B582B045
S2144039C0074B19600B0E0193C1F307430093C1F3F5
S2144039D00723CAB201460348034CA04702B010BDB5
S2144039E010104020CCAF40002540400010B582B0BB
S2144039F02C2803D0322813D002B010BD0B78012BF0
S214403A0008D0002BF8D10D480D4B984700220D4B9F
S214403A101A70F1E70C480A4B98470C4B9847EBE76F
S214403A208B784A780878C978009101460848044C53
S214403A30A0470122034B1A70DEE700BF84B0400067
S214403A40254040001810402064B04000D913400084
S214403A50A8B04000F0B583B005460C46002301935D
S214403A602A4B984213D02A4B984218D0294B98425A
S214403A701DD0294B9D4222D0284B9D4227D0284B13
S214403A809D422ED0274B9D4235D003B0F0BD1F46F9
S214403A90254E21463846B0470028FAD1E9E71F466A
S214403AA0214E21463846B0470028FAD1E4E71F4663
S214403AB01D4E21463846B0470028FAD1DFE71F465C
S214403AC0194E21463846B0470028FAD1DAE71E4656
S214403AD0164D01A93046A8470028FAD1019B23700D
S214403AE0D3E71E46114D01A93046A8470028FAD113
S214403AF0019B2370C9E71E460C4D01A93046A847D6
S214403B000028FAD1019B2370BFE700BF00080E4093
S214403B10000A0E40001A0E40001C0E4000400240B4
S214403B200080024000C00240FD3540000B37400098
S214403B3070B50C462A4B984213D02A4B984219D05F
S214403B40294B98421FD0294B984225D0284B984263
S214403B502BD0284B984231D0274B984237D0002064
S214403B6070BD1E46254D21463046A8470028FAD14E
S214403B70012070BD1E46214D21463046A8470028EC
S214403B80FAD1012070BD1E461C4D21463046A8473E
S214403B900028FAD1012070BD1E46184D21463046F9
S214403BA0A8470028FAD1012070BD1E46144D214674
S214403BB03046A8470028FAD1012070BD1E46104D59
S214403BC021463046A8470028FAD1012070BD1E463F
S214403BD00B4D21463046A8470028FAD1012070BD3B
S214403BE000080E40000A0E40001A0E40001C0E4010
S214403BF0004002400080024000C00240EB354000DA
S214403C00F5364000F0B401380024224625462646C4
S214403C1011E0A3F13007092F14D802EB820207EB1C
S214403C20420207E00135032D24DCFF2A24D842EA6D
S214403C30042432464BB110F8013F2E2BF2D0E8D880
S214403C40002BF2D00020F0BC7047022D03DCC5F1FB
S214403C500303DB009C4089B1230E43EA046322023F
S214403C6002F47F021A43230A03F47F4313430B6094
S214403C700120E8E70020E6E70020E4E70120E2E74D
S214403C8010B582B0054B0193054B00930B46054A91
S214403C900549064CA04702B010BD00BFB4AE400078
S214403CA0C4AE4000A4AE4000A8AE4000454240002E
S214403CB03D4B93F90030834200D0704770B51446B0
S214403CC0052902D0062943D070BD3848384B98475E
S214403CD0384B1B7803B970BD374D4FF4AF620021A7
S214403CE02846364B984736492846364B98470CB3B5
S214403CF094F90130002B1DDB33482D4B98472C465A
S214403D002846324B9847284D002382B2214695F9E3
S214403D1000002F4EB0474FF4AF6632460021204693
S214403D20264B984700233246214695F90000294CF9
S214403D30A04770BD28481E4B984700221D4B1A705E
S214403D40194C94F90000254B9847FF23237070BD0B
S214403D50F2B1B2F90430002B1ADD2148144DA847C1
S214403D602068A8474FF4AF6200211348134B98478A
S214403D701C4B1B68002BAED14FF4AF620E490A486D
S214403D8090F90000134CA0470122164B1A6070BDF4
S214403D901548074B9847044C94F900000F4B98473A
S214403DA0FF23237097E700BF1C004020FCAF400075
S214403DB0254040000C104020940A40204D404000D2
S214403DC010B04000813C400018B04000C142400066
S214403DD0DD294000792A400020B04000192B4000E1
S214403DE03CB040001410402048B0400070B592B03F
S214403DF04D4B98474D4B98470E204D4EB0474D4D36
S214403E004D4B1D604D4A4E4B1A604E4A4E4B1A6003
S214403E104FF4E1330293C02303934FF400630493BB
S214403E200024059406940E20B047484A02A9284626
S214403E30474B98472846474B98472846464B98470F
S214403E40464E336821469868454DA8473368214614
S214403E505868A8474348444B9847444B98470D9466
S214403E600E940F9410941194414B0C930CA8414B14
S214403E70984720B1014640483B4B9847FEE73F4BAA
S214403E8098473F493F48404B9847404D2946404811
S214403E90354CA047FF2300933E4B02221421284670
S214403EA03D4DA8470223ADF820304BF60B03ADF846
S214403EB0223009A939483A4B984709993948A047CA
S214403EC0394D3A4C3A4E02E03A48274B9847002044
S214403ED0A8472378012BFAD196F90030002BF6DA62
S214403EE03548214B9847002201210220334B984702
S214403EF030700028E8DB32481B4B9847102208A950
S214403F0096F900002F4B984718B901222E4B1A708D
S214403F10DDE796F900002D4B9847FF2333702C4879
S214403F20114B9847D3E700BF7D2C4000792D4000C9
S214403F30453440000080024018114020313B40008C
S214403F4014114020553A40001011402080D1F0080E
S214403F5095364000E9364000EF36400020004020CD
S214403F60E9404000D0AE40002540400025024000D9
S214403F70ED39400065104000E8AE4000152840008E
S214403F80BD394000B13C4000592840000CAF4000CD
S214403F9020AF400040AF4000BD1340004CAF400053
S214403FA0053C40005CAF40006111400018104020C6
S214403FB01C0040207CAF40006CAF40006D284000A5
S214403FC0B0AF40004D2940000C104020192B400057
S214403FD0C4AF400070B50F4E0F4D761BB61018BFDD
S214403FE0002405D0013455F8043B9847A642F9D141
S214403FF00A4E0B4D761B07F0BFF9B61018BF0024CB
S21440400006D0013455F8043B9847A642F9D170BD16
S21440401070BD00BF84B3400084B340008CB3400002
S21440402084B340000FB400B5074983B004AB0868BA
S21440403053F8042B8168019301F016FC03B05DF839
S21440404004EB04B0704700BF2000402070B48607E1
S21440405046D0541E002A41D0CAB2034602E014F1AC
S214404060FF343BD303F8012B9D07F8D1032C2ED900
S214404070CDB245EA05250F2C45EA054519D903F189
S21440408010022646103E0F2E42F8105C42F80C5C9A
S21440409042F8085C42F8045C02F11002F2D8A4F13F
S2144040A0100222F00F0204F00F041032032C1344C7
S2144040B00DD91E462246043A032A46F8045BFAD82F
S2144040C0221F22F003020432134404F003042CB1EE
S2144040D0C9B21C4403F8011B9C42FBD170BC70471C
S2144040E014460346C2E700BF00290CBF0222002246
S2144040F04FF4806300F000B82DE9F043504C25683B
S21440410083B004460F4690461E4615B1AB6B002B57
S21440411077D0B8F1020F04D0B8F1010F7DD8002E49
S2144041207BDB2146284603F0A9FA216B41B104F116
S2144041304003994202D0284603F00AFC002323633A
S214404140B4F90C300022A26162601A0652D423F4FD
S2144041504A6323F00303B8F1020FA38137D001ABC3
S2144041606A462146284603F097FEA3891843A08155
S21440417016B317B3AB6B002B4BD0009B27609E4209
S214404180B4F90C3027611CBF43F40063A381B8F137
S214404190010F04BF43F00103A3819BB213F0080054
S2144041A0666123D013F001002FD000207642A6612E
S2144041B0A06003B0BDE8F083009E304603F0DEFE0C
S2144041C0074668B3A38943F08003A381D2E7002063
S2144041D004F1430243F0020300250121A381A560B8
S2144041E022602261616103B0BDE8F083A06003B045
S2144041F0BDE8F0832169284603F0AAFBB4F90C30E9
S214404200A5E7284603F0CEFA83E7A66003B0BDE8EC
S214404210F083284603F0C6FAAFE74FF0FF30E2E7F8
S214404220DDF80090B14506D0484603F0A7FE0746A5
S21440423008B14E46C6E7B4F90C304FF0FF30C7E73A
S214404240200040200EB4F0B59CB021AB0F4953F887
S214404250042B019305466FF00044086802954FF41E
S21440426002774FF6FF7602A90695ADF814700494CF
S2144042700794ADF8166000F091F8029B00221A7081
S2144042801CB0BDE8F04003B0704700BF200040209F
S21440429000000000000000000000000000000000D9
S2144042A000000000000000000000000000000000C9
S2144042B000000000000000000000000000000000B9
S2144042C090F800F06DE9024520F007016FF0000C11
S2144042D010F0070491F820F040F049804FF00004B9
S2144042E06FF00700D1E9002391F840F000F1080094
S2144042F082FA4CF2A4FA8CF283FA4CF3A2FA8CF3CC
S2144043004BBBD1E9022382FA4CF200F10800A4FA32
S2144043108CF283FA4CF3A2FA8CF3E3B9D1E9042386
S21440432082FA4CF200F10800A4FA8CF283FA4CF3BD
S214404330A2FA8CF37BB9D1E9062301F1200182FA77
S2144043404CF200F10800A4FA8CF283FA4CF3A2FA7D
S2144043508CF3002BC6D0002A04BF04301A4612BA8B
S214404360B2FA82F2FDE8024500EBD2007047D1E98E
S214404370002304F00305C4F100004FEAC50514F01D
S214404380040F91F840F00CFA05F562EA05021CBFEE
S21440439063EA050362464FF00004A9E72DE9F04FB3
S2144043A0C3B00C460B9192460F930C9003F066FDFB
S2144043B003681A931846FFF783FFA38919901906D6
S2144043C003D52369002B01F0018000230DF1C809B5
S2144043D01393149315932793269318931B9309933B
S2144043E0CDF89490C846169317939AF800305446E2
S2144043F0E3B1252B02D119E0252B03D014F8013F59
S214404400002BF9D1A4EB0A0585B1269B279AC8F85C
S21440441000A001332A44072BC8F80450279226935D
S2144044207FDC08F10808099B2B4409932378002B6E
S2144044307FD000231A468DF8773019460D939B4659
S2144044404FF0FF3063780A9004F1010A0AF1010A3E
S214404450A3F12000582800F2C083DFE810F03802AD
S214404460BE03BE034002BE03BE03BE03BE03BE037E
S214404470BE0345020302BE035D006B02BE03860216
S2144044809C039C039C039C039C039C039C039C03EF
S2144044909C03BE03BE03BE03BE03BE03BE03BE03F1
S2144044A0BE03BE03BE0337035703BE035703BE0314
S2144044B0BE03BE03BE039703BE03BE03AC03BE03E8
S2144044C0BE03BE03BE03BE035902BE03BE031E03A5
S2144044D0BE03BE03BE03BE03BE03BE03BE03BE038F
S2144044E0BE03BE03C602DB025703570357038B02C5
S2144044F0DB02BE03BE039002BE039D02CC01B402A3
S2144045000802BE03E101BE037E00BE03BE030D02E9
S2144045100D980F9340420D904BF0040B9AF80030E4
S21440452094E725AA0B990C9804F042FE40B9C84679
S21440453079E7279B23B10C980B9925AA04F038FEFF
S2144045400B9B9B8913F0400F099B18BF4FF0FF331E
S2144045500993099843B0BDE8F08F1BF0200F1193E4
S21440456040F0DD810F9A1BF0100F134640F06C852B
S2144045701BF0400F00F068851488043200250123A4
S2144045800F9200278DF877700A994A1C00F06582D2
S2144045902BF08002079254EA050240F0648200291C
S2144045A040F03984002B40F0D4841BF001030E9376
S2144045B000F0028642AE302306F8413D0A9B0E9A32
S2144045C09342B8BF134608930023129317B1089B33
S2144045D001330893079B13F00203109302D0089B05
S2144045E002330893079B13F0840540F00D830D9B20
S2144045F0089AA3EB020BBBF1000F40F30583BBF117
S214404600100F279C269A29DD43462146A8461027A8
S2144046100C9C0B9D06E0ABF1100BBBF1100F03F1A9
S214404620080318DD0132B74826921031072A279131
S21440463083E88100EFDD25AA2946204604F0B8FD30
S21440464000287FF47DAFABF1100BBBF1100F27991C
S214404650269A4B46E6DC45460C4698460132A94B20
S21440466026925C44072A279488E8080800F3958435
S2144046709DF8777008F1080877B1269B013301341E
S2144046800DF177010122072B2794269388E8060030
S21440469000F3D88308F10808109B6BB1269B0133C2
S2144046A002341EA90222072B2794269388E8060088
S2144046B000F3D38308F10808802D00F013830A9B8B
S2144046C00E9A9F1A002F36DD102F269B8E4D27DD23
S2144046D042462146B0464FF0100B2E460C9C0B9D92
S2144046E004E0103F102F02F1080215DD01331031AF
S2144046F0072B2791269382E84008F2DD25AA294613
S214404700204604F055FD00287FF41AAF103F102FC6
S2144047102799269B4A46E9DC35460C46464690464F
S21440472001333C44072B2794269388E8A00000F3E7
S2144047307E8308F10808079BDF0500F16782269B09
S2144047400E99C8F8006001330C44072B2794C8F82C
S2144047500410269300F34A8308F10808079B5B077A
S2144047603AD50D9B089A9D1A002D35DD102D269BB7
S21440477020DD10260C9FDDF82CB004E0103D102DF7
S21440478008F1080816DD01335E4A26931034072BDD
S214404790279488E84400F1DD25AA5946384604F0B7
S2144047A007FD00287FF4CCAE103D102D279C269B9D
S2144047B0C846E8DC0133534A26932C44072B2794FB
S2144047C088E8240008DD25AA0B990C9804F0F0FC34
S2144047D000287FF4B5AE279C099B0D9A08998A421B
S2144047E0ACBF9B185B180993002C40F00A8300234B
S2144047F02693C846F9E511931BF0200340F0E2816A
S2144048001BF0100240F02C841BF0400300F028847C
S2144048100F9913460A4604320C880F920025B0E6DC
S2144048200F9A1193166800248DF87740151D002EB8
S21440483000F0A5860A9A531C00F0078621463046AB
S21440484003F06EFE002800F0DF86831B0E930A946A
S2144048500F95CDF81CB023EAE373089312949DF8A5
S2144048607770B3E69AF8003001222B21EEE54BF044
S214404870200B9AF80030E9E51193002A40F08D8726
S214404880224B18931BF0200F40F011810F9A1BF01B
S214404890100F134640F0DF831BF0400F00F0DB8321
S2144048A0043314880F9300251BF0010F00F00C8191
S2144048B054EA050300F0088130239DF844208DF823
S2144048C078308DF879204BF0020B022359E69AF89F
S2144048D0003000297FF4BAAD01222021B6E54BF026
S2144048E0010B9AF80030B1E50F9C23680D931846EB
S2144048F00028234603F10403FFF60AAE0F939AF806
S2144049000030A3E518B1400028B14000F8B04000A0
S2144049104BF0100B1BF0200F11933FF423AE0F9D6E
S214404920073525F0070303F10802D3E900450F9247
S214404930012326E69AF800302A2B0AF1010400F0FB
S2144049401F87A3F130000928A24600F2AB86002359
S2144049501C461AF8013B04EB840400EB4404A3F124
S21440496030000928F5D90A9472E54BF0800B9AF886
S21440497000306BE54BF0400B9AF8003066E59AF84D
S21440498000306C2B03BF9AF801304BF0200B0AF135
S214404990010A4BF0100B59E5002A40F009871BF03E
S2144049A0200F40F0F7841BF0100F40F0AA841BF055
S2144049B0400F00F0A6840F9A136804320F92BDF899
S2144049C024201A8011E50F99B24B0C6818933022B8
S2144049D0782304318DF8793011934BF0020B0F9108
S2144049E000258DF878200223CBE50F9911930A68AD
S2144049F08DF8A02000230A461F468DF877300432F3
S214404A0001230893CDF81CB00A9712970F920E9385
S214404A1028AEDFE51193002A40F0E2861BF0200F17
S214404A205DD11BF0100F40F006831BF0400F00F0E6
S214404A3002830F99B1F900400431E51722462B4610
S214404A400F91002A73F1000358DB0A999DF877709E
S214404A504A1C4FF001037FF49BAD54EA050200F078
S214404A60DC81CDF81CB0012B00F07882022B40F0A0
S214404A70038218984E46230904F00F0143EA057353
S214404A802A091C461546435C06F8013D54EA0503D0
S214404A90F1D1A9EB06030E9390E51193002A40F05E
S214404AA09B867D4B18931BF0200F3FF4EFAE0F9D77
S214404AB0073525F0070303F108021BF0010F0F929C
S214404AC0D3E900457FF4F4AE02235AE51193002A59
S214404AD040F07E864BF0100B1BF0200FA1D00F9DB0
S214404AE0073525F00705D5E90023002A05F108011A
S214404AF01D4673F100030F911446A6DA2D27644233
S214404B0065EB45058DF8777001233DE51193002A46
S214404B1040F05A860F9D073525F0070303F108023B
S214404B200F921A6814925B681593159B149D23F098
S214404B300044284621464FF0FF32584B05F0D4F942
S214404B40002840F04883284621464FF0FF32534B1A
S214404B5005F0ACF9002840F03E8314A80FC805F0D5
S214404B609BF9002840F02F859DF877704C4E4D4BB2
S214404B702BF08000079011980322002108920A919A
S214404B804728D8BF1E460E9212911FE54BF0080BE1
S214404B909AF800305AE4A3F1300000231C461AF875
S214404BA0013B04EB840400EB4404A3F130000928E5
S214404BB0F5D90D944CE44BF0100B11931BF02003E9
S214404BC03FF41EAE0F9D073525F0070303F108029C
S214404BD0D3E900450F920023D3E41193002A40F016
S214404BE0E085119A002A3FF4A4AC002301211F4619
S214404BF008918DF8A020CDF81CB08DF877300A9338
S214404C0012930E9128AEE5E4279C35E5119B652B63
S214404C1040F3A68014A80FC805F034F9002800F029
S214404C204F81269B204AC8F80020013301340122D8
S214404C30072B27942693C8F8042000F36A8308F1CC
S214404C4008081F9B139A279C934203DB079BDD07AC
S214404C507FF584AD269B19991A9AC8F8002001332F
S214404C600C44072BC8F804102794269300F39E8321
S214404C7008F10808139B5E1E002E7FF76FAD102EBE
S214404C80269B0A4D40F3F58122461027DDF830B0CA
S214404C900B9C13E0F8B04000E4B04000FFFFEF7F0D
S214404CA0D8B04000D4B0400014B1400028B1400015
S214404CB008F10808103E102E40F3DA810133103216
S214404CC0072B2792269388E8A000F1DD25AA2146E7
S214404CD0584604F06DFA00287FF432AC279A269B9B
S214404CE0C846E7E70D9B089A9F1A002F7FF7E7AC68
S214404CF0102F269BB64D27DD42462146B0464FF044
S214404D00100B2E460C9C0B9D04E0103F102F02F11A
S214404D10080215DD01331031072B2791269382E8D0
S214404D204008F2DD25AA2946204604F041FA00282C
S214404D307FF406AC103F102F2799269B4A46E9DCA5
S214404D4035460C464646904601333C44072B27944E
S214404D50269388E8A00000F3328208F10808AEE403
S214404D60139B269F012B40F3FE810137013401231C
S214404D70072F27942697C8F80060C8F8043000F339
S214404D80038208F10808199A1A9BC8F800300137C0
S214404D901444072F27942697C8F8042000F300826F
S214404DA008F1080814A80FC805F06CF8139B0028F3
S214404DB040F00181013B013701361C44072F2697FE
S214404DC02794C8F80060C8F8043000F3288108F13A
S214404DD008081B9AC8F804200137144421AB072F53
S214404DE027942697C8F800307FF7B6AC25AA0B99CB
S214404DF00C9804F0DDF900287FF4A2AB279CC84647
S214404E00ACE425AA0B990C9804F0D2F900283FF49C
S214404E10EEACFFF795BBDDF81CB0012B00F03581FA
S214404E20022B25D1CDF81CB00024002521E625AA6A
S214404E300B990C9804F0BCF900287FF481AB279CB2
S214404E40C84678E425AA0B990C9804F0B1F90028D6
S214404E507FF476AB279CC8461EE425AA0B990C988F
S214404E6004F0A6F900287FF46BAB279CC84623E4E1
S214404E70CDF81CB000240025494600E03146E20843
S214404E8042EA4572E80804F0070305461446303304
S214404E9054EA050201F8013C01F1FF36EED1079ACB
S214404EA0D2077FF5F6AD302B3FF4F3AD0239302311
S214404EB006F8013CA9EB01030E930E46FFF77EBBB6
S214404EC01F99002940F32F82129B139A9342A8BF42
S214404ED01346002B1F460DDD269BC8F800600133A5
S214404EE03C44072B2794C8F80470269300F320838D
S214404EF008F10808129B002FA8BFDB1B002B1F469B
S214404F0040F3D780102F269B314D40F3EE8142462A
S214404F102146B0464FF0100B2E460C9C0B9D04E0ED
S214404F200832103F102F40F3DC8101331031072B3D
S214404F302791269382E84008F2DD25AA2946204696
S214404F4004F036F900287FF4FBAA2799269B4A46A8
S214404F50E7E70A9B0E934E46FFF730BB002D08BF8F
S214404F600A2CC0F090804E46204629460A2200234E
S214404F7004F0F8FF303206F8012D2046294600237B
S214404F800A2204F0EFFF04460D4654EA0503EBD12F
S214404F90A9EB06030E93FFF711BB25AA0B990C98B5
S214404FA004F006F900287FF4CBAA9DF87770279C7A
S214404FB0C846FFF761BB5E1E002E7FF70AAF102E75
S214404FC0034D23DD22464FF0100B0C9C07E000BF3C
S214404FD028B14000103E102E08F1080815DD0137B4
S214404FE01032072F2792269788E82008F2DD25AA58
S214404FF00B99204604F0DCF800287FF4A1AA103E66
S214405000102E279A269FC846E9DC144601373444BA
S214405010072F2794269788E860007FF7D8AE25AA02
S2144050200B990C9804F0C4F800287FF489AA279CB2
S214405030269FC846CDE60F9A146813460433E517F4
S2144050400F9322462B46FCE404321C680F92012341
S2144050500025FFF796BA1C6804330F93002523E417
S2144050600F990A4604320C680F920025FFF789BA5A
S214405070144601333444072B2794269388E860006F
S2144050807FF76AABB2E6DDF81CB0CDF81CB042AE96
S2144050903034012306F8414D0E93FFF78FBA25AA08
S2144050A00B990C9804F084F800287FF449AA279CB2
S2144050B0C8461F9A139B9A4244DB079BD90741D4A4
S2144050C0139B12989A1A1D1A9542A8BF1546002D92
S2144050D00EDD2699C8F80450013106442C440729B1
S2144050E0C8F800602794269100F33B8208F1080830
S2144050F0002DACBF561B1646002E7FF72FAB102E4A
S214405100269BB04DB5DD22461027DDF830B00B9C0F
S21440511004E008F10808103E102EA9DD01331032D5
S214405120072B2792269388E8A000F2DD25AA214681
S214405130584604F03DF800287FF402AA279A269B9A
S214405140C846E8E7269B19981A99C8F80010013314
S2144051500444072B2794C8F80400269300F3F581EF
S21440516008F10808ACE7079BDA073FF5FEAD0137C4
S21440517001340123072F27942697C8F80060C8F803
S21440518004307FF724AE4AE725AA0B990C9804F022
S2144051900FF800287FF4D4A9279C269FC846F2E53E
S2144051A025AA0B990C9804F003F800287FF4C8A9A8
S2144051B0279C269FC846F5E54E46FFF7FFB925AA29
S2144051C00B990C9803F0F4FF00287FF4B9A9279CAC
S2144051D0C846FFF774BA149C22462046159C2346C0
S2144051E0214604F081FE002840F086820A9B013367
S2144051F0119B23F020030E9300F0E281472B00F032
S2144052001E814BF480730793159B1F1E149B0893B7
S214405210BBBF3B4603F1004700232D231093119B51
S214405220662B00F0BB81462B00F0DF800E9B089A71
S214405230452B0CBF0A9B0A9D23A820A908BF5D1CCE
S214405240049003911FA802213B46029001950091CD
S2144052500C9801F049FA119B672B064640F0E08116
S2144052601BF0010F00F046827419169A0898179B97
S214405270394604F007FE002840F06581239BA34290
S21440528006D230215A1C23921970239B9C42F9D88F
S2144052909B1B13930E9B472B00F0E980119B652BBD
S2144052A040F3CD81119B662B1F9B129300F09E818D
S2144052B0139B129A1946914200F38A811BF0010F04
S2144052C040F0138222EAE273089367230E9211930A
S2144052D0109B002B40F0C4800A939DF87770FFF730
S2144052E075B935460C464646904601333C44072B36
S2144052F02794269388E8A0003FF7D1AE08F1080827
S214405300D7E60F9A136804320F92099A1A60FFF78D
S2144053106CB825AA0B990C9803F04AFF00287FF436
S2144053200FA9C8468DE4269B274AC8F800200133BB
S21440533001340122072B27942693C8F8042072DCF8
S21440534008F1080829B9139B1BB9079BD8077FF5B6
S21440535005AA269B19981A9AC8F8002001330246D7
S2144053602244072B2792C8F80400269300F38D8129
S21440537008F108080029C0F265811399C8F8006052
S21440538001338C18072B27942693C8F804107FF710
S214405390E3A92BE50F9A09991368CD1708460432FE
S2144053A029460F92C3E90001FFF71FB825AA0B99BB
S2144053B00C9803F0FDFE00287FF4C2A8279CC84640
S2144053C058E400BF28B1400014B1400040210C987A
S2144053D002F0DCFD0B9A10601061002800F0EC81B2
S2144053E00B9A40235361FEF7F0BF23A820A90A9CDE
S2144053F0049003911FA803210290089A01943B460B
S21440540000910C9801F070F925460646119B462BF4
S21440541006EB05047FF429AF3378302B00F0728119
S2144054201F9D2C4421E725AA0B990C9803F0C0FE3B
S21440543000287FF485A81F99279CC84682E70A9BC8
S214405440002B08BF01230A93DBE630460A94FEF79A
S21440545037FF0F950E90CDF81CB00346FFF7FBB90B
S2144054602D2700238DF877700A93FFF7B0B81F9B5F
S21440547012931A46033304DB0A9B19469142BFF641
S21440548017AF119B023B11939DF844308DF8843042
S214405490129B013B002B1F93BDBF129BC3F1010320
S2144054A02D222B22092B8DF8852040F316810DF1F5
S2144054B093042046AD4D00E0104685FB0312D917F5
S2144054C0C1EBA20101EB8102A3EB42023032092973
S2144054D000F8012C0B4600F1FF32EDDC3033023889
S2144054E0D9B2844202F8011C40F25F810DF1860079
S2144054F0134601E013F8011B00F8011BA342F9D143
S21440550001339B1A0DF18602134421AA9B1A139A63
S2144055101B93012A13440E9340F313810E9B199A52
S21440552013440E9323EAE373089300231293CFE6C3
S21440553025AA0B990C9803F03BFE00287FF400A8A0
S214405540279CC846D6E42346A2E625AA0B990C9883
S21440555003F02EFE00287EF4F3AF1F9A279CC84621
S214405560AEE525AA0B990C9803F022FE00287EF49F
S214405570E7AF1F9A139B279C9A1AC846B8E50A9B22
S2144055801296062B28BF06230A96374608930F9591
S214405590CDF81CB00E93764EFFF718B823A820A976
S2144055A00A9D049003911FA803210290089A019532
S2144055B03B4600910C9801F097F8064644192BE7B5
S2144055C006230A931DE62D278DF87770FFF7CEBA8F
S2144055D0199A139B1344129A0E93002A40F3AA80FA
S2144055E023EAE37308936723119371E6002B40F395
S2144055F0B2800A9A002A40F093801BF0010F40F0D8
S2144056008F8008930E9363E60A9B08930E930A9046
S2144056100F95CDF81CB012909DF87770FEF7D6BF68
S214405620119B472B7FF420AE1BF0010F7FF4EEAEAC
S214405630239B9B1B13930E9B472B3FF418AF1F9B3C
S214405640129321E74F4210314A4D2FDA1024DDF8ED
S21440565030B004E008F10808103F102F26DD013373
S2144056601032072B27922693C8F80050C8F80440FB
S214405670F0DD25AA0B99584603F09AFD00287EF4E3
S2144056805FAF279A269BC846E6E725AA0B990C9853
S21440569003F08EFD00287EF453AF1F99279A269B71
S2144056A0C84667E600200A90FEF7D2BE01333A4469
S2144056B0072B88E8A0002792269308F108087FF772
S2144056C05CAE25AA0B990C9803F072FD00287EF478
S2144056D037AF279A269BC8464FE6303330228DF8A0
S2144056E087308DF8862022AB0FE7129B199A134419
S2144056F00E9375E7239BCBE51F4E204B9DF87770A6
S214405700FFF736BA169A0898179B394604F0BAFB44
S21440571000287FF485AEC5F101051F952C44A4E50D
S214405720129B199A13440A9A1A4422EAE2730E927A
S2144057300893CDE5129B0E9AC3F101031A44134613
S214405740D6E71BF0010312937FF4E8AE0E9B23EAE4
S214405750E3730893BCE50A9B13B91BF0010F02D014
S214405760199B0133DFE701234BE700BF6766666698
S2144057700CB1400028B14000E0B04000DCB0400032
S2144057800F9D9AF80130286840EAE0700A90284653
S2144057900430A2460F90FEF759BE8DF87710FFF7FB
S2144057A06FB88DF87710FFF71CBA0DF18603ACE69C
S2144057B08DF87710FFF7F3B80C9A0C2313604FF070
S2144057C0FF330993FEF7C5BE8DF87710FFF7A2B9F1
S2144057D08DF87710FFF77EB98DF87710FFF761B92F
S2144057E08DF87710FFF71AB92DE9F84F4B6E9C04E9
S2144057F093462FD59368126853B30E46074602F178
S214405800080919E920045FEA9A0817D0043D0024E5
S21440581001E0A04510D0324655F8041F384602F045
S21440582035F8431C04F10104F3D10023CBF80830CB
S214405830CBF80430BDE8F88FDBF808302AF0030ACE
S214405840A3EB0A03CBF8083009F10809002BD8D19E
S2144058500020EAE702F062F90023CBF80830CBF8E4
S2144058600430BDE8F88F00BF2DE9F04FADB01D46BF
S214405870019191460893069018B1836B002B00F077
S214405880E080019CB4F90C0081B28B0407D4636EAF
S21440589040F4005123F40053A181636689B20F0798
S2144058A040F1B180019B1B69002B00F0AC8001F0F9
S2144058B01A010A2900F0B58000230DF1700B0B93F6
S2144058C0119310930493CDF83CB0DA4699F8003023
