:020000040040BA
:10000000E0244020FD1A4000AD1B4000AD1B400025
:10001000AD1B4000AD1B4000AD1B400000000000C8
:10002000000000000000000000000000AD1B4000C8
:10003000AD1B400000000000AD1B4000AD1B4000A8
:10004000AD1B4000AD1B4000AD1B4000AD1B400090
:10005000AD1B4000AD1B4000AD1B4000AD1B400080
:10006000AD1B400000000000750D40008D0D4000EC
:10007000A50D4000AD1B400019214000AD1B400004
:10008000BD0D4000D50D4000AD1B4000AD1B400034
:10009000AD1B4000AD1B4000AD1B4000AD1B400040
:1000A000D5204000AD1B4000AD1B4000AD1B400003
:1000B000AD1B4000AD1B4000AD1B4000AD1B400020
:1000C000AD1B4000AD1B4000AD1B4000AD1B400010
:1000D00000000000AD1B400000000000AD1B400010
:1000E000AD1B4000AD1B4000AD1B4000AD1B4000F0
:1000F000AD1B4000AD1B4000AD1B4000AD1B4000E0
:10010000AD1B4000AD1B4000AD1B4000AD1B4000CF
:10011000AD1B4000000000000000000000000000D7
:10012000AD1B4000AD1B4000AD1B4000AD1B4000AF
:10013000AD1B400000000000AD1B4000AD1B4000A7
:1001400010B5054C237833B9044B13B10448AFF311
:1001500000800123237010BD3804402000000000FF
:10016000182640000C4B43B10C480D4910B5AFF3B5
:1001700000800C48036823B910BD0A48036833B9EE
:100180007047094B002BF7D0BDE810401847064BCD
:10019000002BF5D0184700BF0000000018264000D3
:1001A0003C044020182640000000000080B582B0CA
:1001B00000AF78607B68072B31D801A252F823F09A
:1001C0001D024000E1014000E9014000F101400052
:1001D000F901400001024000090240001302400002
:1001E0000020114B98471AE001200F4B984716E06A
:1001F00000200E4B984712E010200C4B98470EE061
:1002000020200A4B98470AE03E210020084B9847DF
:1002100005E03E210120064B984700E000BF00BFEB
:100220000837BD4680BD00BFED0E4000590F4000AD
:10023000C90F400080B582B000AF78607B68072BA3
:1002400026D801A252F823F0690240006D02400056
:100250006D0240007F0240007F0240007F024000AC
:100260007F0240007F024000012312E00B4B9847C1
:100270000346002B14BF01230023DBB209E0084B27
:1002800098470346002B14BF01230023DBB200E094
:10029000002318460837BD4680BD00BF250F40002B
:1002A0004110400080B483B000AF78607B68072BBA
:1002B00025D801A252F823F0D9024000DF02400005
:1002C000E5024000EB024000EF024000F302400074
:1002D000F7024000FB0240004FF4FA4310E04FF4F5
:1002E00000430DE04FF400430AE0084B08E0084BE0
:1002F00006E0084B04E0074B02E0064B00E0002359
:1003000018460C37BD465DF8047B704700093D0078
:1003100000127A00001BB70080B582B000AF034620
:10032000FB7100BFFB791846054B9847034683F0E5
:100330000103DBB2002BF5D100BF0837BD4680BDFD
:100340003502400080B586B000AFF8607A603B604F
:100350000B46FB727B68002B07D13B68002B04D156
:10036000FB684FF470021A6019E0FB7A18460E4BD6
:10037000984702467B68B2FBF3F37B617B693A687E
:1003800002FB03F37B613B68013B1A04074B1340FC
:100390007A68D2B2134343F47C52FB681A6000BF00
:1003A0001837BD4680BD00BFA50240000000FF0712
:1003B00080B582B000AF786039603B68002B08D10F
:1003C000094B9847094A7B681B6843F000539362C6
:1003D00005E0064A7B681B6843F48033D36100BFA5
:1003E0000837BD4680BD00BF5D10400000060E40CE
:1003F00080B582B000AF78607B68002B03D1054BDD
:100400009847034602E0044B9847034618460837CE
:10041000BD4680BD791040009510400080B582B087
:1004200000AF0346FB71FB79033B042B08D8FB7933
:100430001846064B9847FB791846054B984700E04D
:1004400000BF00BF0837BD4680BD00BFAD01400002
:100450001903400080B582B000AF786000BF7868B3
:10046000044B98470346002BF9D000231846083761
:10047000BD4680BDF103400080B500AF0620054BAE
:100480009847024613469B0013449A0013441846AB
:1004900080BD00BFA502400080B500AF024B984769
:1004A00003469B09184680BD7904400090B583B08F
:1004B00000AF1348134B98470620134B9847381D3D
:1004C000192301220621114CA0473B1D002118468B
:1004D0000F4B984700200F4B984702200E4B984730
:1004E00060200E4B98470E4B98470E4B984703469B
:1004F0001846044B984700BF0C37BD4690BD00BF5F
:1005000000A3E1111D1D40001D04400045034000F3
:10051000B103400055044000ED0D4000690E40005D
:10052000B51B40009904400080B400AFBFF34F8F6B
:10053000BFF36F8F094B0022C3F85022074A074BC5
:100540005B6943F400335361BFF34F8FBFF36F8F89
:1005500000BFBD465DF8047B704700BF00ED00E0C2
:1005600080B48BB000AF264BD3F88030FB61FB69C1
:100570005B0BC3F30E037B62FB6903F007030433D9
:10058000BB61FB69DB08C3F309037B617B69BB606B
:10059000BB68B3FA83F37B607B68DBB203F01F03B5
:1005A0003B61BFF34F8F7B693B623A6A3B6902FA5A
:1005B00003F319467A6ABB6902FA03F30B43FB6043
:1005C0000F4AFB68C2F860323B6A5A1E3A62002B3F
:1005D000EBD17B6A5A1E7A62002BE4D1BFF34F8FB6
:1005E000074A074B5B6943F480335361BFF34F8F76
:1005F000BFF36F8F00BF2C37BD465DF8047B70479B
:1006000000ED00E080B582B000AF78607868034B01
:10061000984700BF0837BD4680BD00BFB1104000FD
:1006200080B500AF0A20084B98470B20064B98472F
:100630000C20054B98471020034B98471120024B84
:10064000984700BF80BD00BF0506400080B489B058
:1006500000AF78607B68FB61FB69BB61BB695A09CD
:10066000FB697B617B6903F01F03012101FA03F33E
:100670003A61FB603B69BB60BA68064B13445B029E
:100680001A46FB68536000BF2437BD465DF8047B03
:10069000704700BF0707200080B48DB000AF7860BE
:1006A00039607B68FB623B68BB62FB6A7B627B6A8A
:1006B0005A09FB6A3B623B6A03F01F03012101FAFE
:1006C00003F3FA61BB61BB6A7B61FB693B613A6919
:1006D000374B13445B02FB607B6903F00803002B7C
:1006E00003D0FB68BA695A6602E0FB68BA691A6609
:1006F0007B6903F01003002B04D0FB68BA69C3F8D0
:10070000942003E0FB68BA69C3F890207B6903F08A
:100710002003002B03D0FB68BA691A6502E0FB686E
:10072000BA695A657B6903F0C003002B03D0FB68EC
:10073000BA691A6202E0FB68BA695A627B6903F01F
:100740008003002B04D0FB68BA69C3F8842003E05F
:10075000FB68BA69C3F880207B6903F00103002BB2
:1007600006D0FB681A6FBB691A43FB681A6706E07C
:10077000FB681A6FBB69DB431A40FB681A677B6929
:1007800003F00203002B06D0FB685A6FBB691A43C3
:10079000FB685A6706E0FB685A6FBB69DB431A4087
:1007A000FB685A6700BF3437BD465DF8047B70476D
:1007B0000707200080B48DB000AF78600B46FB7057
:1007C0007B68FB62FB7887F82B30FB6A7B627B6A75
:1007D0003B623B6A5B09FB61FA69174B13445B029E
:1007E000BB6197F82B30012B09D1FB6A7B617B69D8
:1007F00003F01F0301229A40BB691A610CE097F8CD
:100800002B30002B08D1FB6A3B613B6903F01F03CF
:1008100001229A40BB695A61FB6AFB60FB6803F0E6
:100820001F0301229A40BB69C3F8A02000BF3437E0
:10083000BD465DF8047B70470707200080B48BB08D
:1008400000AF78600B46FB707B687B62FB7887F8B3
:1008500023307B6AFB61FB69BB61BB695B097B6120
:100860007A69104B13445B023B6197F82330002BED
:1008700009D07B6AFB60FB6803F01F0301229A40EA
:100880003B691A6308E07B6ABB60BB6803F01F0327
:1008900001229A403B695A6300BF2C37BD465DF880
:1008A000047B70470707200080B48DB000AF7860EC
:1008B0000B46FB707B68FB62FB7887F82B30FB6A8A
:1008C0007B627B6A5A09FB6A3B623B6A03F01F0347
:1008D000012101FA03F3FA61BB6197F82B30FB7534
:1008E000FB693B613A69234B13445B02FB60FB7D70
:1008F000013B032B2ED801A252F823F0310940000E
:10090000430940000D0940001F094000FB68BA6917
:10091000C3F8C420FB68BA69C3F8D0201FE0FB68A5
:10092000BA69C3F8C420FB68BA69C3F8D42016E0DA
:10093000FB68BA69C3F8C020FB68BA69C3F8D02065
:100940000DE0FB68BA69C3F8C020FB68BA69C3F858
:10095000D42004E0FB68BA69C3F8B42003E0FB6864
:10096000BA69C3F8B02000BF3437BD465DF8047BD8
:10097000704700BF0707200080B400AFBFF34F8F60
:10098000BFF36F8F0C4A0C4BD3F8903223F0010366
:10099000C2F89032084A084BD3F8943223F001038E
:1009A000C2F89432BFF34F8FBFF36F8F00BFBD46C5
:1009B0005DF8047B704700BF00ED00E080B500AF3C
:1009C0001E4B4FF400425A601D4B98471D4B9847F1
:1009D0001D4B1E4A5A601C4B1D4A5A601D4B9847BE
:1009E0001D4B9847012148201C4B98470121482066
:1009F0001B4B984700210B20184B984788210B2050
:100A0000184B984702210B20174B984700211520BF
:100A1000144B98471520154B9847154A144BD3F89B
:100A2000143143F01003C2F81431032124200D4B7C
:100A3000984724200D4B984700BF80BD50180E40AA
:100A40002905400061054000000C0E400C08005ACA
:100A50000C07005A7909400021064000B507400004
:100A60003D08400099064000A90840004D0640009E
:100A70000080084080B485B000AFF860B9607A604B
:100A80007B68002B03D0FB68BA685A6602E0FB68FB
:100A9000BA681A6600BF1437BD465DF8047B70471C
:100AA00080B483B000AF786039607B683A681A63BD
:100AB00000BF0C37BD465DF8047B704780B483B03F
:100AC00000AF786039607B683A685A6300BF0C37C2
:100AD000BD465DF8047B704780B487B000AFF86016
:100AE000B9607A60FB687A685A64BB68B3F1C05F2A
:100AF0004AD0B3F1C05F08D8B3F1006F16D0B3F19C
:100B0000805F2CD0002B69D064E0B3F1205F65D00A
:100B1000B3F1205F03D8B3F1005F4AD05AE0B3F1DC
:100B2000405F5BD0B3F1605F58D053E0FB681B6F50
:100B30007B61FB681A6F7B68D9437B690B401A4065
:100B4000FB681A67FB685B6F7B61FB685A6F7B68A9
:100B5000D9437B690B401A40FB685A673AE0FB684F
:100B60001B6F7B617A687B691A43FB681A67FB68B5
:100B70005B6F7B61FB685A6F7B68D9437B690B4075
:100B80001A40FB685A6725E0FB681B6F7B61FB68B6
:100B90001A6F7B68D9437B690B401A40FB681A6760
:100BA000FB685B6F7B617A687B691A43FB685A67F5
:100BB00010E0FB681B6F7B617A687B691A43FB68F6
:100BC0001A67FB685B6F7B617A687B691A43FB6815
:100BD0005A6700BFFB687A685A6000E000BF1C37A4
:100BE000BD465DF8047B704780B584B000AFF86007
:100BF000B9607A603B60B968F868124B9847BA6987
:100C0000B968F868104B98473B68002B03D0FB6825
:100C1000BA681A6502E0FB68BA685A657B68002BFF
:100C200003D0FB68BA681A6302E0FB68BA685A63CB
:100C3000FB68BA681A61FB68BA681A6000BF1037AF
:100C4000BD4680BD750C4000750A400080B483B07D
:100C500000AF786039607B689A6B3B681340002B6B
:100C600001D1002300E0012318460C37BD465DF892
:100C7000047B704780B483B000AF786039607B68D4
:100C80003A685A6400BF0C37BD465DF8047B704774
:100C900080B483B000AF78607B68DB6C18460C379B
:100CA000BD465DF8047B704780B483B000AF7860C8
:100CB0007B689B6C18460C37BD465DF8047B70471B
:100CC00080B584B000AF786039607868264B98476B
:100CD000F8607868254B98470246FB681340FB6034
:100CE000FB68002B3CD00023BB6034E0204ABB688B
:100CF0001B0113441A683B689A4226D11C4ABB6800
:100D00001B01134404331A68FB681340002B1CD0EA
:100D1000174ABB681B0113440C331B681449BA689B
:100D200012010A4410681249BA6812010A440432D6
:100D30001268114698470E4ABB681B0113440433DE
:100D40001B68DB43FA681340FB60BB680133BB6080
:100D5000BB68062B03D8FB68002BC7D100E000BF9F
:100D600000BF1037BD4680BD910C4000A90C40006B
:100D70005404402080B500AF0A210248024B984736
:100D800000BF80BD000E0E40C10C400080B500AF1A
:100D90000B210248024B984700BF80BD00100E4057
:100DA000C10C400080B500AF0C210248024B9847AF
:100DB00000BF80BD00120E40C10C400080B500AFE6
:100DC00010210248024B984700BF80BD00140E401E
:100DD000C10C400080B500AF11210248024B98477A
:100DE00000BF80BD00160E40C10C400080B483B02F
:100DF00000AF78607B68013B032B1AD801A252F840
:100E000023F000BF150E40001B0E4000230E4000D3
:100E10002B0E400000237B600EE04FF480737B605C
:100E20000AE04FF440737B6006E04FF400737B6090
:100E300002E000237B6000BF0A490A4B1B6B23F4CE
:100E400040727B6813430B6300BF064B9B6E03F03D
:100E50000803002BF9D000BF0C37BD465DF8047BBA
:100E6000704700BF00060E4080B485B000AF7860C8
:100E70001D491D4B1B6B23F070027B6813430B63F2
:100E80004FF48053FB6007E0FB68002B01D1012386
:100E900023E0FB68013BFB60134B9B6E03F00803F0
:100EA000002BF1D0104A104B1B6B23F0030343F0CF
:100EB000020313634FF48053FB6007E0FB68002BD1
:100EC00001D1012309E0FB68013BFB60064B9B6EEF
:100ED00003F00803002BF1D0002318461437BD4659
:100EE0005DF8047B704700BF00060E4080B483B0FD
:100EF00000AF78607B68012B05D10749064B9A68E3
:100F0000064B13438B60044B054A1A6000BF0C3735
:100F1000BD465DF8047B704710180E40000010A518
:100F2000080000A580B400AF094B5B6903F08003A3
:100F3000002B07D0074B9B6E03F08003002B01D0E2
:100F4000012300E000231846BD465DF8047B70478E
:100F500010180E4000060E4080B483B000AF7860D9
:100F60001549154B1A6A154B13430B6200BF124B00
:100F70009B6E03F40033002BF9D00F490E4B1A6A15
:100F80000F4B13407A68134343F45C130B6200BFAA
:100F9000094B9B6E03F40033002BF9D00649064B36
:100FA0001A6A084B134043F45C130B6200BF0C3702
:100FB000BD465DF8047B704700060E400800370010
:100FC0008FFFC8FFFFFFC8FE80B483B000AF78601A
:100FD00039607B68002B08D01349134B1B6A134AF6
:100FE0001A40134B13430B6218E00F490E4B1A6A59
:100FF000104B13403A68120292B21A430E4B13433D
:101000000B6200BF084B9B6E03F00103002BF9D06D
:101010000549054B1A6A094B13430B6200BF0C3795
:10102000BD465DF8047B704700060E40FCFFC8FE1D
:1010300002003701FCFFC8FF010037000000370144
:1010400080B400AF044B9B6E03F480331846BD465A
:101050005DF8047B704700BF00060E4080B400AF0F
:10106000044B4FF000529A6200BFBD465DF8047B0E
:10107000704700BF00060E4080B400AF044B9B6E6B
:1010800003F002031846BD465DF8047B704700BFBD
:1010900000060E4080B400AF044B9B6E03F040038B
:1010A0001846BD465DF8047B704700BF00060E4041
:1010B00080B483B000AF78607B683F2B01D90123F7
:1010C0002FE07B681F2B13D8194B9A6901217B688D
:1010D00001FA03F31A4001217B6801FA03F39A42F3
:1010E0001ED0134A01217B6801FA03F3136117E054
:1010F0007B68203B7B600E4BD3F8082101217B6885
:1011000001FA03F31A4001217B6801FA03F39A42C2
:1011100006D0074A01217B6801FA03F3C2F80031C7
:10112000002318460C37BD465DF8047B704700BFAE
:1011300000060E4080B483B000AF7860044A7B683C
:10114000136000BF0C37BD465DF8047B704700BFDD
:101150000400402080B483B000AF204B1B6F7B6045
:101160007B6823F4C0037B607B6843F480037B606F
:101170001A4A7B6813671949184B1A6A184B1343AC
:101180000B6200BF154B9B6E03F00803002BF9D0D8
:1011900000237B6003E000BF7B6801337B607B68DA
:1011A000B3F5FA7FF7D300BF0C4B1B6A03F00803BB
:1011B000002BF9D0094B1B6F7B607B6823F4C003C5
:1011C0007B607B6843F480037B60044A7B68136721
:1011D00000BF0C37BD465DF8047B704700060E402B
:1011E0000400370090B599B000AF78607B68013B90
:1011F000042B00F2A38101A252F823F01112400047
:10120000111240002D1240002D1240001B1540000D
:10121000714A714B1B6923F0040313616F4B012268
:101220001A70BFF35F8F62B630BF87E17B68032B14
:1012300003D100206A4B984703E04FF40010684B3D
:10124000984772B6BFF35F8F644B00221A70654BEC
:1012500001221A707B68042B0CBF01230023DAB231
:1012600007F11C033B6407F11803FB6307F1140348
:10127000BB6307F110037B6307F10C033B63134669
:1012800087F82F30584B1B6ABB62574B1B6B7B6236
:10129000564B1B683B623B6C002B02D03B6CBA6A1E
:1012A0001A60FB6B002B03D04F4B9A6AFB6B1A60E2
:1012B000BB6B002B02D0BB6B00221A607B6B002B38
:1012C00002D07B6B7A6A1A603B6B002B02D03B6BBF
:1012D0003A6A1A604449BA6A454B13430B627B6A07
:1012E00003F00303012B0ED97B6A23F0030343F0C1
:1012F00001037B623C4A7B6A13633B4B9B6E03F0AA
:101300000803002BF9D07B6A03F07003002B0CD08C
:101310007B6A23F070037B62334A7B6A1363324B30
:101320009B6E03F00803002BF9D0324B98472E4BED
:101330009B6E03F40033002BF9D02B492A4B1A6A19
:101340002D4B134043F45C130B62274B9B6E03F44D
:101350008033002BF9D0254A3B6A23F47063136075
:1013600097F82F30002B07D01F491F4B1A6A234BC9
:10137000134043F45C130B62184B01221A70BFF345
:101380005F8F62B61E4B984772B6BFF35F8F134BE9
:1013900000221A70FC69B86979693A69FB68FC65D2
:1013A000B86579653A65FB640023BB64FB6D03F0A7
:1013B0000203002B2CD00C490B4B1B6A114A1A401C
:1013C000114B13430B620849074B1A6A0F4B13402A
:1013D00043F45C130B624EE000ED00E0000040209F
:1013E00035114000C404402000060E40000C0E40A1
:1013F000080037005D104000FFFFC8FEFEFFC8FF79
:1014000055114000FCFFC8FE0200370187FFC8FFEE
:10141000FB6D03F00103002B2DD04A4B1B6A03F038
:101420000103002B0DD14749464B1B6A464A1A401F
:10143000464B13430B62434B9B6E03F00103002B9F
:10144000F9D0404B1B6A03F08073002B0BD13D4950
:101450003C4B1A6A3E4B13430B623A4B9B6E03F4B0
:101460008033002BF9D03749364B1A6A394B134079
:1014700043F45C130B62BA6D374B1340002B08D05A
:10148000304ABB6D43F000539362BB6C43F00203E0
:10149000BB643B6D03F00303022B05D1294B9B6E0C
:1014A00003F00203002BF9D0264B1B6B7B6425490C
:1014B0007B6C23F070023B6D03F0700313430B63EE
:1014C000204B9B6E03F00803002BF9D0234AFB6CE2
:1014D00013601C4A3B6D13631A4B9B6E03F00803A9
:1014E000002BF9D0174B9A6EBB6C1340002BF9D030
:1014F0001B4B00221A701B4B1B68002B05D0194B8D
:101500001B689847174B00221A60174B01221A706C
:10151000BFF35F8F62B600BF10E0144A134B1B6924
:1015200043F004031361124B124A1A600E4B01225E
:101530001A70BFF35F8F62B630BF00BF00BF643761
:10154000BD4690BD00060E40FCFFC8FF01003700FD
:101550000000370187FFC8FF0000FF07000C0E40A6
:10156000C4044020C80440200000402000ED00E0FA
:1015700010180E40040000A580B487B000AFF860DA
:10158000B9607A60FA68BB689B0113447B617B6930
:1015900002221A607B694FF0FF329A627B691B6AF4
:1015A0007B697A685A6000BF1C37BD465DF8047BD2
:1015B000704780B483B000AF786039607A683B6868
:1015C0009B01134405221A6000BF0C37BD465DF82D
:1015D000047B704780B485B000AFF860B9607A6072
:1015E000FA68BB689B01134414337A681A6000BF21
:1015F0001437BD465DF8047B704780B485B000AFFA
:10160000F860B9607A60FA68BB689B0113441C33C8
:101610007A681A6000BF1437BD465DF8047B7047D6
:1016200080B487B000AFF860B9607A60FA68BB68D0
:101630009B0113447B617B697A685A6200BF1C3747
:10164000BD465DF8047B704780B485B000AF78601C
:1016500039607A683B689B011344FB60FB681B6A36
:1016600018461437BD465DF8047B704780B48DB0D2
:1016700000AFF860B9607A603B6002233B610823E9
:101680007B612023BB618023FB61BB6BDB0B3B6277
:101690000023FB621AE0FB6A9B0007F1300213444F
:1016A00053F8203CBA68B2FBF3F3BB62BB6A1B0C75
:1016B0007B62FA68BB6A9A4201D9002323E0FA6888
:1016C0007B6A9A4206D2FB6A0133FB62FB6A042BF7
:1016D000E1D900E000BFFB6A042B01D9002312E02E
:1016E0007B68002B08D0FB6A9B0007F13002134493
:1016F00053F8202C7B681A603B68002B02D03B68B3
:10170000FA6A1A60012318463437BD465DF8047B37
:10171000704780B483B000AF78607B685B6903F486
:101720000073002B14BF01230023DBB218460C37D3
:10173000BD465DF8047B704780B483B000AF78602D
:101740000B46FB707B685B6903F00203002B01D141
:10175000012303E0FA787B68DA61002318460C372E
:10176000BD465DF8047B704780B483B000AF7860FD
:1017700039607B685B6903F00103002B01D1012311
:1017800005E07B689B69DAB23B681A700023184653
:101790000C37BD465DF8047B704780B489B000AF5C
:1017A000F860B9607A60BB681A017B689A4202D817
:1017B0001023FB6101E00823FB617B68DA00FB6911
:1017C000B96801FB03F35B081A44FB69B96801FBC4
:1017D00003F3B2FBF3F3BB61BB69DB087B61BB695D
:1017E00003F007033B617B69002B03D07B69B3F5F2
:1017F000803F01D301230FE0FB69082B05D1FB6873
:101800005B6843F40022FB685A603B691A047B69F9
:101810001A43FB681A62002318462437BD465DF858
:10182000047B704780B582B000AF786078680D4B5C
:1018300098477B6800225A607B6800225A627B6866
:1018400000229A627868084B98477868074B984757
:101850007868074B98477868064B984700BF083769
:10186000BD4680BD391A4000171940004B19400091
:1018700099194000B519400080B584B000AFF860F8
:10188000B9607A60F8681A4B98471A4B00221A60C0
:10189000BB68002B09D0BB681B687A681946F868DA
:1018A000154B98470346002B01D001231BE0BB6872
:1018B0005A68BB689B681A43BB681B691A43BB68BC
:1018C000DB681A430B4B1B6813430A4A1360094B2E
:1018D0001B68084A1360FB685A68064B1B681A436A
:1018E000FB685A60002318461037BD4680BD00BF14
:1018F00025184000CC0440209B17400080B483B0E2
:1019000000AF78607B6840221A6000BF0C37BD468C
:101910005DF8047B704780B483B000AF78607B686B
:1019200088221A6000BF0C37BD465DF8047B704703
:1019300080B483B000AF78607B6810221A6000BF6B
:101940000C37BD465DF8047B704780B483B000AFB0
:1019500078607B6824221A6000BF0C37BD465DF8B2
:10196000047B704780B483B000AF786039607B68D7
:101970003A689A6000BF0C37BD465DF8047B70473B
:1019800080B483B000AF78607B685B6918460C3721
:10199000BD465DF8047B704780B483B000AF7860CB
:1019A0007B684FF480721A6000BF0C37BD465DF84B
:1019B000047B704780B483B000AF78607B684FF4DD
:1019C00000221A6000BF0C37BD465DF8047B7047EB
:1019D00080B483B000AF786039607B685B6903F0E6
:1019E0000203002B01D1012305E03B68C3F3080289
:1019F0007B68DA61002318460C37BD465DF8047B2E
:101A0000704780B483B000AF786039607B685B69F1
:101A100003F00103002B01D1012306E07B689B69E1
:101A2000C3F308023B681A60002318460C37BD4612
:101A30005DF8047B7047000080B483B000AF78602D
:101A40007B68044AC3F8E42000BF0C37BD465DF84C
:101A5000047B70470041535580B483B000AF786079
:101A60007B684FF400425A6000BF0C37BD465DF8FA
:101A7000047B704780B483B000AFEFF310837B60CA
:101A80007B68002B0CBF01230023DBB23B6072B6E6
:101A9000BFF35F8F044B00221A703B6818460C3767
:101AA000BD465DF8047B70470000402080B483B0E1
:101AB00000AF78607B68002B14BF01230023DBB2EA
:101AC00018460C37BD465DF8047B704780B582B080
:101AD00000AF78607868074B98470346002B05D025
:101AE000054B01221A70BFF35F8F62B600BF083743
:101AF000BD4680BDAD1A40000000402080B584B0D6
:101B000000AF1E4BFB601E4BBB60FA68BB689A427D
:101B10000CD007E0BB681A1DBA60FA68111DF960A5
:101B200012681A60BB68174A9342F3D3164BBB6026
:101B300004E0BB681A1DBA6000221A60BB68134A31
:101B40009342F6D3124BFB60124AFB6823F07F03EB
:101B50009360114B98477860104A104B1B6843F410
:101B600070031360BFF34F8FBFF36F8F78680C4B18
:101B700098470C4B98470C4B9847FEE718264000B7
:101B8000000040203804402038044020E004402079
:101B90000000400000ED00E0751A400088ED00E014
:101BA000CD1A400089244000E923400080B400AFF2
:101BB000FEE7000080B400AF524B1B6B03F0030341
:101BC000012B14D0012B02D3022B38D07AE04E4BDC
:101BD0005B6903F08003002B04D04C4B4FF40042B0
:101BE0001A606FE0494B4FF4FA421A606AE0454BC5
:101BF0001B6A03F08073002B03D0444B444A1A60E5
:101C000060E0424B434A1A603E4B1B6A03F070038C
:101C1000102B04D0202B08D0002B0ED00EE03B4B15
:101C20001B685B00394A136008E0384B1A6813469A
:101C30005B001344354A136000E000BF42E0314BC3
:101C40001B6A03F08073002B03D0304B304A1A60BC
:101C50001CE02E4B2F4A1A602A4B1B6A03F07003BC
:101C6000102B04D0202B08D0002B0ED00EE0274BD9
:101C70001B685B00254A136008E0244B1A68134672
:101C80005B001344214A136000E000BF1D4B1B6B37
:101C900003F00303022B14D11A4B9B6A1B0CC3F3F2
:101CA0000A030133194A126802FB03F3174A13604F
:101CB000144B9B6ADBB2154A1268B2FBF3F3134A6A
:101CC000136000BF0F4B1B6B03F07003702B08D128
:101CD0000E4B1B68104AA2FB03235B080B4A1360E0
:101CE0000AE0084B1B6B1B0903F00703074A126845
:101CF00022FA03F3054A136000BFBD465DF8047B7A
:101D0000704700BF00060E4010180E40080040202B
:101D1000001BB70000093D00ABAAAAAA80B483B09B
:101D200000AF78607B68194A934204D8184B4FF093
:101D300080621A6023E07B68164A934203D8144BF2
:101D4000154A1A601BE07B68144A934203D8104B73
:101D5000134A1A6013E07B68124A934203D80C4B73
:101D6000114A1A600BE07B68104A934204D8084B72
:101D70004FF004221A6002E0054B0D4A1A6000BFC2
:101D80000C37BD465DF8047B704700BFFF2C310166
:101D9000000C0E40FF59620200010004FF8693030D
:101DA00000020004FFB3C40400030004FFE0F505D3
:101DB0000005000480B483B000AF0346FB710949FD
:101DC00097F907305B09FA7902F01F02012000FA47
:101DD00002F241F8232000BF0C37BD465DF8047BBA
:101DE000704700BF00E100E080B483B000AF7860CE
:101DF0007B68072B25D801A252F823F01D1E400056
:101E0000231E4000291E40002F1E4000331E4000AC
:101E1000371E40003B1E40003F1E40004FF4FA4377
:101E200010E04FF400430DE04FF400430AE0084B8C
:101E300008E0084B06E0084B04E0074B02E0064BC5
:101E400000E0002318460C37BD465DF8047B704760
:101E500000093D0000127A00001BB70080B500AFFA
:101E60000620054B9847024613469B0013449A00F0
:101E70001344184680BD00BFE91D400080B500AF87
:101E8000024B984703469B09184680BD5D1E4000E3
:101E900080B500AF024B98470346DB09184680BD6A
:101EA0005D1E400080B582B000AF78607868034B5B
:101EB000984700BF0837BD4680BD00BFB110400045
:101EC00080B582B000AF78600B46FB707B68364A05
:101ED00093420AD100BFFB7819467868334B984784
:101EE0000346002BF7D101235AE07B68304A934226
:101EF0000AD100BFFB78194678682C4B98470346F7
:101F0000002BF7D101234BE07B682A4A93420AD188
:101F100000BFFB7819467868244B98470346002B8E
:101F2000F7D101233CE07B68234A93420AD100BFEA
:101F3000FB78194678681D4B98470346002BF7D16C
:101F400001232DE07B681D4A93420AD100BFFB7834
:101F5000194678681A4B98470346002BF7D101239E
:101F60001EE07B68174A93420AD100BFFB781946EE
:101F70007868134B98470346002BF7D101230FE0F5
:101F80007B68114A93420AD100BFFB7819467868F2
:101F90000B4B98470346002BF7D1012300E00023A9
:101FA00018460837BD4680BD00080E40391740006E
:101FB000000A0E40001A0E40001C0E400040024075
:101FC000D11940000080024000C0024080B584B0BA
:101FD00000AF786039600023FB607B68344A93422D
:101FE00007D100BF39687868324B98470346002B09
:101FF000F8D17B68304A934207D100BF39687868CE
:102000002C4B98470346002BF8D17B682B4A934210
:1020100007D100BF39687868264B98470346002BE4
:10202000F8D17B68264A934207D100BF39687868A7
:10203000204B98470346002BF8D17B68214A9342F6
:102040000DD100BF07F10C03194678681E4B984765
:102050000346002BF6D1FB68DAB23B681A707B6846
:102060001A4A93420DD100BF07F10C031946786854
:10207000154B98470346002BF6D1FB68DAB23B6854
:102080001A707B68124A93420DD100BF07F10C030E
:10209000194678680C4B98470346002BF6D1FB682D
:1020A000DAB23B681A7000BF1037BD4680BD00BF72
:1020B00000080E4069174000000A0E40001A0E404A
:1020C000001C0E4000400240031A40000080024005
:1020D00000C0024080B582B000AF012109480A4B20
:1020E000984703467B607B68084B1B68002B04D035
:1020F0004FF400510648074B984700BF0837BD46CC
:1021000080BD00BF00C00040491640000C004020C8
:1021100000120E409122400080B582B000AF1548F9
:10212000154B984778600023FB707B6803F0010330
:10213000002B1BD0FB1C19460E48104B9847FB7810
:102140000A2B08D00E4B1B685A1C0D490A60F978FF
:102150000C4AD1540AE00A4B1B680A4A0021D154A8
:10216000094B01221A60064B00221A6000BF083793
:10217000BD4680BD0080024081194000CD1F400057
:10218000D4044020D8044020D004402090B585B02D
:1021900002AF78600C200A4B98477B68002B0CBF7D
:1021A00001230023DBB21A460023009300234FF4DF
:1021B00000510448044CA04700BF0C37BD4690BDF9
:1021C000B110400000120E40E90B400090B589B0FC
:1021D00002AF78601A4B984778611820194B9847DE
:1021E00007F10C0107F110027B6900930B46796936
:1021F0007868154CA047FB6843F400431A46012158
:102200001248134B984740F2F55201210F48114BE9
:10221000984740F2056201210C480F4B984718205F
:102220000E4B98471422012108480D4B9847012175
:1022300006480C4B984700BF1C37BD4690BD00BFF9
:102240007D1E4000B11040006D16400000C00040EF
:1022500079154000D5154000FB154000B51D400024
:1022600021164000B315400080B582B000AF034690
:10227000FB71FB79002B02D10348044B984700BF48
:102280000837BD4680BD00BF50180E40591A4000A7
:1022900080B582B000AF7860396039687868094BE2
:1022A00098470346002B04D039687868064B984756
:1022B00003E039687868054B984700BF0837BD468A
:1022C00080BD00BF4D0C4000BD0A4000A10A400087
:1022D00080B584B000AF78600023FB6010E0FB683D
:1022E0005A1CFA607A6813441B7819460A480B4B4B
:1022F000984700BF08480A4B98470346002BF9D07F
:102300007A68FB6813441B78002BE8D1FB681846F9
:102310001037BD4680BD00BF00800240C11E400096
:102320001317400080B586B000AF0B20224B9847B2
:102330000A20214B984710224FF000511F48204B94
:1023400098474FF400124FF000611E481C4B98470D
:102350001D4A1D4BD3F8143143F01003C2F8143159
:102360003B4600221A605A609A60DA601A615A612C
:102370004FF4E1333B60C0237B604FF40063BB60EC
:102380000E200D4B9847114B984702463B46194685
:102390000F48104B98470E480F4B98470C480F4B6F
:1023A000984701210A480E4B98470E200D4B98473D
:1023B00000BF1837BD4680BDA51E400000100E406E
:1023C000D90A4000000E0E4000800840911E4000D7
:1023D0000080024079184000FD184000311940008B
:1023E00065194000B51D400080B500AF194B9847F6
:1023F000194B98470020194B98470120184B9847D4
:102400000220184B9847184B9847184B1B68002B15
:102410001BD0174B1B78742B14D1164B1B68002B49
:102420000CBF01230023DBB21A46124B1A60114B7A
:102430001B68002B03D01048104B984702E010484F
:102440000E4B9847094B00221A6002200D4B98470B
:10245000DBE700BFAD044000BD0940006922400039
:102460008D214000CD21400025234000D004402094
:10247000D80440200C004020D0254000D12240004C
:10248000E0254000E511400070B50F4E0F4D761B62
:10249000B61018BF002405D0013455F8043B984706
:1024A000A642F9D10A4E0B4D761B00F0A3F8B610E8
:1024B00018BF002406D0013455F8043B9847A642C3
:1024C000F9D170BD70BD00BF00264000002640005D
:1024D0000826400000264000024B13B1024800F0DD
:1024E00005B8704700000000F924400000230146B1
:1024F0001A46184600F01AB838B50A4C0A4D641B43
:10250000A4100AD004F18043013B05EB8305013C94
:1025100055F804399847002CF9D1BDE8384000F04F
:1025200073B800BF18264000142640002DE9F0477C
:10253000254C2568D5F84841064688469246994676
:10254000C4B360681F2817DC431C76B104EB800518
:102550000122C5F888A0D4F8881182401143022EC8
:10256000C4F88811C5F808911ED00230636044F8A1
:1025700020800020BDE8F087144B03B34FF4C870EF
:10258000AFF300800446D0B1D5F84831002780E889
:102590008800C5F8484138460123C4F88871C4F85A
:1025A0008C71002EE1D0D1E7D4F88C110A43C4F825
:1025B0008C21DAE705F5A674C5F84841C1E74FF06C
:1025C000FF30BDE8F08700BFF025400000000000AC
:1025D0004C454420424C494E4B204F4E0A000000CF
:1025E0004C454420424C494E4B204F46460A000081
:1025F00010004020F8B500BFF8BC08BC9E467047EC
:10260000D924400065014000F8B500BFF8BC08BC03
:082610009E46704741014000A5
:10261800010000000000200000093D00010000004A
:1026280000000000FC02402064034020CC0340204E
:102638000000000000000000000000000000000092
:102648000000000000000000000000000000000082
:102658000000000000000000000000000000000072
:102668000000000000000000000000000000000062
:102678000000000000000000000000000000000052
:102688000000000000000000000000000000000042
:102698000000000000000000000000000000000032
:1026A8000000000000000000000000000000000022
:1026B8000000000000000000000000000000000012
:1026C8000000000000000000010000000000000001
:1026D8000E33CDAB34126DE6ECDE05000B000000C6
:1026E80000000000000000000000000000000000E2
:1026F80000000000000000000000000000000000D2
:1027080000000000000000000000000000000000C1
:1027180000000000000000000000000000000000B1
:0400000500401AFDA0
:00000001FF
