S026000050726F6A65746F322D4F74696D697A6163616F2D456E65726765746963612E7372656388
S21440000030294020C91A4000791B4000791B400027
S214400010791B4000791B4000791B4000000000001F
S214400020000000000000000000000000791B4000B7
S214400030791B400000000000791B4000791B4000FF
S214400040791B4000791B400025244000791B400066
S214400050791B4000791B4000791B4000791B40000B
S214400060791B400000000000910A4000A90A4000A9
S214400070C10A4000791B4000791B4000791B4000B4
S214400080D90A4000F10A4000791B4000791B400025
S214400090791B4000791B4000791B4000791B4000CB
S2144000A0ED234000791B4000791B4000791B40003F
S2144000B0791B4000791B4000791B4000791B4000AB
S2144000C0791B4000791B4000791B4000791B40009B
S2144000D000000000791B400000000000791B400033
S2144000E0791B4000791B4000791B4000791B40007B
S2144000F0791B4000791B4000791B4000791B40006B
S214400100791B4000791B4000791B4000791B40005A
S214400110791B4000000000000000000000000000C6
S214400120791B4000791B4000791B4000791B40003A
S214400130791B400000000000791B4000791B4000FE
S21440014010B5054C237833B9044B13B10448AFF3CC
S21440015000800123237010BD4808402000000000A6
S214400160CC3740000C4B43B10C480D4910B5AFF3AB
S21440017000800C48036823B910BD0A48036833B9A9
S2144001807047094B002BF7D0BDE810401847064B88
S214400190002BF5D0184700BF00000000CC374000C9
S2144001A04C084020CC3740000000000080B582B0AC
S2144001B000AF78607B68072B31D801A252F823F055
S2144001C01D024000E1014000E9014000F10140000D
S2144001D0F9014000010240000902400013024000BD
S2144001E00020114B98471AE001200F4B984716E025
S2144001F000200E4B984712E010200C4B98470EE01C
S21440020020200A4B98470AE03E210020084B98479A
S21440021005E03E210120064B984700E000BF00BFA6
S2144002200837BD4680BD00BF090C4000750C400035
S214400230E50C400080B582B000AF78607B68072B45
S21440024026D801A252F823F0690240006D02400011
S2144002506D0240007F0240007F0240007F02400067
S2144002607F0240007F024000012312E00B4B98477C
S2144002700346002B14BF01230023DBB209E0084BE2
S21440028098470346002B14BF01230023DBB200E04F
S214400290002318460837BD4680BD00BF410C4000CD
S2144002A05D0D400080B483B000AF78607B68072B5C
S2144002B025D801A252F823F0D9024000DF024000C0
S2144002C0E5024000EB024000EF024000F30240002F
S2144002D0F7024000FB0240004FF4FA4310E04FF4B0
S2144002E000430DE04FF400430AE0084B08E0084B9B
S2144002F006E0084B04E0074B02E0064B00E0002314
S21440030018460C37BD465DF8047B704700093D0033
S21440031000127A00001BB70080B582B000AF0346DB
S214400320FB7100BFFB791846054B9847034683F0A0
S2144003300103DBB2002BF5D100BF0837BD4680BDB8
S2144003403502400080B586B000AFF8607A603B600A
S2144003500B46FB727B68002B07D13B68002B04D111
S214400360FB684FF470021A6019E0FB7A18460E4B91
S214400370984702467B68B2FBF3F37B617B693A6839
S21440038002FB03F37B613B68013B1A04074B1340B7
S2144003907A68D2B2134343F47C52FB681A6000BFBB
S2144003A01837BD4680BD00BFA50240000000FF07CD
S2144003B080B582B000AF786039603B68002B08D1CA
S2144003C0094B9847094A7B681B6843F00053936281
S2144003D005E0064A7B681B6843F48033D36100BF60
S2144003E00837BD4680BD00BF790D400000060E4070
S2144003F080B582B000AF78607B68002B03D1054B98
S2144004009847034602E0044B984703461846083789
S214400410BD4680BD950D4000B10D400080B582B010
S21440042000AF0346FB71FB79033B042B08D8FB79EE
S2144004301846064B9847FB791846054B984700E008
S21440044000BF00BF0837BD4680BD00BFAD014000BD
S2144004501903400080B582B000AF786000BF78686E
S214400460044B98470346002BF9D00023184608371C
S214400470BD4680BDF103400080B500AF0620054B69
S2144004809847024613469B0013449A001344184666
S21440049080BD00BFA502400080B500AF024B984724
S2144004A00346184680BD00BF7904400090B583B02F
S2144004B000AF1348134B98470620134B9847381DF8
S2144004C0192301220621114CA0473B1D0021184646
S2144004D00F4B984700200F4B984702200E4B9847EB
S2144004E000200E4B98470E4B98470E4B98470346B6
S2144004F01846044B984700BF0C37BD4690BD00BF1A
S21440050000A3E111E91C40001D04400045034000E3
S214400510B103400055044000090B4000850B4000E5
S214400520811B40009904400080B586B000AFF8605B
S214400530B9607A6000237B61FB68002B12D04FF0D5
S214400540FF3313E00B4B1B680B4A1268B968104622
S2144005509847BB680133BB607B6901337B617B682E
S214400560013B7B607B68002BECDC7B6918461837C8
S214400570BD4680BD1C0940202409402080B586B079
S21440058000AFF860B9607A6000237B61FB68012B9E
S2144005901ED0FB68022B1BD0FB68032B18D04FF0F5
S2144005A0FF3319E00E4B1A680E4B1868BB68591C8F
S2144005B0B9601B78194690470346002B02DA4FF085
S2144005C0FF3309E07B6901337B617B68013B7B60DD
S2144005D07B68002BE6D17B6918461837BD4680BD40
S2144005E0200940202409402080B485B000AFF86040
S2144005F0B9607A607B68002B03D0FB68BA685A669D
S21440060002E0FB68BA681A6600BF1437BD465DF85C
S214400610047B704780B483B000AF786039607B68F5
S2144006203A681A6300BF0C37BD465DF8047B7047D6
S21440063080B483B000AF786039607B683A685A63AC
S21440064000BF0C37BD465DF8047B704780B487B06A
S21440065000AFF860B9607A60FB687A685A64BB6835
S214400660B3F1C05F4AD0B3F1C05F08D8B3F1006FB2
S21440067016D0B3F1805F2CD0002B69D064E0B3F184
S214400680205F65D0B3F1205F03D8B3F1005F4AD056
S2144006905AE0B3F1405F5BD0B3F1605F58D053E0AF
S2144006A0FB681B6F7B61FB681A6F7B68D9437B696D
S2144006B00B401A40FB681A67FB685B6F7B61FB6800
S2144006C05A6F7B68D9437B690B401A40FB685A6770
S2144006D03AE0FB681B6F7B617A687B691A43FB686C
S2144006E01A67FB685B6F7B61FB685A6F7B68D94310
S2144006F07B690B401A40FB685A6725E0FB681B6F16
S2144007007B61FB681A6F7B68D9437B690B401A4054
S214400710FB681A67FB685B6F7B617A687B691A4384
S214400720FB685A6710E0FB681B6F7B617A687B69E1
S2144007301A43FB681A67FB685B6F7B617A687B6964
S2144007401A43FB685A6700BFFB687A685A6000E045
S21440075000BF1C37BD465DF8047B704780B584B04B
S21440076000AFF860B9607A60B968F868194B984786
S2144007707B6803F001031A46B968F868164B984739
S2144007807B6803F00A03002B03D0FB68BA681A6242
S21440079002E0FB68BA685A627B6803F00203002BEB
S2144007A004D0FB68BA68C3F8802008E07B6803F092
S2144007B00803002B03D0FB68BA68C3F88420FB68A4
S2144007C0BA685A61FB68BA681A6000BF1037BD46FF
S2144007D080BD00BFF1084000E905400080B584B008
S2144007E000AFF860B9607A603B60B968F868124B51
S2144007F09847BA69B968F868104B98473B68002B29
S21440080003D0FB68BA681A6502E0FB68BA685A65A6
S2144008107B68002B03D0FB68BA681A6302E0FB686B
S214400820BA685A63FB68BA681A61FB68BA681A60A5
S21440083000BF1037BD4680BDF1084000E9054000C6
S21440084080B483B000AF786039607B689A6B3B6851
S2144008501340002B01D1002300E0012318460C373B
S214400860BD465DF8047B704780B485B000AFF86045
S214400870B9607A607B6803F01003002B20D0FB68D9
S214400880BA68C3F8B0207B6803F02003002B04D07E
S214400890FB68BA68C3F8D42003E0FB68BA68C3F8BC
S2144008A0D0207B6803F04003002B04D0FB68BA6876
S2144008B0C3F8C02008E0FB68BA68C3F8C42003E069
S2144008C0FB68BA68C3F8B42000BF1437BD465DF86D
S2144008D0047B704780B483B000AF786039607B6833
S2144008E03A681A6400BF0C37BD465DF8047B704713
S2144008F080B483B000AF786039607B683A685A64E9
S21440090000BF0C37BD465DF8047B704780B483B0AB
S21440091000AF78607B68DB6C18460C37BD465DF8E8
S214400920047B704780B483B000AF78607B689B6C74
S21440093018460C37BD465DF8047B704780B584B0DA
S21440094000AF786039607868264B9847F8607868DA
S214400950254B98470246FB681340FB60FB68002B1C
S2144009603CD00023BB6034E0204ABB681B011344E4
S2144009701A683B689A4226D11C4ABB681B0113443E
S21440098004331A68FB681340002B1CD0174ABB6818
S2144009901B0113440C331B681449BA6812010A44FD
S2144009A010681249BA6812010A44043212681146A5
S2144009B098470E4ABB681B01134404331B68DB434D
S2144009C0FA681340FB60BB680133BB60BB68062B0C
S2144009D003D8FB68002BC7D100E000BF00BF10372C
S2144009E0BD4680BD0D0940002509400064084020F2
S2144009F080B586B000AFF860B9607A603B60214B46
S214400A001B68062B01D9012338E00023FB7511E053
S214400A10FB7D1B011C4A13443B613B691A68BB685B
S214400A209A4204D13B695A687B689A4208D0FB7D5B
S214400A300133FB75FA7D134B1B689A42E8D900E0F8
S214400A4000BF3B69BA681A603B697A685A603B697E
S214400A503A689A603B693A6ADA60FA7D094B1B68E5
S214400A6001339A4204D1074B1B680133054A136091
S214400A703A687968F868054B98470023184618374F
S214400A80BD4680BDD4084020640840206908400028
S214400A9080B500AF0A210248024B984700BF80BD90
S214400AA0000E0E403D09400080B500AF0B210248C5
S214400AB0024B984700BF80BD00100E403D094000E5
S214400AC080B500AF0C210248024B984700BF80BD5E
S214400AD000120E403D09400080B500AF102102488C
S214400AE0024B984700BF80BD00140E403D094000B1
S214400AF080B500AF11210248024B984700BF80BD29
S214400B0000160E403D09400080B483B000AF7860C8
S214400B107B68013B032B1AD801A252F823F000BF92
S214400B20310B4000370B40003F0B4000470B400066
S214400B3000237B600EE04FF480737B600AE04FF446
S214400B4040737B6006E04FF400737B6002E0002356
S214400B507B6000BF0A490A4B1B6B23F440727B68DC
S214400B6013430B6300BF064B9B6E03F00803002B3A
S214400B70F9D000BF0C37BD465DF8047B704700BF18
S214400B8000060E4080B485B000AF78601D491D4B0E
S214400B901B6B23F070027B6813430B634FF4805348
S214400BA0FB6007E0FB68002B01D1012323E0FB68D4
S214400BB0013BFB60134B9B6E03F00803002BF1D008
S214400BC0104A104B1B6B23F0030343F002031363DE
S214400BD04FF48053FB6007E0FB68002B01D10123F4
S214400BE009E0FB68013BFB60064B9B6E03F0080385
S214400BF0002BF1D0002318461437BD465DF8047B21
S214400C00704700BF00060E4080B483B000AF7860E7
S214400C107B68012B05D10749064B9A68064B134360
S214400C208B60044B054A1A6000BF0C37BD465DF822
S214400C30047B704710180E40000010A5080000A561
S214400C4080B400AF094B5B6903F08003002B07D0EC
S214400C50074B9B6E03F08003002B01D0012300E07E
S214400C6000231846BD465DF8047B704710180E40BA
S214400C7000060E4080B483B000AF78601549154B2F
S214400C801A6A154B13430B6200BF124B9B6E03F45C
S214400C900033002BF9D00F490E4B1A6A0F4B134006
S214400CA07A68134343F45C130B6200BF094B9B6E98
S214400CB003F40033002BF9D00649064B1A6A084B5A
S214400CC0134043F45C130B6200BF0C37BD465DF81F
S214400CD0047B704700060E40080037008FFFC8FFB1
S214400CE0FFFFC8FE80B483B000AF786039607B6891
S214400CF0002B08D01349134B1B6A134A1A40134B58
S214400D0013430B6218E00F490E4B1A6A104B134000
S214400D103A68120292B21A430E4B13430B6200BF5C
S214400D20084B9B6E03F00103002BF9D00549054B99
S214400D301A6A094B13430B6200BF0C37BD465DF879
S214400D40047B704700060E40FCFFC8FE02003701D9
S214400D50FCFFC8FF010037000000370180B400AF39
S214400D60044B9B6E03F480331846BD465DF8047B07
S214400D70704700BF00060E4080B400AF044B4FF0F3
S214400D8000529A6200BFBD465DF8047B704700BFC4
S214400D9000060E4080B400AF044B9B6E03F0020387
S214400DA01846BD465DF8047B704700BF00060E40FF
S214400DB080B400AF044B9B6E03F040031846BD461C
S214400DC05DF8047B704700BF00060E4080B483B0D9
S214400DD000AF78607B683F2B01D901232FE07B680A
S214400DE01F2B13D8194B9A6901217B6801FA03F32C
S214400DF01A4001217B6801FA03F39A421ED0134A37
S214400E0001217B6801FA03F3136117E07B68203BFE
S214400E107B600E4BD3F8082101217B6801FA03F36F
S214400E201A4001217B6801FA03F39A4206D0074A2A
S214400E3001217B6801FA03F3C2F80031002318460B
S214400E400C37BD465DF8047B704700BF00060E4079
S214400E5080B483B000AF7860044A7B68136000BFFC
S214400E600C37BD465DF8047B704700BF0400402049
S214400E7080B483B000AF204B1B6F7B607B6823F44D
S214400E80C0037B607B6843F480037B601A4A7B68C0
S214400E9013671949184B1A6A184B13430B6200BF65
S214400EA0154B9B6E03F00803002BF9D000237B60A4
S214400EB003E000BF7B6801337B607B68B3F5FA7F55
S214400EC0F7D300BF0C4B1B6A03F00803002BF9D086
S214400ED0094B1B6F7B607B6823F4C0037B607B6899
S214400EE043F480037B60044A7B68136700BF0C377B
S214400EF0BD465DF8047B704700060E400400370090
S214400F0090B599B000AF78607B68013B042B00F247
S214400F10A38101A252F823F02D0F40002D0F400070
S214400F20490F4000490F400037124000714A714B4C
S214400F301B6923F0040313616F4B01221A70BFF341
S214400F405F8F62B630BF87E17B68032B03D10020FA
S214400F506A4B984703E04FF40010684B984772B6C8
S214400F60BFF35F8F644B00221A70654B01221A70E4
S214400F707B68042B0CBF01230023DAB207F11C0365
S214400F803B6407F11803FB6307F11403BB6307F1E7
S214400F9010037B6307F10C033B63134687F82F303F
S214400FA0584B1B6ABB62574B1B6B7B62564B1B688E
S214400FB03B623B6C002B02D03B6CBA6A1A60FB6B00
S214400FC0002B03D04F4B9A6AFB6B1A60BB6B002B0F
S214400FD002D0BB6B00221A607B6B002B02D07B6B6F
S214400FE07A6A1A603B6B002B02D03B6B3A6A1A60F7
S214400FF04449BA6A454B13430B627B6A03F00303CA
S214401000012B0ED97B6A23F0030343F001037B6276
S2144010103C4A7B6A13633B4B9B6E03F00803002BF2
S214401020F9D07B6A03F07003002B0CD07B6A23F068
S21440103070037B62334A7B6A1363324B9B6E03F0CA
S2144010400803002BF9D0324B98472E4B9B6E03F487
S2144010500033002BF9D02B492A4B1A6A2D4B1340EC
S21440106043F45C130B62274B9B6E03F48033002BD8
S214401070F9D0254A3B6A23F47063136097F82F3003
S214401080002B07D01F491F4B1A6A234B134043F4CB
S2144010905C130B62184B01221A70BFF35F8F62B667
S2144010A01E4B984772B6BFF35F8F134B00221A70E1
S2144010B0FC69B86979693A69FB68FC65B865796521
S2144010C03A65FB640023BB64FB6D03F00203002B10
S2144010D02CD00C490B4B1B6A114A1A40114B134338
S2144010E00B620849074B1A6A0F4B134043F45C13D4
S2144010F00B624EE000ED00E000004020510E400044
S214401100D808402000060E40000C0E40080037006D
S214401110790D4000FFFFC8FEFEFFC8FF710E40007D
S214401120FCFFC8FE0200370187FFC8FFFB6D03F0D7
S2144011300103002B2DD04A4B1B6A03F00103002B02
S2144011400DD14749464B1B6A464A1A40464B134305
S2144011500B62434B9B6E03F00103002BF9D0404BD0
S2144011601B6A03F08073002B0BD13D493C4B1A6A37
S2144011703E4B13430B623A4B9B6E03F48033002B7B
S214401180F9D03749364B1A6A394B134043F45C134F
S2144011900B62BA6D374B1340002B08D0304ABB6DFC
S2144011A043F000539362BB6C43F00203BB643B6D59
S2144011B003F00303022B05D1294B9B6E03F0020379
S2144011C0002BF9D0264B1B6B7B6425497B6C23F0A8
S2144011D070023B6D03F0700313430B63204B9B6E12
S2144011E003F00803002BF9D0234AFB6C13601C4A1B
S2144011F03B6D13631A4B9B6E03F00803002BF9D02C
S214401200174B9A6EBB6C1340002BF9D01B4B002239
S2144012101A701B4B1B68002B05D0194B1B68984750
S214401220174B00221A60174B01221A70BFF35F8FCC
S21440123062B600BF10E0144A134B1B6943F0040328
S2144012401361124B124A1A600E4B01221A70BFF3FA
S2144012505F8F62B630BF00BF00BF6437BD4690BDEB
S21440126000060E40FCFFC8FF0100370000003701B3
S21440127087FFC8FF0000FF07000C0E40D80840203C
S214401280DC0840200000402000ED00E010180E4032
S214401290040000A580B483B000AF786039603B6836
S2144012A0002B06D07B685B6843F001027B685A607F
S2144012B005E07B685B6823F001027B685A6000BFEC
S2144012C00C37BD465DF8047B704780B483B000AFF2
S2144012D0786039607B683A681A6200BF0C37BD4652
S2144012E05DF8047B7047000080B487B000AFF860BC
S2144012F0B9607A603B6000237B61FB685B6803F003
S2144013000103012B09D1BB680C2B06D9BB680C3BEB
S214401310BB607B6943F480037B61BB68334AA2FBB6
S2144013200323DB081805B968304BA3FB0123DA0812
S21440133013469B0013445B00CA1A130403437A699E
S21440134013437B617B68294AA2FB0323DB0818030F
S2144013507968264BA3FB0123DA0813469B00134407
S2144013605B00CA1A130203437A6913437B613B68E6
S2144013701E4AA2FB0323DB08180139681B4BA3FB5C
S2144013800123DA0813469B0013445B00CA1A40EA5E
S21440139002037A6913437B61FB681B6843F00102D2
S2144013A0FB681A6000BFFB689B6903F00103012BD2
S2144013B0F9D1FB680122DA61FB687A699A60FB68BA
S2144013C01B6823F00102FB681A60FB68DB6943F088
S2144013D00402FB68DA61FB68DB6A03F00103184627
S2144013E01C37BD465DF8047B704700BFCDCCCCCCE7
S2144013F080B487B000AFF860B9607A603B60002385
S2144014007B61BB68464AA2FB03239B091801BB6865
S214401410444AA2FB03235909434BA3FB0123DA08A2
S21440142013469B0013445B00CA1A40EA02037A69DB
S21440143013437B61BB683C4AA2FB0323D9083A4B63
S214401440A3FB0123DA0813469B0013445B00CA1A29
S2144014501003B968344BA3FB0123DA0813469B00FC
S21440146013445B00CA1A130203437A6913437B6131
S2144014707B682D4AA2FB0323DB08180579682A4BB4
S214401480A3FB0123DA0813469B0013445B00CA1AE9
S214401490130403437A6913437B613B6A5B057A69AD
S2144014A013437B613B68204AA2FB0323DB081807F3
S2144014B039681D4BA3FB0123DA0813469B001344EF
S2144014C05B00CA1A130603437A6913437B61FB68C1
S2144014D01B6843F00202FB681A6000BFFB689B690A
S2144014E003F00103012BF9D1FB680122DA61FB68A6
S2144014F07A69DA60FB681B6823F00202FB681A60B0
S214401500FB68DB6943F00402FB68DA61FB68DB6A70
S21440151003F0020318461C37BD465DF8047B70474F
S214401520D34D62101F85EB51CDCCCCCC80B483B06C
S21440153000AF78607B689B6918460C37BD465DF8FF
S214401540047B704780B483B000AF786039607B68B6
S2144015503A68DA6100BF0C37BD465DF8047B7047D9
S21440156080B487B000AFF860B9607A60FA68BB684C
S2144015709B0113447B617B6902221A607B694FF0B2
S214401580FF329A627B691B6A7B697A685A6000BF41
S2144015901C37BD465DF8047B704780B483B000AF0F
S2144015A0786039607A683B689B01134405221A606C
S2144015B000BF0C37BD465DF8047B704780B485B0ED
S2144015C000AFF860B9607A60FA68BB689B01134464
S2144015D014337A681A6000BF1437BD465DF8047B42
S2144015E0704780B485B000AFF860B9607A60FA683A
S2144015F0BB689B0113441C337A681A6000BF1437DB
S214401600BD465DF8047B704780B487B000AFF86095
S214401610B9607A60FA68BB689B0113447B617B695A
S2144016207A685A6200BF1C37BD465DF8047B704737
S21440163080B485B000AF786039607A683B689B01BB
S2144016401344FB60FB681B6A18461437BD465DF8BA
S214401650047B704780B48DB000AFF860B9607A60A4
S2144016603B6002233B6108237B612023BB618023D0
S214401670FB61BB6BDB0B3B620023FB621AE0FB6A41
S2144016809B0007F13002134453F8203CBA68B2FB83
S214401690F3F3BB62BB6A1B0C7B62FA68BB6A9A4276
S2144016A001D9002323E0FA687B6A9A4206D2FB6A95
S2144016B00133FB62FB6A042BE1D900E000BFFB6A02
S2144016C0042B01D9002312E07B68002B08D0FB6A6C
S2144016D09B0007F13002134453F8202C7B681A60B5
S2144016E03B68002B02D03B68FA6A1A600123184612
S2144016F03437BD465DF8047B704780B485B000AF94
S214401700786039600023FB607B68AC221A603B68D7
S2144017101A683B685B68B2FBF3F31B09FB60FB6827
S214401720002B03D0FB68B3F5803F01D301230AE0CA
S2144017307B68FA681A623B689A687B685A607B687E
S21440174050221A60002318461437BD465DF8047BC5
S214401750704780B483B000AF78600B46FB707B6800
S2144017605B6903F00203002B01D1012303E0FA7802
S2144017707B68DA61002318460C37BD465DF8047B6B
S214401780704780B483B000AF786039607B685B692F
S21440179003F00103002B01D1012305E07B689B6920
S2144017A0DAB23B681A70002318460C37BD465DF81F
S2144017B0047B704780B489B000AFF860B9607A6047
S2144017C0BB681A017B689A4202D81023FB6101E08D
S2144017D00823FB617B68DA00FB69B96801FB03F309
S2144017E05B081A44FB69B96801FB03F3B2FBF3F3E9
S2144017F0BB61BB69DB087B61BB6903F007033B61E8
S2144018007B69002B03D07B69B3F5803F01D301236E
S2144018100FE0FB69082B05D1FB685B6843F40022A8
S214401820FB685A603B691A047B691A43FB681A6274
S214401830002318462437BD465DF8047B70470000F9
S21440184080B582B000AF786078680D4B98477B686B
S21440185000225A607B6800225A627B6800229A62A5
S2144018607868084B98477868074B98477868074BDE
S21440187098477868064B984700BF0837BD4680BDF6
S214401880211A400033194000671940008119400072
S2144018909D19400080B584B000AFF860B9607A60AA
S2144018A0F8681A4B98471A4B00221A60BB68002B00
S2144018B009D0BB681B687A681946F868154B984784
S2144018C00346002B01D001231BE0BB685A68BB6867
S2144018D09B681A43BB681B691A43BB68DB681A439C
S2144018E00B4B1B6813430A4A1360094B1B68084A94
S2144018F01360FB685A68064B1B681A43FB685A60BD
S214401900002318461037BD4680BD00BF4118400032
S214401910E0084020B517400080B483B000AF786040
S2144019207B6840221A6000BF0C37BD465DF8047BDA
S214401930704780B483B000AF78607B6888221A60B6
S21440194000BF0C37BD465DF8047B704780B483B05B
S21440195000AF78607B6810221A6000BF0C37BD4627
S2144019605DF8047B704780B483B000AF78607B68D6
S21440197024221A6000BF0C37BD465DF8047B7047D2
S21440198080B483B000AF78607B684FF480721A6092
S21440199000BF0C37BD465DF8047B704780B483B00B
S2144019A000AF78607B684FF400221A6000BF0C37A7
S2144019B0BD465DF8047B704780B483B000AF786066
S2144019C039607B685B6903F00203002B01D1012379
S2144019D005E03B68C3F308027B68DA6100231846DB
S2144019E00C37BD465DF8047B704780B483B000AFCB
S2144019F0786039607B685B6903F00103002B01D196
S214401A00012306E07B689B69C3F308023B681A60C3
S214401A10002318460C37BD465DF8047B704700002F
S214401A2080B483B000AF78607B68044AC3F8E42093
S214401A3000BF0C37BD465DF8047B704700415355E8
S214401A4080B483B000AFEFF310837B607B68002BDD
S214401A500CBF01230023DBB23B6072B6BFF35F8F3F
S214401A60044B00221A703B6818460C37BD465DF89A
S214401A70047B70470000402080B483B000AF78609D
S214401A807B68002B14BF01230023DBB218460C37BB
S214401A90BD465DF8047B704780B582B000AF786085
S214401AA07868074B98470346002B05D0054B012224
S214401AB01A70BFF35F8F62B600BF0837BD4680BD61
S214401AC0791A40000000402080B584B000AF1E4B1D
S214401AD0FB601E4BBB60FA68BB689A420CD007E0BE
S214401AE0BB681A1DBA60FA68111DF96012681A6060
S214401AF0BB68174A9342F3D3164BBB6004E0BB68FF
S214401B001A1DBA6000221A60BB68134A9342F6D385
S214401B10124BFB60124AFB6823F07F039360114B25
S214401B2098477860104A104B1B6843F47003136064
S214401B30BFF34F8FBFF36F8F78680C4B98470C4BB3
S214401B4098470C4B9847FEE7CC37400000004020B3
S214401B5048084020480840202C094020000040000B
S214401B6000ED00E0411A400088ED00E0991A400080
S214401B70592740000927400080B400AFFEE7000028
S214401B8080B400AF524B1B6B03F00303012B14D001
S214401B90012B02D3022B38D07AE04E4B5B6903F020
S214401BA08003002B04D04C4B4FF400421A606FE089
S214401BB0494B4FF4FA421A606AE0454B1B6A03F001
S214401BC08073002B03D0444B444A1A6060E0424B7B
S214401BD0434A1A603E4B1B6A03F07003102B04D036
S214401BE0202B08D0002B0ED00EE03B4B1B685B0032
S214401BF0394A136008E0384B1A6813465B001344B2
S214401C00354A136000E000BF42E0314B1B6A03F0E8
S214401C108073002B03D0304B304A1A601CE02E4BAA
S214401C202F4A1A602A4B1B6A03F07003102B04D00D
S214401C30202B08D0002B0ED00EE0274B1B685B00F5
S214401C40254A136008E0244B1A6813465B00134489
S214401C50214A136000E000BF1D4B1B6B03F00303DB
S214401C60022B14D11A4B9B6A1B0CC3F30A03013395
S214401C70194A126802FB03F3174A1360144B9B6A17
S214401C80DBB2154A1268B2FBF3F3134A136000BF87
S214401C900F4B1B6B03F07003702B08D10E4B1B6869
S214401CA0104AA2FB03235B080B4A13600AE0084B6A
S214401CB01B6B1B0903F00703074A126822FA03F35B
S214401CC0054A136000BFBD465DF8047B704700BF01
S214401CD000060E4010180E4008004020001BB700BB
S214401CE000093D00ABAAAAAA80B483B000AF7860D2
S214401CF07B68194A934204D8184B4FF080621A60AA
S214401D0023E07B68164A934203D8144B154A1A6060
S214401D101BE07B68144A934203D8104B134A1A6060
S214401D2013E07B68124A934203D80C4B114A1A6060
S214401D300BE07B68104A934204D8084B4FF00422CD
S214401D401A6002E0054B0D4A1A6000BF0C37BD46CC
S214401D505DF8047B704700BFFF2C3101000C0E403D
S214401D60FF59620200010004FF869303000200044C
S214401D70FFB3C40400030004FFE0F50500050004BB
S214401D8080B485B000AF7860104BFB60104B1B688A
S214401D90002B02D10E4B0F4A1A600D4B1B68BB60DE
S214401DA0BA687B681A44FB689A4202DD4FF0FF33FC
S214401DB006E0074B1A687B681344054A1360BB6805
S214401DC018461437BD465DF8047B7047FCFF452037
S214401DD0E4084020302B402080B483B000AF7860C9
S214401DE04FF0FF3318460C37BD465DF8047B70470E
S214401DF080B483B000AF786039603B684FF40052DF
S214401E005A60002318460C37BD465DF8047B704781
S214401E1080B485B000AFF860B9607A600023184699
S214401E201437BD465DF8047B7047000080B483B02D
S214401E3000AF0346FB71094997F907305B09FA7909
S214401E4002F01F02012000FA02F241F8232000BFF0
S214401E500C37BD465DF8047B704700BF00E100E0EC
S214401E6080B483B000AF0346FB71094997F9073049
S214401E705B09FA7902F01F02012000FA02F22033D1
S214401E8041F8232000BF0C37BD465DF8047B704701
S214401E9000E100E080B483B000AF0346FB7109491F
S214401EA097F907305B09FA7902F01F02012000FA21
S214401EB002F2603341F8232000BF0C37BD465DF880
S214401EC0047B704700E100E080B483B000AF034677
S214401ED03960FB7197F90730002B0BDA0D49FB7917
S214401EE003F00F03043B3A68D2B25201D2B20B441D
S214401EF01A7609E0084997F907303A68D2B2520193
S214401F00D2B20B4483F8002300BF0C37BD465DF8C1
S214401F10047B704700ED00E000E100E080B483B051
S214401F2000AF78607B68072B25D801A252F823F0D3
S214401F30511F4000571F40005D1F4000631F400078
S214401F40671F40006B1F40006F1F4000731F40001C
S214401F504FF4FA4310E04FF400430DE04FF40043D3
S214401F600AE0084B08E0084B06E0084B04E0074B45
S214401F7002E0064B00E0002318460C37BD465DF8ED
S214401F80047B704700093D0000127A00001BB70032
S214401F9080B500AF0620054B9847024613469B0087
S214401FA013449A001344184680BD00BF1D1F4000CE
S214401FB080B500AF024B98470346184680BD00BF29
S214401FC0911F400080B500AF024B984703465B0820
S214401FD0184680BD911F400080B582B000AF786043
S214401FE07868034B984700BF0837BD4680BD00BFA2
S214401FF0CD0D400080B58CB000AF78603960494B5D
S214402000984703467B623B681B68BB623B689B689D
S214402010FB623B681B68FB603B685B683B613B68F8
S2144020209B687B613B68DB68BB610023FB617B6828
S2144020303D4A934208D107203C4B984707F124037A
S214402040194678683A4B98477B683A4A934208D193
S2144020500820364B984707F1240319467868344BD6
S21440206098477B68344A934208D12C202F4B984798
S21440207007F12403194678682D4B98477B682F4A0A
S214402080934208D12D20294B984707F1240319463F
S2144020907868274B98477B68294A934211D10D2090
S2144020A0224B98471F4B9847024607F10C031946A8
S2144020B07868244B98477868234B98477868234B32
S2144020C098477B68224A934211D10E20174B984777
S2144020D0144B9847024607F10C0319467868194B8B
S2144020E098477868184B98477868184B98477B68A5
S2144020F0184A934211D10F200C4B9847094B9847EA
S214402100024607F10C03194678680E4B98477868E4
S2144021100D4B984778680D4B984700BF3037BD4603
S21440212080BD00BFC51F400000080E40D91F4000BC
S214402130FB164000000A0E40001A0E40001C0E40DF
S2144021400040024095184000191940004D194000C3
S2144021500080024000C0024080B582B000AF786088
S2144021600B46FB707B68364A93420AD100BFFB7829
S21440217019467868334B98470346002BF7D101231E
S2144021805AE07B68304A93420AD100BFFB78194632
S21440219078682C4B98470346002BF7D101234BE039
S2144021A07B682A4A93420AD100BFFB781946786872
S2144021B0244B98470346002BF7D101233CE07B682D
S2144021C0234A93420AD100BFFB78194678681D4BD4
S2144021D098470346002BF7D101232DE07B681D4A24
S2144021E093420AD100BFFB78194678681A4B984745
S2144021F00346002BF7D101231EE07B68174A934223
S2144022000AD100BFFB7819467868134B98470346B7
S214402210002BF7D101230FE07B68114A93420AD185
S21440222000BFFB78194678680B4B98470346002B4F
S214402230F7D1012300E0002318460837BD4680BD8D
S21440224000080E4053174000000A0E40001A0E4089
S214402250001C0E4000400240B91940000080024079
S21440226000C0024080B584B000AF7860396000237B
S214402270FB607B68344A934207D100BF3968786870
S214402280324B98470346002BF8D17B68304A93423E
S21440229007D100BF396878682C4B98470346002B17
S2144022A0F8D17B682B4A934207D100BF39687868DB
S2144022B0264B98470346002BF8D17B68264A934224
S2144022C007D100BF39687868204B98470346002BF3
S2144022D0F8D17B68214A93420DD100BF07F10C0329
S2144022E0194678681E4B98470346002BF6D1FB6884
S2144022F0DAB23B681A707B681A4A93420DD100BF27
S21440230007F10C0319467868154B98470346002B8F
S214402310F6D1FB68DAB23B681A707B68124A934281
S2144023200DD100BF07F10C03194678680C4B98474F
S2144023300346002BF6D1FB68DAB23B681A7000BF42
S2144023401037BD4680BD00BF00080E4083174000D2
S214402350000A0E40001A0E40001C0E40004002408C
S214402360EB1940000080024000C0024080B582B0B9
S21440237000AF786039600F4A7B6813600E4B0F4A97
S2144023801A600F4B0F4A1A60396878680E4B9847A8
S2144023900E4B1B689B68002118460D4B98470B4B0D
S2144023A01B685B6800211846094B984700BF0837F2
S2144023B0BD4680BD240940202009402059214000C8
S2144023C01C09402065224000F51F40000C004020BC
S2144023D04528400080B483B000AF7860396000BFC5
S2144023E00C37BD465DF8047B7047000080B582B070
S2144023F000AF01210748084B984703467B607B683F
S2144024004FF400510548064B984700BF0837BD4675
S21440241080BD00BF00C000403116400000120E4094
S2144024206D24400080B582B000AF0D480D4B9847F4
S21440243078607B6803F00403002B04D0042108482E
S214402440094B984708E07B6803F00203002B03D053
S21440245002210348044B984700BF0837BD4680BD5D
S21440246060180E402D1540004515400080B582B0DE
S21440247000AF7860396039687868094B98470346FA
S214402480002B04D039687868064B984703E03968D3
S2144024907868054B984700BF0837BD4680BD00BFEB
S2144024A041084000310640001506400090B583B014
S2144024B002AF0A20104B984709224FF400610F489C
S2144024C00F4B98474FF400610C480E4B98470E4B05
S2144024D0009350234FF400620A2108480B4CA04753
S2144024E00A200B4B984701210A200A4B984700BF09
S2144024F00437BD4690BD00BFCD0D4000000E0E40D7
S2144025005D074000D5084000D5234000F109400053
S2144025102D1E4000C91E400090B585B002AF7860C1
S2144025200C20074B98477A680023009300234FF40B
S21440253000510448044CA04700BF0C37BD4690BD30
S214402540CD0D400000120E40DD07400090B587B02C
S21440255002AF1E4B9847F8600123BB6018201C4B07
S214402560984739463A1DFB6800930B46F9680420A5
S214402570184CA0473B6843F400431A46B9681648CF
S214402580164B98477B68FA68B2FBF3F39B081A46EB
S214402590B9681148124B98477B68FA68B2FBF3F368
S2144025A0DB081A46B9680C480E4B984718200E4B65
S2144025B098471422B96808480C4B9847B9680648AB
S2144025C00B4B984700BF1437BD4690BDB11F400027
S2144025D0CD0D40005516400000C00040611540003B
S2144025E0E3154000BD1540002D1E40000916400072
S2144025F09B15400090B583B002AF0220144B98471D
S21440260000211448144B98470D2300931B230322A4
S21440261040F2E1710F48114CA047002305220921E2
S2144026200C480F4CA04702200E4B984702200E4BFA
S2144026309847002102200D4B984702200C4B9847A4
S214402640022104480B4B984700BF0437BD4690BD57
S214402650CD0D400060180E4095124000F11340002A
S214402660E9124000611E4000951E4000C91E400011
S2144026702D1E4000CB12400080B586B000AF0B2028
S2144026801A4B98470A20194B984710224FF0005192
S2144026901748184B98474FF400124FF00061164801
S2144026A0144B9847154A154BD3F8143143F0100392
S2144026B0C2F814313B4600221A605A609A60DA60CB
S2144026C01A615A614FF4E1333B60C0237B604FF49C
S2144026D00063BB600E20054B98473B4619460848AA
S2144026E0084B984700BF1837BD4680BDD91F4000ED
S2144026F000100E404D064000000E0E400080084080
S214402700008002406D23400080B500AF0A4B9847DA
S2144027100A4B4FF400425A600020094B9847094B39
S2144027209847094B9847094B9847094B98470220CA
S214402730084B9847FBE700BFAD04400050180E40DA
S21440274019254000AD2440004D254000F5254000A9
S21440275079264000010F400070B50F4E0F4D761B96
S214402760B61018BF002405D0013455F8043B9847EE
S214402770A642F9D10A4E0B4D761B01F015F8B6105D
S21440278018BF002406D0013455F8043B9847A642AB
S214402790F9D170BD70BD00BFB4374000B4374000BB
S2144027A0BC374000B437400070B4860746D0541E4D
S2144027B0002A41D0CAB2034602E014F1FF343BD3AC
S2144027C003F8012B9D07F8D1032C2ED9CDB245EA4C
S2144027D005250F2C45EA054519D903F11002264672
S2144027E0103E0F2E42F8105C42F80C5C42F8085C33
S2144027F042F8045C02F11002F2D8A4F1100222F072
S2144028000F0204F00F041032032C13440DD91E4659
S2144028102246043A032A46F8045BFAD8221F22F0DE
S21440282003020432134404F003042CB1C9B21C441E
S21440283003F8011B9C42FBD170BC7047144603460C
S214402840C2E700BF00290CBF022200224FF480637B
S21440285000F000B82DE9F043504C256883B004469C
S2144028600F4690461E4615B1AB6B002B77D0B8F19D
S214402870020F04D0B8F1010F7DD8002E7BDB214635
S214402880284600F03DF9216B41B104F140039942DE
S21440289002D0284600F03CFA00232363B4F90C30FB
S2144028A00022A26162601A0652D423F44A6323F0DF
S2144028B00303B8F1020FA38137D001AB6A46214625
S2144028C0284600F035FBA3891843A08116B317B3FA
S2144028D0AB6B002B4BD0009B27609E42B4F90C306C
S2144028E027611CBF43F40063A381B8F1010F04BF06
S2144028F043F00103A3819BB213F00800666123D026
S21440290013F001002FD000207642A661A06003B0ED
S214402910BDE8F083009E304600F038FB074668B3BB
S214402920A38943F08003A381D2E7002004F1430249
S21440293043F0020300250121A381A56022602261A5
S214402940616103B0BDE8F083A06003B0BDE8F083EA
S2144029502169284600F0DCF9B4F90C30A5E7284692
S21440296000F062F983E7A66003B0BDE8F08328462E
S21440297000F05AF9AFE74FF0FF30E2E7DDF800909D
S214402980B14506D0484600F001FB074608B14E4622
S214402990C6E7B4F90C304FF0FF30C7E70C004020D4
S2144029A0024B13B1024800F005B870470000000023
S2144029B03D2C4000002301461A46184600F00EBE45
S2144029C0B1F90C309AB22DE9F0410D461107804618
S2144029D03AD46A6843F40063002AAB816FDDAC6A80
S2144029E0002C49D000229BB2D8F80060C8F80020DE
S2144029F013F4805267D02A6D5F0705D569682B6B44
S214402A00521A0BB1EB6BD21A0023E9694046A04735
S214402A10441C3CD0B5F90C302A692A6023F4006384
S214402A200022AB81DB046A6047D4296BC8F800609B
S214402A3011B305F14003994202D0404600F068F9D0
S214402A4000202863BDE8F0812E69AEB12C682E6068
S214402A5091070CBF6B690023A41BAB600AE02346BA
S214402A6032466F6AE9694046B8470028A4EB00043E
S214402A70064404DD002CF2DC0020BDE8F081AB8982
S214402A8043F04003AB814FF0FF30BDE8F081D8F80B
S214402A9000401D2CF3D8194BE340DB4313F00103F1
S214402AA0EDD1B5F90C206B6022F400632969AB8147
S214402AB0DA042960B9D5002CB7D12865B5E7EA6BAA
S214402AC0002A8CDCD8E70123E9694046A047431C2E
S214402AD0024602D0AB89AC6A8EE7D8F80030002BAD
S214402AE0F8D01D2B01D0162B02D1C8F80060C3E7E2
S214402AF0AB8943F04003AB81BDE8F0810100402044
S214402B0010B5044682B008B1836B53B1B1F90C00DE
S214402B1008B902B010BD204602B0BDE81040FFF72D
S214402B204FBF019100F080F80199EFE7014900F0AE
S214402B30D5B900BFA53640002DE9F04F354B456866
S214402B40C3630024074600F53B7204230321C0F804
S214402B50E412C0F8E822C0F8E04283B02C606C6013
S214402B60AC606C66EC812C616C61AC61AB812146DB
S214402B7005F15C000822FFF717FEBE68DFF898B044
S214402B80DFF898A0DFF89890DFF89880C5F820B076
S214402B9001230922C5F824A0C5F82890C5F82C8042
S214402BA0ED612146F381B28106F15C0034607460C9
S214402BB0B460746634617461B46108220193FFF7AF
S214402BC0F3FDFD68F66112200222C6F820B0C6F872
S214402BD024A0C6F82890C6F82C802146A881EA8111
S214402BE02C606C60AC606C662C616C61AC6105F10D
S214402BF05C000822FFF7D8FD019BED61C5F820B0C8
S214402C00C5F824A0C5F82890C5F82C80BB6303B04F
S214402C10BDE8F08F2D2B4000293540004D35400053
S214402C2089354000A9354000836B03B17047FFF7F4
S214402C3083BF00BF704700BF704700BF38B50A4C1F
S214402C400A4D641BA4100AD004F18043013B05EBF7
S214402C508305013C55F804399847002CF9D1BDE866
S214402C60384000F0ABBD00BFCC374000C83740000E
S214402C70F8B5244F0C46064600F040FCBB685D683D
S214402C80C4F57E610F3125F00305294421F47F61A8
S214402C9021F00F01A1F58054B4F5805F07DB0021D9
S214402CA0304600F02FFCBB682B44984204D0304698
S214402CB000F026FC0020F8BD6142304600F022FCC1
S214402CC001300DD0104BBA6819682D1B45F0010530
S214402CD03046091B5560196000F012FC0120F8BD13
S214402CE00021304600F00EFCBA68831A0F2BDEDD5A
S214402CF0064C0549246843F00103001B53600860F6
S214402D00D5E700BF38044020E8084020400840206F
S214402D10002944D02DE9F0410D46804600F0EEFBF8
S214402D2055F8047C694927F00103A5F10804E21828
S214402D308E685068B24220F003005ED0FE075060B6
S214402D400BD455F8087CE41B01F1080EA5687545C0
S214402D503B446DD0E768EF60BD6015186D68ED07C1
S214402D603ED543F001026260E350B3F5007F17D2D0
S214402D70DB08581C9A104D6851F83070A760012344
S214402D80934001EBC0022B43083AE2604B6041F8A7
S214402D903040FC604046BDE8F04100F0B1BB7047B3
S214402DA05A0A042A52D89A0902F13907FF0002F15A
S214402DB03805C819CA59083890424FD0516821F092
S214402DC003018B4232D292689042F7D1C368A0602A
S214402DD0E3609C60C4604046BDE8F04100F090BBB4
S214402DE095683B4FBD42034440D0D068E86043F00E
S214402DF0010285606260E350B7E7FF07034407D4EB
S214402E0055F8082CA41A1344A068E268C260906083
S214402E10304A126843F00100934260608C60B9D338
S214402E202D4B40461968FFF723FFB3E71046CDE722
S214402E3011184968C90744D49168D268CA600344E7
S214402E4043F0010091606060E350A3E7142A16D86F
S214402E5002F15C07FF0002F15B05AAE7AA10012316
S214402E604D6893402B434B600346B0E743F0010266
S214402E704C610C61E560A5606260E3508AE7542AC5
S214402E8006D81A0B02F16F07FF0002F16E0590E7B5
S214402E90B2F5AA7F06D8DA0B02F17807FF0002F1F6
S214402EA0770586E740F25450824206D89A0C02F1E3
S214402EB07D07FF0002F17C057BE74FF47E777E2599
S214402EC077E743F001016160136063E73804402010
S214402ED04004402044084020180940202DE9F8438B
S214402EE010F538771FD0884606464FF000097D68B3
S214402EF0BC68013D11D4A389012B05F1FF3508D9E3
S214402F00B4F90E3001332146304602D0C04749EA74
S214402F1000096B1C04F16804EDD13F68002FE6D130
S214402F204846BDE8F883B9464846BDE8F88300BF42
S214402F3070B50C46B1F90E10002990B015461E46E5
S214402F4014DB01AA00F0EEFB00280FDB029A02F425
S214402F507042A2F50052B2FA82F252094FF48063F0
S214402F604FF4006032602B6010B070BDA289002321
S214402F7012F08000336004D0402218462A6010B019
S214402F8070BD4FF480632B6010B070BD024B01469D
S214402F90186800F003B800BF0C0040202DE9F04F41
S214402FA001F10B06162E83B0054640F29E8036F0A1
S214402FB0070600F1BD80B14200F2BA8000F09EFAEA
S214402FC0B6F5FC7FC0F09382730A00F0B880042BFD
S214402FD000F27981B30903F1390003F1380EC300DA
S214402FE0BF4F3B44A3F108015C68A14206D10CE008
S214402FF0002A80F2AA80E468A14206D0636823F0E3
S21440300003039A1B0F2AF3DD70463C69DFF8E4E2BF
S214403010744500F0AB81636823F003039A1B0F2AC4
S21440302000F39081002AC7F814E0C7F810E080F259
S2144030309D80B3F5007F80F06181DB0803F1010CD1
S21440304099107A6857F83C80C4F8088001238B4072
S21440305007EBCC0113430839E1607B6047F83C40FE
S214403060C8F80C408210012494409C4200F28B80A9
S2144030701C4206D120F0030064001C4200F104000C
S214403080FAD007EBC009CC468046DCF80C309C45AD
S21440309007D16DE1002A80F27B81DB689C4500F019
S2144030A06781596821F003018A1B0F2AF2DDD3F8A5
S2144030B00CC0D3F8088000939C19284646F00106B9
S2144030C042F001055E60C8F80CC0CCF808807C6110
S2144030D03C61C4F80CE0C4F808E065605A5000F063
S2144030E00FFA009B03F108041EE0102920D800F0D8
S2144030F005FA102618230220794F3B44A3F1080214
S2144031005C68944200F03D816368E168A66823F0FD
S2144031100303234428465A68F16042F001028E6059
S2144031205A6000F0EDF90834204603B0BDE8F08F51
S21440313000240C2320462B6003B0BDE8F08F4020CF
S2144031404FF400734FF03F0E4AE72344E1685A6855
S214403150A66842F00102F16028468E605A6000F090
S214403160CFF90834204603B0BDE8F08F2344284604
S2144031705A6842F001025A6000F0C2F9083420460C
S21440318003B0BDE8F08FBC68636823F00308B04521
S21440319004D3A8EB06030F2B00F38580DFF8589185
S2144031A0504BD9F800201B680132334404EB080A20
S2144031B000F0558103F580530F3323F47F6B2BF0DB
S2144031C00F0B5946284600F09DF9411C024600F078
S2144031D0FC80824500F2F780434B196859441960D9
S2144031E000F04D81D9F8000001301BBFA2EB0A0A5F
S2144031F05144C9F80020196012F0070100F015810B
S214403200C1F10800C1F580510244083102EB0B09B8
S214403210C9F30B09A1EB09094946284601930092D8
S21440322000F070F9431C9DE80C0000F04381801AC2
S214403230484440F001001968BA604944BC425060B6
S214403240196017D0B8F10F0F40F2FB806068A8F104
S2144032500C0222F0070204EB020E00F001004FF0D1
S214403260050C10430F2A6060CEF804C0CEF808C0A4
S21440327000F217811D4BBC681A68914288BF1960DE
S2144032801B4B1A689142626888BF196022F003029D
S2144032909642A2EB060301D80F2B04DC284600F02A
S2144032A02FF9002440E7A21943F0010346F0010637
S2144032B066602846BA60536000F022F9083420461B
S2144032C003B0BDE8F08F142B71D9542B00F2A380C5
S2144032D0330B03F16F0003F16E0EC30080E600BFB0
S2144032E03804402018094020E808402010094020B3
S2144032F01409402040044020400840205A0A042A2E
S2144033005BD9142A00F2AE8002F15C01C9005B3240
S21440331007EB010C7958ACF1080C8C4500F088801E
S2144033204A6822F00302934273D289688C45F7D1EB
S214403330DCF80C207B68E260C4F808C09460CCF8E7
S2144033400C408FE6A11946F0010C42F00106C4F885
S21440335004C0284679613961C1F80CE0C1F808E03C
S2144033604E60E25000F0CCF80834DDE67B6879E643
S21440337008F1010818F0030F0CF1080C7FF485AE35
S2144033802DE0DC68A34208BF02303FF43EAEBBE609
S21440339019441C464A68DB6854F8086F42F001023C
S2144033A04A602846F3609E6000F0AAF8BCE603F147
S2144033B05C0003F15B0EC30012E69A0902F1390184
S2144033C0C9003832A4E7BC4254D0BC68626822F0D8
S2144033D003025DE759F80839994540F0868010F0B9
S2144033E0030F00F1FF30F5D17B6823EA04037B60CE
S2144033F064009C423FF6C7AE002C3FF4C4AE1C426D
S21440340040467FF43EAE64001C4200F10400FAD011
S21440341037E68C468CE7B3F5AA7F15D8F30B03F155
S214403420780003F1770EC300DAE54FF48051EDE6FD
S2144034307B689210012101FA02F213437B606246D8
S21440344079E70123536029E740F25452934222D849
S214403450B30C03F17D0003F17C0EC300C0E503F11D
S214403460100BAEE6542A29D81A0B02F16F01C90098
S2144034706E324DE7204B196859441960B2E6CAF3DC
S2144034800B0000287FF4AEAE08EB0B03BA6843F09F
S21440349001035360EEE67F204FF47E734FF07E0EBE
S2144034A09EE504F1080128460093FFF731FC009B97
S2144034B01968DFE601204FF00009BCE6B2F5AA7FA6
S2144034C005D8DA0B02F17801C900773220E740F2DE
S2144034D054518A4205D89A0C02F17D01C9007C32CB
S2144034E016E74FF47E717E2212E77B6880E7F0088D
S2144034F006F1080300E600BFE8084020704700BF1A
S214403500704700BF38B5074C002305460846236081
S214403510FEF736FC431C00D038BD2368002BFBD09A
S2144035202B6038BD2809402010B50C46B1F90E1066
S21440353000F022F9002803DB236D0344236510BD09
S214403540A38923F48053A38110BD00BF2DE9F04129
S2144035501646B1F90C201F46D3050C46054607D53E
S21440356000220223B1F90E1000F0F0F8B4F90C2056
S214403570B4F90E1022F48052A2813B4632462846C9
S214403580BDE8F04100F014B810B50C46B1F90E1085
S21440359000F0DCF8A389421C0EBF23F4805343F4AA
S2144035A080532065A38110BDB1F90E1000F068B8B5
S2144035B070B50D46084C114606461A462846002366
S2144035C02360FCF7DBFF431C00D070BD2368002B54
S2144035D0FBD0336070BD00BF280940202DE9F0477E
S2144035E0254C2568D5F84841064688469246994671
S2144035F0C4B360681F2817DC431C76B104EB800513
S2144036000122C5F888A0D4F8881182401143022EC2
S214403610C4F88811C5F808911ED00230636044F89B
S21440362020800020BDE8F087144B03B34FF4C870E9
S214403630FFF7ACFC0446D0B1D5F84831002780E807
S2144036408800C5F8484138460123C4F88871C4F854
S2144036508C71002EE1D0D1E7D4F88C110A43C4F81F
S2144036608C21DAE705F5A674C5F84841C1E74FF066
S214403670FF30BDE8F08700BFA43740008D2F4000E4
S21440368038B5074C0023054608462360FEF7A4FBE2
S214403690431C00D038BD2368002BFBD02B6038BDC0
S2144036A02809402070B539B105460C4608B1836BF1
S2144036B083B3B4F90C3013B90026304670BD2146AA
S2144036C02846FFF77DF9E36A064633B1E1692846A6
S2144036D098470028B8BF4FF0FF36A3891B061CD476
S2144036E0216B41B104F14003994202D02846FFF7CE
S2144036F00FFB00232363616C21B12846FFF708FBCC
S21440370000236364FFF796FA0023A381FFF794FA39
S214403710304670BDFFF788FACBE721692846FFF7A9
S214403720F7FADDE738B50B46074C0546114618460E
S21440373000232360FEF75CFB431C00D038BD2368A3
S214403740002BFBD02B6038BD2809402070B50D46B5
S214403750084C114606461A46284600232360FEF7C4
S21440376057FB431C00D070BD2368002BFBD0336052
S21440377070BD00BF2809402070B50D46084C114664
S21440378006461A46284600232360FCF7CDFE431C17
S21440379000D070BD2368002BFBD0336070BD00BFE7
S2144037A02809402010004020F8B500BFF8BC08BCEF
S2144037B09E467047A129400065014000F8B500BF0D
S2104037C0F8BC08BC9E4670474101400023
S2144037CC010000000000200000093D0010004020D1
S2144037DC00000000FC02402064034020CC03402044
S2144037EC0000000000000000000000000000000088
S2144037FC0000000000000000000000000000000078
S21440380C0000000000000000000000000000000067
S21440381C0000000000000000000000000000000057
S21440382C0000000000000000000000000000000047
S21440383C0000000000000000000000000000000037
S21440384C0000000000000000000000000000000027
S21440385C0000000000000000000000000000000017
S21440386C0000000000000000000000000000000007
S21440387C00000000000000000100000000000000F6
S21440388C0E33CDAB34126DE6ECDE05000B000000BB
S21440389C00000000000000000000000000000000D7
S2144038AC00000000000000000000000000000000C7
S2144038BC00000000000000000000000000000000B7
S2144038CC00000000000000000000000000000000A7
S214403C0C38044020380440204004402040044020E3
S214403C1C4804402048044020500440205004402093
S214403C2C5804402058044020600440206004402043
S214403C3C68044020680440207004402070044020F3
S214403C4C78044020780440208004402080044020A3
S214403C5C8804402088044020900440209004402053
S214403C6C9804402098044020A0044020A004402003
S214403C7CA8044020A8044020B0044020B0044020B3
S214403C8CB8044020B8044020C0044020C004402063
S214403C9CC8044020C8044020D0044020D004402013
S214403CACD8044020D8044020E0044020E0044020C3
S214403CBCE8044020E8044020F0044020F004402073
S214403CCCF8044020F8044020000540200005402021
S214403CDC08054020080540201005402010054020CF
S214403CEC180540201805402020054020200540207F
S214403CFC280540202805402030054020300540202F
S214403D0C38054020380540204005402040054020DE
S214403D1C480540204805402050054020500540208E
S214403D2C580540205805402060054020600540203E
S214403D3C68054020680540207005402070054020EE
S214403D4C780540207805402080054020800540209E
S214403D5C880540208805402090054020900540204E
S214403D6C9805402098054020A0054020A0054020FE
S214403D7CA8054020A8054020B0054020B0054020AE
S214403D8CB8054020B8054020C0054020C00540205E
S214403D9CC8054020C8054020D0054020D00540200E
S214403DACD8054020D8054020E0054020E0054020BE
S214403DBCE8054020E8054020F0054020F00540206E
S214403DCCF8054020F805402000064020000640201C
S214403DDC08064020080640201006402010064020CA
S214403DEC180640201806402020064020200640207A
S214403DFC280640202806402030064020300640202A
S214403E0C38064020380640204006402040064020D9
S214403E1C4806402048064020500640205006402089
S214403E2C5806402058064020600640206006402039
S214403E3C68064020680640207006402070064020E9
S214403E4C7806402078064020800640208006402099
S214403E5C8806402088064020900640209006402049
S214403E6C9806402098064020A0064020A0064020F9
S214403E7CA8064020A8064020B0064020B0064020A9
S214403E8CB8064020B8064020C0064020C006402059
S214403E9CC8064020C8064020D0064020D006402009
S214403EACD8064020D8064020E0064020E0064020B9
S214403EBCE8064020E8064020F0064020F006402069
S214403ECCF8064020F8064020000740200007402017
S214403EDC08074020080740201007402010074020C5
S214403EEC1807402018074020200740202007402075
S214403EFC2807402028074020300740203007402025
S214403F0C38074020380740204007402040074020D4
S214403F1C4807402048074020500740205007402084
S214403F2C5807402058074020600740206007402034
S214403F3C68074020680740207007402070074020E4
S214403F4C7807402078074020800740208007402094
S214403F5C8807402088074020900740209007402044
S214403F6C9807402098074020A0074020A0074020F4
S214403F7CA8074020A8074020B0074020B0074020A4
S214403F8CB8074020B8074020C0074020C007402054
S214403F9CC8074020C8074020D0074020D007402004
S214403FACD8074020D8074020E0074020E0074020B4
S214403FBCE8074020E8074020F0074020F007402064
S214403FCCF8074020F8074020000840200008402012
S214403FDC08084020080840201008402010084020C0
S214403FEC1808402018084020200840202008402070
S214403FFC2808402028084020300840203008402020
S20C40400CFFFFFFFF0000020069
S804401AC9D8
