S01F000041756C613030385F50494F2D496E74657272757063616F2E73726563EA
S214400000D024402069094000650940006509400049
S2144000106509400065094000650940000000000091
S21440002000000000000000000000000065094000DD
S2144000306509400000000000650940006509400071
S21440004065094000650940006509400065094000B3
S21440005065094000650940006509400065094000A3
S2144000606509400000000000CD044000E104400067
S214400070F5044000650940006509400065094000F8
S214400080090540001D05400065094000650940001F
S2144000906509400065094000650940006509400063
S2144000A06509400065094000650940006509400053
S2144000B06509400065094000650940006509400043
S2144000C06509400065094000650940006509400033
S2144000D0000000006509400000000000650940007F
S2144000E06509400065094000650940006509400013
S2144000F06509400065094000650940006509400003
S21440010065094000650940006509400065094000F2
S21440011065094000000000000000000000000000EC
S21440012065094000650940006509400065094000D2
S2144001306509400000000000650940006509400070
S21440014010B5054C237833B9044B13B10448AFF3CC
S21440015000800123237010BD3804402000000000BA
S214400160D40F40000C4B43B10C480D4910B5AFF3CB
S21440017000800C48036823B910BD0A48036833B9A9
S2144001807047094B002BF7D0BDE810401847064B88
S214400190002BF5D0184700BF00000000D40F4000E9
S2144001A03C044020D40F40000000000010B510482A
S2144001B0104B98473E2100200F4B98470F4CA047C6
S2144001C00028FCD00E4B98470E4A0F4B9A620F4CB5
S2144001D0A0470028FCD002200D4B984700200D4B2E
S2144001E098470D4B98470248024B984710BD00BFB2
S2144001F000A3E1113D0B4000CD0540002106400024
S21440020031064000013F182000060E4041064000DF
S2144002103105400069054000310A4000F8B54FF40A
S2144002200042484B5A60BFF34F8FBFF36F8F464B29
S2144002300022C3F850225A6942F400325A61BFF392
S2144002404F8FBFF36F8FD3F88070C7F34E3607F0EB
S21440025007000430C7F3C907B7FA87FE0EF01F0E33
S214400260BFF34F8F4FF0FF3404FA00FC06FA00F05D
S21440027004FA0EF407FA0EFE1D463A46734640EA66
S2144002800301C5F86012013A2344B2F1FF3FF6D1AC
S214400290013E6044B6F1FF3FEFD1BFF34F8F2A4B8C
S2144002A05A6942F480325A61BFF34F8FBFF36F8F63
S2144002B0264A27495160A1F580715160BFF34F8FA0
S2144002C0BFF36F8FD3F8902222F00102C3F890223A
S2144002D0D3F8942222F00102C3F89422BFF34F8F42
S2144002E0BFF36F8F0A201B4CA0470B20A0470C2063
S2144002F0A0471020A0471120A047174B4FF480720C
S2144003001A61C3F8A0201A63A3F580634FF4006215
S2144003105A61C3F8A0205A66C3F890205A651A62FC
S214400320C3F88420196F21F400611967596F21F4CE
S21440033000615967C3F8C020C3F8D420C3F8B02082
S214400340F8BD00BF50180E4000ED00E0000C0E4017
S2144003500C08005A5106400000120E4001637047D8
S21440036041637047416412F0010F0DD1016612F0EF
S2144003700A0F0BD0016212F0020F09D112F0080FDB
S21440038008D0C0F8841005E04166F0E74162F2E725
S214400390C0F8801041610160704710B4019C416410
S2144003A04CB901664BB101654AB9416301610160D0
S2144003B05DF8044B70474166F4E74165F4E7016336
S2144003C0F4E7836B0B4214BF01200020704712F005
S2144003D0100F12D0C0F8B01012F0200F07D0C0F89F
S2144003E0D41012F0400F05D0C0F8C0107047C0F8C7
S2144003F0D010F6E7C0F8C4107047C0F8B410704785
S21440040001647047C06C7047806C70472DE9F041BE
S214400410044688460E4B9847054620460D4B98475F
S214400420054013D00C4C04F1600603E0B4420DD0F6
S21440043010345DB120684045F8D161682942F5D056
S214400440E3689847636825EA0305EFE7BDE8F0816F
S214400450050440000904400054044020F8B5184CF8
S2144004602668062E2AD84FF0000C6446154F04E046
S2144004700134E4B2A446A64209D3A64625017D59D6
S2144004808D42F5D107EB04156D689542F0D10D4DC0
S2144004904FEA0E1E05EB0E0445F80E106260A36090
S2144004A00699E1600136664505D011461A46064B68
S2144004B098470020F8BD02490E60F6E70120F8BDD7
S2144004C0C404402054044020CF03400008B50A210D
S2144004D00148024B984708BD000E0E400D044000F0
S2144004E008B50B210148024B984708BD00100E4046
S2144004F00D04400008B50C210148024B984708BD42
S21440050000120E400D04400008B510210148024B71
S214400510984708BD00140E400D04400008B5112150
S2144005200148024B984708BD00160E400D04400097
S214400530032811D0042812D002280CBF4FF4807133
S2144005400021084A136B23F440730B431363936EE6
S21440055013F0080FFBD070474FF44071F1E74FF4AB
S2144005600071EEE700060E40174A136B23F0700347
S21440057018431063936E13F0080F0AD14FF480535C
S21440058011498A6E12F0080F03D1013BF9D10120C0
S21440059070470D4A136B23F0030343F002031363C3
S2144005A0936E13F0080F0AD14FF4805306498A6EB3
S2144005B012F0080F05D1013BF9D101207047002009
S2144005C070470020704700BF00060E40A0B90E4896
S2144005D0036A090289B20D4A1A400D4B1343194368
S2144005E001620246936E13F0010FFBD0064A116A71
S2144005F0084B0B431362704703490B6A064A1A407E
S214400600064B13430B62704700060E40FCFFC8FFC4
S2144006100100370000003701FCFFC8FE020037012A
S214400620024B986E00F48030704700BF00060E40C4
S2144006304FF00052014B9A62704700BF00060E40D2
S214400640024B986E00F00200704700BF00060E4056
S2144006503F281ED81F280CD8114B9A690123834087
S214400660934318D0012303FA00F00D4B1861002085
S214400670704720380A4BD3F8082101238340934320
S2144006800BD0012303FA00F0054BC3F8000100200D
S214400690704701207047002070470020704700BF19
S2144006A000060E4070470000104A136F23F4C00344
S2144006B043F480031367116A0D4B0B431362936E2A
S2144006C013F0080FFBD04FF4FA7300BF013BFCD188
S2144006D0064A136A13F0080FFBD0044A136F23F43C
S2144006E0C00343F480031367704700BF00060E4004
S2144006F0040037002DE9F843431E042B00F2058121
S214400700DFE813F00500050013001300F400804AEC
S214400710136923F00403136101227E4B1A70BFF362
S2144007205F8F62B630BFBDE8F883044603280CBF2F
S21440073000204FF40010784B984772B6BFF35F8F97
S2144007400022744B1A700122744B1A70744B1F6A45
S2144007501D6B744AD2F800809E6A734A3A431A6206
S21440076005F00309B9F1010F40F2898025F0030135
S21440077041F0010119631A46936E13F0080FFBD03F
S21440078011F0700F08D021F07001654B19631A46BE
S214400790936E13F0080FFBD0644B9847604A936EF5
S2144007A013F4003FFBD05E4A116A614B0B4043F4A2
S2144007B05C131362936E13F4803FFBD028F470638F
S2144007C0584A1360042C5CD0524C01232370BFF36C
S2144007D05F8F62B6574B984772B6BFF35F8F002362
S2144007E0237017F0020F55D04D4A136A52491940EC
S2144007F0524B0B431362116A514B0B4043F45C134C
S2144008001362504B3340002B6ED046F00056444B9C
S2144008109E620221B9F1020F04D1414A936E13F051
S214400820020FFBD03E4A136B23F0700305F07000B6
S21440083003431363936E13F0080FFBD0394BC3F892
S2144008400080A3F5C0631D631A46936E13F0080F2D
S214400850FBD0334A936E0B42FCD000222F4B1A70CB
S214400860394B1B681BB198470022374B1A60012250
S214400870284B1A70BFF35F8F62B6BDE8F8832946EF
S2144008807EE7A2F5C062116A304B0B4043F45C131E
S214400890136299E717F0010FB3D0214B1B6A13F090
S2144008A0010F0BD11E490B6A294A1A40294B1343A4
S2144008B00B620A46936E13F0010FFBD0184B1B6A6F
S2144008C013F0807F08D1164A116A234B0B431362FC
S2144008D0936E13F4803FFBD0114A116A184B0B40BD
S2144008E043F45C1313628CE7002193E7084A1369CC
S2144008F043F004031361194A194B1A600122054B51
S2144009001A70BFF35F8F62B630BFBDE8F88300BF92
S21440091000ED00E00A004020A5064000C804402044
S21440092000060E40000C0E4008003700310640001E
S214400930FFFFC8FEA9064000FCFFC8FE02003701C4
S21440094087FFC8FF0000FF07CC044020FEFFC8FF1B
S214400950FCFFC8FF0100370000003701040000A577
S21440096010180E40FEE7000000B583B0254B264A1F
S2144009709A4210D0254B234A9A420CD2013B9B1AEE
S21440098023F00303043313441F4951F8040B42F881
S214400990040B9A42F9D11E4B1E4A9A420AD2013B98
S2144009A09B1A23F0030304331344002142F8041B2C
S2144009B09342FBD1184A194B23F07F039360EFF321
S2144009C01083B3FA83F35B09019372B6BFF35F8F6C
S2144009D00022134B1A700199124A136843F47003AD
S2144009E01360BFF34F8FBFF36F8F29B101220C4BBB
S2144009F01A70BFF35F8F62B60B4B98470B4B984706
S214400A00FEE700BF00004020D40F400038044020DE
S214400A10D00440203804402000ED00E000004000B4
S214400A200A00402088ED00E0650E4000650D40005D
S214400A303B4B1B6B03F00303012B1DD083B1022BF2
S214400A4036D0374B1B6B03F07003702B5FD0344BA4
S214400A501A6B3449C2F302120B68D3400B607047DE
S214400A60314B5B6913F0800F14BF4FF400424FF4D4
S214400A70FA422C4B1A60E4E7294B1B6A13F0807F3E
S214400A8003D02A4A274B1A60DBE7294A254B1A60CF
S214400A90234B1B6A03F07003102B05D0202BD0D1BC
S214400AA0224A204B1A60CCE7224A1E4B1A60C8E7FF
S214400AB01B4B1B6A13F0807F16D01C4A194B1A60DA
S214400AC0174B1B6B03F00303022BBAD1144A916AEF
S214400AD0926A1448C1F30A41036801FB0333D2B259
S214400AE0B3FBF2F30360ACE7114A0E4B1A600C4BB3
S214400AF01B6A03F07003102B05D0202BE0D10B4A65
S214400B00084B1A60DCE70B4A064B1A60D8E7054AE2
S214400B1013680949A1FB03135B081360704700BFC5
S214400B2000060E400C00402010180E40001BB70078
S214400B3000093D0000127A00ABAAAAAA124B9842BE
S214400B4011D9124B984213D9114B984214D9114BD4
S214400B50984215D9104B984294BF4FF004220F4A42
S214400B600F4B1A6070474FF080620D4B1A6070470B
S214400B700C4A0B4B1A6070470B4A094B1A60704779
S214400B800A4A074B1A607047FF2C3101FF59620230
S214400B90FF869303FFB3C404FFE0F5050005000499
S214400BA0000C0E4000010004000200040003000494
S214400BB008B50A480A4B98474FF4807109480A4BD3
S214400BC0984728B94FF480710648084B984708BDA7
S214400BD04FF480710348064B984708BD000E0E4000
S214400BE00504400000120E40C30340005D03400071
S214400BF06103400008B50948094B98470121094858
S214400C00094B984720B901210648084B984708BD2C
S214400C1001210448064B984708BD00BF00140E400B
S214400C2005044000000E0E40C30340005D03400034
S214400C306103400010B50B4C20460B4B98474FF0D5
S214400C4080412046094B984728B94FF080410548D7
S214400C50074B984710BD4FF080412046054B9847BC
S214400C6010BD00BF00120E4005044000C303400004
S214400C705D0340006103400008B50948094B9847AA
S214400C8004210948094B984720B904210648084BD7
S214400C90984708BD04210448064B984708BD00BF46
S214400CA0000E0E400504400000100E40C3034000F6
S214400CB05D0340006103400070B582B004461546AF
S214400CC01E460846064B984700230093B6FA86F21F
S214400CD0520929462046034CA04702B070BD00BFCB
S214400CE0510640009B034000F0B583B005460C46D5
S214400CF016461F460846154B984709223146284651
S214400D00134B984731462846124B98470097089B06
S214400D10324621462846104DA84762B25009E4B2F2
S214400D2004F01F0101238B400C4941F82030002A73
S214400D3006DB0A4B1344202283F8002303B0F0BDA1
S214400D4004F00F04064B20221A55F7E751064000E0
S214400D5065034000010440005D04400000E100E0FF
S214400D6014ED00E02DE9F04182B02C4B98472C4B17
S214400D7098474FF400422B4B5A602B4E01234FF4BA
S214400D8080720C213046294CA047294D01231A4633
S214400D900A212846A04701234FF080420C213046C6
S214400DA0A047012304220B212248A0475027009742
S214400DB0214B4FF400620A212846204CA04700975A
S214400DC01F4B4FF0805210211E48A04770230093BF
S214400DD01D4B4FF000420C213046A0474023009365
S214400DE01A4B4FF400220A212846A047DFF87080AD
S214400DF0174F0220C0470724164D3846A8474FF4E1
S214400E0080713046144B98473846A8474FF4807157
S214400E103046124B9847013CEFD1EAE71D024000AE
S214400E20AD01400050180E4000120E40B90C400074
S214400E30000E0E4000100E40B10B4000E90C400082
S214400E40F50B400000140E40350C4000790C400075
S214400E50DBEBC00001004020610340005D03400022
S214400E60F506400070B50F4E0F4D761BB61018BFF6
S214400E70002405D0013455F8043B9847A642F9D1E2
S214400E800A4E0B4D761B00F093F8B61018BF0024A0
S214400E9006D0013455F8043B9847A642F9D170BDB8
S214400EA070BD00BFBC0F4000BC0F4000C40F4000E8
S214400EB0BC0F4000024B13B1024800F005B8704723
S214400EC000000000D50E4000002301461A46184692
S214400ED000F01AB838B50A4C0A4D641BA4100AD064
S214400EE004F18043013B05EB8305013C55F804398A
S214400EF09847002CF9D1BDE8384000F063B800BFF1
S214400F00D40F4000D00F40002DE9F047254C25680F
S214400F10D5F848410646884692469946C4B3606826
S214400F201F2817DC431C76B104EB80050122C5F868
S214400F3088A0D4F8881182401143022EC4F8881144
S214400F40C5F808911ED00230636044F82080002027
S214400F50BDE8F087144B03B34FF4C870AFF300807E
S214400F600446D0B1D5F84831002780E88800C5F857
S214400F70484138460123C4F88871C4F88C71002E65
S214400F80E1D0D1E7D4F88C110A43C4F88C21DAE7D3
S214400F9005F5A674C5F84841C1E74FF0FF30BDE8F7
S214400FA0F08700BFAC0F400000000000100040205B
S214400FB0F8B500BFF8BC08BC9E467047B50E40006A
S214400FC065014000F8B500BFF8BC08BC9E467047B7
S208400FD04101400056
S214400FD4BFF35F8F0138FBD17047010000093D0025
S214400FE400000000FC02402064034020CC03402064
S214400FF400000000000000000000000000000000A8
S2144010040000000000000000000000000000000097
S2144010140000000000000000000000000000000087
S2144010240000000000000000000000000000000077
S2144010340000000000000000000000000000000067
S2144010440000000000000000000000000000000057
S2144010540000000000000000000000000000000047
S2144010640000000000000000000000000000000037
S2144010740000000000000000000000000000000027
S2144010840000000000000000010000000000000016
S2144010940E33CDAB34126DE6ECDE05000B000000DB
S2144010A400000000000000000000000000000000F7
S2144010B400000000000000000000000000000000E7
S2144010C400000000000000000000000000000000D7
S2144010D400000000000000000000000000000000C7
S80440096949
