S017000053414D4537302D4C43442D455854322E7372656330
S214400000E02E402009164000071640000716400024
S2144000100716400007164000071640000000000084
S214400020000000000000000000000000071640002E
S2144000300716400000000000071640000716400064
S21440004007164000071640000716400007164000F7
S21440005007164000071640000716400007164000E7
S21440006007164000000000007D114000911140003E
S214400070A51140000716400007164000071640002E
S214400080B9114000CD114000071640000716400049
S21440009007164000071640000716400007164000A7
S2144000A00716400007164000071640000716400097
S2144000B007164000110E4000071640000716400085
S2144000C00716400007164000071640000716400077
S2144000D00000000007164000000000000716400021
S2144000E0250E400007164000071640000716400041
S2144000F00716400007164000071640000716400047
S2144001000716400007164000071640000716400036
S214400110071640000000000000000000000000003D
S2144001200716400007164000071640000716400016
S2144001300716400000000000071640000716400063
S21440014010B5054C237833B9044B13B10448AFF3CC
S21440015000800123237010BDB40940200000000039
S214400160A43542000C4B43B10C480D4910B5AFF3D3
S21440017000800C48036823B910BD0A48036833B9A9
S2144001807047094B002BF7D0BDE810401847064B88
S214400190002BF5D0184700BF00000000A4354200F1
S2144001A0B8094020A43542000000000010B51048B1
S2144001B0104B98473E2100200F4B98470F4CA047C6
S2144001C00028FCD00E4B98470E4A0F4B9A620F4CB5
S2144001D0A0470028FCD002200D4B984700200D4B2E
S2144001E098470D4B98470248024B984710BD00BFB2
S2144001F000A3E111DD1740007D124000D1124000FF
S214400200E1124000013F182000060E40F112400067
S214400210E111400019124000D116400010B50446C6
S214400220104B984780232360636843F00103636064
S214400230636843F010036360636823F08003636081
S21440024000212046084B9847636823F0020363600A
S214400250636823F00403636000212046034B9847FD
S21440026010BD00BF55134000811340009713400057
S2144002702DE9F04104460D46164615491846154BDD
S2144002809847074601231A4629682046DFF85C80CF
S214400290C0470022296820460F4B9847FAB2296883
S2144002A020460E4B98470822296820460C4B984714
S2144002B07208296820460B4B984786F0010202F0E8
S2144002C0010229682046084B9847BDE8F08100BFE8
S2144002D080D1F008731440005F1440008914400039
S2144002E019144000DD134000FB134000B1144000D9
S2144002F008B5436813F0040F06D009680F2900D9E3
S21440030008BD064B984708BD09680329F8D801235D
S21440031003FA01F1C943014B9847F1E781134000C6
S2144003201AB110B40C46114406E00020704714F889
S214400330013BC360A1420CD043F69923026912F0F8
S214400340020FF4D1013BF9D16FF002005DF8044B87
S21440035070470020FAE73AB170B415460C460D4493
S214400360FF2640F2012112E000207047C66043F6A7
S2144003709923026931EA020204D0013BF9D16FF0B9
S21440038002000EE0836804F8013BA5420BD043F61A
S2144003909923026912F0020FE8D1013BF9D16FF0C0
S2144003A0020070BC70470020FBE700002DE9F041DA
S2144003B080B90C469046002A0FDD8F18084E094D2E
S2144003C0306821462B6898470134BC42F8D14046F5
S2144003D0BDE8F0814FF0FF38F9E78046F7E700BF09
S2144003E0440E40203C0E40200138022815D82DE906
S2144003F0F0410E4614469AB10D46DFF838800C4F51
S214400400D8F8000015F8011B3B68984700280ADB1F
S214400410A81B013CF4D1BDE8F0814FF0FF30704797
S2144004201046BDE8F0814FF0FF30BDE8F08100BFD8
S214400430400E4020440E40202DE9F0414FF400424B
S2144004409E4B5A60BFF34F8FBFF36F8F9C4B00227B
S214400450C3F850225A6942F400325A61BFF34F8FB4
S214400460BFF36F8FD3F88070C7F34E3607F00700A0
S2144004700430C7F3C907B7FA87FE0EF01F0EBFF366
S2144004804F8F4FF0FF3404FA00FC06FA00F004FAEF
S2144004900EF407FA0EFE1D463A46734640EA03013E
S2144004A0C5F86012013A2344B2F1FF3FF6D1013E4F
S2144004B06044B6F1FF3FEFD1BFF34F8F804B5A6990
S2144004C042F480325A61BFF34F8FBFF36F8F7D4A3D
S2144004D07D495160A1F580715160BFF34F8FBFF3E6
S2144004E06F8FD3F8902222F00102C3F89022D3F8FF
S2144004F0942222F00102C3F89422BFF34F8FBFF339
S2144005006F8F0A20714CA0470B20A0470C20A047B5
S2144005101020A0471120A0476D4E4FF48078C6F8B3
S2144005201080C6F8A080C6F830806A4C4FF400654C
S2144005306561C4F8A0506566C4F89050656525624C
S214400540C4F88450236F23F400632367636F23F457
S21440055000636367C4F8C050C4F8D450C4F8B050C1
S2144005604FF400132366C4F8903063656362C4F8A2
S2144005708030226F22F400122267626F22F400124B
S21440058062676360544AD2F8143143F01003C2F8ED
S214400590143102F5B22210231366C2F89030536528
S2144005A05362C2F88030116F19431167516F194377
S2144005B05167536008222266C4F8902062656262E2
S2144005C0C4F88020216F21F008012167616F21F077
S2144005D00801616762602366C4F8903063656362B1
S2144005E0C4F88030226F22F010022267626F22F039
S2144005F010026267636000234FF400524FF0605170
S2144006003046364FB84700234FF080424FF0605197
S2144006103046B8470123FF224FF000613046B847C6
S21440062001233F224FF000612D48B84701234FF485
S214400630C0324FF000612046B847012342464FF093
S21440064000613046B84701232A464FF000613046E5
S214400650B84701234FF400224FF000612148B847C5
S21440066000234FF400724FF080513046B8474FF4A5
S214400670007130461C4B98474FF0805174201B4CFD
S214400680A0474FF080517520A0474FF0805176200C
S214400690A0474FF080517B20A0474FF06051182074
S2144006A0A0474FF060510620A0474FF060515320BE
S2144006B0A04753200E4B9847BDE8F08150180E4097
S2144006C000ED00E0000C0E400C08005A01134000FC
S2144006D000120E40000E0E40008008402D0F4000D5
S2144006E000160E4000140E40390E4000FD0F40002C
S2144006F0C50F400030B40468B4F5A07F02D340F282
S2144007003F1404601468B4F5A07F02D340F23F144F
S21440071014600C68B4F5F07F02D340F2DF140C602E
S2144007201C68B4F5F07F02D340F2DF141C60046806
S2144007301568AC4201D9056014600A6818688242A0
S21440074001D908601A6030BC7047000010B582B00E
S21440075006200A4B9847002303222C210848094CC0
S214400760A04700230193019BFE2B05D8019B013334
S2144007700193019BFE2BF9D902B010BDE10F40005A
S21440078000800040A913400070B582B005460E4672
S21440079014460620144B9847002303222946134844
S2144007A0134DA84700230193019BFE2B05D8019BC0
S2144007B001330193019BFE2BF9D90CB902B070BDF1
S2144007C006200C4B98472246314608480A4B984725
S2144007D000230193019B5E2BF0D8019B01330193CC
S2144007E0019B5E2BF9D9E9E7E10F4000008000400D
S2144007F0A9134000C50F40002103400030B583B028
S21440080004460D4606200A4B98472A462146094884
S214400810094B984700230193019BFE2B05D8019B6B
S21440082001330193019BFE2BF9D903B030BD00BFC5
S214400830C50F40000080004021034000014630B113
S214400840034A044B013BFDD19142FAD870477047AA
S214400850A1860100A086010000B583B058B94823A0
S2144008608DF8073001220DF107013620044B9847DA
S21440087003B05DF804FBE8238DF80730F2E700BFCD
S2144008808907400010B584B0ADF80E00013A024426
S214400890ADF80C20ADF80A10013B1944ADF808102D
S2144008A0030A8DF804308DF80500C2F307238DF84F
S2144008B006308DF8072004220DEB02012A20104C4A
S2144008C0A047002211461046A0479DF80B308DF8F1
S2144008D004309DF80A308DF805309DF809308DF8C3
S2144008E006309DF808308DF8073004220DEB0201E3
S2144008F02B20A047002211461046A04704B010BD4A
S2144009008907400008B5002211462920014B984728
S21440091008BD00BF8907400010B4C0F30744C0F3C9
S2144009200721064B03F570721C705970987003339C
S2144009309342F9D15DF8044B704700BFD009402080
S21440094010B584B0ADF80600ADF80410030A8DF873
S2144009500C30C0B28DF80D008DF80E308DF80F00BB
S214400960042203A92A200E4CA04700221146104616
S214400970A0479DF805208DF80C209DF804308DF892
S2144009800D308DF80E208DF80F30042203A92B2051
S214400990A047002211461046A04704B010BD00BF35
S2144009A0890740002DE9F04387B08146032706AE0D
S2144009B046F8087D5D4D28465D4B984700240094D8
S2144009C05C4B3A4631462846DFF89881C047224677
S2144009D039462846584B984731462846574B9847FD
S2144009E001202860686122462146554EB047C820FF
S2144009F0544DA847224621461120B047C820A84754
S214400A0081238DF80A308DF80B4010264FF00108F0
S214400A104B4F254642460DF10A01FB20B8479DF84C
S214400A200A3001338DF80A300395039BFE2B05D818
S214400A30039B01330393039BFE2BF9D92A46294691
S214400A40D320B8470620404B984742460DF109014F
S214400A5036483E4B98470395039BFE2B05D8039B91
S214400A6001330393039BFE2BF9D99DF80930B3401D
S214400A701C4342460DF10B01FB20B8470395039AF1
S214400A8040F6FE739A4206D81A46039B01330393F8
S214400A90039B9342F9D9083E16F1080FBAD149F2A2
S214400AA088439C4203D0012007B0BDE8F08306ADE2
S214400AB0482305F8013D012229463620204EB047FE
S214400AC06420204CA04704238DF817300122294685
S214400AD0CF20B0476420A04706238DF81730012268
S214400AE029463A20B0476420A047002211461320EA
S214400AF0B0476420A047164B98476420A047002084
S214400B00144B98476420A047B9F80430B9F8002041
S214400B1000210846104CA047D9F808000F4B9847CC
S214400B20002108460E4B98470020BDE70080004055
S214400B301D024000002D310119144000F102400012
S214400B40890740003D084000C50F4000570340005D
S214400B500509400059084000850840001909400032
S214400B604109400071024000B0F5A07F0FD2B1F5B8
S214400B70F07F0CD208B589B280B2064B9847064B38
S214400B80984703210548064B9847002008BD01209A
S214400B90704700BF410940004D074000D009402043
S214400BA0FD0740002DE9F04184B003900291019288
S214400BB004AA42F8103D134601AA02A903A8224CF3
S214400BC0A047BDF80C00BDF80810009B01335B1A27
S214400BD0019A0132121A9BB292B21C4CA0471C4B8F
S214400BE098470399019D691A009D0135029BED1AAD
S214400BF001FB0555174BA3FB05231B0A63B15C1E7F
S214400C00DFF858804FF47077134E39464046B04769
S214400C10013CB4F1FF3FF8D10E49A1FB0531090A6A
S214400C2001EB8101A5EB811101EB41010B480A4B19
S214400C3098474FF4F0734FF4A07200210846034CD7
S214400C40A04704B0BDE8F081F506400085084000A6
S214400C504D074000CDCCCCCCFD074000D00940200D
S214400C602DE9F04F85B0039002921378002B48D0C0
S214400C708B460190DFF8948033E00BF1100B039B1A
S214400C80019329E0013CB4F1FF3F09D02B78234182
S214400C9013F0010FF6D0AAEB04013046C047F1E747
S214400CA007240BF10F0902E0013C012C09D07B78A8
S214400CB0234113F0010FF7D0A9EB04013046C0479B
S214400CC0F2E702350136009BB34202D007242F4696
S214400CD0DCE7019B0C330193029A12F8013F029223
S214400CE07BB10A2BC9D003EB8303074D05EB830387
S214400CF0A3F52075019E33460A3300930BF1070A8D
S214400D00E4E705B0BDE8F08FE4494000690B4000D9
S214400D1010B584B003900291013A10440190013B13
S214400D20194404AB43F8101D01AA02A903A8134CAA
S214400D30A047BDF80C00BDF80810009B01335B1AB5
S214400D40019A0132121A9BB292B20D4CA0470399F7
S214400D50019A511A029A009B9A1A02FB01F202EB80
S214400D60420206992C20074B98474FF4F0734FF4F5
S214400D70A07200210846A04704B010BDF50640000A
S214400D80850840008907400070B582B0026BC36A90
S214400D901340019300241C4E1C4DA84214BF002053
S214400DA0012005010BE00E2C1ED8019A04F10C011F
S214400DB001238B40134210D10134102C22D00B2C2F
S214400DC0F1D8019A0123A3401342F5D02B1956F8C7
S214400DD02330002BF0D09847EEE72B1956F82330F7
S214400DE0002BE9D09847E7E7019A04F10F01012369
S214400DF08B401342E0D02B1956F82330002BDBD023
S214400E009847D9E702B070BD480E402000400640E3
S214400E1008B50248024B984708BD00BF00C00340D3
S214400E20890D400008B50248024B984708BD00BFF0
S214400E3000400640890D4000016370474264B1F1AE
S214400E40C05F3AD013D8B1F1006F25D0B1F1805FC2
S214400E500AD1036F13430367436F416F0B4023EA86
S214400E6002034367426070470029FBD17047B1F1E7
S214400E70205F21D009D8B1F1005FF3D1036F13434F
S214400E800367436F13434367ECE7B1F1405F13D00A
S214400E90B1F1605F10D0E5E710B4016F046FD34343
S214400EA021401C4619400167436F416F0B40234069
S214400EB0436742605DF8044B7047036F016F0B4019
S214400EC023EA02030367436F13434367CAE7416459
S214400ED012F0010F0DD1016612F00A0F0BD001621D
S214400EE012F0020F09D112F0080F08D0C0F8841093
S214400EF005E04166F0E74162F2E7C0F880104161E4
S214400F000160704710B4019C41644CB901664BB116
S214400F1001654AB94163016101605DF8044B704761
S214400F204166F4E74165F4E70163F4E770B582B0E3
S214400F30054616461C46B1F1005F14D00AD9B1F1F9
S214400F40405F24D0B1F1605F21D0B1F1205F17D06F
S214400F5000201AE0B1F1805F05D0B1F1C05F02D049
S214400F60B1F1006FF4D132462846114B984714F041
S214400F70010F02D12E66012007E06E66012004E0D4
S214400F801A4631460B4B9847012002B070BD04F01C
S214400F9001030093C4F38003B1F1605F14BF0022E5
S214400FA0012231462846044CA0470120EDE700BF09
S214400FB03D0E4000CF0E4000050F4000C06C70470D
S214400FC0806C7047054B03EB50135B0200F01F002C
S214400FD0012202FA00F01863704700BF070720009E
S214400FE0054B03EB50135B0200F01F00012202FA90
S214400FF000F05863704700BF0707200070B582B006
S2144010000D46464C04EB5014640201F0F043B3F135
S214401010005F59D00AD8B3F1805F2FD0B3F1C05FDC
S2144010203FD0B3F1006F16D0002012E0B3F1405F1E
S2144010305DD0B3F1605F5AD0B3F1205FF4D100F0D9
S2144010401F0101262A4606FA01F12046344B9847EE
S214401050304602B070BD00F01F0001268640324682
S2144010604FF0006120462F4B984715F0010F02D1F4
S21440107026660120EDE766660120EAE700F01F00DD
S2144010800126864032464FF080512046254B9847F1
S21440109015F0010F02D126660120DAE766660120C8
S2144010A0D7E700F01F000126864032464FF0C05179
S2144010B020461C4B984715F0010F02D126660120AA
S2144010C0C7E766660120C4E700F01F000126864099
S2144010D032464FF000512046124B984715F0010F0C
S2144010E002D126660120B4E766660120B1E705F026
S2144010F0605200F01F01012605EA06030093C5F37F
S2144011008003B2F1605F14BF0022012206FA01F1AB
S2144011102046054CA04730469BE700BF0707200007
S214401120CF0E40003D0E4000050F40002DE9F04137
S214401130044688460E4B9847054620460D4B984732
S214401140054013D00C4C04F1600603E0B4420DD0C9
S21440115010345DB120684045F8D161682942F5D029
S214401160E3689847636825EA0305EFE7BDE8F08142
S214401170BD0F4000C10F4000900D402008B50A2129
S2144011800148024B984708BD000E0E402D11400006
S21440119008B50B210148024B984708BD00100E4089
S2144011A02D11400008B50C210148024B984708BD58
S2144011B000120E402D11400008B510210148024B88
S2144011C0984708BD00140E402D11400008B5112167
S2144011D00148024B984708BD00160E402D114000AE
S2144011E0032811D0042812D002280CBF4FF4807177
S2144011F00021084A136B23F440730B431363936E2A
S21440120013F0080FFBD070474FF44071F1E74FF4EE
S2144012100071EEE700060E40174A136B23F070038A
S21440122018431063936E13F0080F0AD14FF480539F
S21440123011498A6E12F0080F03D1013BF9D1012003
S21440124070470D4A136B23F0030343F00203136306
S214401250936E13F0080F0AD14FF4805306498A6EF6
S21440126012F0080F05D1013BF9D10120704700204C
S21440127070470020704700BF00060E40A0B90E48D9
S214401280036A090289B20D4A1A400D4B13431943AB
S21440129001620246936E13F0010FFBD0064A116AB4
S2144012A0084B0B431362704703490B6A064A1A40C1
S2144012B0064B13430B62704700060E40FCFFC8FF08
S2144012C00100370000003701FCFFC8FE020037016E
S2144012D0024B986E00F48030704700BF00060E4008
S2144012E04FF00052014B9A62704700BF00060E4016
S2144012F0024B986E00F00200704700BF00060E409A
S2144013003F281ED81F280CD8114B9A6901238340CA
S214401310934318D0012303FA00F00D4B18610020C8
S214401320704720380A4BD3F8082101238340934363
S2144013300BD0012303FA00F0054BC3F80001002050
S214401340704701207047002070470020704700BF5C
S21440135000060E4008B5074B984203D0064B98420D
S21440136004D008BD1520054B984708BD2A20034BDE
S2144013709847F6E700800040008005400113400093
S214401380436823F4702343604368090401F47021E2
S214401390194341607047436823F07F434360436886
S2144013A043EA01614160704730B443F699240569C9
S2144013B015F0020F03D1013CF9D101200CE044683E
S2144013C014F0020F06D0120402F4702211430BB13F
S2144013D041F08071C160002030BC704732B900EBEC
S2144013E08100036B23F001030363704700EB810029
S2144013F0036B43F001030363704732B900EB81008F
S214401400036B23F002030363704700EB8100036B1A
S21440141043F0020303637047042A03D06AB1082AE4
S21440142016D0704700EB8100036B23F0080303637C
S214401430036B43F004030363704700EB8100036BC8
S21440144023F008030363036B23F00403036370472E
S21440145000EB8100036B43F008030363E1E700EB16
S21440146081010B6B23F0F0030B630B6B1A430A638B
S2144014707047431E1944B1FBF0F0431EFE2B94BF49
S21440148000B24FF0FF3070477AB110B4144600EB0C
S21440149081010B6B23F47F430B630A6B42EA042201
S2144014A00A6300205DF8044B70474FF0FF307047EA
S2144014B010B400EB8101086B80B208630C6B44EA01
S2144014C0036343EA02430B635DF8044B704743698A
S2144014D013F0020F02D0C161002070470120704710
S2144014E0436913F0010F03D083690B7000207047E7
S2144014F00120704710B40B01934214D9C9004B0821
S21440150003EBC202B2FBF1F2D3085C1E4FF6FE714B
S2144015108C4201D9012017E0416841F40021416026
S2144015200CE0012010E0590801EBC202B2FBF3F2D6
S214401530D3085C1E4FF6FE718C42F2D8120402F4B9
S214401540E0221A43026200205DF8044B7047000018
S214401550084BC0F8E430002343604362836288232C
S2144015600360242303604FF4807303604FF400232A
S214401570036070470041535570B505460C46164605
S2144015800F4B984700220F4B1A60A4B13246216891
S21440159028460D4B9847024678B96368A1680B43C6
S2144015A021690B43E1680B4306490B6069680B43AE
S2144015B06B60104670BD0122FBE70122F9E700BFD1
S2144015C051154000000E4020F514400040230360B3
S2144015D07047102303607047436913F0020F04D02E
S2144015E0C1F30801C161002070470120704743697C
S2144015F013F0010F05D08369C3F308030B60002086
S214401600704701207047FEE700B583B0254B264A59
S2144016109A4210D0254B234A9A420CD2013B9B1A41
S21440162023F00303043313441F4951F8040B42F8D4
S214401630040B9A42F9D11E4B1E4A9A420AD2013BEB
S2144016409B1A23F0030304331344002142F8041B7F
S2144016509342FBD1184A194B23F07F039360EFF374
S2144016601083B3FA83F35B09019372B6BFF35F8FBF
S2144016700022134B1A700199124A136843F4700300
S2144016801360BFF34F8FBFF36F8F29B101220C4B0E
S2144016901A70BFF35F8F62B60B4B98470B4B984759
S2144016A0FEE700BF00004020A4354200B4094020B9
S2144016B0DC0E4020B409402000ED00E00000400071
S2144016C00000402088ED00E0ED1B4000511A40002D
S2144016D03B4B1B6B03F00303012B1DD083B1022B46
S2144016E036D0374B1B6B03F07003702B5FD0344BF8
S2144016F01A6B3449C2F302120B68D3400B60704732
S214401700314B5B6913F0800F14BF4FF400424FF427
S214401710FA422C4B1A60E4E7294B1B6A13F0807F91
S21440172003D02A4A274B1A60DBE7294A254B1A6022
S214401730234B1B6A03F07003102B05D0202BD0D10F
S214401740224A204B1A60CCE7224A1E4B1A60C8E752
S2144017501B4B1B6A13F0807F16D01C4A194B1A602D
S214401760174B1B6B03F00303022BBAD1144A916A42
S214401770926A1448C1F30A41036801FB0333D2B2AC
S214401780B3FBF2F30360ACE7114A0E4B1A600C4B06
S2144017901B6A03F07003102B05D0202BE0D10B4AB8
S2144017A0084B1A60DCE70B4A064B1A60D8E7054A36
S2144017B013680949A1FB03135B081360704700BF19
S2144017C000060E400400402010180E40001BB700D4
S2144017D000093D0000127A00ABAAAAAA124B984212
S2144017E011D9124B984213D9114B984214D9114B28
S2144017F0984215D9104B984294BF4FF004220F4A96
S2144018000F4B1A6070474FF080620D4B1A6070475E
S2144018100C4A0B4B1A6070470B4A094B1A607047CC
S2144018200A4A074B1A607047FF2C3101FF59620283
S214401830FF869303FFB3C404FFE0F50500050004EC
S214401840000C0E40000100040002000400030004E7
S2144018500A4B1B6853B1094B1B681A18084991423A
S21440186008DB1046054A106018467047054A034B89
S2144018701A60F0E74FF0FF30704700BF040E40207C
S214401880FCFF4520E03040204FF0FF3070474FF4DB
S21440189000534B600020704701207047002070477F
S2144018A0F0B583B005460C46002301932A4B984278
S2144018B013D02A4B984218D0294B98421DD0294B1A
S2144018C09D4222D0284B9D4227D0284B9D422ED069
S2144018D0274B9D4235D003B0F0BD1F46254E2146CE
S2144018E03846B0470028FAD1E9E71F46214E214640
S2144018F03846B0470028FAD1E4E71F461D4E214639
S2144019003846B0470028FAD1DFE71F46194E214631
S2144019103846B0470028FAD1DAE71E46164D01A9E8
S2144019203046A8470028FAD1019B2370D3E71E46CD
S214401930114D01A93046A8470028FAD1019B2370D3
S214401940C9E71E460C4D01A93046A8470028FAD1E3
S214401950019B2370BFE700BF00080E40000A0E4000
S214401960001A0E40001C0E4000400240008002401C
S21440197000C00240E1144000EF15400070B50C4630
S2144019802A4B984213D02A4B984219D0294B98425A
S2144019901FD0294B984225D0284B98422BD0284B15
S2144019A0984231D0274B984237D0002070BD1E4613
S2144019B0254D21463046A8470028FAD1012070BD63
S2144019C01E46214D21463046A8470028FAD1012020
S2144019D070BD1E461C4D21463046A8470028FAD109
S2144019E0012070BD1E46184D21463046A8470028A7
S2144019F0FAD1012070BD1E46144D21463046A847F8
S214401A000028FAD1012070BD1E46104D21463046B2
S214401A10A8470028FAD1012070BD1E460B4D21462E
S214401A203046A8470028FAD1012070BD00080E4075
S214401A30000A0E40001A0E40001C0E4000400240B5
S214401A400080024000C00240CF144000D91540003C
S214401A5080B588B0494B9847494B98470A20494E2D
S214401A60B0470B20B0470C20B0471020B04711209D
S214401A70B0470E20B047444F444B1F60444A454B46
S214401A801A60454A454B1A604FF4E1330293C0232F
S214401A9003934FF4006504950024059406940E20A5
S214401AA0B0473F4A02A938463E4B984738463E4BD9
S214401AB0984738463D4B98473D4F3B682146986887
S214401AC03C4EB0473B6821465868B0473A483B4B87
S214401AD098473B4B5D61C3F8A0505D66C3F8905095
S214401AE05D655D62C3F880501A6F22F400621A6723
S214401AF05A6F22F400625A6732484FF4A07303606C
S214401B004FF4F0734360304F8760C7602F4B984761
S214401B1040F2DF1340F23F12214620462C4DA847A4
S214401B202C482D4EB047772340F23F1221462046A0
S214401B30A84740F2DF1340F23F124FF4B4712046FC
S214401B40A847264B0093812340F23F12322120467D
S214401B50DFF89480C0473846B04740F23B1340F227
S214401B603F124FF496712046A8472046B0471C4A7D
S214401B704FF496710A201B4B9847FEE7AD01400094
S214401B80390440000113400000800240440E4020CB
S214401B907D194000400E4020A11840003C0E4020D9
S214401BA080D1F00879154000CD154000D31540008F
S214401BB008004020351E4000A43342003D1C400033
S214401BC0000E0E40C80E4020FCFCFC00A50940005C
S214401BD0A50B40004460FC001909400064514000D9
S214401BE0F8334200610C4000110D400070B50F4EB6
S214401BF00F4D761BB61018BF002405D0013455F89B
S214401C00043B9847A642F9D10A4E0B4D761B21F06D
S214401C10B3FCB61018BF002406D0013455F8043B78
S214401C209847A642F9D170BD70BD00BF84354200CA
S214401C30843542008C354200843542000FB400B5EE
S214401C40074983B004AB086853F8042B81680193B6
S214401C5000F0DEF903B05DF804EB04B0704700BF57
S214401C6008004020844641EA000313F003036DD188
S214401C70403A41D351F8043B40F8043B51F8043B0A
S214401C8040F8043B51F8043B40F8043B51F8043B11
S214401C9040F8043B51F8043B40F8043B51F8043B01
S214401CA040F8043B51F8043B40F8043B51F8043BF1
S214401CB040F8043B51F8043B40F8043B51F8043BE1
S214401CC040F8043B51F8043B40F8043B51F8043BD1
S214401CD040F8043B51F8043B40F8043B51F8043BC1
S214401CE040F8043B51F8043B40F8043B51F8043BB1
S214401CF040F8043B403ABDD2303211D351F8043B51
S214401D0040F8043B51F8043B40F8043B51F8043B90
S214401D1040F8043B51F8043B40F8043B103AEDD2FF
S214401D200C3205D351F8043B40F8043B043AF9D250
S214401D30043208D0D2071CBF11F8013B00F8013B23
S214401D4001D30B8803806046704700BF082A13D330
S214401D508B078DD010F003038AD0C3F10403D21A48
S214401D60DB071CBF11F8013B00F8013B80D331F87C
S214401D70023B20F8023B7BE7043AD9D3013A11F8FC
S214401D80013B00F8013BF9D20B7803704B78437067
S214401D908B7883706046704770B4860746D0541E72
S214401DA0002A41D0CAB2034602E014F1FF343BD3C6
S214401DB003F8012B9D07F8D1032C2ED9CDB245EA66
S214401DC005250F2C45EA054519D903F1100226468C
S214401DD0103E0F2E42F8105C42F80C5C42F8085C4D
S214401DE042F8045C02F11002F2D8A4F1100222F08C
S214401DF00F0204F00F041032032C13440DD91E4674
S214401E002246043A032A46F8045BFAD8221F22F0F8
S214401E1003020432134404F003042CB1C9B21C4438
S214401E2003F8011B9C42FBD170BC70471446034626
S214401E30C2E700BF00290CBF022200224FF4806395
S214401E4000F000B82DE9F043504C256883B00446B6
S214401E500F4690461E4615B1AB6B002B77D0B8F1B7
S214401E60020F04D0B8F1010F7DD8002E7BDB21464F
S214401E70284601F017F8216B41B104F1400399421E
S214401E8002D0284601F078F900232363B4F90C30D9
S214401E900022A26162601A0652D423F44A6323F0F9
S214401EA00303B8F1020FA38137D001AB6A4621463F
S214401EB0284601F0F7FBA3891843A08116B317B351
S214401EC0AB6B002B4BD0009B27609E42B4F90C3086
S214401ED027611CBF43F40063A381B8F1010F04BF20
S214401EE043F00103A3819BB213F00800666123D040
S214401EF013F001002FD000207642A661A06003B008
S214401F00BDE8F083009E304601F03EFC074668B3CD
S214401F10A38943F08003A381D2E7002004F1430263
S214401F2043F0020300250121A381A56022602261BF
S214401F30616103B0BDE8F083A06003B0BDE8F08304
S214401F402169284601F018F9B4F90C30A5E728466F
S214401F5001F03CF883E7A66003B0BDE8F08328466E
S214401F6001F034F8AFE74FF0FF30E2E7DDF80090DD
S214401F70B14506D0484601F007FC074608B14E4634
S214401F80C6E7B4F90C304FF0FF30C7E708004020F2
S214401F902DE9F84F4B6E9C0493462FD593681268F4
S214401FA053B30E46074602F1080919E920045FEAD2
S214401FB09A0817D0043D002401E0A04510D03246D0
S214401FC055F8041F384601F075F8431C04F1010427
S214401FD0F3D10023CBF80830CBF80430BDE8F88FB7
S214401FE0DBF808302AF0030AA3EB0A03CBF80830E4
S214401FF009F10809002BD8D10020EAE701F0A2F940
S2144020000023CBF80830CBF80430BDE8F88F00BF8B
S2144020102DE9F04FADB01D460191914608930690CC
S21440202018B1836B002B00F0E080019CB4F90C00E3
S21440203081B28B0407D4636E40F4005123F40053FE
S214402040A181636689B20F0740F1B180019B1B698D
S214402050002B00F0AC8001F01A010A2900F0B58090
S21440206000230DF1700B0B93119310930493CDF84E
S2144020703CB0DA4699F800304C46FBB1252B02D1ED
S2144020801CE0252B03D014F8013F002BF9D1A4EB1C
S21440209009059DB1109B119ACAF8009001332A4455
S2144020A0072BCAF80450119210937ADD002A40F0AC
S2144020B08F84049B10922B44DA4604932378002B9B
S2144020C000F0B18300204FF000038DF8373004F164
S2144020D0010962780546064603464FF0FF3409F18B
S2144020E00109A2F12001582900F20E83DFE811F021
S2144020F037020C030C03EB020C030C030C030C031B
S2144021000C030C039E02F0020C03820077020C03C1
S214402110CF01D401D401D401D401D401D401D401D7
S214402120D401D4010C030C030C030C030C030C0366
S2144021300C030C030C030C033F020C030C030C03B0
S2144021400C030C030C030C030C030C030C03460299
S2144021500C030C030C030C030C034A020C030C0385
S21440216052020C030C030C030C030C030C030C036D
S2144021700C030C030C03E201F6010C030C030C03E6
S2144021800703F6010C030C0391020C03F5028700CB
S214402190B102C3020C03C8020C03BD010C030C03BE
S2144021A0AA020AF1080A049B2B44049386E7019C82
S2144021B00698214600F062FD002840F04083A18941
S2144021C001F01A010A297FF44BAF0199B1F90E309C
S2144021D0002BFFF645AF2B464A46069800F018FD02
S2144021E0049004982DB0BDE8F08F00F0EFFE1CE799
S2144021F07642089243F0040399F800206FE707966A
S21440220013F0200240F05A8413F0100140F0F1839E
S21440221013F0400200F0ED8308980A460146043168
S2144022200688089100274FF000018DF837100025EA
S214402230611C00F0758123F08001039156EA070186
S21440224040F07381002C40F05683002A40F0B28361
S21440225013F00103059300F047840DF1B0083023D6
S21440226008F8413D059BA342B8BF234602930DB1F3
S21440227001330293039B13F00203099302D0029B9F
S21440228002330293039B13F084030A9340F0638265
S214402290079B029A9D1A002D40F35D82102D40F355
S2144022A07784109B119AB94ED6461027A2461946F7
S2144022B0069C07E001F1020C0EF1080E0146103DA7
S2144022C0102D11DD481C1032072811928EE8C000F0
S2144022D01090EFDD002A40F03182103D102D11465F
S2144022E04FF0010CDE46EDDC54466146F2462A4489
S2144022F007291192CAF80060CAF80450109100F3FA
S214402300E6829DF837500AF1080A481C002D40F036
S2144023102A82099B002B00F0448202320EA9022337
S2144023200728119210908AE80A0040F33682002A65
S21440233040F08B830A9B802B4FF001001146DA4613
S21440234040F03382079B029D5E1B002E40F32D8299
S214402350102E8F4D40F32F84D4461027A246069C5D
S21440236007E001F1020E0CF1080C0146103E102E5B
S21440237011DD481C1032072811928CE8A0001090FE
S214402380EFDD002A40F09682103E102E4FF0010EF0
S2144023901146DC46EDDC5446E2463244BEF1070FB9
S2144023A011928AE86000CDF840E000F35B83059B1D
S2144023B0E41A002C0AF1080A0EF10100714600F3F7
S2144023C0F9810599CAF800800A4407281192CAF88C
S2144023D00410109040F35582002A40F0EE82039B92
S2144023E01092580738D5079B02995C1A002C40F388
S2144023F0BA82DA46102C40F3DA831099634E069F71
S214402400DDF80480102506E0881C0AF1080A194603
S214402410103C102C13DD4B1C1032072B1192CAF8BF
S2144024200060CAF804501093EEDD002A40F00B829C
S214402430103C102C4FF001001146DA46EBDC2244EB
S21440244007281192CAF80060CAF80440109040F37A
S2144024502382002A40F06783049B079A02998A42A7
S214402460ACBF9B185B1804931FE207969E0600F1CC
S21440247019830899DD060A4600F1B582580640F1F0
S214402480B2820E880431002701220891CBE643F041
S214402490800399F8002022E6A2F13001002619F8C0
S2144024A0012B06EB860601EB4606A2F13001092910
S2144024B0F5D916E6089907960A688DF848204FF031
S2144024C000000A468DF83700043201200290089238
S2144024D005900DF1480803930024CBE607960028A4
S2144024E040F082839E0600F1D182DD0600F18D82A7
S2144024F0580640F18A82089DB5F900602A46F717CB
S2144025000432304639460892002871F10002C0F283
S214402510EE82611C9DF837504FF001027FF48BAE7F
S21440252056EA070100F0E8810393012A00F025826D
S214402530022A40F0F5810B98D846330906F00F0181
S21440254043EA07733A091E461746435C08F8013DBE
S21440255056EA0703F1D1ABEB0803059382E699F8F8
S2144025600020002D7FF4BBAD01202025B7E507965F
S214402570002840F0368343F01003B3E7079643F055
S21440258010033DE6079643F010036FE744344200DD
S214402590543442000796002840F02C83B0490B91F3
S2144025A09F0600F197820898DE06014600F12882D1
S2144025B05D0640F125820431068808910027D80739
S2144025C040F1D98156EA070100F0D58130218DF8D7
S2144025D0392043F002038DF83810022223E699F89A
S2144025E000202A2A09F1010700F0F082A2F130010A
S2144025F00929B9464FF000043FF673AD19F8012B90
S21440260004EB840401EB4404A2F130010929F5D916
S21440261067E599F800206C2A03BF99F8012043F03B
S214402620200309F1010943F0100358E508990E68A4
S2144026300A46002E02F10402FFF6DAAD089299F837
S21440264000204CE50796002840F0DA8285490B9139
S214402650A6E70898834A07960B92066878223021A8
S21440266004308DF8392043F00203089000278DF897
S21440267038100222D7E543F0200399F800202EE5D3
S21440268008990796D1F800804FF000028DF8372061
S2144026900E1DB8F1000F00F08182671C00F06082CA
S2144026A0224600214046029301F042FB029B00284E
S2144026B000F08482A0EB08020592089603939DF8EA
S2144026C037500024CEE543F0010399F8002006E594
S2144026D099F8002001202B2501E5002840F087824C
S2144026E0990600F13182DA0621D45B061FD5089A96
S2144026F0136804320892BDF810201A80BAE443F0FA
S214402700400399F80020EAE40796002840F07582D6
S214402710002A00F0888001218DF848204FF0000202
S21440272002918DF8372005910DF14808D3E6089AB6
S214402730136804320892049A1A609BE40FAA01991F
S2144027402046FFF725FC002874D11099119A01F114
S214402750010CDE46B3E51099119A481C9DF8375097
S214402760002D3FF4D6AD01320DF137050121072883
S21440277011921090CAF80050CAF8041040F3B68080
S214402780002A40F05581099B002B3FF4D3AD0EAB99
S214402790022208461C931D92DA4601460AF1080AB0
S2144027A001300A9B802B3FF4CDAD059BE41A002CEC
S2144027B07FF707AE102C2C4D1DDDD6461026069F03
S2144027C0DDF804A006E0881C0EF1080E1946103C01
S2144027D0102C0FDD4B1C1032072B11928EE8600038
S2144027E01093F0DDA2B9103C102C4FF001001146BA
S2144027F0DE46EFDCF246224407281192CAF8005023
S214402800CAF80440109031DC0AF1080A0130D8E5D5
S2144028100FAA51463846FFF7BBFB58B91099119A94
S214402820481CDE46D3E7119B23B1069801990FAAB0
S214402830FFF7AEFB019B9B895B067FF5D2AC4FF062
S214402840FF330493CDE40FAA41463846FFF7A0FB7A
S2144028500028EFD11099119A481CDA46D8E500BFF7
S214402860143442002834420054344200002A40F0D7
S2144028700081059A1D9201231192CDF87080109325
S214402880DA460AF1080A039B590705D5079B0299C1
S2144028905C1A002C3FF7AEAD049B07990298814224
S2144028A0ACBF5B181B1804937ABB00231093DA4620
S2144028B0FFF7E0BB0FAA01992046FFF769FB002807
S2144028C0B8D11099119A01F1010EDC464EE5002A66
S2144028D040F01C819DF83710002900F0118101223C
S2144028E00DF1370110461D921C91DA4601460AF159
S2144028F0080A01300DE5039B012A00F09080022A69
S2144029000BD103930026002715E60FAA01990698D7
S214402910FFF73EFB0028C8D08CE70393002600272D
S214402920594600E04146F20842EA4772F80806F087
S214402930070307461646303356EA070201F8013CBD
S21440294001F1FF38EED1039AD6077FF504AE302B5F
S2144029503FF401AE0239302308F8013CABEB0103EB
S214402960059388467EE4049B079A8A42ACBF9B1830
S2144029705B18049399E7022255E4002F08BF0A2EFD
S2144029804CD3D846304639460A22002301F0A2FEF0
S214402990303208F8012D3046394600230A2201F02D
S2144029A099FE06460F4656EA0703EBD1ABEB080303
S2144029B0059357E40594D84654E40FAA019906981F
S2144029C0FFF7E6FA00287FF435AF119ADA465AE761
S2144029D00FAA01990698FFF7DBFA00287FF42AAF82
S2144029E0DA46FFF7E0BB043116680891012200275B
S2144029F019E408980146043106680891002712E455
S214402A000E68043108910027D9E508990E680A46F1
S214402A10F717043208923046394675E5039B039310
S214402A200DF1B0083036012308F8416D059319E4DE
S214402A300FAA01990698FFF7ABFA00287FF4FAAE82
S214402A401099119A481CDA4663E40FAA0199069831
S214402A50FFF79EFA00287FF4EDAE1099119A481CB5
S214402A60DA469EE6002A40F0868001201146DA4685
S214402A709BE60FAA01990698FFF78AFA00287FF48A
S214402A80D9AE1098119A0130DA469AE4089E073675
S214402A9026F00706D6E9000106F108020892064627
S214402AA00F4631E5089E073626F0070202F1080178
S214402AB0D2E9006708910122FFF7B5BB089E0736AA
S214402AC026F0070202F10801D2E9006708910022C9
S214402AD0FFF7A9BB089E073626F0070101F108005C
S214402AE00890D1E900676AE5D846FFF7BBBB2D25BD
S214402AF0764267EB47078DF837500122FFF798BBC1
S214402B00099BD3B911460120DA464EE60FAA019931
S214402B100698FFF73DFA00287FF48CAE1099119A7C
S214402B20481CDA461AE60FAA01990698FFF730FACB
S214402B3000287FF47FAE119AAEE60EAB02221C93BD
S214402B401D920120DA4628E6089A04991368CD17A4
S214402B500846043229460892C3E90001FFF78ABABC
S214402B6040460896039301F0ABFB002405909DF881
S214402B703750FFF777BB0FAA01990698FFF708FA78
S214402B8000287FF457AE1099119A481CDA460CE696
S214402B901099119A1C4E0131FFF7A9BB062C28BF8D
S214402BA00624059408960294DFF8608093E4109813
S214402BB0154E013043E48646FFF7EFBB05949DF87B
S214402BC03750089603930446FFF74CBB089999F88C
S214402BD001200C68043144EAE474B9460891FFF7D2
S214402BE07EBA8DF83750C6E48DF837507AE48DF8C3
S214402BF0375075E58DF83750D0E48DF8375087E577
S214402C008DF8375022E500BF443442003C34420041
S214402C10F0B50C46ADF26C4D8989666EE58919961D
S214402C2021F00201666AADF80E500025E769ADF85E
S214402C300C10099606951AAE4FF4806569460096C4
S214402C4004960295059507970646FFF7E1F9051E97
S214402C5007DB3046694600F025F9002818BF4FF0DC
S214402C60FF35BDF80C305B0603D5A38943F040031F
S214402C70A38128460DF26C4DF0BD00BF38B5304BF1
S214402C801B6805460C4613B19A6B002A38D0B4F937
S214402C900C2093B218070CD52069A8B113F0010296
S214402CA01ED0636900225B42A361A260F0B100209F
S214402CB038BDD9063CD5580726D4206942F00803CB
S214402CC0A3819BB20028E9D103F42072B2F5007FBD
S214402CD0E4D02846214600F013FDA3892069DDE7AD
S214402CE0990758BF6269A2600028E0D1B4F90C3059
S214402CF01A06DDD543F04003A3814FF0FF3038BDC0
S214402D00184600F063F9C2E7216B51B104F1400365
S214402D10994204D0284600F02FFAB4F90C2000233C
S214402D20236300232069636022F024022060C5E705
S214402D3042F0400209232B604FF0FF30A28138BD9D
S214402D4008004020024B13B1024800F005B8704717
S214402D5000000000E12F4000002301461A461846B6
S214402D6001F0C2BBB1F90C309AB22DE9F0410D46E4
S214402D70110780463AD46A6843F40063002AAB8160
S214402D806FDDAC6A002C49D000229BB2D8F80060B8
S214402D90C8F8002013F4805267D02A6D5F0705D527
S214402DA069682B6B521A0BB1EB6BD21A0023E96998
S214402DB04046A047441C3CD0B5F90C302A692A60EE
S214402DC023F400630022AB81DB046A6047D4296B9E
S214402DD0C8F8006011B305F14003994202D040465E
S214402DE000F0CAF900202863BDE8F0812E69AEB134
S214402DF02C682E6091070CBF6B690023A41BAB6048
S214402E000AE0234632466F6AE9694046B8470028DA
S214402E10A4EB0004064404DD002CF2DC0020BDE8F0
S214402E20F081AB8943F04003AB814FF0FF30BDE803
S214402E30F081D8F800401D2CF3D8194BE340DB4313
S214402E4013F00103EDD1B5F90C206B6022F400635A
S214402E502969AB81DA042960B9D5002CB7D1286539
S214402E60B5E7EA6B002A8CDCD8E70123E9694046DF
S214402E70A047431C024602D0AB89AC6A8EE7D8F81E
S214402E800030002BF8D01D2B01D0162B02D1C8F8ED
S214402E900060C3E7AB8943F04003AB81BDE8F081F7
S214402EA00100402010B5044682B008B1836B53B190
S214402EB0B1F90C0008B902B010BD204602B0BDE81A
S214402EC01040FFF74FBF019100F080F80199EFE7FF
S214402ED0014900F0AFBB00BFB14540002DE9F04FBF
S214402EE0354B4568C3630024074600F53B72042310
S214402EF00321C0F8E412C0F8E822C0F8E04283B0EC
S214402F002C606C60AC606C66EC812C616C61AC6172
S214402F10AB81214605F15C000822FEF73DFFBE6806
S214402F20DFF898B0DFF898A0DFF89890DFF8988040
S214402F30C5F820B001230922C5F824A0C5F828907A
S214402F40C5F82C80ED612146F381B28106F15C0024
S214402F5034607460B460746634617461B46108222D
S214402F600193FEF719FFFD68F66112200222C6F8AB
S214402F7020B0C6F824A0C6F82890C6F82C80214673
S214402F80A881EA812C606C60AC606C662C616C61D8
S214402F90AC6105F15C000822FEF7FEFE019BED6188
S214402FA0C5F820B0C5F824A0C5F82890C5F82C80F0
S214402FB0BB6303B0BDE8F08FD12E40001142400005
S214402FC0354240007142400091424000836B03B15D
S214402FD07047FFF783BF00BF704700BF704700BF12
S214402FE038B50A4C0A4D641BA4100AD004F180433D
S214402FF0013B05EB8305013C55F804399847002C06
S214403000F9D1BDE8384020F0C1BA00BF9C35420037
S214403010983542002DE9F04782B0804689461446EE
S21440302000F032FB012836D04A4604F15C0301A981
S214403030404601F00BFA421C064625D0A8B39DF840
S21440304004E000250DF1040A09E023685A1C2260BA
S21440305083F800E00135B54227D215F80AE0A368A8
S214403060013B002BA360F0DAA769BB4271462246BB
S214403070404602DBBEF10A0FE7D101F08FF9431C50
S214403080E8D102B0BDE8F087A38943F04003A381AE
S21440309002B0BDE8F08709F1FF33FE2BC4D85FFAD3
S2144030A089FE06468DF804E0CBE7484602B0BDE808
S2144030B0F08700BFB2F90C3013F4005F0AD110B4A9
S2144030C0546E43F4005344F400545466938110BC49
S2144030D0FFF7A0BFFFF79EBFF8B5244F0C46064645
S2144030E000F0DAFEBB685D68C4F57E610F3125F0FE
S2144030F00305294421F47F6121F00F01A1F5805496
S214403100B4F5805F07DB0021304601F06FF8BB68FE
S2144031102B44984204D0304600F0C0FE0020F8BD54
S2144031206142304601F062F801300DD0104BBA686B
S21440313019682D1B45F001053046091B556019607E
S21440314000F0ACFE0120F8BD0021304601F04EF8FC
S214403150BA68831A0F2BDEDD064C0549246843F017
S2144031600103001B53600860D5E700BFA40540205C
S214403170080E4020AC094020002944D02DE9F041FB
S2144031800D46804600F088FE55F8047C694927F0D5
S2144031900103A5F10804E2188E685068B24220F098
S2144031A003005ED0FE0750600BD455F8087CE41B45
S2144031B001F1080EA56875453B446DD0E768EF60A1
S2144031C0BD6015186D68ED073ED543F0010262609C
S2144031D0E350B3F5007F17D2DB08581C9A104D68B1
S2144031E051F83070A7600123934001EBC0022B4397
S2144031F0083AE2604B6041F83040FC604046BDE82B
S214403200F04100F04BBE70475A0A042A52D89A0939
S21440321002F13907FF0002F13805C819CA590838C3
S21440322090424FD0516821F003018B4232D29268CF
S2144032309042F7D1C368A060E3609C60C46040469B
S214403240BDE8F04100F02ABE95683B4FBD420344BE
S21440325040D0D068E86043F0010285606260E35089
S214403260B7E7FF07034407D455F8082CA41A1344BD
S214403270A068E268C2609060304A126843F001007D
S214403280934260608C60B9D32D4B40461968FFF777
S21440329023FFB3E71046CDE711184968C90744D461
S2144032A09168D268CA60034443F001009160606050
S2144032B0E350A3E7142A16D802F15C07FF0002F198
S2144032C05B05AAE7AA1001234D6893402B434B6049
S2144032D00346B0E743F001024C610C61E560A5602F
S2144032E06260E3508AE7542A06D81A0B02F16F0749
S2144032F0FF0002F16E0590E7B2F5AA7F06D8DA0B1A
S21440330002F17807FF0002F1770586E740F2545055
S214403310824206D89A0C02F17D07FF0002F17C0536
S2144033207BE74FF47E777E2577E743F001016160C7
S214403330136063E7A4054020AC054020B009402058
S214403340380E40209368002B73D02DE9F04F8B89C0
S21440335083B00C4619070090164626D5226922B33C
S21440336013F0020035682CD04FF00009B04FC84625
S214403370B246B84543464A4628BF3B460098B8F151
S214403380000F50D0E169666AB047002858DDDAF889
S21440339008301B1A8144A8EB0008CAF80830002BF6
S2144033A0E7D1002003B0BDE8F08F21460098FFF734
S2144033B065FC002840F03381A389356813F002008D
S2144033C0D2D113F0010945D14F46019637B39A053D
S2144033D0D4F8088040F183804745C346C0F0AB80B0
S2144033E013F4906F40F0AC802068BA465A4649467F
S2144033F000F0EEFCA2682368A2EB08025B44A260E1
S2144034002360019A9368A3EB0A03D144A7EB0A070B
S2144034109360002BC5D0A389002FD8D1D5F8009053
S2144034206F680835D2E7D5F80090D5F8048008359F
S2144034309FE70020704721460098FFF733FD70B3A2
S214403440B4F90C3043F040034FF0FF30A38103B093
S214403450BDE8F08F814633464E46A8469A464D46CE
S2144034604EB380B3206823696269B145CB4628BF16
S214403470B34698425F4604D9A36813449B4500F37D
S214403480A68093454BDB1346676AE16900982A4657
S214403490B847071ED4DDB9EB0709CCD00120DAF8CF
S2144034A00830DB1B3D44F61BCAF80830002B3FF4BF
S2144034B078AF002ED5D108F1080313E9600098468E
S2144034C00833002EF9D032460A21284600F030FC58
S2144034D0002800F0A1800130A0EB0509C2E7206873
S2144034E02369984202D863699F425DD2B84528BF97
S2144034F0B8464246494600F06BFCA3682268A3EBF8
S21440350008034244A36022600BB1C24679E72146D5
S2144035100098FFF7C7FC002892D1C24671E75A468A
S214403520294600F055FCA2682368A2EB0B025B44D8
S214403530A2602360AFE72068B846BA46BB4655E768
S21440354062692068216902EB4208A0EB010A08EB99
S214403550D8780AF101004FEA6808384440454246A8
S21440356084BF804642465B0544D51146009800F02D
S21440357013F98346002855D052462169FEF772FB60
S214403580A38923F4906343F08003A3810BEB0A00E6
S214403590A8EB0A03C4F810B0C4F814802060A360F7
S2144035A0B846BA46BB4621E76FF00041B94228BF4D
S2144035B039464A4691FBF3F10098666A03FB01F3ED
S2144035C0E169B047B0F1000A3FF71BAF38E71A464B
S2144035D02946019300F0FCFB2268019B00981A44A0
S2144035E022602146FFF75EFC019B00287FF428AF4F
S2144035F01F4650E7009800F053FC83460028C5D18C
S214403600009D21692846FFF7B7FDB4F90C300C221F
S21440361023F080032A6015E706F1010922E74FF000
S214403620FF30BFE6009A0C231360B4F90C3009E76C
S21440363000FCFF7F2DE9F84310F538771FD0884609
S21440364006464FF000097D68BC68013D11D4A38949
S214403650012B05F1FF3508D9B4F90E300133214668
S214403660304602D0C04749EA00096B1C04F16804A2
S214403670EDD13F68002FE6D14846BDE8F883B9460D
S2144036804846BDE8F88300BF044B054A1B685B6BA1
S214403690002B08BF134693F82801704708004020C7
S2144036A03804402070B50C46B1F90E10002990B091
S2144036B015461E4614DB01AA00F0BAFF00280FDBB1
S2144036C0029A02F47042A2F50052B2FA82F252090D
S2144036D04FF480634FF4006032602B6010B070BDD2
S2144036E0A289002312F08000336004D0402218469E
S2144036F02A6010B070BD4FF480632B6010B070BD70
S2144037008A8992070B4606D501F1430201211A60C9
S2144037101A6159617047F0B583B001AB6A460C46F2
S2144037200546FFF7BFFF00990646284600F034F8E6
S214403730B4F90C30D0B1019A124F0099EF6343F0C0
S2144037408003A3812060206161611AB93343A3815D
S21440375003B0F0BD2846B4F90E1000F07DFFB4F972
S2144037600C300028F2D043F00103EFE79A05EFD47F
S21440377004F1430243F002030121A3812260226147
S2144037806161E5E7D12E4000024B0146186800F023
S21440379003B800BF080040202DE9F04F01F10B06AA
S2144037A0162E83B0054640F29E8036F0070600F19E
S2144037B0BD80B14200F2BA8000F06EFBB6F5FC7FE9
S2144037C0C0F09382730A00F0B880042B00F279812F
S2144037D0B30903F1390003F1380EC300BF4F3B4431
S2144037E0A3F108015C68A14206D10CE0002A80F2F1
S2144037F0AA80E468A14206D0636823F003039A1BBC
S2144038000F2AF3DD70463C69DFF8E4E2744500F0C9
S214403810AB81636823F003039A1B0F2A00F3908161
S214403820002AC7F814E0C7F810E080F29D80B3F590
S214403830007F80F06181DB0803F1010C99107A6803
S21440384057F83C80C4F8088001238B4007EBCC0136
S21440385013430839E1607B6047F83C40C8F80C40A9
S2144038608210012494409C4200F28B801C4206D178
S21440387020F0030064001C4200F10400FAD007EB7D
S214403880C009CC468046DCF80C309C4507D16DE13B
S214403890002A80F27B81DB689C4500F0678159688E
S2144038A021F003018A1B0F2AF2DDD3F80CC0D3F8AF
S2144038B0088000939C19284646F0010642F0010510
S2144038C05E60C8F80CC0CCF808807C613C61C4F8E7
S2144038D00CE0C4F808E065605A5000F0DFFA009B40
S2144038E003F108041EE0102920D800F0D5FA10266F
S2144038F018230220794F3B44A3F108025C689442A7
S21440390000F03D816368E168A66823F00303234422
S21440391028465A68F16042F001028E605A6000F014
S214403920BDFA0834204603B0BDE8F08F00240C23CF
S21440393020462B6003B0BDE8F08F40204FF4007364
S2144039404FF03F0E4AE72344E1685A68A66842F0C3
S2144039500102F16028468E605A6000F09FFA0834F3
S214403960204603B0BDE8F08F234428465A6842F00C
S21440397001025A6000F092FA0834204603B0BDE8CF
S214403980F08FBC68636823F00308B04504D3A8EB07
S21440399006030F2B00F38580DFF85891504BD9F87B
S2144039A000201B680132334404EB080A00F05581BE
S2144039B003F580530F3323F47F6B2BF00F0B5946E0
S2144039C0284600F013FC411C024600F0FC8082456D
S2144039D000F2F780434B19685944196000F04D8156
S2144039E0D9F8000001301BBFA2EB0A0A5144C9F8BF
S2144039F00020196012F0070100F01581C1F108009F
S214403A00C1F580510244083102EB0B09C9F30B099A
S214403A10A1EB0909494628460193009200F0E6FBCF
S214403A20431C9DE80C0000F04381801A484440F057
S214403A3001001968BA604944BC425060196017D00A
S214403A40B8F10F0F40F2FB806068A8F10C0222F03C
S214403A50070204EB020E00F001004FF0050C104385
S214403A600F2A6060CEF804C0CEF808C000F2178176
S214403A701D4BBC681A68914288BF19601B4B1A6878
S214403A809142626888BF196022F003029642A2EB18
S214403A90060301D80F2B04DC284600F0FFF900246B
S214403AA040E7A21943F0010346F001066660284647
S214403AB0BA60536000F0F2F90834204603B0BDE81F
S214403AC0F08F142B71D9542B00F2A380330B03F1E3
S214403AD06F0003F16E0EC30080E600BFA4054020D1
S214403AE0380E4020080E4020300E4020340E402035
S214403AF0AC054020AC0940205A0A042A5BD9142A57
S214403B0000F2AE8002F15C01C9005B3207EB010CAB
S214403B107958ACF1080C8C4500F088804A6822F051
S214403B200302934273D289688C45F7D1DCF80C20A7
S214403B307B68E260C4F808C09460CCF80C408FE61E
S214403B40A11946F0010C42F00106C4F804C028460C
S214403B5079613961C1F80CE0C1F808E04E60E25086
S214403B6000F09CF90834DDE67B6879E608F1010848
S214403B7018F0030F0CF1080C7FF485AE2DE0DC68DE
S214403B80A34208BF02303FF43EAEBBE619441C4693
S214403B904A68DB6854F8086F42F001024A602846DB
S214403BA0F3609E6000F07AF9BCE603F15C0003F136
S214403BB05B0EC30012E69A0902F13901C900383299
S214403BC0A4E7BC4254D0BC68626822F003025DE7BA
S214403BD059F80839994540F0868010F0030F00F1F7
S214403BE0FF30F5D17B6823EA04037B6064009C4287
S214403BF03FF6C7AE002C3FF4C4AE1C4240467FF4AE
S214403C003EAE64001C4200F10400FAD037E68C4613
S214403C108CE7B3F5AA7F15D8F30B03F1780003F1D0
S214403C20770EC300DAE54FF48051EDE67B689210DC
S214403C30012101FA02F213437B60624679E70123D1
S214403C40536029E740F25452934222D8B30C03F112
S214403C507D0003F17C0EC300C0E503F1100BAEE619
S214403C60542A29D81A0B02F16F01C9006E324DE76B
S214403C70204B196859441960B2E6CAF30B00002875
S214403C807FF4AEAE08EB0B03BA6843F00103536013
S214403C90EEE67F204FF47E734FF07E0E9EE504F1F5
S214403CA0080128460093FFF767FA009B1968DFE68D
S214403CB001204FF00009BCE6B2F5AA7F05D8DA0B22
S214403CC002F17801C900773220E740F254518A4227
S214403CD005D89A0C02F17D01C9007C3216E74FF4F4
S214403CE07E717E2212E77B6880E7F00806F10803C3
S214403CF000E600BF080E402082B049B15AB16BB111
S214403D0013780B601278101C18BF012002B0704761
S214403D1001A9002AF3D1104602B070476FF00100A7
S214403D20F4E700BF000000000000000000000000B4
S214403D3001F0FF01102A2BDB10F0070F08D010F817
S214403D40013B013A8B422DD010F0070F42B3F6D11B
S214403D50F0B441EA012141EA014122F007047FF034
S214403D6000070023F0E80256083C85EA010586EA8B
S214403D70010685FA47F5A3FA87F586FA47F6A5FAC7
S214403D8087F68EB9EED1F0BC01F0FF0102F00702D3
S214403D9032B110F8013B013A83EA010313B1F8D17E
S214403DA00020704701387047002D06BF354603385F
S214403DB0073815F0010F07D1013015F4807F02BF98
S214403DC0013015F4C03F0130F0BC0138704700BFE9
S214403DD08842F0B50DD98B1898420AD28418002A2A
S214403DE051D0224613F8014D02F8014D9942F9D1BF
S214403DF0F0BD0F2A48D941EA00039B0746D100F19F
S214403E00100401F11003154653F8106C44F8106C7A
S214403E1053F80C6C44F80C6C53F8086C44F8086C77
S214403E20103D53F8046C44F8046C0F2D03F1100356
S214403E3004F11004E8D8A2F1100323F00F0302F0B7
S214403E400F0E1033BEF1030F1944034421D91E1F31
S214403E500D467446043C55F8047B46F8047F032C14
S214403E60F8D8AEF1040424F0030404342144234477
S214403E7002F0030262B1013B0A4411F8014B03F819
S214403E80014F8A42F9D1F0BD0346F3E70346F2E715
S214403E90F0BD7246EEE700BF704700BF704700BFF8
S214403EA0002900F095802DE9F04F0D46164683B068
S214403EB0804606F10B07FFF7EFFF55F804EC162F88
S214403EC02EF00304A5F108093CD810221746BE423E
S214403ED03DD8944243DAC44B996809EB04008842C3
S214403EE000F0B480436823F0010101444968C907E3
S214403EF04CD51EF0010F00F09B8031464046FFF740
S214403F004BFC064600283AD055F8043C23F0010303
S214403F104B44A0F108029A4200F02181221F242A35
S214403F2000F20781132A00F2DB8003462A46116816
S214403F3019605168596092689A6029464046FFF772
S214403F401BF91CE027F00707002F3A46BFDA002689
S214403F500C233046C8F8003003B0BDE8F08F2E463C
S214403F60E31B0F2B1ED8D9F8043003F0010323437C
S214403F704C44C9F80430636843F00103636040462C
S214403F80FFF78CFF304603B0BDE8F08F23F0030305
S214403F90E11891421FDBC36882682E46D3600C4608
S214403FA09A60DDE7D9F8042009EB070102F0010228
S214403FB04C4443F001031743C9F804704B606368F0
S214403FC043F00103083163604046FFF7D5F8D6E773
S214403FD01146FFF7E1BB1EF0010F8ED155F8081CC5
S214403FE0A9EB010ADAF8041021F003010B4423443C
S214403FF0934225DBC26881685646CA609160DAF80B
S2144040000C1056F8080F221F242AC160886000F260
S2144040109480132A6FD92968CAF808106968CAF8C4
S2144040200C101B2A00F2A28008350AF1100263E049
S21440403055F8083CA9EB030ADAF8041021F003010E
S21440404063189342FFF659AF5646D8E7416821F0C9
S214404050030BA34407F11000834556DA1EF0010F08
S2144040607FF44BAF55F8081CA9EB010ADAF80410A8
S21440407021F003018B445845E2DC5646DAF80C1032
S21440408056F8080F221F242AC160886000F28F80ED
S214404090132A40F28A802968CAF808106968CAF864
S2144040A00C101B2A00F28A8008350AF11002296893
S2144040B0116069685160A96891600AEB0701ABEB33
S2144040C0070242F0010299604A60DAF8043003F0D1
S2144040D001031F434046CAF80470FFF7DFFE51E76E
S2144040E02B6803606B6843601B2A2DD800F10803D9
S2144040F005F108021BE7324629681160696851607D
S214404100A96891601C46D1462AE709EB0701ABEB4C
S214404110070B4BF0010299604A6055F8043C03F0E7
S21440412001031F43404645F8047CFFF7B7FE2E4682
S21440413028E72946FFF74CFEFFE6294630461C4650
S214404140D146FFF745FE0BE7AB688360EB68C3607C
S214404150242A17D000F1100305F11002E7E650F8C4
S214404160043C23F003031C442E46F9E6A968CAF82B
S2144041701010E968CAF81410242A0CD010350AF139
S2144041801802B9E72B6903616B69436105F11802B0
S21440419000F11803CBE62A69CAF818206A69CAF8FB
S2144041A01C2018350AF12002A6E732467FE729464A
S2144041B030460193FFF70CFE019B7EE7A968CAF8DC
S2144041C01010E968CAF81410242A03D010350AF1F2
S2144041D018026CE72A69CAF818206A69CAF81C20CF
S2144041E018350AF1200262E7A405402038B5074C8E
S2144041F00023054608462360FDF72AFB431C00D0F3
S21440420038BD2368002BFBD02B6038BDD80E40202D
S21440421010B50C46B1F90E1000F046FA002803DB44
S214404220236D0344236510BDA38923F48053A381E3
S21440423010BD00BF2DE9F0411646B1F90C201F46CF
S214404240D3050C46054607D500220223B1F90E10C9
S21440425000F014FAB4F90C20B4F90E1022F480528F
S214404260A2813B4632462846BDE8F04100F026B9DA
S21440427010B50C46B1F90E1000F000FAA389421CA6
S2144042800EBF23F4805343F480532065A38110BDB2
S214404290B1F90E1000F07AB90000000000000000EE
S2144042A000000000000000000000000000000000C9
S2144042B000000000000000000000000000000000B9
S2144042C090F800F06DE9024520F007016FF0000C11
S2144042D010F0070491F820F040F049804FF00004B9
S2144042E06FF00700D1E9002391F840F000F1080094
S2144042F082FA4CF2A4FA8CF283FA4CF3A2FA8CF3CC
S2144043004BBBD1E9022382FA4CF200F10800A4FA32
S2144043108CF283FA4CF3A2FA8CF3E3B9D1E9042386
S21440432082FA4CF200F10800A4FA8CF283FA4CF3BD
S214404330A2FA8CF37BB9D1E9062301F1200182FA77
S2144043404CF200F10800A4FA8CF283FA4CF3A2FA7D
S2144043508CF3002BC6D0002A04BF04301A4612BA8B
S214404360B2FA82F2FDE8024500EBD2007047D1E98E
S214404370002304F00305C4F100004FEAC50514F01D
S214404380040F91F840F00CFA05F562EA05021CBFEE
S21440439063EA050362464FF00004A9E7F8B50D4608
S2144043A01446064610B1836B002B4BD0B4F90C2054
S2144043B0A369A36091B2080739D52369002B36D08C
S2144043C0EDB289042F4615D522686169D31A8B420F
S2144043D01CDA0133A168501C0139A16020601570B9
S2144043E062699A421AD0A389DB0701D50A2D15D0F7
S2144043F03846F8BD616E42F4005221F40051A28165
S214404400226861666169D31A8B42E2DB21463046F8
S214404410FEF748FD40B922680123DBE721463046D7
S214404420FEF740FD0028E3D04FF0FF37E0E7214697
S2144044303046FEF723FC0028F6D1B4F90C20236959
S21440444091B2BDE7FEF7C2FDB0E700BFF0B5064645
S21440445085B01F4689B1104C104D2468646B002C03
S21440446008BF2C46D4F8E040A047431C03D10022A6
S2144044708A233A60336005B0F0BD0C460649074AC9
S2144044800968496B002908BF11462246D1F8E0402A
S21440449001A9A047E9E700BF0800402038044020B3
S2144044A021B1FF2A04D80A70012070470846704799
S2144044B08A2303604FF0FF30704700BF70B50D464B
S2144044C0084C114606461A46284600232360FBF74A
S2144044D08BFF431C00D070BD2368002BFBD033609D
S2144044E070BD00BFD80E40202DE9F047254C25680A
S2144044F0D5F848410646884692469946C4B3606811
S2144045001F2817DC431C76B104EB80050122C5F852
S21440451088A0D4F8881182401143022EC4F888112E
S214404520C5F808911ED00230636044F82080002011
S214404530BDE8F087144B03B34FF4C870FFF724F977
S2144045400446D0B1D5F84831002780E88800C5F841
S214404550484138460123C4F88871C4F88C71002E4F
S214404560E1D0D1E7D4F88C110A43C4F88C21DAE7BD
S21440457005F5A674C5F84841C1E74FF0FF30BDE8E1
S214404580F08700BF103442008937400038B5074CEA
S2144045900023054608462360FDF776F9431C00D005
S2144045A038BD2368002BFBD02B6038BDD80E40208A
S2144045B070B539B105460C4608B1836B83B3B4F980
S2144045C00C3013B90026304670BD21462846FEF70B
S2144045D0C9FBE36A064633B1E16928469847002896
S2144045E0B8BF4FF0FF36A3891B061CD4216B41B1E0
S2144045F004F14003994202D02846FEF7BDFD002351
S2144046002363616C21B12846FEF7B6FD0023636440
S214404610FEF7E2FC0023A381FEF7E0FC304670BDC7
S214404620FEF7D4FCCBE721692846FEF7A5FDDDE77B
S21440463038B50B46074C05461146184600232360FE
S214404640FDF725F9431C00D038BD2368002BFBD06E
S2144046502B6038BDD80E402038B5074C00230546A1
S21440466008462360FDF718F9431C00D038BD236880
S214404670002BFBD02B6038BDD80E402070B50D46C1
S214404680084C114606461A46284600232360FDF786
S21440469005F9431C00D070BD2368002BFBD0336067
S2144046A070BD00BFD80E402070B50D46084C114670
S2144046B006461A46284600232360FBF777FE431C2F
S2144046C000D070BD2368002BFBD0336070BD00BFA8
S2144046D0D80E402053B94AB9002908BF00281CBF4D
S2144046E04FF0FF314FF0FF3000F07AB9ADF1080CD3
S2144046F06DE904CE00F006F8DDF804E0DDE90223BB
S21440470004B070472DE9F0478C460D460446089E97
S214404710002B51D18A4217466DD9B2FA82FEBEF1BD
S214404720000F0BD0CEF1200C01FA0EF520FA0CFC4F
S21440473002FA0EF74CEA050C00FA0EF44FEA174A56
S214404740250CBCFBFAF81FFA87F90AFB18CC45EA99
S2144047500C4508FB09F3AB420AD9ED1908F1FF32C4
S21440476080F02381AB4240F22081A8F102083D440C
S214404770ED1AA4B2B5FBFAF00AFB105544EA05441C
S21440478000FB09F9A14509D9E41900F1FF3380F08F
S2144047900A81A14540F2078102383C44A4EB090453
S2144047A040EA08400021002E61D024FA0EF400238F
S2144047B034607360BDE8F0878B4207D9002E54D032
S2144047C0002186E821000846BDE8F087B3FA83F169
S2144047D0002940F08E80AB4202D3824200F2FA803B
S2144047E0841A65EB03050120AC46002E3FD086E8D0
S2144047F01010BDE8F08712B90127B7FBF2F7B7FAF9
S21440480087FEBEF1000F34D1EB1B3A0C1FFA87FC33
S2144048100121B3FBF2F8250C02FB183345EA0345A9
S2144048200CFB08F3AB4207D9ED1908F1FF3002D272
S214404830AB4200F2D1808046ED1AA3B2B5FBF2F04F
S21440484002FB105543EA05440CFB00FCA44507D97F
S214404850E41900F1FF3302D2A44500F2B8801846AE
S214404860A4EB0C0440EA08409DE731463046BDE8DC
S214404870F087CEF1200405FA0EF307FA0EF720FA79
S21440488004F83A0C25FA04F448EA0308B4FBF2F1BB
S2144048904FEA184502FB11441FFA87FC45EA0445D7
S2144048A001FB0CF3AB4200FA0EF409D9ED1901F105
S2144048B0FF3080F08A80AB4240F2878002393D4428
S2144048C0EB1A1FFA88F5B3FBF2F002FB103345EA09
S2144048D0034500FB0CF3AB4207D9ED1900F1FF3856
S2144048E06FD2AB426DD902383D44EB1A40EA0141E3
S2144048F08FE7C1F1200722FA07F88B4005FA01F44A
S21440490048EA030320FA07FE4FEA134CFD404EEAFE
S214404910040EB5FBFCF94FEA1E440CFB19551FFA72
S21440492083F844EA054509FB08F4AC4202FA01F272
S21440493000FA01FA08D9ED1809F1FF3043D2AC422B
S21440494041D9A9F102091D442D1B1FFA8EFEB5FB65
S214404950FCF00CFB10554EEA054400FB08F8A04559
S21440496007D9E41800F1FF3529D2A04527D90238E7
S2144049701C4440EA0940A4EB0804A0FB02894C45CD
S214404980C6464D4615D312D056B1BAEB0E0364EB6D
S214404990050404FA07F7CB401F43CC4037607460E9
S2144049A00021BDE8F0871846F8E69046E0E6C245A6
S2144049B0EAD2B8EB020E69EB03050138E4E7284675
S2144049C0D7E7404691E78146BEE7014678E702389A
S2144049D03C4445E7084608E7A8F102083D442BE773
S2144049E0704700BF0000000000000000000000000C
S2144049F00000000000000000000000000000000072
S214404A00FFCCFFCC000000000000000000000000CB
S214404A10F000F00000000000F000F0000000000091
S214404A200CC00CC0FFFCFFFC0CC00CC0FFFCFFFC25
S214404A300CC00CC00C601E703F303330FFFCFFFCD7
S214404A40333033F039E018C06000F00CF03C60F0D2
S214404A5003C00F003C18F03CC03C00183CF07FF808
S214404A60C31CC78CCFCCDCEC7878303000FC00CC54
S214404A700000000000004400EC00F8007000000059
S214404A8000000000000000000FC03FF0787860187B
S214404A90C00CC00C0000000000000000C00CC00CA1
S214404AA0601878783FF00FC0000000000C600EE001
S214404AB007C003803FF83FF8038007C00EE00C6055
S214404AC003000300030003003FF03FF00300030031
S214404AD003000300004400EC00F8007000000000F3
S214404AE00000000000000000030003000300030075
S214404AF00300030003000300030003000018003C0B
S214404B00003C00180000000000000000000000000C
S214404B100000000C003C00F003C00F003C00F0001A
S214404B20C00000003FF07FF8E0FCC1CCC38CC70C4F
S214404B30CE0CFC1C7FF83FF000000000300C700CE0
S214404B40FFFCFFFC000C000C00000000300C701C4A
S214404B50E03CC07CC0ECC1CCC38CE70C7E0C3C0C6B
S214404B6030307038E01CC00CC00CC30CC30CE31CC7
S214404B707FF83CF003C007C00EC01CC038C070C0F1
S214404B80FFFCFFFC00C000C0FC30FC38CC1CCC0C4A
S214404B90CC0CCC0CCC0CCE1CC7F8C3F03FF07FF846
S214404BA0E31CC30CC30CC30CC30CE39C71F830F07D
S214404BB0C000C000C000C000C3FCC7FCCE00DC0084
S214404BC0F800F0003CF07FF8E79CC30CC30CC30C25
S214404BD0C30CE79C7FF83CF03C007E00E70CC30C1F
S214404BE0C31CC338C370E7E07FC03F8000000000AE
S214404BF0000018603CF03CF0186000000000000028
S214404C0000000000000018443CEC3CF8187000001F
S214404C10000000000000030007800FC01CE0387052
S214404C207038E01CC00C00000CC00CC00CC00CC09F
S214404C300CC00CC00CC00CC00CC00CC00000C00C9B
S214404C40E01C703838701CE00FC00780030000007E
S214404C5030007000E000C000C1ECC3ECC300E600CA
S214404C607E003C0030F071F8E39CC30CC3FCC3FCF0
S214404C70C00CE01C7FF83FF03FFC7FFCE0C0C0C0AB
S214404C80C0C0C0C0C0C0E0C07FFC3FFCFFFCFFFC13
S214404C90C30CC30CC30CC30CC30CE79C7FF83CF09E
S214404CA03FF07FF8E01CC00CC00CC00CC00CE01CF1
S214404CB070383030FFFCFFFCC00CC00CC00CC00C81
S214404CC0C00CE01C7FF83FF0FFFCFFFCC30CC30C9D
S214404CD0C30CC30CC30CC30CC00CC00CFFFCFFFCC5
S214404CE0C300C300C300C300C300C300C000C0006D
S214404CF03FF07FF8E01CC00CC00CC30CC30CE31C98
S214404D0073F833F0FFFCFFFC0300030003000300CE
S214404D1003000300FFFCFFFC00000000C00CC00CBA
S214404D20FFFCFFFCC00CC00C000000000030003848
S214404D30C01CC00CC00CC01CFFF8FFF0C000C00078
S214404D40FFFCFFFC078007800FC01CE038707038FF
S214404D50E01CC00CFFFCFFFC000C000C000C000C20
S214404D60000C000C000C000CFFFCFFFC7000380030
S214404D701F001F0038007000FFFCFFFCFFFCFFFC1C
S214404D801C000E000700038001C000E0FFFCFFFC93
S214404D903FF07FF8E01CC00CC00CC00CC00CE01C00
S214404DA07FF83FF0FFFCFFFCC300C300C300C30016
S214404DB0C300E7007E003C003FF07FF8E01CC00CDC
S214404DC0C0CCC0ECC07CE0387FFC3FECFFFCFFFC76
S214404DD0C300C380C380C3C0C3C0E7707E3C3C1CD6
S214404DE03C187E1CE70CC30CC30CC30CC30CC39C02
S214404DF0E1F860F0C000C000C000C000FFFCFFFC4F
S214404E00C000C000C000C000FFF0FFF8001C000C4F
S214404E10000C000C000C001CFFF8FFF0FFC0FFE089
S214404E2000700038001C001C00380070FFE0FFC017
S214404E30FFF0FFF8001C003C00F800F8003C001CA7
S214404E40FFF8FFF0F03CF87C1CE00FC007800780BE
S214404E500FC01CE0F87CF03CFC00FE00070003801E
S214404E6001FC01FC03800700FE00FC00C03CC07C47
S214404E70C0ECC1CCC38CC70CCE0CDC0CF80CF00CD0
S214404E8000000000FFFCFFFCC00CC00CC00C000083
S214404E9000000000300030000C000C00030003004F
S214404EA000C000C00030003000000000C00CC00C45
S214404EB0C00CFFFCFFFC0000000000000C001C00C3
S214404EC038007000E000E000700038001C000C0065
S214404ED0000C000C000C000C000C000C000C000C2D
S214404EE0000C000C00000000C000E000700038001D
S214404EF01800000000000000003006780EFC0CCCC5
S214404F000CCC0CCC0CCC0ECC07FC03F8FFFCFFFC06
S214404F10030C030C030C030C030C039C01F800F079
S214404F2003F007F80E1C0C0C0C0C0C0C0C0C0E1C96
S214404F300738033000F001F8039C030C030C030C05
S214404F40030C030CFFFCFFFC03F007F80EDC0CCC54
S214404F500CCC0CCC0CCC0EDC07D803900000030025
S214404F603FFC7FFCE300E3007000300000000000E0
S214404F700318079C0FCC0CCC0CCC0CCC0CCC0CDC0B
S214404F800FF807F0FFFCFFFC0300030003000300DC
S214404F90038001FC00FC0000000000000000000050
S214404FA01BFC1BFC0000000000000000000000305E
S214404FB00038001C000C000C001CCFF8CFF000009E
S214404FC00000FFFCFFFC00E001E003F007380E1C89
S214404FD00C0C000000000000C00CC00CFFFCFFFCE6
S214404FE0000C000C000000000FFC0FFC0E00070039
S214404FF003C003C007000E000FFC0FFC0FFC0FFCA5
S214405000030007000E000C000C000E0007FC03FC1B
S21440501003F007F80E1C0C0C0C0C0C0C0C0C0E1CA5
S21440502007F803F00FFC0FFC0CC00CC00CC00CC003
S2144050300CC00FC007800300030007800FC00CC0E1
S2144050400CC00CC00CC00CC00FFC0FFC0FFC0FFCBF
S214405050038007000E000C000C000E000700030043
S2144050600318079C0FCC0CCC0CCC0CCC0CCC0CFCFA
S2144050700E78063000000C000C00FFF0FFF80C1C09
S2144050800C1C0C380C3000000FF00FF8001C000C05
S214405090000C000C000C001C0FF80FF00FC00FE0C7
S2144050A000700038001C001C003800700FE00FC075
S2144050B00FF00FF8001C001C00F800F8001C001C45
S2144050C00FF80FF00C0C0E1C073803F001E001E05F
S2144050D003F007380E1C0C0C0C000E00070C039C4B
S2144050E001F801F0038007000E000C000C0C0C1CAD
S2144050F00C3C0C7C0CEC0DCC0F8C0F0C0E0C0C0CE2
S2144051000000030007803FF07CF8E01CC00CC00C99
S214405110C00C0000030C030C3FFC7FFCE30CC30CEC
S214405120C00CE00C700C300C0000C00CC00CC00C66
S214405130E01C7CF83FF0078003000000C000C00081
S214405140C000C000C000C000C000C000C000C0001A
S214405150FFFCFFFCFFFCFFFCFFFCFFFCFFFCFFFC32
S214405160FFFCFFFCFFFFFFFFFFFFFFFFFFFFFFFF10
S214405170FFFFFFFFFFFFFFFFFFFFFFFFFFFFFFFFFA
S214405180FFFFFFFFFFFFFFFFFFFFFFFFFFFFFFFFEA
S214405190FFFFFFFFFFFFFFFFFFFFFFFFFFFFFFFFDA
S2144051A0FFFFFFFFFFFFFFFFFFFFFFFFFFFFFFFFCA
S21440B150FFFFFFFEFFFFFDFFFFFEFEFFFEFEFEFFC2
S21440B160FEFCFFFEFCFFFEFDFFFEFDFFFEFFFEFEBB
S21440B170FFFEFEFEFFFEFDFFFEFEFFFEFFFFFFFFA3
S21440B180FFFFFFFFFFFFFFFFFFFFFFFFFFFFFFFF8A
S21440B190FFFFFFFFFFFFFFFFFFFFFFFFFFFFFFFF7A
S21440B1A0FFFFFFFFFFFFFFFFFFFFFFFFFFFFFFFF6A
S21440B1B0FFFFFFFFFFFFFFFFFFFFFFFFFFFFFFFF5A
S21440B510FEFFFCFDFEFCFEFEFEFDFDFEFEFEFBFC11
S21440B520FDFBFDFEFDFCFEFCFEFEFEFDFEFEFEFD02
S21440B530FDFDFDFDFDFDFEFEFEFFFFFFFFFFFFFFE5
S21440B540FFFFFFFFFFFFFFFFFFFFFFFFFFFFFFFFC6
S21440B550FFFFFFFFFFFFFFFFFFFFFFFFFFFFFFFFB6
S21440B560FFFFFFFFFFFFFFFFFFFFFFFFFFFFFFFFA6
S21440B570FFFFFFFFFFFFFFFFFFFFFFFFFFFFFFFF96
S21440B8C0FFFFFFFFFFFFFFFFFFFFFFFFFCFFFDFB4C
S21440B8D0FEFCFCFBFBFEFEFEFEFDFFFDFDFFFEFC50
S21440B8E0FFFCFEFFFDFEFFFAFEFFFBFFFFFCFEFE39
S21440B8F0FBFEFEFDFEFFFFFFFFFFFFFFFFFFFFFF1C
S21440B900FFFFFFFFFFFFFFFFFFFFFFFFFFFFFFFF02
S21440B910FFFFFFFFFFFFFFFFFFFFFFFFFFFFFFFFF2
S21440B920FFFFFFFFFFFFFFFFFFFFFFFFFFFFFFFFE2
S21440B930FFFFFFFFFFFFFFFFFFFFFFFFFFFFFFFFD2
S21440BC80FFFFFFFFFFFFFFFFFFFDFEFFFDFEFFFE86
S21440BC90FDFFFDFEFEFDFDFDFEF9F9FAF7F5FDF4AC
S21440BCA0EFFDF0F1FAFDFCFCFDFEFEFDFEFDFEFEA6
S21440BCB0FEFEFEFFFFFFFFFFFFFFFFFFFFFFFFFF52
S21440BCC0FFFFFFFFFFFFFFFFFFFFFFFFFFFFFFFF3F
S21440BCD0FFFFFFFFFFFFFFFFFFFFFFFFFFFFFFFF2F
S21440BCE0FFFFFFFFFFFFFFFFFFFFFFFFFFFFFFFF1F
S21440BCF0FFFFFFFFFFFFFFFFFFFFFFFFFFFFFFFF0F
S21440C040FFFFFFFFFFFFFFFEFFFEFDFEFEFDFCFCC9
S21440C050EDEDF0C0C5E88D9AE16479D65166E170A1
S21440C06085F9DFE0FDFDFCFEFEFEFEFEFBFEFEFC6F
S21440C070FFFFFFFFFFFFFFFFFFFFFFFFFFFFFFFF8B
S21440C080FFFFFFFFFFFFFFFFFFFFFFFFFFFFFFFF7B
S21440C090FFFFFFFFFFFFFFFFFFFFFFFFFFFFFFFF6B
S21440C0A0FFFFFFFFFFFFFFFFFFFFFFFFFFFFFFFF5B
S21440C400FFFFFFFEFEFEFEFDFBF2CBCEDC677BCEE3
S21440C4102443CB1033CE0A2EC90C29D0314DF4CF4D
S21440C420D0FFFEFDFDFEFEFEFEFDFEFFFDFFFFFF14
S21440C430FFFFFFFFFFFFFFFFFFFFFFFFFFFFFFFFC7
S21440C440FFFFFFFFFFFFFFFFFFFFFFFFFFFFFFFFB7
S21440C450FFFFFFFFFFFFFFFFFFFFFFFFFFFFFFFFA7
S21440C460FFFFFFFFFFFFFFFFFFFFFFFFFFFFFFFF97
S21440C7C0FEFEFBF5C5CBCD3755CD0A2DD3112FD068
S21440C7D01330CC1634CE0B24D6304AF3CFCEFEFEE2
S21440C7E0FDFBFEFFFDFEFEFDFFFEFFFFFFFFFFFF22
S21440C7F0FFFFFFFFFFFFFFFFFFFFFFFFFFFFFFFF04
S21440C800FFFFFFFFFFFFFFFFFFFFFFFFFFFFFFFFF3
S21440C810FFFFFFFFFFFFFFFFFFFFFFFFFFFFFFFFE3
S21440C820FFFFFFFFFFFFFFFFFFFFFFFFFFFFFFFFD3
S21440CB60FFFFFFFFFFFFFFFFFFFFFFFEFEFCFEFE97
S21440CB70FFFCFDFDFDFDFBFCFFFDFBFDFEFAE3E3D8
S21440CB80DD4860CB0F2BCF0F32D31133C8112FCCDB
S21440CB900F3AD32F59D8718AF9DDE5FAFEFEF9FE31
S21440CBA0FEFEFDFEFEFEFFFFFFFFFFFFFFFFFFFF57
S21440CBB0FFFFFFFFFFFFFFFFFFFFFFFFFFFFFFFF40
S21440CBC0FFFFFFFFFFFFFFFFFFFFFFFFFFFFFFFF30
S21440CBD0FFFFFFFFFFFFFFFFFFFFFFFFFFFFFFFF20
S21440CBE0FFFFFFFFFFFFFFFFFFFFFFFFFFFFFFFF10
S21440CF20FFFFFFFFFFFFFFFFFFFFFDFEFDFFFEFDD4
S21440CF30FDFDFEFBFCFEFDFDFBFBEC9CABCB183782
S21440CF40CE152FCD1434CB1335D64C63F4B8C0FE73
S21440CF50F3EEFDFAF5FCFFFDFEFDFEFEFCFEFCFDDD
S21440CF60FDFDFFFEFFFFFFFFFFFFFFFFFFFFFFFF91
S21440CF70FFFFFFFFFFFFFFFFFFFFFFFFFFFFFFFF7C
S21440CF80FFFFFFFFFFFFFFFFFFFFFFFFFFFFFFFF6C
S21440CF90FFFFFFFFFFFFFFFFFFFFFFFFFFFFFFFF5C
S21440CFA0FFFFFFFFFFFFFFFFFFFFFFFFFFFFFFFF4C
S21440D2E0FFFFFFFFFFFEFEFCFFFEFFFEFDFEFEFE15
S21440D2F0FCFDFEFDFAF0EFDD5872CD0C2CD113315B
S21440D300CD1133D23151F2C6C8FEFBF9FEFEFBFB0F
S21440D310FDFCFCFFFEFEFEFEFDFBFEFCFEFEFCFFF3
S21440D320FEFFFFFFFFFFFFFFFFFFFFFFFFFFFFFFC9
S21440D330FFFFFFFFFFFFFFFFFFFFFFFFFFFFFFFFB8
S21440D340FFFFFFFFFFFFFFFFFFFFFFFFFFFFFFFFA8
S21440D350FFFFFFFFFFFFFFFFFFFFFFFFFFFFFFFF98
S21440D360FFFFFFFFFFFFFFFFFFFFFFFFFFFFFFFF88
S21440D6A0FFFFFEFEFCFFFEFFFEFDFEFDFDFDFEFE57
S21440D6B0FEF9E0E0D12C4ACB0E2BCC1432CF0B3007
S21440D6C0E16B81FDF3F2FBFEFEFCFEFEFCFEFEFD82
S21440D6D0FEFEFEFDFFFEFDFEFDFEFEFDFFFEFFFF25
S21440D6E0FFFFFFFFFFFFFFFFFFFFFFFFFFFFFFFF05
S21440D6F0FFFFFFFFFFFFFFFFFFFFFFFFFFFFFFFFF5
S21440D700FFFFFFFFFFFFFFFFFFFFFFFFFFFFFFFFE4
S21440D710FFFFFFFFFFFFFFFFFFFFFFFFFFFFFFFFD4
S21440DA50FFFFFFFFFFFFFFFFFFFFFFFFFFFFFFFE92
S21440DA60FFFDFEFCFDFDFDFDFDFDFDFFFDFEF5C9D8
S21440DA70CBCE1536CF1331CB1433CD0F32E58D9B3D
S21440DA80FEFDFBFCFBFFFEF9FEFEFCFEFCFCFEFB87
S21440DA90FEFEFDFEFEFEFEFFFEFEFFFFFFFFFFFF5B
S21440DAA0FFFFFFFFFFFFFFFFFFFFFFFFFFFFFFFF41
S21440DAB0FFFFFFFFFFFFFFFFFFFFFFFFFFFFFFFF31
S21440DAC0FFFFFFFFFFFFFFFFFFFFFFFFFFFFFFFF21
S21440DAD0FFFFFFFFFFFFFFFFFFFFFFFFFFFFFFFF11
S21440DE10FFFFFFFFFFFFFFFFFFFFFFFFFDFFFCFED3
S21440DE20FDFEFCFDFCFDFEFDFFFBFFEDB0B6CB0DA1
S21440DE302DCE1232CC1436CE0E31EA9CA5FDFEFB1A
S21440DE40FBFEFFFAFEFEFDFEFDFFFEFEFEFEFEFCB6
S21440DE50FEFEFBFDFFFDFEFFFFFFFFFFFFFFFFFF98
S21440DE60FFFFFFFFFFFFFFFFFFFFFFFFFFFFFFFF7D
S21440DE70FFFFFFFFFFFFFFFFFFFFFFFFFFFFFFFF6D
S21440DE80FFFFFFFFFFFFFFFFFFFFFFFFFFFFFFFF5D
S21440DE90FFFFFFFFFFFFFFFFFFFFFFFFFFFFFFFF4D
S21440DEA0FFFFFFFFFFFFFFFFFFFFFFFFFFFFFFFF3D
S21440DEB0FFFFFFFFFFFFFFFFFFFFFFFFFFFFFFFF2D
S21440DEC0FFFFFFFFFFFFFFFFFFFFFFFFFFFFFFFF1D
S21440DED0FFFFFFFFFFFFFFFFFFFFFFFFFFFFFFFF0D
S21440DEE0FFFFFFFFFFFFFFFFFFFFFFFFFFFFFFFFFD
S21440DEF0FFFFFFFFFFFFFFFFFFFFFFFFFFFFFFFFED
S21440DF00FFFFFFFFFFFFFFFFFFFFFFFFFFFFFFFFDC
S21440DF10FFFFFFFFFFFFFFFFFFFFFFFFFFFFFFFFCC
S21440DF20FFFFFFFFFFFFFFFFFFFFFFFFFFFFFFFFBC
S21440DF30FFFFFFFFFFFFFFFFFFFFFFFFFFFFFFFFAC
