:020000040040BA
:10000000D0244020710C40006F0C40006F0C400069
:100010006F0C40006F0C40006F0C400000000000AF
:100020000000000000000000000000006F0C400015
:100030006F0C4000000000006F0C40006F0C40008F
:100040006F0C40006F0C4000BD0E40006F0C400074
:100050006F0C40006F0C40006F0C40006F0C4000B4
:100060006F0C400000000000CD044000E10440009F
:10007000F50440006F0C40006F0C40006F0C400016
:10008000090540001D0540006F0C40006F0C40004A
:100090006F0C40006F0C40006F0C40006F0C400074
:1000A000290F40006F0C40006F0C40006F0C4000A7
:1000B0006F0C40006F0C40006F0C40006F0C400054
:1000C0006F0C40006F0C40006F0C40006F0C400044
:1000D000000000006F0C4000000000006F0C4000AA
:1000E0006F0C40006F0C40006F0C40006F0C400024
:1000F0006F0C40006F0C40006F0C40006F0C400014
:100100006F0C40006F0C40006F0C40006F0C400003
:100110006F0C400000000000000000000000000024
:100120006F0C40006F0C40006F0C40006F0C4000E3
:100130006F0C4000000000006F0C40006F0C40008E
:1001400010B5054C237833B9044B13B10448AFF311
:1001500000800123237010BD3804402000000000FF
:10016000D81240000C4B43B10C480D4910B5AFF309
:1001700000800C48036823B910BD0A48036833B9EE
:100180007047094B002BF7D0BDE810401847064BCD
:10019000002BF5D0184700BF00000000D812400027
:1001A0003C044020D81240000000000010B5104868
:1001B000104B98473E2100200F4B98470F4CA0470B
:1001C0000028FCD00E4B98470E4A0F4B9A620F4CFA
:1001D000A0470028FCD002200D4B984700200D4B73
:1001E00098470D4B98470248024B984710BD00BFF7
:1001F00000A3E111450E4000CD054000210640005E
:1002000031064000013F182000060E404106400024
:100210003105400069054000390D4000F8B54FF444
:100220000042484B5A60BFF34F8FBFF36F8F464B6E
:100230000022C3F850225A6942F400325A61BFF3D7
:100240004F8FBFF36F8FD3F88070C7F34E3607F030
:1002500007000430C7F3C907B7FA87FE0EF01F0E78
:10026000BFF34F8F4FF0FF3404FA00FC06FA00F0A2
:1002700004FA0EF407FA0EFE1D463A46734640EAAB
:100280000301C5F86012013A2344B2F1FF3FF6D1F1
:10029000013E6044B6F1FF3FEFD1BFF34F8F2A4BD1
:1002A0005A6942F480325A61BFF34F8FBFF36F8FA8
:1002B000264A27495160A1F580715160BFF34F8FE5
:1002C000BFF36F8FD3F8902222F00102C3F890227F
:1002D000D3F8942222F00102C3F89422BFF34F8F87
:1002E000BFF36F8F0A201B4CA0470B20A0470C20A8
:1002F000A0471020A0471120A047174B4FF4807251
:100300001A61C3F8A0201A63A3F580634FF400625A
:100310005A61C3F8A0205A66C3F890205A651A6241
:10032000C3F88420196F21F400611967596F21F413
:1003300000615967C3F8C020C3F8D420C3F8B020C7
:10034000F8BD00BF50180E4000ED00E0000C0E405C
:100350000C08005A5106400000120E40016370471D
:1003600041637047416412F0010F0DD1016612F034
:100370000A0F0BD0016212F0020F09D112F0080F20
:1003800008D0C0F8841005E04166F0E74162F2E76A
:10039000C0F8801041610160704710B4019C416455
:1003A0004CB901664BB101654AB941630161016015
:1003B0005DF8044B70474166F4E74165F4E701637B
:1003C000F4E7836B0B4214BF01200020704712F04A
:1003D000100F12D0C0F8B01012F0200F07D0C0F8E4
:1003E000D41012F0400F05D0C0F8C0107047C0F80C
:1003F000D010F6E7C0F8C4107047C0F8B4107047CA
:1004000001647047C06C7047806C70472DE9F04103
:10041000044688460E4B9847054620460D4B9847A4
:10042000054013D00C4C04F1600603E0B4420DD03B
:1004300010345DB120684045F8D161682942F5D09B
:10044000E3689847636825EA0305EFE7BDE8F081B4
:10045000050440000904400054044020F8B5184C3D
:100460002668062E2AD84FF0000C6446154F04E08B
:100470000134E4B2A446A64209D3A64625017D591B
:100480008D42F5D107EB04156D689542F0D10D4D05
:100490004FEA0E1E05EB0E0445F80E106260A360D5
:1004A0000699E1600136664505D011461A46064BAD
:1004B00098470020F8BD02490E60F6E70120F8BD1C
:1004C000C404402054044020CF03400008B50A2152
:1004D0000148024B984708BD000E0E400D04400035
:1004E00008B50B210148024B984708BD00100E408B
:1004F0000D04400008B50C210148024B984708BD87
:1005000000120E400D04400008B510210148024BB6
:10051000984708BD00140E400D04400008B5112195
:100520000148024B984708BD00160E400D044000DC
:10053000032811D0042812D002280CBF4FF4807178
:100540000021084A136B23F440730B431363936E2B
:1005500013F0080FFBD070474FF44071F1E74FF4F0
:100560000071EEE700060E40174A136B23F070038C
:1005700018431063936E13F0080F0AD14FF48053A1
:1005800011498A6E12F0080F03D1013BF9D1012005
:1005900070470D4A136B23F0030343F00203136308
:1005A000936E13F0080F0AD14FF4805306498A6EF8
:1005B00012F0080F05D1013BF9D10120704700204E
:1005C00070470020704700BF00060E40A0B90E48DB
:1005D000036A090289B20D4A1A400D4B13431943AD
:1005E00001620246936E13F0010FFBD0064A116AB6
:1005F000084B0B431362704703490B6A064A1A40C3
:10060000064B13430B62704700060E40FCFFC8FF09
:100610000100370000003701FCFFC8FE020037016F
:10062000024B986E00F48030704700BF00060E4009
:100630004FF00052014B9A62704700BF00060E4017
:10064000024B986E00F00200704700BF00060E409B
:100650003F281ED81F280CD8114B9A6901238340CC
:10066000934318D0012303FA00F00D4B18610020CA
:10067000704720380A4BD3F8082101238340934365
:100680000BD0012303FA00F0054BC3F80001002052
:10069000704701207047002070470020704700BF5E
:1006A00000060E4070470000104A136F23F4C00389
:1006B00043F480031367116A0D4B0B431362936E6F
:1006C00013F0080FFBD04FF4FA7300BF013BFCD1CD
:1006D000064A136A13F0080FFBD0044A136F23F481
:1006E000C00343F480031367704700BF00060E4049
:1006F000040037002DE9F843431E042B00F2058166
:10070000DFE813F00500050013001300F400804A31
:10071000136923F00403136101227E4B1A70BFF3A7
:100720005F8F62B630BFBDE8F883044603280CBF74
:1007300000204FF40010784B984772B6BFF35F8FDC
:100740000022744B1A700122744B1A70744B1F6A8A
:100750001D6B744AD2F800809E6A734A3A431A624B
:1007600005F00309B9F1010F40F2898025F003017A
:1007700041F0010119631A46936E13F0080FFBD084
:1007800011F0700F08D021F07001654B19631A4603
:10079000936E13F0080FFBD0644B9847604A936E3A
:1007A00013F4003FFBD05E4A116A614B0B4043F4E7
:1007B0005C131362936E13F4803FFBD028F47063D4
:1007C000584A1360042C5CD0524C01232370BFF3B1
:1007D0005F8F62B6574B984772B6BFF35F8F0023A7
:1007E000237017F0020F55D04D4A136A5249194031
:1007F000524B0B431362116A514B0B4043F45C1391
:100800001362504B3340002B6ED046F00056444BE1
:100810009E620221B9F1020F04D1414A936E13F096
:10082000020FFBD03E4A136B23F0700305F07000FB
:1008300003431363936E13F0080FFBD0394BC3F8D7
:100840000080A3F5C0631D631A46936E13F0080F72
:10085000FBD0334A936E0B42FCD000222F4B1A7010
:10086000394B1B681BB198470022374B1A60012295
:10087000284B1A70BFF35F8F62B6BDE8F883294634
:100880007EE7A2F5C062116A304B0B4043F45C1363
:10089000136299E717F0010FB3D0214B1B6A13F0D5
:1008A000010F0BD11E490B6A294A1A40294B1343E9
:1008B0000B620A46936E13F0010FFBD0184B1B6AB4
:1008C00013F0807F08D1164A116A234B0B43136241
:1008D000936E13F4803FFBD0114A116A184B0B4002
:1008E00043F45C1313628CE7002193E7084A136911
:1008F00043F004031361194A194B1A600122054B96
:100900001A70BFF35F8F62B630BFBDE8F88300BFD7
:1009100000ED00E000004020A5064000C804402093
:1009200000060E40000C0E40080037003106400063
:10093000FFFFC8FEA9064000FCFFC8FE0200370109
:1009400087FFC8FF0000FF07CC044020FEFFC8FF60
:10095000FCFFC8FF0100370000003701040000A5BC
:1009600010180E4021B9436823F00103436070471B
:10097000436843F001034360704701627047000021
:10098000F0B4446814F0010F05D00C2903D90C39D8
:100990004FF4800700E000271C4CA4FB0356F60828
:1009A00006EB8605A3EB450343EA0613A4FB0265A9
:1009B000ED0843EA053305EB8505A2EB450543EA5F
:1009C00005233B43A4FB0142D20843EA025302EB56
:1009D0008202A1EB420143EA0141036843F00103B3
:1009E0000360836913F0010FFBD00123C3618160B1
:1009F000036823F001030360C36943F00403C36188
:100A0000C06A00F00100F0BC704700BFCDCCCCCC78
:100A1000F0B5059C069D079F0E46B1B1416811F0E7
:100A2000010F05D00C2A03D90C3A4FF4800600E0E0
:100A300000261949A1FB02E1C90801EB810EA2EBD6
:100A40004E02120442EA015216435BB1124BA3FB61
:100A50000423DB0803EB8302A4EB4204240244EAF0
:100A60000334264355B10C4BA3FB0723DB0803EBF0
:100A70008302A7EB420747EA03131E430269074BB1
:100A80001340036106610269054B13430361C06AA9
:100A900000F00400F0BD00BFCDCCCCCC7F7F7FFF49
:100AA0008080800070B42A4DA5FB0346F608039CA5
:100AB000640544EA067406EB8606A3EB460344EAA3
:100AC0000363A5FB0264E40843EA045304EB8404D3
:100AD000A2EB440243EA02421E4BA3FB01439B09E3
:100AE00042EA03121C4BA3FB01435B09A5FB036411
:100AF000E40804EB8404A3EB44031A43A5FB01437D
:100B0000DB0803EB8304A1EB440142EA0122A5FBCD
:100B10000315ED0805EB8505A3EB450542EA053213
:100B2000036843F002030360836913F0010FFBD0F5
:100B30000123C361C260036823F002030360C36939
:100B400043F00403C361C06A00F0020070BC704748
:100B5000CDCCCCCCD34D62101F85EB5130B4029D6F
:100B60000C4651B1124CA4FB0214E40804EB8401BE
:100B7000A2EB4102120442EA04545BB10C4AA2FB0C
:100B80000532D20802EB8203A5EB43031B0643EABE
:100B900002731C434269074B13404361446142693D
:100BA000054B13434361C06A00F0080030BC704736
:100BB000CDCCCCCCFFFF7F7F000080808069704768
:100BC000C161704710B489014318022444504FF0AA
:100BD000FF319962196A5A605DF8044B70478901C8
:100BE00005234350704700EB8111CA61704700EB49
:100BF00081114A62704700EB8111086A7047F0B4B6
:100C000086B00224019408240294202403948024B2
:100C100004940A9CE40B0594B0EB510F14D84C0CCF
:100C2000A04217D2012501AF57F82540B1FBF4F4DB
:100C3000260C84420AD386420DD90135052DF3D105
:100C4000002006B0F0BC70470020FAE70020F8E76B
:100C50000120F6E700252AB106A901EB850151F82C
:100C6000141C1160002BF3D01D600120E9E7FEE7A2
:100C700000B583B0254B264A9A4210D0254B234A13
:100C80009A420CD2013B9B1A23F003030433134412
:100C90001F4951F8040B42F8040B9A42F9D11E4B3C
:100CA0001E4A9A420AD2013B9B1A23F003030433E3
:100CB0001344002142F8041B9342FBD1184A194BFC
:100CC00023F07F039360EFF31083B3FA83F35B09A0
:100CD000019372B6BFF35F8F0022134B1A70019914
:100CE000124A136843F470031360BFF34F8FBFF3CE
:100CF0006F8F29B101220C4B1A70BFF35F8F62B660
:100D00000B4B98470B4B9847FEE700BF0000402075
:100D1000D812400038044020D0044020380440203D
:100D200000ED00E0000040000000402088ED00E001
:100D300069114000E51040003B4B1B6B03F00303BF
:100D4000012B1DD083B1022B36D0374B1B6B03F028
:100D50007003702B5FD0344B1A6B3449C2F302120C
:100D60000B68D3400B607047314B5B6913F0800F09
:100D700014BF4FF400424FF4FA422C4B1A60E4E7E0
:100D8000294B1B6A13F0807F03D02A4A274B1A6035
:100D9000DBE7294A254B1A60234B1B6A03F07003DB
:100DA000102B05D0202BD0D1224A204B1A60CCE743
:100DB000224A1E4B1A60C8E71B4B1B6A13F0807F48
:100DC00016D01C4A194B1A60174B1B6B03F0030318
:100DD000022BBAD1144A916A926A1448C1F30A41AB
:100DE000036801FB0333D2B2B3FBF2F30360ACE759
:100DF000114A0E4B1A600C4B1B6A03F07003102B48
:100E000005D0202BE0D10B4A084B1A60DCE70B4AD7
:100E1000064B1A60D8E7054A13680949A1FB03137A
:100E20005B081360704700BF00060E4004004020BE
:100E300010180E40001BB70000093D0000127A0098
:100E4000ABAAAAAA124B984211D9124B984213D9B5
:100E5000114B984214D9114B984215D9104B984216
:100E600094BF4FF004220F4A0F4B1A6070474FF0A7
:100E700080620D4B1A6070470C4A0B4B1A6070472A
:100E80000B4A094B1A6070470A4A074B1A607047B1
:100E9000FF2C3101FF596202FF869303FFB3C404A4
:100EA000FFE0F50500050004000C0E400001000401
:100EB00000020004000300047047000008B50B485E
:100EC0000B4B984710F0040F03D110F0020F05D11F
:100ED00008BD04210548074B984708BD0022064B72
:100EE0001A7002210148034B9847F1E760180E4041
:100EF000BD0B4000C10B40000800402038B504463F
:100F00000D46064B984720B929462046044B984782
:100F100038BD29462046034B984738BDC3034000DF
:100F20005D0340006103400000B583B00121084823
:100F3000084B98470190019B074B1B7813B903B0EE
:100F40005DF804FB4FF480710448054B9847F6E7C1
:100F500000C00040F70B40000800402000120E4087
:100F6000FD0E400010B582B00A20104B9847104C7F
:100F700009224FF4006120460E4B98474FF4006160
:100F800020460D4B98470D4B009350234FF40062C1
:100F90000A2120460A4CA0470A4B4FF480621A608F
:100FA000202283F80A2302B010BD00BF5106400082
:100FB000000E0E406503400001044000B90E4000E1
:100FC0005D04400000E100E010B582B004460C2052
:100FD000064B984700230093B4FA84F252094FF469
:100FE00080710348034CA04702B010BD5106400079
:100FF00000120E409B03400070B584B006461720D7
:10100000144B9847144C009402AB03AA2146304677
:10101000124DA847124D029A42F4804201212846FF
:10102000104B9847039AB4FBF2F2B2FBF6F201219F
:1010300028460D4B98474FF080720C4B1A601022D7
:10104000012128460A4B984701212846094B984719
:1010500004B070BD5106400000A3E111FF0B400039
:1010600000C00040C50B4000E70B400000E100E07D
:10107000EF0B4000DF0B400070B582B00220124B36
:101080009847124C00212046114B984700250095A7
:101090001223092240F2E17120460E4EB0472B4642
:1010A0002A46112120460C4EB0470C4B0422C3F8AF
:1010B0008020C3F8802183F802531A600221204661
:1010C000074B984702B070BD5106400060180E40B3
:1010D00065094000A50A40008109400000E100E0E8
:1010E0007B09400000B585B0144B9847144B9847D6
:1010F0004FF40042134B5A600120134B9847134B97
:1011000098470420124B9847124B9847124C1223D1
:1011100000930123092219462046104DA8470023B9
:1011200002930121019100910B46112220460C4CA3
:10113000A04702250B4C2846A047FCE7AD01400024
:101140001D02400050180E40C90F4000650F4000BE
:10115000F90F40007910400060180E405D0B400010
:10116000110A4000F506400070B50F4E0F4D761B7A
:10117000B61018BF002405D0013455F8043B984739
:10118000A642F9D10A4E0B4D761B00F093F8B6102B
:1011900018BF002406D0013455F8043B9847A642F6
:1011A000F9D170BD70BD00BFC0124000C012400038
:1011B000C8124000C0124000024B13B1024800F0B8
:1011C00005B8704700000000D91140000023014617
:1011D0001A46184600F01AB838B50A4C0A4D641B76
:1011E000A4100AD004F18043013B05EB8305013CC8
:1011F00055F804399847002CF9D1BDE8384000F083
:1012000063B800BFD8124000D41240002DE9F04767
:10121000254C2568D5F848410646884692469946A9
:10122000C4B360681F2817DC431C76B104EB80054B
:101230000122C5F888A0D4F8881182401143022EFB
:10124000C4F88811C5F808911ED00230636044F8D4
:1012500020800020BDE8F087144B03B34FF4C87022
:10126000AFF300800446D0B1D5F84831002780E8BC
:101270008800C5F8484138460123C4F88871C4F88D
:101280008C71002EE1D0D1E7D4F88C110A43C4F858
:101290008C21DAE705F5A674C5F84841C1E74FF09F
:1012A000FF30BDE8F08700BFB01240000000000032
:1012B00010004020F8B500BFF8BC08BC9E4670473F
:1012C000B911400065014000F8B500BFF8BC08BC8A
:0812D0009E46704741014000F9
:1012D8000100000000093D000100000000000000BE
:1012E80000000000FC02402064034020CC034020A2
:1012F80000000000000000000000000000000000E6
:1013080000000000000000000000000000000000D5
:1013180000000000000000000000000000000000C5
:1013280000000000000000000000000000000000B5
:1013380000000000000000000000000000000000A5
:101348000000000000000000000000000000000095
:101358000000000000000000000000000000000085
:101368000000000000000000000000000000000075
:101378000000000000000000000000000000000065
:101388000000000000000000010000000000000054
:101398000E33CDAB34126DE6ECDE05000B00000019
:1013A8000000000000000000000000000000000035
:1013B8000000000000000000000000000000000025
:1013C8000000000000000000000000000000000015
:1013D8000000000000000000000000000000000005
:0400000500400C713A
:00000001FF
