:020000040040BA
:10000000C8244020110640000D0640000D064000A7
:100010000D0640000D0640000D06400000000000E7
:100020000000000000000000000000000D0640007D
:100030000D064000000000000D0640000D064000C7
:100040000D0640000D0640000D0640000D06400064
:100050000D0640000D0640000D0640000D06400054
:100060000D06400000000000350440004904400037
:100070005D0440000D0640000D0640000D064000E6
:1000800071044000850440000D0640000D0640004C
:100090000D0640000D0640000D0640000D06400014
:1000A0000D0640000D0640000D0640000D06400004
:1000B0000D0640000D0640000D0640000D064000F4
:1000C0000D0640000D0640000D0640000D064000E4
:1000D000000000000D064000000000000D0640007A
:1000E0000D0640000D0640000D0640000D064000C4
:1000F0000D0640000D0640000D0640000D064000B4
:100100000D0640000D0640000D0640000D064000A3
:100110000D0640000000000000000000000000008C
:100120000D0640000D0640000D0640000D06400083
:100130000D064000000000000D0640000D064000C6
:1001400010B5054C237833B9044B13B10448AFF311
:1001500000800123237010BD3804402000000000FF
:100160004C0E40000C4B43B10C480D4910B5AFF399
:1001700000800C48036823B910BD0A48036833B9EE
:100180007047094B002BF7D0BDE810401847064BCD
:10019000002BF5D0184700BF000000004C0E4000B7
:1001A0003C0440204C0E40000000000010B51048F8
:1001B000104B98473E2100200F4B98470F4CA0470B
:1001C0000028FCD00E4B98470E4A0F4B9A620F4CFA
:1001D000A0470028FCD002200D4B984700200D4B73
:1001E00098470D4B98470248024B984710BD00BFF7
:1001F00000A3E111E50740003505400089054000F6
:1002000099054000013F182000060E40A905400056
:1002100099044000D1044000D9064000F8B54FF4DD
:100220000042484B5A60BFF34F8FBFF36F8F464B6E
:100230000022C3F850225A6942F400325A61BFF3D7
:100240004F8FBFF36F8FD3F88070C7F34E3607F030
:1002500007000430C7F3C907B7FA87FE0EF01F0E78
:10026000BFF34F8F4FF0FF3404FA00FC06FA00F0A2
:1002700004FA0EF407FA0EFE1D463A46734640EAAB
:100280000301C5F86012013A2344B2F1FF3FF6D1F1
:10029000013E6044B6F1FF3FEFD1BFF34F8F2A4BD1
:1002A0005A6942F480325A61BFF34F8FBFF36F8FA8
:1002B000264A27495160A1F580715160BFF34F8FE5
:1002C000BFF36F8FD3F8902222F00102C3F890227F
:1002D000D3F8942222F00102C3F89422BFF34F8F87
:1002E000BFF36F8F0A201B4CA0470B20A0470C20A8
:1002F000A0471020A0471120A047174B4FF4807251
:100300001A61C3F8A0201A63A3F580634FF400625A
:100310005A61C3F8A0205A66C3F890205A651A6241
:10032000C3F88420196F21F400611967596F21F413
:1003300000615967C3F8C020C3F8D420C3F8B020C7
:10034000F8BD00BF50180E4000ED00E0000C0E405C
:100350000C08005AB905400000120E4001637047B6
:100360004163704721F00061B1F1405F05D1836BBB
:10037000134214BF012000207047C36BF8E74164AB
:1003800012F0010F0DD1016612F00A0F0BD00162BD
:1003900012F0020F09D112F0080F08D0C0F8841033
:1003A00005E04166F0E74162F2E7C0F88010416184
:1003B0000160704710B4019C41644CB901664BB1B7
:1003C00001654AB94163016101605DF8044B704702
:1003D0004166F4E74165F4E70163F4E7C06C7047F8
:1003E000806C70472DE9F041044688460E4B9847D3
:1003F000054620460D4B9847054013D00C4C04F1A0
:10040000600603E0B4420DD010345DB12068404571
:10041000F8D161682942F5D0E3689847636825EA16
:100420000305EFE7BDE8F081DD034000E103400094
:100430005404402008B50A210148024B984708BDE2
:10044000000E0E40E503400008B50B210148024BA9
:10045000984708BD00100E40E503400008B50C2188
:100460000148024B984708BD00120E40E5034000CA
:1004700008B510210148024B984708BD00140E40F2
:10048000E503400008B511210148024B984708BD1B
:1004900000160E40E5034000032811D0042812D0B6
:1004A00002280CBF4FF480710021084A136B23F41B
:1004B00040730B431363936E13F0080FFBD0704728
:1004C0004FF44071F1E74FF40071EEE700060E4083
:1004D000174A136B23F0700318431063936E13F0E5
:1004E000080F0AD14FF4805311498A6E12F0080F99
:1004F00003D1013BF9D1012070470D4A136B23F062
:10050000030343F002031363936E13F0080F0AD141
:100510004FF4805306498A6E12F0080F05D1013B53
:10052000F9D101207047002070470020704700BFBC
:1005300000060E40A0B90E48036A090289B20D4AAE
:100540001A400D4B1343194301620246936E13F098
:10055000010FFBD0064A116A084B0B431362704728
:1005600003490B6A064A1A40064B13430B62704755
:1005700000060E40FCFFC8FF0100370000003701F5
:10058000FCFFC8FE02003701024B986E00F4803079
:10059000704700BF00060E404FF00052014B9A62B8
:1005A000704700BF00060E40024B986E00F002003C
:1005B000704700BF00060E403F281ED81F280CD8E9
:1005C000114B9A6901238340934318D0012303FA06
:1005D00000F00D4B18610020704720380A4BD3F80B
:1005E00008210123834093430BD0012303FA00F039
:1005F000054BC3F800010020704701207047002020
:1006000070470020704700BF00060E40FEE7000064
:1006100000B583B0254B264A9A4210D0254B234A79
:100620009A420CD2013B9B1A23F003030433134478
:100630001F4951F8040B42F8040B9A42F9D11E4BA2
:100640001E4A9A420AD2013B9B1A23F00303043349
:100650001344002142F8041B9342FBD1184A194B62
:1006600023F07F039360EFF31083B3FA83F35B0906
:10067000019372B6BFF35F8F0022134B1A7001997A
:10068000124A136843F470031360BFF34F8FBFF334
:100690006F8F29B101220C4B1A70BFF35F8F62B6C6
:1006A0000B4B98470B4B9847FEE700BF00004020DC
:1006B0004C0E400038044020C40440203804402040
:1006C00000ED00E0000040000A00402088ED00E05E
:1006D000D50C4000A90840003B4B1B6B03F0030303
:1006E000012B1DD083B1022B36D0374B1B6B03F08F
:1006F0007003702B5FD0344B1A6B3449C2F3021273
:100700000B68D3400B607047314B5B6913F0800F6F
:1007100014BF4FF400424FF4FA422C4B1A60E4E746
:10072000294B1B6A13F0807F03D02A4A274B1A609B
:10073000DBE7294A254B1A60234B1B6A03F0700341
:10074000102B05D0202BD0D1224A204B1A60CCE7A9
:10075000224A1E4B1A60C8E71B4B1B6A13F0807FAE
:1007600016D01C4A194B1A60174B1B6B03F003037E
:10077000022BBAD1144A916A926A1448C1F30A4111
:10078000036801FB0333D2B2B3FBF2F30360ACE7BF
:10079000114A0E4B1A600C4B1B6A03F07003102BAE
:1007A00005D0202BE0D10B4A084B1A60DCE70B4A3E
:1007B000064B1A60D8E7054A13680949A1FB0313E1
:1007C0005B081360704700BF00060E400C0040201D
:1007D00010180E40001BB70000093D0000127A00FF
:1007E000ABAAAAAA124B984211D9124B984213D91C
:1007F000114B984214D9114B984215D9104B98427D
:1008000094BF4FF004220F4A0F4B1A6070474FF00D
:1008100080620D4B1A6070470C4A0B4B1A60704790
:100820000B4A094B1A6070470A4A074B1A60704717
:10083000FF2C3101FF596202FF869303FFB3C4040A
:10084000FFE0F50500050004000C0E400001000467
:10085000000200040003000470B582B0044615468F
:100860001E460846064B984700230093B6FA86F2C8
:10087000520929462046034CA04702B070BD00BF74
:10088000B9054000B503400038B50C461546044B89
:100890009847092229462046024B984738BD00BF99
:1008A000B90540007F0340002DE9F84F364B9847CB
:1008B000364B98474FF40042354B5A6000234FF4B3
:1008C00080720C213348344CA047344D4FF4006201
:1008D00029460A20324CA0474FF08052314910205F
:1008E000A0474FF4002229460A20A04764264FF073
:1008F00001082F464FF02055DFF8C4B007E0332041
:10090000294B98474FF480712248284B9847284834
:10091000254B98474FF4006229463846254CA0479E
:1009200082464FF0805229461E48A04781464FF428
:10093000002229463846A047BAF1000F01D188F0BD
:100940000108B9F1000F00D1323600B9323EB8F1DA
:10095000000F13D04FF480710E48174B9847002EAC
:10096000CDD041F22C72002341F22B700021EBFB21
:100970000601124CA0470C4B9847C3E74FF4807117
:1009800004480D4B9847C2E7AD0140001D024000EE
:1009900050180E4000120E4059084000000E0E4044
:1009A0008908400000140E4001004020610340000F
:1009B000252B4D00650340005D034000C509400044
:1009C00000A3E11153B94AB9002908BF00281CBF90
:1009D0004FF0FF314FF0FF3000F07AB9ADF1080C65
:1009E0006DE904CE00F006F8DDF804E0DDE902234D
:1009F00004B070472DE9F0478C460D460446089E2A
:100A0000002B51D18A4217466DD9B2FA82FEBEF14F
:100A1000000F0BD0CEF1200C01FA0EF520FA0CFCE1
:100A200002FA0EF74CEA050C00FA0EF44FEA174AE8
:100A3000250CBCFBFAF81FFA87F90AFB18CC45EA2B
:100A40000C4508FB09F3AB420AD9ED1908F1FF3256
:100A500080F02381AB4240F22081A8F102083D449E
:100A6000ED1AA4B2B5FBFAF00AFB105544EA0544AE
:100A700000FB09F9A14509D9E41900F1FF3380F021
:100A80000A81A14540F2078102383C44A4EB0904E5
:100A900040EA08400021002E61D024FA0EF4002321
:100AA00034607360BDE8F0878B4207D9002E54D0C4
:100AB000002186E821000846BDE8F087B3FA83F1FB
:100AC000002940F08E80AB4202D3824200F2FA80CD
:100AD000841A65EB03050120AC46002E3FD086E862
:100AE0001010BDE8F08712B90127B7FBF2F7B7FA8B
:100AF00087FEBEF1000F34D1EB1B3A0C1FFA87FCC6
:100B00000121B3FBF2F8250C02FB183345EA03453B
:100B10000CFB08F3AB4207D9ED1908F1FF3002D204
:100B2000AB4200F2D1808046ED1AA3B2B5FBF2F0E1
:100B300002FB105543EA05440CFB00FCA44507D911
:100B4000E41900F1FF3302D2A44500F2B880184640
:100B5000A4EB0C0440EA08409DE731463046BDE86E
:100B6000F087CEF1200405FA0EF307FA0EF720FA0B
:100B700004F83A0C25FA04F448EA0308B4FBF2F14D
:100B80004FEA184502FB11441FFA87FC45EA044569
:100B900001FB0CF3AB4200FA0EF409D9ED1901F197
:100BA000FF3080F08A80AB4240F2878002393D44BA
:100BB000EB1A1FFA88F5B3FBF2F002FB103345EA9B
:100BC000034500FB0CF3AB4207D9ED1900F1FF38E8
:100BD0006FD2AB426DD902383D44EB1A40EA014175
:100BE0008FE7C1F1200722FA07F88B4005FA01F4DC
:100BF00048EA030320FA07FE4FEA134CFD404EEA91
:100C0000040EB5FBFCF94FEA1E440CFB19551FFA04
:100C100083F844EA054509FB08F4AC4202FA01F204
:100C200000FA01FA08D9ED1809F1FF3043D2AC42BD
:100C300041D9A9F102091D442D1B1FFA8EFEB5FBF7
:100C4000FCF00CFB10554EEA054400FB08F8A045EB
:100C500007D9E41800F1FF3529D2A04527D9023879
:100C60001C4440EA0940A4EB0804A0FB02894C455F
:100C7000C6464D4615D312D056B1BAEB0E0364EBFF
:100C8000050404FA07F7CB401F43CC40376074607B
:100C90000021BDE8F0871846F8E69046E0E6C24538
:100CA000EAD2B8EB020E69EB03050138E4E7284607
:100CB000D7E7404691E78146BEE7014678E702382C
:100CC0003C4445E7084608E7A8F102083D442BE705
:100CD000704700BF70B50F4E0F4D761BB61018BF92
:100CE000002405D0013455F8043B9847A642F9D1B9
:100CF0000A4E0B4D761B00F093F8B61018BF002477
:100D000006D0013455F8043B9847A642F9D170BD8E
:100D100070BD00BF2C0E40002C0E4000340E400071
:100D20002C0E4000024B13B1024800F005B870478A
:100D300000000000450D4000002301461A461846F9
:100D400000F01AB838B50A4C0A4D641BA4100AD03A
:100D500004F18043013B05EB8305013C55F8043960
:100D60009847002CF9D1BDE8384000F063B800BFC7
:100D7000440E4000400E40002DE9F047254C256808
:100D8000D5F848410646884692469946C4B36068FD
:100D90001F2817DC431C76B104EB80050122C5F83F
:100DA00088A0D4F8881182401143022EC4F888111B
:100DB000C5F808911ED00230636044F820800020FE
:100DC000BDE8F087144B03B34FF4C870AFF3008055
:100DD0000446D0B1D5F84831002780E88800C5F82E
:100DE000484138460123C4F88871C4F88C71002E3C
:100DF000E1D0D1E7D4F88C110A43C4F88C21DAE7AA
:100E000005F5A674C5F84841C1E74FF0FF30BDE8CD
:100E1000F08700BF1C0E40000000000010004020C2
:100E2000F8B500BFF8BC08BC9E467047250D4000D1
:100E300065014000F8B500BFF8BC08BC9E4670478D
:040E4000410140002C
:080E4400B0FBFF7F010000007C
:100E4C00BFF35F8F0138FBD17047010000093D00F3
:100E5C0000000000FC02402064034020CC03402032
:100E6C000000000000000000000000000000000076
:100E7C000000000000000000000000000000000066
:100E8C000000000000000000000000000000000056
:100E9C000000000000000000000000000000000046
:100EAC000000000000000000000000000000000036
:100EBC000000000000000000000000000000000026
:100ECC000000000000000000000000000000000016
:100EDC000000000000000000000000000000000006
:100EEC0000000000000000000000000000000000F6
:100EFC0000000000000000000100000000000000E5
:100F0C000E33CDAB34126DE6ECDE05000B000000A9
:100F1C0000000000000000000000000000000000C5
:100F2C0000000000000000000000000000000000B5
:100F3C0000000000000000000000000000000000A5
:100F4C000000000000000000000000000000000095
:0400000500400611A0
:00000001FF
