:020000040040BA
:10000000982A4020951640004517400045174000AB
:10001000451740004517400045174000000000000C
:100020000000000000000000000000004517400034
:10003000451740000000000045174000C92040005F
:100040004517400045174000451740004517400040
:100050004517400045174000451740004517400030
:100060004517400000000000850E40009D0E400036
:10007000B50E4000451740004517400045174000A9
:10008000CD0E4000E50E40004517400045174000EA
:1000900045174000451740004517400045174000F0
:1000A00045174000451740004517400045174000E0
:1000B00045174000451740004517400045174000D0
:1000C00045174000451740004517400045174000C0
:1000D00000000000451740000000000045174000E8
:1000E00045174000451740004517400045174000A0
:1000F0004517400045174000451740004517400090
:10010000451740004517400045174000451740007F
:100110004517400000000000000000000000000043
:10012000451740004517400045174000451740005F
:1001300045174000000000004517400045174000EB
:1001400010B5054C237833B9044B13B10448AFF311
:1001500000800123237010BDB4094020000000007E
:10016000D05340000C4B43B10C480D4910B5AFF3D0
:1001700000800C48036823B910BD0A48036833B9EE
:100180007047094B002BF7D0BDE810401847064BCD
:10019000002BF5D0184700BF00000000D0534000EE
:1001A000B8094020D05340000000000080B582B064
:1001B00000AF78607B68072B31D801A252F823F09A
:1001C0001D024000E1014000E9014000F101400052
:1001D000F901400001024000090240001302400002
:1001E0000020114B98471AE001200F4B984716E06A
:1001F00000200E4B984712E010200C4B98470EE061
:1002000020200A4B98470AE03E210020084B9847DF
:1002100005E03E210120064B984700E000BF00BFEB
:100220000837BD4680BD00BF81104000ED10400082
:100230005D11400080B582B000AF78607B68072B0D
:1002400026D801A252F823F0690240006D02400056
:100250006D0240007F0240007F0240007F024000AC
:100260007F0240007F024000012312E00B4B9847C1
:100270000346002B14BF01230023DBB209E0084B27
:1002800098470346002B14BF01230023DBB200E094
:10029000002318460837BD4680BD00BFB910400096
:1002A000D511400080B483B000AF78607B68072B25
:1002B00025D801A252F823F0D9024000DF02400005
:1002C000E5024000EB024000EF024000F302400074
:1002D000F7024000FB0240004FF4FA4310E04FF4F5
:1002E00000430DE04FF400430AE0084B08E0084BE0
:1002F00006E0084B04E0074B02E0064B00E0002359
:1003000018460C37BD465DF8047B704700093D0078
:1003100000127A00001BB70080B582B000AF034620
:10032000FB7100BFFB791846054B9847034683F0E5
:100330000103DBB2002BF5D100BF0837BD4680BDFD
:100340003502400080B586B000AFF8607A603B604F
:100350000B46FB727B68002B07D13B68002B04D156
:10036000FB684FF470021A6019E0FB7A18460E4BD6
:10037000984702467B68B2FBF3F37B617B693A687E
:1003800002FB03F37B613B68013B1A04074B1340FC
:100390007A68D2B2134343F47C52FB681A6000BF00
:1003A0001837BD4680BD00BFA50240000000FF0712
:1003B00080B582B000AF786039603B68002B08D10F
:1003C000094B9847094A7B681B6843F000539362C6
:1003D00005E0064A7B681B6843F48033D36100BFA5
:1003E0000837BD4680BD00BFF111400000060E4039
:1003F00080B582B000AF78607B68002B03D1054BDD
:100400009847034602E0044B9847034618460837CE
:10041000BD4680BD0D1240002912400080B582B05B
:1004200000AF0346FB71FB79033B042B08D8FB7933
:100430001846064B9847FB791846054B984700E04D
:1004400000BF00BF0837BD4680BD00BFAD01400002
:100450001903400080B582B000AF786000BF7868B3
:10046000044B98470346002BF9D000231846083761
:10047000BD4680BDF103400080B500AF0620054BAE
:100480009847024613469B0013449A0013441846AB
:1004900080BD00BFA502400080B500AF024B984769
:1004A0000346184680BD00BF7904400090B583B074
:1004B00000AF1348134B98470620134B9847381D3D
:1004C000192301220621114CA0473B1D002118468B
:1004D0000F4B984700200F4B984702200E4B984730
:1004E00000200E4B98470E4B98470E4B98470346FB
:1004F0001846044B984700BF0C37BD4690BD00BF5F
:1005000000A3E111B51840001D0440004503400060
:10051000B103400055044000810F4000FD0F400032
:100520004D1740009904400080B586B000AFF860D8
:10053000B9607A6000237B61FB68002B12D04FF01A
:10054000FF3313E00B4B1B680B4A1268B968104667
:100550009847BB680133BB607B6901337B617B6873
:10056000013B7B607B68002BECDC7B69184618370D
:10057000BD4680BD840A40208C0A402080B586B0EC
:1005800000AFF860B9607A6000237B61FB68012BE3
:100590001ED0FB68022B1BD0FB68032B18D04FF03A
:1005A000FF3319E00E4B1A680E4B1868BB68591CD4
:1005B000B9601B78194690470346002B02DA4FF0CA
:1005C000FF3309E07B6901337B617B68013B7B6022
:1005D0007B68002BE6D17B6918461837BD4680BD85
:1005E000880A40208C0A402080B400AFBFF34F8FB0
:1005F000BFF36F8F094B0022C3F85022074A074B05
:100600005B6943F400335361BFF34F8FBFF36F8FC8
:1006100000BFBD465DF8047B704700BF00ED00E001
:1006200080B48BB000AF264BD3F88030FB61FB6900
:100630005B0BC3F30E037B62FB6903F00703043318
:10064000BB61FB69DB08C3F309037B617B69BB60AA
:10065000BB68B3FA83F37B607B68DBB203F01F03F4
:100660003B61BFF34F8F7B693B623A6A3B6902FA99
:1006700003F319467A6ABB6902FA03F30B43FB6082
:100680000F4AFB68C2F860323B6A5A1E3A62002B7E
:10069000EBD17B6A5A1E7A62002BE4D1BFF34F8FF5
:1006A000074A074B5B6943F480335361BFF34F8FB5
:1006B000BFF36F8F00BF2C37BD465DF8047B7047DA
:1006C00000ED00E080B582B000AF78607868034B41
:1006D000984700BF0837BD4680BD00BF45124000A7
:1006E00080B500AF0A20084B98470B20064B98476F
:1006F0000C20054B98471020034B98471120024BC4
:10070000984700BF80BD00BFC506400080B489B0D7
:1007100000AF78607B68FB61FB69BB61BB695A090C
:10072000FB697B617B6903F01F03012101FA03F37D
:100730003A61FB603B69BB60BA68064B13445B02DD
:100740001A46FB68536000BF2437BD465DF8047B42
:10075000704700BF0707200080B48DB000AF7860FD
:1007600039607B68FB623B68BB62FB6A7B627B6AC9
:100770005A09FB6A3B623B6A03F01F03012101FA3D
:1007800003F3FA61BB61BB6A7B61FB693B613A6958
:10079000374B13445B02FB607B6903F00803002BBB
:1007A00003D0FB68BA695A6602E0FB68BA691A6648
:1007B0007B6903F01003002B04D0FB68BA69C3F80F
:1007C000942003E0FB68BA69C3F890207B6903F0CA
:1007D0002003002B03D0FB68BA691A6502E0FB68AE
:1007E000BA695A657B6903F0C003002B03D0FB682C
:1007F000BA691A6202E0FB68BA695A627B6903F05F
:100800008003002B04D0FB68BA69C3F8842003E09E
:10081000FB68BA69C3F880207B6903F00103002BF1
:1008200006D0FB681A6FBB691A43FB681A6706E0BB
:10083000FB681A6FBB69DB431A40FB681A677B6968
:1008400003F00203002B06D0FB685A6FBB691A4302
:10085000FB685A6706E0FB685A6FBB69DB431A40C6
:10086000FB685A6700BF3437BD465DF8047B7047AC
:100870000707200080B48DB000AF78600B46FB7096
:100880007B68FB62FB7887F82B30FB6A7B627B6AB4
:100890003B623B6A5B09FB61FA69174B13445B02DD
:1008A000BB6197F82B30012B09D1FB6A7B617B6917
:1008B00003F01F0301229A40BB691A610CE097F80C
:1008C0002B30002B08D1FB6A3B613B6903F01F030F
:1008D00001229A40BB695A61FB6AFB60FB6803F026
:1008E0001F0301229A40BB69C3F8A02000BF343720
:1008F000BD465DF8047B70470707200080B48BB0CD
:1009000000AF78600B46FB707B687B62FB7887F8F2
:1009100023307B6AFB61FB69BB61BB695B097B615F
:100920007A69104B13445B023B6197F82330002B2C
:1009300009D07B6AFB60FB6803F01F0301229A4029
:100940003B691A6308E07B6ABB60BB6803F01F0366
:1009500001229A403B695A6300BF2C37BD465DF8BF
:10096000047B70470707200080B48DB000AF78602B
:100970000B46FB707B68FB62FB7887F82B30FB6AC9
:100980007B627B6A5A09FB6A3B623B6A03F01F0386
:10099000012101FA03F3FA61BB6197F82B30FB7573
:1009A000FB693B613A69234B13445B02FB60FB7DAF
:1009B000013B032B2ED801A252F823F0F10940008D
:1009C000030A4000CD094000DF094000FB68BA6916
:1009D000C3F8C420FB68BA69C3F8D0201FE0FB68E5
:1009E000BA69C3F8C420FB68BA69C3F8D42016E01A
:1009F000FB68BA69C3F8C020FB68BA69C3F8D020A5
:100A00000DE0FB68BA69C3F8C020FB68BA69C3F897
:100A1000D42004E0FB68BA69C3F8B42003E0FB68A3
:100A2000BA69C3F8B02000BF3437BD465DF8047B17
:100A3000704700BF0707200080B400AFBFF34F8F9F
:100A4000BFF36F8F0C4A0C4BD3F8903223F00103A5
:100A5000C2F89032084A084BD3F8943223F00103CD
:100A6000C2F89432BFF34F8FBFF36F8F00BFBD4604
:100A70005DF8047B704700BF00ED00E080B500AF7B
:100A80001E4B4FF400425A601D4B98471D4B984730
:100A90001D4B1E4A5A601C4B1D4A5A601D4B9847FD
:100AA0001D4B9847012148201C4B984701214820A5
:100AB0001B4B984700210B20184B984788210B208F
:100AC000184B984702210B20174B984700211520FF
:100AD000144B98471520154B9847154A144BD3F8DB
:100AE000143143F01003C2F81431032124200D4BBC
:100AF000984724200D4B984700BF80BD50180E40EA
:100B0000E905400021064000000C0E400C08005A88
:100B10000C07005A390A4000E10640007508400001
:100B2000FD08400059074000690940000D074000DA
:100B30000080084080B485B000AFF860B9607A608A
:100B4000FB68BA68C3F884207B685B004FF40042FE
:100B5000B2FBF3F3013BC3F30D02FB68C3F88C2037
:100B600000BF1437BD465DF8047B704780B485B084
:100B700000AFF860B9607A607B6803F01003002B67
:100B800020D0FB68BA68C3F8B0207B6803F020036C
:100B9000002B04D0FB68BA68C3F8D42003E0FB68DC
:100BA000BA68C3F8D0207B6803F04003002B04D060
:100BB000FB68BA68C3F8C02008E0FB68BA68C3F8ED
:100BC000C42003E0FB68BA68C3F8B42000BF143740
:100BD000BD465DF8047B704780B483B000AF786099
:100BE00039607B683A681A6400BF0C37BD465DF80F
:100BF000047B704780B483B000AF786039607B6855
:100C00003A685A6400BF0C37BD465DF8047B7047F4
:100C100080B483B000AF78607B68DB6C18460C371B
:100C2000BD465DF8047B704780B483B000AF786048
:100C30007B689B6C18460C37BD465DF8047B70479B
:100C400080B483B000AF0346FB71094997F90730C0
:100C50005B09FA7902F01F02012000FA02F241F862
:100C6000232000BF0C37BD465DF8047B704700BFF2
:100C700000E100E080B483B000AF0346FB71094996
:100C800097F907305B09FA7902F01F02012000FA98
:100C900002F2203341F8232000BF0C37BD465DF837
:100CA000047B704700E100E080B483B000AF0346EE
:100CB000FB71094997F907305B09FA7902F01F02C5
:100CC000012000FA02F2603341F8232000BF0C3704
:100CD000BD465DF8047B704700E100E080B483B05E
:100CE00000AF03463960FB7197F90730002B0BDA30
:100CF0000D49FB7903F00F03043B3A68D2B252016D
:100D0000D2B20B441A7609E0084997F907303A68DD
:100D1000D2B25201D2B20B4483F8002300BF0C3789
:100D2000BD465DF8047B704700ED00E000E100E0A7
:100D300080B584B000AF786039607868264B9847FA
:100D4000F8607868254B98470246FB681340FB60C3
:100D5000FB68002B3CD00023BB6034E0204ABB681A
:100D60001B0113441A683B689A4226D11C4ABB688F
:100D70001B01134404331A68FB681340002B1CD07A
:100D8000174ABB681B0113440C331B681449BA682B
:100D900012010A4410681249BA6812010A44043266
:100DA0001268114698470E4ABB681B01134404336E
:100DB0001B68DB43FA681340FB60BB680133BB6010
:100DC000BB68062B03D8FB68002BC7D100E000BF2F
:100DD00000BF1037BD4680BD110C4000290C4000FB
:100DE000D009402080B586B000AFF860B9607A6065
:100DF0003B60214B1B68062B01D9012338E00023FF
:100E0000FB7511E0FB7D1B011C4A13443B613B69F0
:100E10001A68BB689A4204D13B695A687B689A4257
:100E200008D0FB7D0133FB75FA7D134B1B689A429A
:100E3000E8D900E000BF3B69BA681A603B697A688C
:100E40005A603B693A689A603B693A6ADA60FA7DAF
:100E5000094B1B6801339A4204D1074B1B680133CD
:100E6000054A13603A687968F868054B984700238B
:100E700018461837BD4680BD400A4020D0094020A2
:100E80006D0B400080B500AF0A210248024B984725
:100E900000BF80BD000E0E40310D400080B500AF98
:100EA0000B210248024B984700BF80BD00100E4046
:100EB000310D400080B500AF0C210248024B98472D
:100EC00000BF80BD00120E40310D400080B500AF64
:100ED00010210248024B984700BF80BD00140E400D
:100EE000310D400080B500AF11210248024B9847F8
:100EF00000BF80BD00160E40310D400080B586B0A9
:100F000000AFF8600B467A60FB7200237B61F868E3
:100F1000134B984778614FF0FF31F868114B9847B1
:100F2000F868114B984797F90B3018460F4B9847C4
:100F300097F90B3018460E4B984797F90B307968A4
:100F400018460C4B984797F90B3018460A4B9847B0
:100F50007969F868094B984700BF1837BD4680BDCE
:100F6000290C4000F50B4000110C4000750C4000AE
:100F7000A90C4000DD0C4000410C4000D90B4000A2
:100F800080B483B000AF78607B68013B032B1AD834
:100F900001A252F823F000BFA90F4000AF0F40009C
:100FA000B70F4000BF0F400000237B600EE04FF4FE
:100FB00080737B600AE04FF440737B6006E04FF47F
:100FC00000737B6002E000237B6000BF0A490A4B8C
:100FD0001B6B23F440727B6813430B6300BF064B0B
:100FE0009B6E03F00803002BF9D000BF0C37BD4601
:100FF0005DF8047B704700BF00060E4080B485B0EA
:1010000000AF78601D491D4B1B6B23F070027B689D
:1010100013430B634FF48053FB6007E0FB68002B26
:1010200001D1012323E0FB68013BFB60134B9B6E66
:1010300003F00803002BF1D0104A104B1B6B23F078
:10104000030343F0020313634FF48053FB6007E094
:10105000FB68002B01D1012309E0FB68013BFB6029
:10106000064B9B6E03F00803002BF1D000231846BB
:101070001437BD465DF8047B704700BF00060E4084
:1010800080B483B000AF78607B68012B05D107493D
:10109000064B9A68064B13438B60044B054A1A6053
:1010A00000BF0C37BD465DF8047B704710180E403A
:1010B000000010A5080000A580B400AF094B5B69D3
:1010C00003F08003002B07D0074B9B6E03F08003D7
:1010D000002B01D0012300E000231846BD465DF837
:1010E000047B704710180E4000060E4080B483B099
:1010F00000AF78601549154B1A6A154B13430B6204
:1011000000BF124B9B6E03F40033002BF9D00F4944
:101110000E4B1A6A0F4B13407A68134343F45C1367
:101120000B6200BF094B9B6E03F40033002BF9D018
:101130000649064B1A6A084B134043F45C130B62D2
:1011400000BF0C37BD465DF8047B704700060E40BB
:10115000080037008FFFC8FFFFFFC8FE80B483B0D0
:1011600000AF786039607B68002B08D01349134BBF
:101170001B6A134A1A40134B13430B6218E00F49C2
:101180000E4B1A6A104B13403A68120292B21A437D
:101190000E4B13430B6200BF084B9B6E03F0010321
:1011A000002BF9D00549054B1A6A094B13430B6212
:1011B00000BF0C37BD465DF8047B704700060E404B
:1011C000FCFFC8FE02003701FCFFC8FF010037002A
:1011D0000000370180B400AF044B9B6E03F48033F2
:1011E0001846BD465DF8047B704700BF00060E4000
:1011F00080B400AF044B4FF000529A6200BFBD466E
:101200005DF8047B704700BF00060E4080B400AF5D
:10121000044B9B6E03F002031846BD465DF8047B49
:10122000704700BF00060E4080B400AF044B9B6EB9
:1012300003F040031846BD465DF8047B704700BFCD
:1012400000060E4080B483B000AF78607B683F2B0F
:1012500001D901232FE07B681F2B13D8194B9A6902
:1012600001217B6801FA03F31A4001217B6801FA2E
:1012700003F39A421ED0134A01217B6801FA03F35B
:10128000136117E07B68203B7B600E4BD3F808218D
:1012900001217B6801FA03F31A4001217B6801FAFE
:1012A00003F39A4206D0074A01217B6801FA03F34F
:1012B000C2F80031002318460C37BD465DF8047BA8
:1012C000704700BF00060E4080B485B000AF786064
:1012D00039600023FB607B68AC221A603B681A68A7
:1012E0003B685B68B2FBF3F31B09FB60FB68002BF8
:1012F00003D0FB68B3F5803F01D301230AE07B688C
:10130000FA681A623B689A687B685A607B68502268
:101310001A60002318461437BD465DF8047B7047F9
:1013200080B483B000AF78600B46FB707B685B696C
:1013300003F00203002B01D1012303E0FA787B685C
:10134000DA61002318460C37BD465DF8047B704710
:1013500080B483B000AF786039607B685B6903F06C
:101360000103002B01D1012305E07B689B69DAB200
:101370003B681A70002318460C37BD465DF8047BA5
:10138000704780B489B000AFF860B9607A60BB681C
:101390001A017B689A4202D81023FB6101E00823FE
:1013A000FB617B68DA00FB69B96801FB03F35B084A
:1013B0001A44FB69B96801FB03F3B2FBF3F3BB61A9
:1013C000BB69DB087B61BB6903F007033B617B6999
:1013D000002B03D07B69B3F5803F01D301230FE0DD
:1013E000FB69082B05D1FB685B6843F40022FB68AE
:1013F0005A603B691A047B691A43FB681A6200232E
:1014000018462437BD465DF8047B704780B582B02E
:1014100000AF786078680D4B98477B6800225A606F
:101420007B6800225A627B6800229A627868084BC7
:1014300098477868074B98477868074B98477868CB
:10144000064B984700BF0837BD4680BDED154000EC
:10145000FF144000331540004D1540006915400051
:1014600080B584B000AFF860B9607A60F8681A4B54
:1014700098471A4B00221A60BB68002B09D0BB6842
:101480001B687A681946F868154B98470346002B85
:1014900001D001231BE0BB685A68BB689B681A43F4
:1014A000BB681B691A43BB68DB681A430B4B1B689C
:1014B00013430A4A1360094B1B68084A1360FB6810
:1014C0005A68064B1B681A43FB685A60002318468B
:1014D0001037BD4680BD00BF0D144000440A4020B7
:1014E0008313400080B483B000AF78607B684022F3
:1014F0001A6000BF0C37BD465DF8047B704780B4AE
:1015000083B000AF78607B6888221A6000BF0C3718
:10151000BD465DF8047B704780B483B000AF78604F
:101520007B6810221A6000BF0C37BD465DF8047B53
:10153000704780B483B000AF78607B6824221A6063
:1015400000BF0C37BD465DF8047B704780B483B0A4
:1015500000AF78607B684FF480721A6000BF0C3770
:10156000BD465DF8047B704780B483B000AF7860FF
:101570007B684FF400221A6000BF0C37BD465DF84F
:10158000047B704780B483B000AF786039607B68BB
:101590005B6903F00203002B01D1012305E03B68E6
:1015A000C3F308027B68DA61002318460C37BD4696
:1015B0005DF8047B704780B483B000AF7860396019
:1015C0007B685B6903F00103002B01D1012306E076
:1015D0007B689B69C3F308023B681A6000231846C6
:1015E0000C37BD465DF8047B7047000080B483B0C3
:1015F00000AF78607B68044AC3F8E42000BF0C3772
:10160000BD465DF8047B70470041535580B483B0FC
:1016100000AFEFF310837B607B68002B0CBF0123CE
:101620000023DBB23B6072B6BFF35F8F044B002236
:101630001A703B6818460C37BD465DF8047B70474E
:101640000000402080B483B000AF78607B68002B3E
:1016500014BF01230023DBB218460C37BD465DF8EA
:10166000047B704780B582B000AF78607868074B24
:1016700098470346002B05D0054B01221A70BFF393
:101680005F8F62B600BF0837BD4680BD451640007B
:101690000000402080B584B000AF1E4BFB601E4BA5
:1016A000BB60FA68BB689A420CD007E0BB681A1DA1
:1016B000BA60FA68111DF96012681A60BB68174AAF
:1016C0009342F3D3164BBB6004E0BB681A1DBA60AB
:1016D00000221A60BB68134A9342F6D3124BFB6098
:1016E000124AFB6823F07F039360114B98477860A0
:1016F000104A104B1B6843F470031360BFF34F8F05
:10170000BFF36F8F78680C4B98470C4B98470C4B86
:101710009847FEE7D053400000004020B409402025
:10172000B4094020940A40200000400000ED00E091
:101730000D16400088ED00E065164000C122400013
:10174000E521400080B400AFFEE7000080B400AFA8
:10175000524B1B6B03F00303012B14D0012B02D35C
:10176000022B38D07AE04E4B5B6903F08003002BEC
:1017700004D04C4B4FF400421A606FE0494B4FF4D9
:10178000FA421A606AE0454B1B6A03F08073002B33
:1017900003D0444B444A1A6060E0424B434A1A600B
:1017A0003E4B1B6A03F07003102B04D0202B08D093
:1017B000002B0ED00EE03B4B1B685B00394A1360D8
:1017C00008E0384B1A6813465B001344354A13602F
:1017D00000E000BF42E0314B1B6A03F08073002B36
:1017E00003D0304B304A1A601CE02E4B2F4A1A604F
:1017F0002A4B1B6A03F07003102B04D0202B08D057
:10180000002B0ED00EE0274B1B685B00254A1360AF
:1018100008E0244B1A6813465B001344214A136006
:1018200000E000BF1D4B1B6B03F00303022B14D120
:101830001A4B9B6A1B0CC3F30A030133194A126843
:1018400002FB03F3174A1360144B9B6ADBB2154A81
:101850001268B2FBF3F3134A136000BF0F4B1B6B0C
:1018600003F07003702B08D10E4B1B68104AA2FBCB
:1018700003235B080B4A13600AE0084B1B6B1B0930
:1018800003F00703074A126822FA03F3054A1360BC
:1018900000BFBD465DF8047B704700BF00060E40E8
:1018A00010180E4004004020001BB70000093D0046
:1018B000ABAAAAAA80B483B000AF78607B68194A4B
:1018C000934204D8184B4FF080621A6023E07B6883
:1018D000164A934203D8144B154A1A601BE07B68E2
:1018E000144A934203D8104B134A1A6013E07B68E2
:1018F000124A934203D80C4B114A1A600BE07B68E2
:10190000104A934204D8084B4FF004221A6002E0B8
:10191000054B0D4A1A6000BF0C37BD465DF8047BCD
:10192000704700BFFF2C3101000C0E40FF596202CE
:1019300000010004FF86930300020004FFB3C40407
:1019400000030004FFE0F5050005000480B485B045
:1019500000AF7860104BFB60104B1B68002B02D16E
:101960000E4B0F4A1A600D4B1B68BB60BA687B6850
:101970001A44FB689A4202DD4FF0FF3306E0074B42
:101980001A687B681344054A1360BB68184614370D
:10199000BD465DF8047B7047FCFF4520480A4020A7
:1019A000982C402080B483B000AF78604FF0FF33B4
:1019B00018460C37BD465DF8047B704780B483B091
:1019C00000AF786039603B684FF400525A600023E2
:1019D00018460C37BD465DF8047B704780B483B071
:1019E00000AF7860012318460C37BD465DF8047BD4
:1019F000704780B485B000AFF860B9607A600023AA
:101A000018461437BD465DF8047B704780B483B038
:101A100000AF0346FB71094997F907305B09FA7972
:101A200002F01F02012000FA02F241F8232000BF59
:101A30000C37BD465DF8047B704700BF00E100E055
:101A400080B483B000AF03463960FB7197F907306B
:101A5000002B0BDA0D49FB7903F00F03043B3A68C6
:101A6000D2B25201D2B20B441A7609E0084997F972
:101A700007303A68D2B25201D2B20B4483F8002345
:101A800000BF0C37BD465DF8047B704700ED00E0F9
:101A900000E100E080B582B000AF78607B68013B78
:101AA000B3F1807F01D301230FE00A4A7B68013B39
:101AB000536007214FF0FF30074B9847054B00223A
:101AC0009A60044B07221A60002318460837BD4667
:101AD00080BD00BF10E000E0411A400080B483B038
:101AE00000AF78607B68072B25D801A252F823F05D
:101AF000111B4000171B40001D1B4000231B400012
:101B0000271B40002B1B40002F1B4000331B4000B5
:101B10004FF4FA4310E04FF400430DE04FF400435C
:101B20000AE0084B08E0084B06E0084B04E0074BCE
:101B300002E0064B00E0002318460C37BD465DF876
:101B4000047B704700093D0000127A00001BB700BB
:101B500080B500AF0620054B9847024613469B0010
:101B600013449A001344184680BD00BFDD1A40009C
:101B700080B500AF024B98470346184680BD00BFB2
:101B8000511B400080B500AF024B984703465B08ED
:101B9000184680BD511B400080B582B000AF786010
:101BA0007868034B984700BF0837BD4680BD00BF2B
:101BB0004512400080B48BB000AF78600B46FB70DC
:101BC0007B687B62FB7887F823307B6AFB61FB696B
:101BD000BB61BB695B097B617A69104B13445B0293
:101BE0003B6197F82330002B09D07B6AFB60FB68D0
:101BF00003F01F0301229A403B691A6308E07B6AE5
:101C0000BB60BB6803F01F0301229A403B695A6323
:101C100000BF2C37BD465DF8047B704707072000E6
:101C200080B48BB000AF78607B687B627B6A3B627C
:101C30003B6AFB61FB695B09BB61BA69134B1344E7
:101C40005B027B617B6A3B613B6903F01F030122FE
:101C500002FA03F3FB607B69DA6B7B6ABB60BB68EB
:101C600003F01F03012101FA03F31340002B03D0FB
:101C70007B69FA685A6302E07B69FA681A6300BFFD
:101C80002C37BD465DF8047B704700BF0707200076
:101C900080B58CB000AF78603960494B98470346F7
:101CA0007B623B681B68BB623B689B68FB623B686E
:101CB0001B68FB603B685B683B613B689B687B61C2
:101CC0003B68DB68BB610023FB617B683D4A934254
:101CD00008D107203C4B984707F124031946786840
:101CE0003A4B98477B683A4A934208D10820364BD2
:101CF000984707F1240319467868344B98477B6866
:101D0000344A934208D12C202F4B984707F12403E3
:101D1000194678682D4B98477B682F4A934208D123
:101D20002D20294B984707F1240319467868274B43
:101D300098477B68294A934211D10D20224B98473E
:101D40001F4B9847024607F10C0319467868244B4D
:101D500098477868234B98477868234B98477B6867
:101D6000224A934211D10E20174B9847144B9847A3
:101D7000024607F10C0319467868194B98477868B2
:101D8000184B98477868184B98477B68184A9342D5
:101D900011D10F200C4B9847094B9847024607F189
:101DA0000C03194678680E4B984778680D4B984796
:101DB00078680D4B984700BF3037BD4680BD00BFE7
:101DC000851B400000080E40991B4000C9124000CE
:101DD000000A0E40001A0E40001C0E400040024057
:101DE00061144000E51440001915400000800240D5
:101DF00000C0024080B582B000AF78600B46FB7037
:101E00007B68364A93420AD100BFFB78194678684E
:101E1000334B98470346002BF7D101235AE07B68E8
:101E2000304A93420AD100BFFB78194678682C4BA0
:101E300098470346002BF7D101234BE07B682A4AE1
:101E400093420AD100BFFB7819467868244B984723
:101E50000346002BF7D101233CE07B68234A9342E1
:101E60000AD100BFFB78194678681D4B9847034696
:101E7000002BF7D101232DE07B681D4A93420AD144
:101E800000BFFB78194678681A4B98470346002B29
:101E9000F7D101231EE07B68174A93420AD100BFA5
:101EA000FB7819467868134B98470346002BF7D107
:101EB00001230FE07B68114A93420AD100BFFB78EF
:101EC000194678680B4B98470346002BF7D101233E
:101ED00000E0002318460837BD4680BD00080E40CC
:101EE00021134000000A0E40001A0E40001C0E4054
:101EF00000400240851540000080024000C00240C2
:101F000080B584B000AF786039600023FB607B68E7
:101F1000344A934207D100BF39687868324B9847FA
:101F20000346002BF8D17B68304A934207D100BFAB
:101F3000396878682C4B98470346002BF8D17B68AA
:101F40002B4A934207D100BF39687868264B9847DF
:101F50000346002BF8D17B68264A934207D100BF85
:101F600039687868204B98470346002BF8D17B6886
:101F7000214A93420DD100BF07F10C03194678683E
:101F80001E4B98470346002BF6D1FB68DAB23B683C
:101F90001A707B681A4A93420DD100BF07F10C03F7
:101FA00019467868154B98470346002BF6D1FB6815
:101FB000DAB23B681A707B68124A93420DD100BFB7
:101FC00007F10C03194678680C4B98470346002B21
:101FD000F6D1FB68DAB23B681A7000BF1037BD4615
:101FE00080BD00BF00080E4051134000000A0E40A3
:101FF000001A0E40001C0E4000400240B715400081
:102000000080024000C0024080B582B000AF78601E
:1020100039600F4A7B6813600E4B0F4A1A600F4BF2
:102020000F4A1A60396878680E4B98470E4B1B6848
:102030009B68002118460D4B98470B4B1B685B684B
:1020400000211846094B984700BF0837BD4680BDA0
:102050008C0A4020880A4020F51D4000840A402058
:10206000011F4000911C40000C0040204D24400006
:1020700080B582B000AF0346FB71FB79002B1BD10A
:102080000F4B1B78DBB2002B14BF01230023DBB204
:1020900083F00103DBB203F00103DAB2084B1A70DC
:1020A000074B1B78DBB283F00103DBB2002B03D0BC
:1020B00001214820034B984700BF0837BD4680BD2B
:1020C00008004020B51B400080B400AF044B1B68E3
:1020D0000133034A136000BFBD465DF8047B7047BF
:1020E0004C0A402080B582B000AF786039607B68D0
:1020F0000A2B06D13B68B3F5006F02D10020034BD9
:10210000984700BF0837BD4680BD00BF7120400022
:1021100090B583B002AF0A20104B98470A224FF4C3
:1021200000610F480F4B98470F4B009379234FF4F2
:1021300000620A210A480D4CA0470A200C4B984720
:1021400000220A2106480B4B98474FF400610448CF
:10215000094B984700BF0437BD4690BD451240006B
:10216000000E0E40350B4000E5204000E50D40001C
:102170000D1A4000FD0E4000D90B400090B585B00F
:1021800000AF084B3C460FCB84E80F000E20064BF7
:1021900098473B4619460548054B984700BF1437FA
:1021A000BD4690BD14514000991B40000080024084
:1021B0000920400080B485B000AF7860084B1B68F0
:1021C000FB6000BF064B1A68FB68D21A7B689A4214
:1021D000F8D300BF1437BD465DF8047B704700BFDD
:1021E0004C0A402080B582B000AF214B9847214B6C
:1021F0009847214B98472148214B9847214B9847B6
:10220000786021481E4B98471E4B984702461F4B4B
:10221000A3FB02239B0918461D4B98470346002B3E
:1022200003D01C48164B9847FEE71B48144B9847B1
:102230001A4B98471A4A1B491B481C4B984700BF2A
:102240001B4B1B78DBB283F00103DBB2002BF7D111
:10225000174B1B78DBB2002B05D04820154B984755
:102260001548124B98474FF4FA70144B9847E6E71D
:10227000AD0440007D0A40007D2140002451400013
:102280003D244000711B40007C514000D34D621042
:10229000951A4000AC514000D0514000112140003F
:1022A000F451400004524000085240001123400005
:1022B00008004020211C400034524000B52140005D
:1022C00070B50F4E0F4D761BB61018BF002405D009
:1022D000013455F8043B9847A642F9D10A4E0B4DFC
:1022E000761B03F05FF8B61018BF002406D0013447
:1022F00055F8043B9847A642F9D170BD70BD00BFA8
:10230000B0534000B0534000B8534000B0534000B9
:102310000FB400B5074983B004AB086853F8042B29
:102320008168019300F0FAF903B05DF804EB04B0A2
:10233000704700BF0C00402070B4860746D0541E82
:10234000002A41D0CAB2034602E014F1FF343BD365
:1023500003F8012B9D07F8D1032C2ED9CDB245EA05
:1023600005250F2C45EA054519D903F1100226462B
:10237000103E0F2E42F8105C42F80C5C42F8085CEC
:1023800042F8045C02F11002F2D8A4F1100222F02B
:102390000F0204F00F041032032C13440DD91E4613
:1023A0002246043A032A46F8045BFAD8221F22F098
:1023B00003020432134404F003042CB1C9B21C44D8
:1023C00003F8011B9C42FBD170BC704714460346C6
:1023D000C2E700BFF0B5054689B008460C4600F0DC
:1023E000EFF8AB6B144F04940126441C04A902229D
:1023F00003940590AC680697079601910292B3B1D9
:10240000B4F90C309A0406D4626E43F4005322F4FB
:102410000052A38162662146284601AA01F018FBFA
:10242000002814BF4FF0FF300A2009B0F0BD284645
:1024300001F052F9E4E700BF3C524000024B014674
:102440001868FFF7C7BF00BF0C00402000290CBF71
:10245000022200224FF4806300F000B82DE9F0431F
:10246000504C256883B004460F4690461E4615B171
:10247000AB6B002B77D0B8F1020F04D0B8F1010F8D
:102480007DD8002E7BDB2146284601F091F8216B98
:1024900041B104F14003994202D0284601F0F2F91B
:1024A00000232363B4F90C300022A26162601A0693
:1024B00052D423F44A6323F00303B8F1020FA3813B
:1024C00037D001AB6A462146284601F071FCA3894A
:1024D0001843A08116B317B3AB6B002B4BD0009BF6
:1024E00027609E42B4F90C3027611CBF43F400639F
:1024F000A381B8F1010F04BF43F00103A3819BB294
:1025000013F00800666123D013F001002FD00020E3
:102510007642A661A06003B0BDE8F083009E30461D
:1025200001F0B8FC074668B3A38943F08003A38198
:10253000D2E7002004F1430243F002030025012109
:10254000A381A56022602261616103B0BDE8F083D0
:10255000A06003B0BDE8F0832169284601F092F93C
:10256000B4F90C30A5E7284601F0B6F883E7A66079
:1025700003B0BDE8F083284601F0AEF8AFE74FF0B6
:10258000FF30E2E7DDF80090B14506D0484601F0A3
:1025900081FC074608B14E46C6E7B4F90C304FF04F
:1025A000FF30C7E70C0040200000000000000000E2
:1025B000000000000000000000000000000000001B
:1025C00090F800F06DE9024520F007016FF0000C73
:1025D00010F0070491F820F040F049804FF000041B
:1025E0006FF00700D1E9002391F840F000F10800F6
:1025F00082FA4CF2A4FA8CF283FA4CF3A2FA8CF32E
:102600004BBBD1E9022382FA4CF200F10800A4FA94
:102610008CF283FA4CF3A2FA8CF3E3B9D1E90423E8
:1026200082FA4CF200F10800A4FA8CF283FA4CF31F
:10263000A2FA8CF37BB9D1E9062301F1200182FAD9
:102640004CF200F10800A4FA8CF283FA4CF3A2FADF
:102650008CF3002BC6D0002A04BF04301A4612BAED
:10266000B2FA82F2FDE8024500EBD2007047D1E9F0
:10267000002304F00305C4F100004FEAC50514F07F
:10268000040F91F840F00CFA05F562EA05021CBF50
:1026900063EA050362464FF00004A9E72DE9F84F0D
:1026A0004B6E9C0493462FD59368126853B30E4625
:1026B000074602F1080919E920045FEA9A0817D0D1
:1026C000043D002401E0A04510D0324655F8041F17
:1026D000384601F075F8431C04F10104F3D10023DE
:1026E000CBF80830CBF80430BDE8F88FDBF80830C1
:1026F0002AF0030AA3EB0A03CBF8083009F1080912
:10270000002BD8D10020EAE701F0A2F90023CBF892
:102710000830CBF80430BDE8F88F00BF2DE9F04F4A
:10272000ADB01D46019191460893069018B1836B98
:10273000002B00F0E080019CB4F90C0081B28B0406
:1027400007D4636E40F4005123F40053A181636603
:1027500089B20F0740F1B180019B1B69002B00F08B
:10276000AC8001F01A010A2900F0B58000230DF1B8
:10277000700B0B93119310930493CDF83CB0DA4691
:1027800099F800304C46FBB1252B02D11CE0252BDB
:1027900003D014F8013F002BF9D1A4EB09059DB13A
:1027A000109B119ACAF8009001332A44072BCAF8EB
:1027B0000450119210937ADD002A40F08F84049B1C
:1027C00010922B44DA4604932378002B00F0B18357
:1027D00000204FF000038DF8373004F101096278D2
:1027E0000546064603464FF0FF3409F10109A2F100
:1027F0002001582900F20E83DFE811F037020C03A4
:102800000C03EB020C030C030C030C030C030C0372
:102810009E02F0020C03820077020C03CF01D40168
:10282000D401D401D401D401D401D401D401D40100
:102830000C030C030C030C030C030C030C030C0320
:102840000C030C033F020C030C030C030C030C03DE
:102850000C030C030C030C030C0346020C030C03C7
:102860000C030C030C034A020C030C0352020C036E
:102870000C030C030C030C030C030C030C030C03E0
:102880000C03E201F6010C030C030C030703F60131
:102890000C030C0391020C03F5028700B102C30282
:1028A0000C03C8020C03BD010C030C03AA020AF1BD
:1028B000080A049B2B44049386E7019C0698214652
:1028C00000F062FD002840F04083A18901F01A0168
:1028D0000A297FF44BAF0199B1F90E30002BFFF6B6
:1028E00045AF2B464A46069800F018FD0490049820
:1028F0002DB0BDE8F08F00F0EFFE1CE776420892A5
:1029000043F0040399F800206FE7079613F02002C4
:1029100040F05A8413F0100140F0F18313F04002AC
:1029200000F0ED8308980A460146043106880891B4
:1029300000274FF000018DF837100025611C00F0D2
:10294000758123F08001039156EA070140F07381FD
:10295000002C40F05683002A40F0B28313F00103AC
:10296000059300F047840DF1B008302308F8413D8D
:10297000059BA342B8BF234602930DB101330293D6
:10298000039B13F00203099302D0029B02330293CC
:10299000039B13F084030A9340F06382079B029A1F
:1029A0009D1A002D40F35D82102D40F37784109B1B
:1029B000119AB94ED6461027A2461946069C07E042
:1029C00001F1020C0EF1080E0146103D102D11DD33
:1029D000481C1032072811928EE8C0001090EFDDDD
:1029E000002A40F03182103D102D11464FF0010CAD
:1029F000DE46EDDC54466146F2462A440729119230
:102A0000CAF80060CAF80450109100F3E6829DF8FD
:102A100037500AF1080A481C002D40F02A82099B11
:102A2000002B00F0448202320EA9022307281192E3
:102A300010908AE80A0040F33682002A40F08B8327
:102A40000A9B802B4FF001001146DA4640F033829A
:102A5000079B029D5E1B002E40F32D82102E8F4D92
:102A600040F32F84D4461027A246069C07E001F1CC
:102A7000020E0CF1080C0146103E102E11DD481C10
:102A80001032072811928CE8A0001090EFDD002A88
:102A900040F09682103E102E4FF0010E1146DC469B
:102AA000EDDC5446E2463244BEF1070F11928AE84B
:102AB0006000CDF840E000F35B83059BE41A002C36
:102AC0000AF1080A0EF10100714600F3F981059937
:102AD000CAF800800A4407281192CAF8041010901E
:102AE00040F35582002A40F0EE82039B1092580773
:102AF00038D5079B02995C1A002C40F3BA82DA465B
:102B0000102C40F3DA831099634E069FDDF80480A1
:102B1000102506E0881C0AF1080A1946103C102C02
:102B200013DD4B1C1032072B1192CAF80060CAF853
:102B300004501093EEDD002A40F00B82103C102C64
:102B40004FF001001146DA46EBDC224407281192CF
:102B5000CAF80060CAF80440109040F32382002AAB
:102B600040F06783049B079A02998A42ACBF9B1886
:102B70005B1804931FE207969E0600F119830899DB
:102B8000DD060A4600F1B582580640F1B2820E8891
:102B90000431002701220891CBE643F0800399F825
:102BA000002022E6A2F13001002619F8012B06EBE5
:102BB000860601EB4606A2F130010929F5D916E691
:102BC000089907960A688DF848204FF000000A46D9
:102BD0008DF83700043201200290089205900DF123
:102BE000480803930024CBE60796002840F0828330
:102BF0009E0600F1D182DD0600F18D82580640F17B
:102C00008A82089DB5F900602A46F71704323046DB
:102C100039460892002871F10002C0F2EE82611C70
:102C20009DF837504FF001027FF48BAE56EA070152
:102C300000F0E8810393012A00F02582022A40F087
:102C4000F5810B98D846330906F00F0143EA077364
:102C50003A091E461746435C08F8013D56EA070349
:102C6000F1D1ABEB0803059382E699F80020002D23
:102C70007FF4BBAD01202025B7E50796002840F082
:102C8000368343F01003B3E7079643F010033DE6A5
:102C9000079643F010036FE77052400080524000E7
:102CA0000796002840F02C83B0490B919F0600F155
:102CB00097820898DE06014600F128825D0640F101
:102CC00025820431068808910027D80740F1D98170
:102CD00056EA070100F0D58130218DF8392043F004
:102CE00002038DF83810022223E699F800202A2AE0
:102CF00009F1010700F0F082A2F130010929B9467B
:102D00004FF000043FF673AD19F8012B04EB840477
:102D100001EB4404A2F130010929F5D967E599F8DE
:102D200000206C2A03BF99F8012043F0200309F129
:102D3000010943F0100358E508990E680A46002E71
:102D400002F10402FFF6DAAD089299F800204CE592
:102D50000796002840F0DA8285490B91A6E708988B
:102D6000834A07960B9206687822302104308DF84A
:102D7000392043F00203089000278DF83810022212
:102D8000D7E543F0200399F800202EE5089907962F
:102D9000D1F800804FF000028DF837200E1DB8F1F9
:102DA000000F00F08182671C00F060822246002143
:102DB0004046029301F03CFB029B002800F0848215
:102DC000A0EB08020592089603939DF83750002463
:102DD000CEE543F0010399F8002006E599F80020BC
:102DE00001202B2501E5002840F08782990600F19B
:102DF0003182DA0621D45B061FD5089A13680432A3
:102E00000892BDF810201A80BAE443F0400399F804
:102E10000020EAE40796002840F07582002A00F0BE
:102E2000888001218DF848204FF0000202918DF832
:102E3000372005910DF14808D3E6089A136804324B
:102E40000892049A1A609BE40FAA01992046FFF7A2
:102E500025FC002874D11099119A01F1010CDE466D
:102E6000B3E51099119A481C9DF83750002D3FF496
:102E7000D6AD01320DF137050121072811921090CE
:102E8000CAF80050CAF8041040F3B680002A40F097
:102E90005581099B002B3FF4D3AD0EAB02220846AF
:102EA0001C931D92DA4601460AF1080A01300A9B7A
:102EB000802B3FF4CDAD059BE41A002C7FF707AEC5
:102EC000102C2C4D1DDDD6461026069FDDF804A0E3
:102ED00006E0881C0EF1080E1946103C102C0FDD80
:102EE0004B1C1032072B11928EE860001093F0DD1E
:102EF000A2B9103C102C4FF001001146DE46EFDC69
:102F0000F246224407281192CAF80050CAF8044039
:102F1000109031DC0AF1080A0130D8E50FAA5146B9
:102F20003846FFF7BBFB58B91099119A481CDE468A
:102F3000D3E7119B23B1069801990FAAFFF7AEFBC7
:102F4000019B9B895B067FF5D2AC4FF0FF33049366
:102F5000CDE40FAA41463846FFF7A0FB0028EFD189
:102F60001099119A481CDA46D8E500BF405240003B
:102F70005452400080524000002A40F00081059ADF
:102F80001D9201231192CDF870801093DA460AF158
:102F9000080A039B590705D5079B02995C1A002C68
:102FA0003FF7AEAD049B079902988142ACBF5B1816
:102FB0001B1804937ABB00231093DA46FFF7E0BB9B
:102FC0000FAA01992046FFF769FB0028B8D1109994
:102FD000119A01F1010EDC464EE5002A40F01C81F9
:102FE0009DF83710002900F0118101220DF1370101
:102FF00010461D921C91DA4601460AF1080A01307A
:103000000DE5039B012A00F09080022A0BD1039367
:103010000026002715E60FAA01990698FFF73EFB48
:103020000028C8D08CE7039300260027594600E00B
:103030004146F20842EA4772F80806F007030746DD
:103040001646303356EA070201F8013C01F1FF3819
:10305000EED1039AD6077FF504AE302B3FF401AED4
:103060000239302308F8013CABEB01030593884695
:103070007EE4049B079A8A42ACBF9B185B180493BA
:1030800099E7022255E4002F08BF0A2E4CD3D846F8
:10309000304639460A22002301F0B4FE303208F8E7
:1030A000012D3046394600230A2201F0ABFE0646C8
:1030B0000F4656EA0703EBD1ABEB0803059357E441
:1030C0000594D84654E40FAA01990698FFF7E6FA4A
:1030D00000287FF435AF119ADA465AE70FAA019912
:1030E0000698FFF7DBFA00287FF42AAFDA46FFF7ED
:1030F000E0BB0431166808910122002719E4089802
:103100000146043106680891002712E40E68043174
:1031100008910027D9E508990E680A46F717043286
:1031200008923046394675E5039B03930DF1B008CC
:103130003036012308F8416D059319E40FAA01996F
:103140000698FFF7ABFA00287FF4FAAE1099119AAF
:10315000481CDA4663E40FAA01990698FFF79EFA25
:1031600000287FF4EDAE1099119A481CDA469EE6CD
:10317000002A40F0868001201146DA469BE60FAA1D
:1031800001990698FFF78AFA00287FF4D9AE1098C3
:10319000119A0130DA469AE4089E073626F00706AF
:1031A000D6E9000106F10802089206460F4631E50D
:1031B000089E073626F0070202F10801D2E90067EF
:1031C00008910122FFF7B5BB089E073626F00702DB
:1031D00002F10801D2E9006708910022FFF7A9BBBC
:1031E000089E073626F0070101F108000890D1E992
:1031F00000676AE5D846FFF7BBBB2D25764267EB33
:1032000047078DF837500122FFF798BB099BD3B9C8
:1032100011460120DA464EE60FAA01990698FFF7FB
:103220003DFA00287FF48CAE1099119A481CDA46BA
:103230001AE60FAA01990698FFF730FA00287FF4E2
:103240007FAE119AAEE60EAB02221C931D920120B6
:10325000DA4628E6089A04991368CD17084604321E
:1032600029460892C3E90001FFF78ABA404608964A
:103270000393FFF7A5F9002405909DF83750FFF759
:1032800077BB0FAA01990698FFF708FA00287FF488
:1032900057AE1099119A481CDA460CE61099119A0B
:1032A0001C4E0131FFF7A9BB062C28BF062405944C
:1032B00008960294DFF8608093E41098154E013070
:1032C00043E48646FFF7EFBB05949DF83750089618
:1032D00003930446FFF74CBB089999F801200C684A
:1032E000043144EAE474B9460891FFF77EBA8DF8D8
:1032F0003750C6E48DF837507AE48DF8375075E5CD
:103300008DF83750D0E48DF8375087E58DF8375079
:1033100022E500BF7052400068524000F0B50C46F4
:10332000ADF26C4D8989666EE589199621F002012E
:10333000666AADF80E500025E769ADF80C100996E5
:1033400006951AAE4FF4806569460096049602957C
:10335000059507970646FFF7E1F9051E07DB30469E
:10336000694600F025F9002818BF4FF0FF35BDF879
:103370000C305B0603D5A38943F04003A3812846A4
:103380000DF26C4DF0BD00BF38B5304B1B680546E3
:103390000C4613B19A6B002A38D0B4F90C2093B2C2
:1033A00018070CD52069A8B113F001021ED063697B
:1033B00000225B42A361A260F0B1002038BDD906B3
:1033C0003CD5580726D4206942F00803A3819BB25C
:1033D0000028E9D103F42072B2F5007FE4D028463A
:1033E000214600F013FDA3892069DDE7990758BF46
:1033F0006269A2600028E0D1B4F90C301A06DDD56C
:1034000043F04003A3814FF0FF3038BD184600F071
:1034100063F9C2E7216B51B104F14003994204D032
:10342000284600F02FFAB4F90C2000232363002370
:103430002069636022F024022060C5E742F0400268
:1034400009232B604FF0FF30A28138BD0C004020D3
:10345000024B13B1024800F005B8704700000000AD
:10346000ED364000002301461A46184601F0D4BB51
:10347000B1F90C309AB22DE9F0410D4611078046A2
:103480003AD46A6843F40063002AAB816FDDAC6A0A
:10349000002C49D000229BB2D8F80060C8F8002068
:1034A00013F4805267D02A6D5F0705D569682B6BCE
:1034B000521A0BB1EB6BD21A0023E9694046A047C0
:1034C000441C3CD0B5F90C302A692A6023F400630F
:1034D0000022AB81DB046A6047D4296BC8F8006026
:1034E00011B305F14003994202D0404600F0CAF9F9
:1034F00000202863BDE8F0812E69AEB12C682E60F3
:1035000091070CBF6B690023A41BAB600AE0234644
:1035100032466F6AE9694046B8470028A4EB0004C8
:10352000064404DD002CF2DC0020BDE8F081AB890C
:1035300043F04003AB814FF0FF30BDE8F081D8F895
:1035400000401D2CF3D8194BE340DB4313F001037B
:10355000EDD1B5F90C206B6022F400632969AB81D1
:10356000DA042960B9D5002CB7D12865B5E7EA6B34
:10357000002A8CDCD8E70123E9694046A047431CB8
:10358000024602D0AB89AC6A8EE7D8F80030002B37
:10359000F8D01D2B01D0162B02D1C8F80060C3E76C
:1035A000AB8943F04003AB81BDE8F08101004020CE
:1035B00010B5044682B008B1836B53B1B1F90C0069
:1035C00008B902B010BD204602B0BDE81040FFF7B8
:1035D0004FBF019100F080F80199EFE7014900F039
:1035E000AFBB00BFE14C40002DE9F04F354B4568C3
:1035F000C3630024074600F53B7204230321C0F88F
:10360000E412C0F8E822C0F8E04283B02C606C609D
:10361000AC606C66EC812C616C61AC61AB81214665
:1036200005F15C000822FEF787FEBE68DFF898B05F
:10363000DFF898A0DFF89890DFF89880C5F820B000
:1036400001230922C5F824A0C5F82890C5F82C80CC
:10365000ED612146F381B28106F15C003460746053
:10366000B460746634617461B46108220193FEF73A
:1036700063FEFD68F66112200222C6F820B0C6F88B
:1036800024A0C6F82890C6F82C802146A881EA819B
:103690002C606C60AC606C662C616C61AC6105F197
:1036A0005C000822FEF748FE019BED61C5F820B0E2
:1036B000C5F824A0C5F82890C5F82C80BB6303B0DA
:1036C000BDE8F08FDD354000454A4000694A4000C2
:1036D000A54A4000C54A4000836B03B17047FFF71D
:1036E00083BF00BF704700BF704700BF38B50A4CAA
:1036F0000A4D641BA4100AD004F18043013B05EB82
:103700008305013C55F804399847002CF9D1BDE8F0
:10371000384001F051BE00BFC8534000C4534000C0
:103720002DE9F04782B080468946144600F032FB0E
:10373000012836D04A4604F15C0301A9404601F055
:103740001DFA421C064625D0A8B39DF804E00025CA
:103750000DF1040A09E023685A1C226083F800E096
:103760000135B54227D215F80AE0A368013B002BCA
:10377000A360F0DAA769BB4271462246404602DBED
:10378000BEF10A0FE7D101F0A1F9431CE8D102B064
:10379000BDE8F087A38943F04003A38102B0BDE8F0
:1037A000F08709F1FF33FE2BC4D85FFA89FE064685
:1037B0008DF804E0CBE7484602B0BDE8F08700BFD3
:1037C000B2F90C3013F4005F0AD110B4546E43F414
:1037D000005344F400545466938110BCFFF7A0BF1B
:1037E000FFF79EBFF8B5244F0C46064600F06EFF6B
:1037F000BB685D68C4F57E610F3125F0030529447F
:1038000021F47F6121F00F01A1F58054B4F5805FB0
:1038100007DB0021304601F003F9BB682B449842D6
:1038200004D0304600F054FF0020F8BD614230461D
:1038300001F0F6F801300DD0104BBA6819682D1B55
:1038400045F001053046091B5560196000F040FF46
:103850000120F8BD0021304601F0E2F8BA68831A71
:103860000F2BDEDD064C0549246843F00103001BE5
:1038700053600860D5E700BFA4054020500A4020EF
:10388000AC094020002944D02DE9F0410D46804686
:1038900000F01CFF55F8047C694927F00103A5F1ED
:1038A0000804E2188E685068B24220F003005ED02F
:1038B000FE0750600BD455F8087CE41B01F1080E9C
:1038C000A56875453B446DD0E768EF60BD6015188D
:1038D0006D68ED073ED543F001026260E350B3F539
:1038E000007F17D2DB08581C9A104D6851F83070D1
:1038F000A7600123934001EBC0022B43083AE2602A
:103900004B6041F83040FC604046BDE8F04100F0BB
:10391000DFBE70475A0A042A52D89A0902F13907C1
:10392000FF0002F13805C819CA59083890424FD033
:10393000516821F003018B4232D292689042F7D154
:10394000C368A060E3609C60C4604046BDE8F0418D
:1039500000F0BEBE95683B4FBD42034440D0D068E6
:10396000E86043F0010285606260E350B7E7FF075B
:10397000034407D455F8082CA41A1344A068E2683D
:10398000C2609060304A126843F001009342606068
:103990008C60B9D32D4B40461968FFF723FFB3E77E
:1039A0001046CDE711184968C90744D49168D26818
:1039B000CA60034443F0010091606060E350A3E7F4
:1039C000142A16D802F15C07FF0002F15B05AAE792
:1039D000AA1001234D6893402B434B600346B0E788
:1039E00043F001024C610C61E560A5606260E35048
:1039F0008AE7542A06D81A0B02F16F07FF0002F17A
:103A00006E0590E7B2F5AA7F06D8DA0B02F17807C7
:103A1000FF0002F1770586E740F25450824206D853
:103A20009A0C02F17D07FF0002F17C057BE74FF461
:103A30007E777E2577E743F001016160136063E7DD
:103A4000A4054020AC054020B0094020800A402059
:103A50009368002B73D02DE9F04F8B8983B00C460F
:103A600019070090164626D5226922B313F00200EA
:103A700035682CD04FF00009B04FC846B246B84563
:103A800043464A4628BF3B460098B8F1000F50D045
:103A9000E169666AB047002858DDDAF808301B1A79
:103AA0008144A8EB0008CAF80830002BE7D10020B9
:103AB00003B0BDE8F08F21460098FFF765FC0028B1
:103AC00040F03381A389356813F00200D2D113F09E
:103AD000010945D14F46019637B39A05D4F80880BD
:103AE00040F183804745C346C0F0AB8013F4906F2C
:103AF00040F0AC802068BA465A46494600F082FD44
:103B0000A2682368A2EB08025B44A2602360019ACA
:103B10009368A3EB0A03D144A7EB0A079360002B39
:103B2000C5D0A389002FD8D1D5F800906F6808358B
:103B3000D2E7D5F80090D5F8048008359FE700203B
:103B4000704721460098FFF733FD70B3B4F90C308D
:103B500043F040034FF0FF30A38103B0BDE8F08F86
:103B6000814633464E46A8469A464D464EB380B3EC
:103B7000206823696269B145CB4628BFB3469842A5
:103B80005F4604D9A36813449B4500F3A680934580
:103B90004BDB1346676AE16900982A46B847071E5F
:103BA000D4DDB9EB0709CCD00120DAF80830DB1BF3
:103BB0003D44F61BCAF80830002B3FF478AF002EC6
:103BC000D5D108F1080313E9600098460833002EA8
:103BD000F9D032460A21284600F02AFC002800F0DD
:103BE000A1800130A0EB0509C2E720682369984253
:103BF00002D863699F425DD2B84528BFB8464246A5
:103C0000494600F0FFFCA3682268A3EB0803424486
:103C1000A36022600BB1C24679E721460098FFF706
:103C2000C7FC002892D1C24671E75A46294600F0E7
:103C3000E9FCA2682368A2EB0B025B44A26023604C
:103C4000AFE72068B846BA46BB4655E762692068C8
:103C5000216902EB4208A0EB010A08EBD8780AF1CF
:103C600001004FEA680838444045424684BF804618
:103C700042465B0544D51146009800F013F983468F
:103C8000002855D05246216900F022FCA38923F474
:103C9000906343F08003A3810BEB0A00A8EB0A03B7
:103CA000C4F810B0C4F814802060A360B846BA46C7
:103CB000BB4621E76FF00041B94228BF39464A466A
:103CC00091FBF3F10098666A03FB01F3E169B047E9
:103CD000B0F1000A3FF71BAF38E71A4629460193B7
:103CE00000F090FC2268019B00981A442260214653
:103CF000FFF75EFC019B00287FF428AF1F4650E7CA
:103D0000009800F0E7FC83460028C5D1009D21699A
:103D10002846FFF7B7FDB4F90C300C2223F08003DE
:103D20002A6015E706F1010922E74FF0FF30BFE6F0
:103D3000009A0C231360B4F90C3009E700FCFF7FF4
:103D40002DE9F84310F538771FD0884606464FF026
:103D500000097D68BC68013D11D4A389012B05F1E0
:103D6000FF3508D9B4F90E3001332146304602D070
:103D7000C04749EA00096B1C04F16804EDD13F68B3
:103D8000002FE6D14846BDE8F883B9464846BDE86D
:103D9000F88300BF044B054A1B685B6B002B08BF10
:103DA000134693F8280170470C0040203804402047
:103DB00070B50C46B1F90E10002990B015461E469C
:103DC00014DB01AA00F0CCFF00280FDB029A02F4FA
:103DD0007042A2F50052B2FA82F252094FF48063A7
:103DE0004FF4006032602B6010B070BDA2890023D8
:103DF00012F08000336004D0402218462A6010B0D0
:103E000070BD4FF480632B6010B070BD8A8992073B
:103E10000B4606D501F1430201211A601A6159616E
:103E20007047F0B583B001AB6A460C460546FFF714
:103E3000BFFF00990646284600F034F8B4F90C306C
:103E4000D0B1019A124F0099EF6343F08003A38130
:103E50002060206161611AB93343A38103B0F0BDD2
:103E60002846B4F90E1000F08FFFB4F90C3000288A
:103E7000F2D043F00103EFE79A05EFD404F14302D7
:103E800043F002030121A381226022616161E5E721
:103E9000DD354000024B0146186800F003B800BF52
:103EA0000C0040202DE9F04F01F10B06162E83B0D7
:103EB000054640F29E8036F0070600F1BD80B14213
:103EC00000F2BA8000F002FCB6F5FC7FC0F09382ED
:103ED000730A00F0B880042B00F27981B30903F172
:103EE000390003F1380EC300BF4F3B44A3F1080172
:103EF0005C68A14206D10CE0002A80F2AA80E46846
:103F0000A14206D0636823F003039A1B0F2AF3DD56
:103F100070463C69DFF8E4E2744500F0AB81636809
:103F200023F003039A1B0F2A00F39081002AC7F89D
:103F300014E0C7F810E080F29D80B3F5007F80F0B8
:103F40006181DB0803F1010C99107A6857F83C8015
:103F5000C4F8088001238B4007EBCC0113430839D8
:103F6000E1607B6047F83C40C8F80C4082100124B7
:103F700094409C4200F28B801C4206D120F003004A
:103F800064001C4200F10400FAD007EBC009CC46E3
:103F90008046DCF80C309C4507D16DE1002A80F2A8
:103FA0007B81DB689C4500F06781596821F0030143
:103FB0008A1B0F2AF2DDD3F80CC0D3F808800093D7
:103FC0009C19284646F0010642F001055E60C8F8DB
:103FD0000CC0CCF808807C613C61C4F80CE0C4F8EB
:103FE00008E065605A5000F073FB009B03F1080481
:103FF0001EE0102920D800F069FB102618230220AB
:10400000794F3B44A3F108025C68944200F03D8183
:104010006368E168A66823F00303234428465A68CE
:10402000F16042F001028E605A6000F051FB0834EA
:10403000204603B0BDE8F08F00240C2320462B60FF
:1040400003B0BDE8F08F40204FF400734FF03F0EF7
:104050004AE72344E1685A68A66842F00102F16029
:1040600028468E605A6000F033FB0834204603B0C7
:10407000BDE8F08F234428465A6842F001025A6096
:1040800000F026FB0834204603B0BDE8F08FBC6882
:10409000636823F00308B04504D3A8EB06030F2B95
:1040A00000F38580DFF85891504BD9F800201B6849
:1040B0000132334404EB080A00F0558103F58053C4
:1040C0000F3323F47F6B2BF00F0B5946284600F07B
:1040D000A7FC411C024600F0FC80824500F2F780FC
:1040E000434B19685944196000F04D81D9F800001C
:1040F00001301BBFA2EB0A0A5144C9F80020196025
:1041000012F0070100F01581C1F10800C1F58051DE
:104110000244083102EB0B09C9F30B09A1EB0909B1
:10412000494628460193009200F07AFC431C9DE822
:104130000C0000F04381801A484440F001001968E7
:10414000BA604944BC425060196017D0B8F10F0FF3
:1041500040F2FB806068A8F10C0222F0070204EB39
:10416000020E00F001004FF0050C10430F2A6060B2
:10417000CEF804C0CEF808C000F217811D4BBC6811
:104180001A68914288BF19601B4B1A689142626895
:1041900088BF196022F003029642A2EB060301D801
:1041A0000F2B04DC284600F093FA002440E7A21904
:1041B00043F0010346F0010666602846BA6053608A
:1041C00000F086FA0834204603B0BDE8F08F142BC7
:1041D00071D9542B00F2A380330B03F16F0003F16C
:1041E0006E0EC30080E600BFA4054020800A402078
:1041F000500A4020780A40207C0A4020AC0540202C
:10420000AC0940205A0A042A5BD9142A00F2AE8075
:1042100002F15C01C9005B3207EB010C7958ACF18B
:10422000080C8C4500F088804A6822F00302934213
:1042300073D289688C45F7D1DCF80C207B68E2608A
:10424000C4F808C09460CCF80C408FE6A11946F081
:10425000010C42F00106C4F804C0284679613961B6
:10426000C1F80CE0C1F808E04E60E25000F030FA0E
:104270000834DDE67B6879E608F1010818F0030FE1
:104280000CF1080C7FF485AE2DE0DC68A34208BF7A
:1042900002303FF43EAEBBE619441C464A68DB6878
:1042A00054F8086F42F001024A602846F3609E60AD
:1042B00000F00EFABCE603F15C0003F15B0EC300F4
:1042C00012E69A0902F13901C9003832A4E7BC426A
:1042D00054D0BC68626822F003025DE759F80839DF
:1042E000994540F0868010F0030F00F1FF30F5D1C2
:1042F0007B6823EA04037B6064009C423FF6C7AE00
:10430000002C3FF4C4AE1C4240467FF43EAE640035
:104310001C4200F10400FAD037E68C468CE7B3F576
:10432000AA7F15D8F30B03F1780003F1770EC300D1
:10433000DAE54FF48051EDE67B689210012101FA35
:1043400002F213437B60624679E70123536029E759
:1043500040F25452934222D8B30C03F17D0003F192
:104360007C0EC300C0E503F1100BAEE6542A29D839
:104370001A0B02F16F01C9006E324DE7204B19682C
:1043800059441960B2E6CAF30B0000287FF4AEAEC0
:1043900008EB0B03BA6843F001035360EEE67F209D
:1043A0004FF47E734FF07E0E9EE504F1080128461F
:1043B0000093FFF767FA009B1968DFE601204FF0D2
:1043C0000009BCE6B2F5AA7F05D8DA0B02F1780144
:1043D000C900773220E740F254518A4205D89A0C3E
:1043E00002F17D01C9007C3216E74FF47E717E2216
:1043F00012E77B6880E7F00806F1080300E600BFDB
:10440000500A402082B049B15AB16BB113780B60A9
:104410001278101C18BF012002B0704701A9002AB1
:10442000F3D1104602B070476FF00100F4E700BF0F
:1044300001F0FF01102A2BDB10F0070F08D010F855
:10444000013B013A8B422DD010F0070F42B3F6D159
:10445000F0B441EA012141EA014122F007047FF072
:1044600000070023F0E80256083C85EA010586EAC9
:10447000010685FA47F5A3FA87F586FA47F6A5FA05
:1044800087F68EB9EED1F0BC01F0FF0102F0070211
:1044900032B110F8013B013A83EA010313B1F8D1BC
:1044A0000020704701387047002D06BF354603389D
:1044B000073815F0010F07D1013015F4807F02BFD6
:1044C000013015F4C03F0130F0BC0138704700BF27
:1044D000844641EA000313F003036DD1403A41D30F
:1044E00051F8043B40F8043B51F8043B40F8043BCE
:1044F00051F8043B40F8043B51F8043B40F8043BBE
:1045000051F8043B40F8043B51F8043B40F8043BAD
:1045100051F8043B40F8043B51F8043B40F8043B9D
:1045200051F8043B40F8043B51F8043B40F8043B8D
:1045300051F8043B40F8043B51F8043B40F8043B7D
:1045400051F8043B40F8043B51F8043B40F8043B6D
:1045500051F8043B40F8043B51F8043B40F8043B5D
:10456000403ABDD2303211D351F8043B40F8043BFD
:1045700051F8043B40F8043B51F8043B40F8043B3D
:1045800051F8043B40F8043B103AEDD20C3205D30D
:1045900051F8043B40F8043B043AF9D2043208D005
:1045A000D2071CBF11F8013B00F8013B01D30B8877
:1045B00003806046704700BF082A13D38B078DD055
:1045C00010F003038AD0C3F10403D21ADB071CBF27
:1045D00011F8013B00F8013B80D331F8023B20F891
:1045E000023B7BE7043AD9D3013A11F8013B00F8CA
:1045F000013BF9D20B7803704B7843708B78837052
:10460000604670478842F0B50DD98B1898420AD29F
:104610008418002A51D0224613F8014D02F8014DAA
:104620009942F9D1F0BD0F2A48D941EA00039B070E
:1046300046D100F1100401F11003154653F8106C37
:1046400044F8106C53F80C6C44F80C6C53F8086C7C
:1046500044F8086C103D53F8046C44F8046C0F2DBA
:1046600003F1100304F11004E8D8A2F1100323F0C1
:104670000F0302F00F0E1033BEF1030F1944034471
:1046800021D91E1F0D467446043C55F8047B46F89C
:10469000047F032CF8D8AEF1040424F0030404349E
:1046A0002144234402F0030262B1013B0A4411F8A1
:1046B000014B03F8014F8A42F9D1F0BD0346F3E7FD
:1046C0000346F2E7F0BD7246EEE700BF704700BF59
:1046D000704700BF002900F095802DE9F04F0D468E
:1046E000164683B0804606F10B07FFF7EFFF55F83B
:1046F00004EC162F2EF00304A5F108093CD8102273
:104700001746BE423DD8944243DAC44B996809EB40
:104710000400884200F0B480436823F001010144A2
:104720004968C9074CD51EF0010F00F09B80314647
:104730004046FFF7B7FB064600283AD055F8043C40
:1047400023F001034B44A0F108029A4200F02181BA
:10475000221F242A00F20781132A00F2DB8003467D
:104760002A46116819605168596092689A60294612
:104770004046FFF787F81CE027F00707002F3A466E
:10478000BFDA00260C233046C8F8003003B0BDE87D
:10479000F08F2E46E31B0F2B1ED8D9F8043003F000
:1047A000010323434C44C9F80430636843F0010318
:1047B00063604046FFF78CFF304603B0BDE8F08FE2
:1047C00023F00303E11891421FDBC36882682E4681
:1047D000D3600C469A60DDE7D9F8042009EB0701A5
:1047E00002F001024C4443F001031743C9F804707E
:1047F0004B60636843F00103083163604046FFF794
:1048000041F8D6E71146FFF74DBB1EF0010F8ED1E0
:1048100055F8081CA9EB010ADAF8041021F003018D
:104820000B442344934225DBC26881685646CA6024
:104830009160DAF80C1056F8080F221F242AC16084
:10484000886000F29480132A6FD92968CAF808108A
:104850006968CAF80C101B2A00F2A28008350AF118
:10486000100263E055F8083CA9EB030ADAF80410DB
:1048700021F0030163189342FFF659AF5646D8E77B
:10488000416821F0030BA34407F11000834556DA79
:104890001EF0010F7FF44BAF55F8081CA9EB010A7D
:1048A000DAF8041021F003018B445845E2DC564647
:1048B000DAF80C1056F8080F221F242AC16088600D
:1048C00000F28F80132A40F28A802968CAF8081003
:1048D0006968CAF80C101B2A00F28A8008350AF1B0
:1048E00010022968116069685160A96891600AEB3B
:1048F0000701ABEB070242F0010299604A60DAF867
:10490000043003F001031F434046CAF80470FFF768
:10491000DFFE51E72B6803606B6843601B2A2DD8CC
:1049200000F1080305F108021BE73246296811600F
:1049300069685160A96891601C46D1462AE709EB75
:104940000701ABEB070B4BF0010299604A6055F889
:10495000043C03F001031F43404645F8047CFFF785
:10496000B7FE2E4628E72946FFF74CFEFFE629460C
:1049700030461C46D146FFF745FE0BE7AB68836027
:10498000EB68C360242A17D000F1100305F1100270
:10499000E7E650F8043C23F003031C442E46F9E6F6
:1049A000A968CAF81010E968CAF81410242A0CD0B3
:1049B00010350AF11802B9E72B6903616B6943618D
:1049C00005F1180200F11803CBE62A69CAF818208D
:1049D0006A69CAF81C2018350AF12002A6E7324697
:1049E0007FE7294630460193FFF70CFE019B7EE7E7
:1049F000A968CAF81010E968CAF81410242A03D06C
:104A000010350AF118026CE72A69CAF818206A6999
:104A1000CAF81C2018350AF1200262E7A4054020DC
:104A200038B5074C0023054608462360FCF78EFF87
:104A3000431C00D038BD2368002BFBD02B6038BD51
:104A4000900A402010B50C46B1F90E1000F0C4F9E0
:104A5000002803DB236D0344236510BDA38923F4E1
:104A60008053A38110BD00BF2DE9F0411646B1F976
:104A70000C201F46D3050C46054607D5002202230D
:104A8000B1F90E1000F092F9B4F90C20B4F90E103F
:104A900022F48052A2813B4632462846BDE8F041CE
:104AA00000F0A4B810B50C46B1F90E1000F07EF974
:104AB000A389421C0EBF23F4805343F48053206526
:104AC000A38110BDB1F90E1000F0F8B8F8B50D468D
:104AD0001446064610B1836B002B4BD0B4F90C2062
:104AE000A369A36091B2080739D52369002B36D09A
:104AF000EDB289042F4615D522686169D31A8B421D
:104B00001CDA0133A168501C0139A16020601570C6
:104B100062699A421AD0A389DB0701D50A2D15D004
:104B20003846F8BD616E42F4005221F40051A28172
:104B3000226861666169D31A8B42E2DB2146304606
:104B4000FEF736FD40B922680123DBE721463046F7
:104B5000FEF72EFD0028E3D04FF0FF37E0E72146B7
:104B60003046FEF711FC0028F6D1B4F90C20236979
:104B700091B2BDE7FEF7B0FDB0E700BFF0B5064665
:104B800085B01F4689B1104C104D2468646B002C11
:104B900008BF2C46D4F8E040A047431C03D10022B4
:104BA0008A233A60336005B0F0BD0C460649074AD7
:104BB0000968496B002908BF11462246D1F8E04038
:104BC00001A9A047E9E700BF0C00402038044020BD
:104BD00021B1FF2A04D80A700120704708467047A7
:104BE0008A2303604FF0FF30704700BF70B50D4659
:104BF000084C114606461A46284600232360FBF758
:104C0000BDFC431C00D070BD2368002BFBD033607B
:104C100070BD00BF900A40202DE9F047254C256863
:104C2000D5F848410646884692469946C4B360681E
:104C30001F2817DC431C76B104EB80050122C5F860
:104C400088A0D4F8881182401143022EC4F888113C
:104C5000C5F808911ED00230636044F8208000201F
:104C6000BDE8F087144B03B34FF4C870FFF712F997
:104C70000446D0B1D5F84831002780E88800C5F84F
:104C8000484138460123C4F88871C4F88C71002E5D
:104C9000E1D0D1E7D4F88C110A43C4F88C21DAE7CB
:104CA00005F5A674C5F84841C1E74FF0FF30BDE8EF
:104CB000F08700BF38524000953E400038B5074CA1
:104CC0000023054608462360FCF76CFE431C00D019
:104CD00038BD2368002BFBD02B6038BD900A4020E4
:104CE00070B539B105460C4608B1836B83B3B4F98E
:104CF0000C3013B90026304670BD21462846FEF719
:104D0000B7FBE36A064633B1E169284698470028B5
:104D1000B8BF4FF0FF36A3891B061CD4216B41B1ED
:104D200004F14003994202D02846FEF7ABFD002370
:104D30002363616C21B12846FEF7A4FD0023636460
:104D4000FEF7D0FC0023A381FEF7CEFC304670BDF9
:104D5000FEF7C2FCCBE721692846FEF793FDDDE7AD
:104D600038B50B46074C054611461846002323600C
:104D7000FCF724FE431C00D038BD2368002BFBD079
:104D80002B6038BD900A402038B5074C00230546FB
:104D900008462360FCF722FE431C00D038BD236880
:104DA000002BFBD02B6038BD900A402070B50D461B
:104DB000084C114606461A46284600232360FCF795
:104DC00018FE431C00D070BD2368002BFBD033605D
:104DD00070BD00BF900A402070B50D46084C1146CA
:104DE00006461A46284600232360FBF79DFB431C1A
:104DF00000D070BD2368002BFBD0336070BD00BFB6
:104E0000900A402053B94AB9002908BF00281CBFA6
:104E10004FF0FF314FF0FF3000F07AB9ADF1080CE0
:104E20006DE904CE00F006F8DDF804E0DDE90223C8
:104E300004B070472DE9F0478C460D460446089EA5
:104E4000002B51D18A4217466DD9B2FA82FEBEF1CB
:104E5000000F0BD0CEF1200C01FA0EF520FA0CFC5D
:104E600002FA0EF74CEA050C00FA0EF44FEA174A64
:104E7000250CBCFBFAF81FFA87F90AFB18CC45EAA7
:104E80000C4508FB09F3AB420AD9ED1908F1FF32D2
:104E900080F02381AB4240F22081A8F102083D441A
:104EA000ED1AA4B2B5FBFAF00AFB105544EA05442A
:104EB00000FB09F9A14509D9E41900F1FF3380F09D
:104EC0000A81A14540F2078102383C44A4EB090461
:104ED00040EA08400021002E61D024FA0EF400239D
:104EE00034607360BDE8F0878B4207D9002E54D040
:104EF000002186E821000846BDE8F087B3FA83F177
:104F0000002940F08E80AB4202D3824200F2FA8048
:104F1000841A65EB03050120AC46002E3FD086E8DD
:104F20001010BDE8F08712B90127B7FBF2F7B7FA06
:104F300087FEBEF1000F34D1EB1B3A0C1FFA87FC41
:104F40000121B3FBF2F8250C02FB183345EA0345B7
:104F50000CFB08F3AB4207D9ED1908F1FF3002D280
:104F6000AB4200F2D1808046ED1AA3B2B5FBF2F05D
:104F700002FB105543EA05440CFB00FCA44507D98D
:104F8000E41900F1FF3302D2A44500F2B8801846BC
:104F9000A4EB0C0440EA08409DE731463046BDE8EA
:104FA000F087CEF1200405FA0EF307FA0EF720FA87
:104FB00004F83A0C25FA04F448EA0308B4FBF2F1C9
:104FC0004FEA184502FB11441FFA87FC45EA0445E5
:104FD00001FB0CF3AB4200FA0EF409D9ED1901F113
:104FE000FF3080F08A80AB4240F2878002393D4436
:104FF000EB1A1FFA88F5B3FBF2F002FB103345EA17
:10500000034500FB0CF3AB4207D9ED1900F1FF3863
:105010006FD2AB426DD902383D44EB1A40EA0141F0
:105020008FE7C1F1200722FA07F88B4005FA01F457
:1050300048EA030320FA07FE4FEA134CFD404EEA0C
:10504000040EB5FBFCF94FEA1E440CFB19551FFA80
:1050500083F844EA054509FB08F4AC4202FA01F280
:1050600000FA01FA08D9ED1809F1FF3043D2AC4239
:1050700041D9A9F102091D442D1B1FFA8EFEB5FB73
:10508000FCF00CFB10554EEA054400FB08F8A04567
:1050900007D9E41800F1FF3529D2A04527D90238F5
:1050A0001C4440EA0940A4EB0804A0FB02894C45DB
:1050B000C6464D4615D312D056B1BAEB0E0364EB7B
:1050C000050404FA07F7CB401F43CC4037607460F7
:1050D0000021BDE8F0871846F8E69046E0E6C245B4
:1050E000EAD2B8EB020E69EB03050138E4E7284683
:1050F000D7E7404691E78146BEE7014678E70238A8
:105100003C4445E7084608E7A8F102083D442BE780
:10511000704700BF00C20100C0000000000800008E
:10512000000000002D2D2047657474696E672053C0
:10513000746172746564204578616D706C65202DB2
:105140002D0D0A2D2D2053414D4537302D58504CF3
:1051500044202D2D0D0A2D2D20436F6D70696C6537
:10516000643A2044656320203820323031372031C2
:10517000353A34313A3430202D2D0D00436F6E66B0
:1051800069677572652073797374656D20746963DE
:105190006B20746F2067657420316D7320746963B0
:1051A0006B20706572696F642E0D00002D462D20F6
:1051B0005379737469636B20636F6E666967757288
:1051C0006174696F6E206572726F720D000000006D
:1051D000436F6E66696775726520627574746F6E71
:1051E000732077697468206465626F756E63696E99
:1051F000672E0D004C454430202879656C6C6F7724
:1052000029000000535730005072657373202573D6
:1052100020746F2053746172742F53746F702074F4
:10522000686520257320626C696E6B696E672E0D50
:105230000A00000031200000100040200A00000099
:1052400030313233343536373839414243444546BC
:10525000000000003031323334353637383961627E
:105260006364656600000000286E756C6C290000A0
:10527000202020202020202020202020202020202E
:10528000303030303030303030303030303030301E
:1052900043000000504F5349580000002E0000000A
:1052A00000202020202020202020282828282820F6
:1052B00020202020202020202020202020202020EE
:1052C0002088101010101010101010101010101056
:1052D0001004040404040404040404101010101046
:1052E0001010414141414141010101010101010110
:1052F0000101010101010101010101011010101062
:1053000010104242424242420202020202020202E1
:105310000202020202020202020202021010101035
:10532000200000000000000000000000000000005D
:10533000000000000000000000000000000000006D
:10534000000000000000000000000000000000005D
:10535000000000000000000000000000000000004D
:10536000000000000000000000000000000000003D
:10537000000000000000000000000000000000002D
:10538000000000000000000000000000000000001D
:10539000000000000000000000000000000000000D
:1053A00000000000F8B500BFF8BC08BC9E4670477E
:1053B0005134400065014000F8B500BFF8BC08BC9E
:0853C0009E46704741014000C8
:0853C8006CFAFF7F01000000F8
:1053D0000100000000093D00010000001000402015
:1053E00000000000FC02402064034020CC03402069
:1053F00000000000000000000000000000000000AD
:10540000000000000000000000000000000000009C
:10541000000000000000000000000000000000008C
:10542000000000000000000000000000000000007C
:10543000000000000000000000000000000000006C
:10544000000000000000000000000000000000005C
:10545000000000000000000000000000000000004C
:10546000000000000000000000000000000000003C
:10547000000000000000000000000000000000002C
:10548000000000000000000001000000000000001B
:105490000E33CDAB34126DE6ECDE05000B000000E0
:1054A00000000000000000000000000000000000FC
:1054B00000000000000000000000000000000000EC
:1054C00000000000000000000000000000000000DC
:1054D00000000000000000000000000000000000CC
:105800000000000000000000430000000000000055
:105810000000000000000000000000000000000088
:105820000000000000000000430000000000000035
:105830000000000000000000000000000000000068
:105840000000000000000000430000000000000015
:105850000000000000000000000000000000000048
:1058600000000000000000004300000000000000F5
:105870000000000000000000000000000000000028
:1058800000000000000000004300000000000000D5
:105890000000000000000000000000000000000008
:1058A00000000000000000004300000000000000B5
:1058B00000000000000000000000000000000000E8
:1058C0000000000000000000430000000000000095
:1058D00000000000000000000000000000000000C8
:1058E0000000000000000000D14B400005444000D3
:1058F00000000000A05240009C5240005052400066
:10590000505240005052400050524000505240000F
:1059100050524000505240005052400050524000FF
:10592000FFFFFFFFFFFFFFFFFFFFFFFFFFFF000085
:1059300001004153434949000000000000000000FD
:105940000000000000000000000000000000000057
:1059500000004153434949000000000000000000DE
:105960000000000000000000000000000000000037
:10597000000000000000000000000000A40540201E
:10598000A4054020AC054020AC054020B4054020D3
:10599000B4054020BC054020BC054020C405402083
:1059A000C4054020CC054020CC054020D405402033
:1059B000D4054020DC054020DC054020E4054020E3
:1059C000E4054020EC054020EC054020F405402093
:1059D000F4054020FC054020FC0540200406402042
:1059E000040640200C0640200C06402014064020EF
:1059F000140640201C0640201C064020240640209F
:105A0000240640202C0640202C064020340640204E
:105A1000340640203C0640203C06402044064020FE
:105A2000440640204C0640204C06402054064020AE
:105A3000540640205C0640205C064020640640205E
:105A4000640640206C0640206C064020740640200E
:105A5000740640207C0640207C06402084064020BE
:105A6000840640208C0640208C064020940640206E
:105A7000940640209C0640209C064020A40640201E
:105A8000A4064020AC064020AC064020B4064020CE
:105A9000B4064020BC064020BC064020C40640207E
:105AA000C4064020CC064020CC064020D40640202E
:105AB000D4064020DC064020DC064020E4064020DE
:105AC000E4064020EC064020EC064020F40640208E
:105AD000F4064020FC064020FC064020040740203D
:105AE000040740200C0740200C07402014074020EA
:105AF000140740201C0740201C074020240740209A
:105B0000240740202C0740202C0740203407402049
:105B1000340740203C0740203C07402044074020F9
:105B2000440740204C0740204C07402054074020A9
:105B3000540740205C0740205C0740206407402059
:105B4000640740206C0740206C0740207407402009
:105B5000740740207C0740207C07402084074020B9
:105B6000840740208C0740208C0740209407402069
:105B7000940740209C0740209C074020A407402019
:105B8000A4074020AC074020AC074020B4074020C9
:105B9000B4074020BC074020BC074020C407402079
:105BA000C4074020CC074020CC074020D407402029
:105BB000D4074020DC074020DC074020E4074020D9
:105BC000E4074020EC074020EC074020F407402089
:105BD000F4074020FC074020FC0740200408402038
:105BE000040840200C0840200C08402014084020E5
:105BF000140840201C0840201C0840202408402095
:105C0000240840202C0840202C0840203408402044
:105C1000340840203C0840203C08402044084020F4
:105C2000440840204C0840204C08402054084020A4
:105C3000540840205C0840205C0840206408402054
:105C4000640840206C0840206C0840207408402004
:105C5000740840207C0840207C08402084084020B4
:105C6000840840208C0840208C0840209408402064
:105C7000940840209C0840209C084020A408402014
:105C8000A4084020AC084020AC084020B4084020C4
:105C9000B4084020BC084020BC084020C408402074
:105CA000C4084020CC084020CC084020D408402024
:105CB000D4084020DC084020DC084020E4084020D4
:105CC000E4084020EC084020EC084020F408402084
:105CD000F4084020FC084020FC0840200409402033
:105CE000040940200C0940200C09402014094020E0
:105CF000140940201C0940201C0940202409402090
:105D0000240940202C0940202C094020340940203F
:105D1000340940203C0940203C09402044094020EF
:105D2000440940204C0940204C094020540940209F
:105D3000540940205C0940205C094020640940204F
:105D4000640940206C0940206C09402074094020FF
:105D5000740940207C0940207C09402084094020AF
:105D6000840940208C0940208C094020940940205F
:105D7000940940209C0940209C094020FFFFFFFF20
:045D8000000002001D
:04000005004016950C
:00000001FF
