:020000040040BA
:1000000098254020190740001707400017074000B7
:1000100017074000170740001707400000000000C6
:100020000000000000000000000000001707400072
:1000300017074000000000001707400017074000A6
:100040001707400017074000170740001707400038
:100050001707400017074000170740001707400028
:100060001707400000000000210440003504400054
:1000700049044000170740007D0A40001707400070
:100080005D0440007104400017074000170740005E
:1000900017074000170740001707400017074000E8
:1000A00017074000170740001707400017074000D8
:1000B00017074000170740001707400017074000C8
:1000C00017074000170740001707400017074000B8
:1000D0000000000017074000000000001707400064
:1000E0001707400017074000170740001707400098
:1000F0001707400017074000170740001707400088
:100100001707400017074000170740001707400077
:100110001707400000000000000000000000000081
:100120001707400017074000170740001707400057
:1001300017074000000000001707400017074000A5
:1001400010B5054C237833B9044B13B10448AFF311
:1001500000800123237010BD3804402000000000FF
:10016000640D40000C4B43B10C480D4910B5AFF382
:1001700000800C48036823B910BD0A48036833B9EE
:100180007047094B002BF7D0BDE810401847064BCD
:10019000002BF5D0184700BF00000000640D4000A0
:1001A0003C044020640D40000000000010B51048E1
:1001B000104B98473E2100200F4B98470F4CA0470B
:1001C0000028FCD00E4B98470E4A0F4B9A620F4CFA
:1001D000A0470028FCD002200D4B984700200D4B73
:1001E00098470D4B98470248024B984710BD00BFF7
:1001F00000A3E111ED084000210540007505400015
:1002000085054000013F182000060E40950540007E
:1002100085044000BD044000E107400001637047D1
:10022000416370474264B1F1C05F3AD013D8B1F175
:10023000006F25D0B1F1805F0AD1036F13430367CC
:10024000436F416F0B4023EA0203436742607047EC
:100250000029FBD17047B1F1205F21D009D8B1F15D
:10026000005FF3D1036F13430367436F1343436787
:10027000ECE7B1F1405F13D0B1F1605F10D0E5E77A
:1002800010B4016F046FD34321401C46194001672D
:10029000436F416F0B402340436742605DF8044B5E
:1002A0007047036F016F0B4023EA02030367436F3C
:1002B00013434367CAE7416412F0010F0DD1016691
:1002C00012F00A0F0BD0016212F0020F09D112F0E6
:1002D000080F08D0C0F8841005E04166F0E74162DD
:1002E000F2E7C0F8801041610160704710B4019CD2
:1002F00041644CB901664BB101654AB94163016182
:1003000001605DF8044B70474166F4E74165F4E72E
:100310000163F4E7836B0B4214BF01200020704798
:1003200012F0100F12D0C0F8B01012F0200F07D04A
:10033000C0F8D41012F0400F05D0C0F8C0107047BC
:10034000C0F8D010F6E7C0F8C4107047C0F8B41079
:10035000704701647047C06C7047806C7047000044
:100360002DE9F041044688460E4B98470546204645
:100370000D4B9847054013D00C4C04F1600603E088
:10038000B4420DD010345DB120684045F8D16168A9
:100390002942F5D0E3689847636825EA0305EFE74B
:1003A000BDE8F081570340005B0340005404402047
:1003B000F8B5184C2668062E2AD84FF0000C644673
:1003C000154F04E00134E4B2A446A64209D3A64680
:1003D00025017D598D42F5D107EB04156D689542D5
:1003E000F0D10D4D4FEA0E1E05EB0E0445F80E1030
:1003F0006260A3600699E1600136664505D011464A
:100400001A46064B98470020F8BD02490E60F6E7F1
:100410000120F8BDC40440205404402021034000C2
:1004200008B50A210148024B984708BD000E0E404E
:100430006103400008B50B210148024B984708BDF5
:1004400000100E406103400008B50C210148024B2A
:10045000984708BD00120E406103400008B5102106
:100460000148024B984708BD00140E40610340004C
:1004700008B511210148024B984708BD00160E40EF
:1004800061034000032811D0042812D002280CBFB9
:100490004FF480710021084A136B23F440730B431F
:1004A0001363936E13F0080FFBD070474FF4407145
:1004B000F1E74FF40071EEE700060E40174A136BA8
:1004C00023F0700318431063936E13F0080F0AD1E2
:1004D0004FF4805311498A6E12F0080F03D1013B8B
:1004E000F9D1012070470D4A136B23F0030343F049
:1004F00002031363936E13F0080F0AD14FF4805375
:1005000006498A6E12F0080F05D1013BF9D101208E
:100510007047002070470020704700BF00060E4063
:10052000A0B90E48036A090289B20D4A1A400D4B60
:100530001343194301620246936E13F0010FFBD07F
:10054000064A116A084B0B431362704703490B6A52
:10055000064A1A40064B13430B62704700060E40D2
:10056000FCFFC8FF0100370000003701FCFFC8FE98
:1005700002003701024B986E00F48030704700BFD4
:1005800000060E404FF00052014B9A62704700BFC8
:1005900000060E40024B986E00F00200704700BF4C
:1005A00000060E403F281ED81F280CD8114B9A6910
:1005B00001238340934318D0012303FA00F00D4B2D
:1005C00018610020704720380A4BD3F80821012316
:1005D000834093430BD0012303FA00F0054BC3F88B
:1005E0000001002070470120704700207047002064
:1005F000704700BF00060E4010B40B01934214D99F
:10060000C9004B0803EBC202B2FBF1F2D3085C1E37
:100610004FF6FE718C4201D9012017E0416841F488
:10062000002141600CE0012010E0590801EBC202FA
:10063000B2FBF3F2D3085C1E4FF6FE718C42F2D887
:10064000120402F4E0221A43026200205DF8044B17
:1006500070470000084BC0F8E43000234360436259
:10066000836288230360242303604FF48073036054
:100670004FF40023036070470041535570B50546A1
:100680000C4616460F4B984700220F4B1A60A4B138
:100690003246216828460D4B9847024678B9636870
:1006A000A1680B4321690B43E1680B4306490B60CA
:1006B00069680B436B60104670BD0122FBE70122A5
:1006C000F9E700BF55064000C8044020F905400086
:1006D00040230360704710230360704740697047F0
:1006E0004069C0F340207047436913F0020F04D003
:1006F000C1F30801C16100207047012070474369C0
:1007000013F0010F05D08369C3F308030B600020C9
:10071000704701207047FEE700B583B0254B264A9D
:100720009A4210D0254B234A9A420CD2013B9B1A85
:1007300023F00303043313441F4951F8040B42F818
:10074000040B9A42F9D11E4B1E4A9A420AD2013B2F
:100750009B1A23F0030304331344002142F8041BC3
:100760009342FBD1184A194B23F07F039360EFF3B8
:100770001083B3FA83F35B09019372B6BFF35F8F03
:100780000022134B1A700199124A136843F4700344
:100790001360BFF34F8FBFF36F8F29B101220C4B52
:1007A0001A70BFF35F8F62B60B4B98470B4B98479D
:1007B000FEE700BF00004020640D400038044020E8
:1007C000940540203804402000ED00E00000400087
:1007D0000A00402088ED00E0F50B4000110B4000BE
:1007E0003B4B1B6B03F00303012B1DD083B1022B8A
:1007F00036D0374B1B6B03F07003702B5FD0344B3C
:100800001A6B3449C2F302120B68D3400B60704775
:10081000314B5B6913F0800F14BF4FF400424FF46B
:10082000FA422C4B1A60E4E7294B1B6A13F0807FD5
:1008300003D02A4A274B1A60DBE7294A254B1A6066
:10084000234B1B6A03F07003102B05D0202BD0D153
:10085000224A204B1A60CCE7224A1E4B1A60C8E796
:100860001B4B1B6A13F0807F16D01C4A194B1A6071
:10087000174B1B6B03F00303022BBAD1144A916A86
:10088000926A1448C1F30A41036801FB0333D2B2F0
:10089000B3FBF2F30360ACE7114A0E4B1A600C4B4A
:1008A0001B6A03F07003102B05D0202BE0D10B4AFC
:1008B000084B1A60DCE70B4A064B1A60D8E7054A7A
:1008C00013680949A1FB03135B081360704700BF5D
:1008D00000060E400C00402010180E40001BB70010
:1008E00000093D0000127A00ABAAAAAA124B984256
:1008F00011D9124B984213D9114B984214D9114B6C
:10090000984215D9104B984294BF4FF004220F4AD9
:100910000F4B1A6070474FF080620D4B1A607047A2
:100920000C4A0B4B1A6070470B4A094B1A60704710
:100930000A4A074B1A607047FF2C3101FF596202C7
:10094000FF869303FFB3C404FFE0F5050005000430
:10095000000C0E400001000400020004000300042B
:1009600038B504460D46064B984720B9294620461F
:10097000044B984738BD29462046034B984738BD5D
:10098000150340001D0240002102400010B54FF049
:1009900080510448044CA0474FF480710348A0479D
:1009A00010BD00BF00140E406109400000120E404F
:1009B00010B582B00A20104B9847104C09224FF412
:1009C000006120460E4B98474FF4006120460D4BC6
:1009D00098470D4B009350234FF400620A212046A4
:1009E0000A4CA0470A4B4FF480621A60202283F819
:1009F0000A2302B010BD00BFA5054000000E0E4046
:100A0000B7024000530340008D094000B10340008D
:100A100000E100E010B582B004460C20054B984779
:100A20000023009322464FF480710348034CA047F3
:100A300002B010BDA505400000120E40ED024000BE
:100A40002DE9F04105460A4E0A4C2B786BB1204641
:100A5000B0470028F9D095F80080074F414620465E
:100A6000B8470028FAD10135EFE70020BDE8F08152
:100A7000E106400000800240E906400070B582B007
:100A80000B480C4B984710F0010F01D102B070BD1C
:100A900002AC002344F8043D054E074D2146304684
:100AA000A8470028FAD10548054B9847EEE700BF54
:100AB00000800240DD064000FF0640003005402077
:100AC000410A40002DE9F04782B0824600F1FF382C
:100AD0000027B9460C4E0D4D02AC44F8049D21464A
:100AE0003046A8470028FAD19DF8043008F8013FA5
:100AF00001370A2BF0D1BA4400230AF8013C3846EA
:100B000002B0BDE8F08700BF00800240FF06400051
:100B100000B587B0244B98474FF40042234B5A60EE
:100B20000120234B9847234B98470B20224CA0478A
:100B30000A20A04710224FF000512048204DA8471E
:100B40004FF400124FF000611E48A8471E4AD2F829
:100B5000143143F01003C2F81431002303930493BB
:100B600005934FF4E1330093C02301934FF40063E6
:100B700002930E20A047154C154A69462046154B96
:100B800098472046144B98472046144B9847144CDE
:100B9000144E154D2046B0472046144B9847284622
:100BA000134B9847F6E700BFAD01400050180E40C8
:100BB000150A4000B1094000A505400000100E4094
:100BC00025024000000E0E400080084000800240D8
:100BD00080D1F0087D064000D1064000D7064000D5
:100BE000CC044020C50A40006BAF0303410A40001B
:100BF0000100402070B50F4E0F4D761BB61018BF88
:100C0000002405D0013455F8043B9847A642F9D199
:100C10000A4E0B4D761B00F093F8B61018BF002457
:100C200006D0013455F8043B9847A642F9D170BD6F
:100C300070BD00BF4C0D40004C0D4000540D4000F5
:100C40004C0D4000024B13B1024800F005B870474C
:100C500000000000650C4000002301461A461846BB
:100C600000F01AB838B50A4C0A4D641BA4100AD01B
:100C700004F18043013B05EB8305013C55F8043941
:100C80009847002CF9D1BDE8384000F063B800BFA8
:100C9000640D4000600D40002DE9F047254C2568AB
:100CA000D5F848410646884692469946C4B36068DE
:100CB0001F2817DC431C76B104EB80050122C5F820
:100CC00088A0D4F8881182401143022EC4F88811FC
:100CD000C5F808911ED00230636044F820800020DF
:100CE000BDE8F087144B03B34FF4C870AFF3008036
:100CF0000446D0B1D5F84831002780E88800C5F80F
:100D0000484138460123C4F88871C4F88C71002E1C
:100D1000E1D0D1E7D4F88C110A43C4F88C21DAE78A
:100D200005F5A674C5F84841C1E74FF0FF30BDE8AE
:100D3000F08700BF3C0D4000000000001000402084
:100D4000F8B500BFF8BC08BC9E467047450C400093
:100D500065014000F8B500BFF8BC08BC9E4670476E
:040D6000410140000D
:100D6400BFF35F8F0138FBD17047010000093D00DC
:100D740000000000FC02402064034020CC0340201B
:100D8400000000000000000000000000000000005F
:100D9400000000000000000000000000000000004F
:100DA400000000000000000000000000000000003F
:100DB400000000000000000000000000000000002F
:100DC400000000000000000000000000000000001F
:100DD400000000000000000000000000000000000F
:100DE40000000000000000000000000000000000FF
:100DF40000000000000000000000000000000000EF
:100E040000000000000000000000000000000000DE
:100E140000000000000000000100000000000000CD
:100E24000E33CDAB34126DE6ECDE05000B00000092
:100E340000000000000000000000000000000000AE
:100E4400000000000000000000000000000000009E
:100E5400000000000000000000000000000000008E
:100E6400000000000000000000000000000000007E
:040000050040071997
:00000001FF
